{"contracts/TokensERC1155.sol":{"TokensERC1155":{"abi":[{"inputs":[],"stateMutability":"nonpayable","type":"constructor"},{"inputs":[{"internalType":"address","name":"sender","type":"address"},{"internalType":"uint256","name":"balance","type":"uint256"},{"internalType":"uint256","name":"needed","type":"uint256"},{"internalType":"uint256","name":"tokenId","type":"uint256"}],"name":"ERC1155InsufficientBalance","type":"error"},{"inputs":[{"internalType":"address","name":"approver","type":"address"}],"name":"ERC1155InvalidApprover","type":"error"},{"inputs":[{"internalType":"uint256","name":"idsLength","type":"uint256"},{"internalType":"uint256","name":"valuesLength","type":"uint256"}],"name":"ERC1155InvalidArrayLength","type":"error"},{"inputs":[{"internalType":"address","name":"operator","type":"address"}],"name":"ERC1155InvalidOperator","type":"error"},{"inputs":[{"internalType":"address","name":"receiver","type":"address"}],"name":"ERC1155InvalidReceiver","type":"error"},{"inputs":[{"internalType":"address","name":"sender","type":"address"}],"name":"ERC1155InvalidSender","type":"error"},{"inputs":[{"internalType":"address","name":"operator","type":"address"},{"internalType":"address","name":"owner","type":"address"}],"name":"ERC1155MissingApprovalForAll","type":"error"},{"inputs":[],"name":"EnforcedPause","type":"error"},{"inputs":[],"name":"ExpectedPause","type":"error"},{"anonymous":false,"inputs":[{"indexed":true,"internalType":"address","name":"account","type":"address"},{"indexed":true,"internalType":"address","name":"operator","type":"address"},{"indexed":false,"internalType":"bool","name":"approved","type":"bool"}],"name":"ApprovalForAll","type":"event"},{"anonymous":false,"inputs":[{"indexed":false,"internalType":"address","name":"account","type":"address"}],"name":"Paused","type":"event"},{"anonymous":false,"inputs":[{"indexed":true,"internalType":"address","name":"operator","type":"address"},{"indexed":true,"internalType":"address","name":"from","type":"address"},{"indexed":true,"internalType":"address","name":"to","type":"address"},{"indexed":false,"internalType":"uint256[]","name":"ids","type":"uint256[]"},{"indexed":false,"internalType":"uint256[]","name":"values","type":"uint256[]"}],"name":"TransferBatch","type":"event"},{"anonymous":false,"inputs":[{"indexed":true,"internalType":"address","name":"operator","type":"address"},{"indexed":true,"internalType":"address","name":"from","type":"address"},{"indexed":true,"internalType":"address","name":"to","type":"address"},{"indexed":false,"internalType":"uint256","name":"id","type":"uint256"},{"indexed":false,"internalType":"uint256","name":"value","type":"uint256"}],"name":"TransferSingle","type":"event"},{"anonymous":false,"inputs":[{"indexed":false,"internalType":"string","name":"value","type":"string"},{"indexed":true,"internalType":"uint256","name":"id","type":"uint256"}],"name":"URI","type":"event"},{"anonymous":false,"inputs":[{"indexed":false,"internalType":"address","name":"account","type":"address"}],"name":"Unpaused","type":"event"},{"inputs":[{"internalType":"address","name":"account","type":"address"},{"internalType":"uint256","name":"id","type":"uint256"}],"name":"balanceOf","outputs":[{"internalType":"uint256","name":"","type":"uint256"}],"stateMutability":"view","type":"function"},{"inputs":[{"internalType":"address[]","name":"accounts","type":"address[]"},{"internalType":"uint256[]","name":"ids","type":"uint256[]"}],"name":"balanceOfBatch","outputs":[{"internalType":"uint256[]","name":"","type":"uint256[]"}],"stateMutability":"view","type":"function"},{"inputs":[{"internalType":"address","name":"account","type":"address"},{"internalType":"uint256","name":"id","type":"uint256"},{"internalType":"uint256","name":"value","type":"uint256"}],"name":"burn","outputs":[],"stateMutability":"nonpayable","type":"function"},{"inputs":[{"internalType":"address","name":"account","type":"address"},{"internalType":"uint256[]","name":"ids","type":"uint256[]"},{"internalType":"uint256[]","name":"values","type":"uint256[]"}],"name":"burnBatch","outputs":[],"stateMutability":"nonpayable","type":"function"},{"inputs":[],"name":"currentTokenId","outputs":[{"internalType":"uint256","name":"","type":"uint256"}],"stateMutability":"view","type":"function"},{"inputs":[{"internalType":"uint256","name":"id","type":"uint256"}],"name":"exists","outputs":[{"internalType":"bool","name":"","type":"bool"}],"stateMutability":"view","type":"function"},{"inputs":[{"internalType":"address","name":"account","type":"address"},{"internalType":"address","name":"operator","type":"address"}],"name":"isApprovedForAll","outputs":[{"internalType":"bool","name":"","type":"bool"}],"stateMutability":"view","type":"function"},{"inputs":[{"internalType":"address","name":"to","type":"address"},{"internalType":"string[]","name":"tokensUris","type":"string[]"}],"name":"mintBatchNFT","outputs":[],"stateMutability":"nonpayable","type":"function"},{"inputs":[{"internalType":"address","name":"to","type":"address"},{"internalType":"string","name":"tokenURI","type":"string"}],"name":"mintNFT","outputs":[],"stateMutability":"nonpayable","type":"function"},{"inputs":[{"internalType":"address","name":"","type":"address"},{"internalType":"address","name":"","type":"address"},{"internalType":"uint256[]","name":"","type":"uint256[]"},{"internalType":"uint256[]","name":"","type":"uint256[]"},{"internalType":"bytes","name":"","type":"bytes"}],"name":"onERC1155BatchReceived","outputs":[{"internalType":"bytes4","name":"","type":"bytes4"}],"stateMutability":"pure","type":"function"},{"inputs":[{"internalType":"address","name":"","type":"address"},{"internalType":"address","name":"","type":"address"},{"internalType":"uint256","name":"","type":"uint256"},{"internalType":"uint256","name":"","type":"uint256"},{"internalType":"bytes","name":"","type":"bytes"}],"name":"onERC1155Received","outputs":[{"internalType":"bytes4","name":"","type":"bytes4"}],"stateMutability":"pure","type":"function"},{"inputs":[],"name":"owner","outputs":[{"internalType":"address","name":"","type":"address"}],"stateMutability":"view","type":"function"},{"inputs":[],"name":"pause","outputs":[],"stateMutability":"nonpayable","type":"function"},{"inputs":[],"name":"paused","outputs":[{"internalType":"bool","name":"","type":"bool"}],"stateMutability":"view","type":"function"},{"inputs":[{"internalType":"address","name":"from","type":"address"},{"internalType":"address","name":"to","type":"address"},{"internalType":"uint256[]","name":"ids","type":"uint256[]"},{"internalType":"uint256[]","name":"values","type":"uint256[]"},{"internalType":"bytes","name":"data","type":"bytes"}],"name":"safeBatchTransferFrom","outputs":[],"stateMutability":"nonpayable","type":"function"},{"inputs":[{"internalType":"address","name":"from","type":"address"},{"internalType":"address","name":"to","type":"address"},{"internalType":"uint256","name":"id","type":"uint256"},{"internalType":"uint256","name":"value","type":"uint256"},{"internalType":"bytes","name":"data","type":"bytes"}],"name":"safeTransferFrom","outputs":[],"stateMutability":"nonpayable","type":"function"},{"inputs":[{"internalType":"address","name":"operator","type":"address"},{"internalType":"bool","name":"approved","type":"bool"}],"name":"setApprovalForAll","outputs":[],"stateMutability":"nonpayable","type":"function"},{"inputs":[{"internalType":"bytes4","name":"interfaceId","type":"bytes4"}],"name":"supportsInterface","outputs":[{"internalType":"bool","name":"","type":"bool"}],"stateMutability":"view","type":"function"},{"inputs":[],"name":"totalSupply","outputs":[{"internalType":"uint256","name":"","type":"uint256"}],"stateMutability":"view","type":"function"},{"inputs":[{"internalType":"uint256","name":"id","type":"uint256"}],"name":"totalSupply","outputs":[{"internalType":"uint256","name":"","type":"uint256"}],"stateMutability":"view","type":"function"},{"inputs":[],"name":"unpause","outputs":[],"stateMutability":"nonpayable","type":"function"},{"inputs":[{"internalType":"uint256","name":"tokenId","type":"uint256"}],"name":"uri","outputs":[{"internalType":"string","name":"","type":"string"}],"stateMutability":"view","type":"function"}],"evm":{"bytecode":{"linkReferences":{},"object":"60a0604052604051806020016040528060008152506003908161002291906102f1565b50600060085534801561003457600080fd5b50604051806020016040528060008152506100548161008e60201b60201c565b503373ffffffffffffffffffffffffffffffffffffffff1660808173ffffffffffffffffffffffffffffffffffffffff16815250506103c3565b806002908161009d91906102f1565b5050565b600081519050919050565b7f4e487b7100000000000000000000000000000000000000000000000000000000600052604160045260246000fd5b7f4e487b7100000000000000000000000000000000000000000000000000000000600052602260045260246000fd5b6000600282049050600182168061012257607f821691505b602082108103610135576101346100db565b5b50919050565b60008190508160005260206000209050919050565b60006020601f8301049050919050565b600082821b905092915050565b60006008830261019d7fffffffffffffffffffffffffffffffffffffffffffffffffffffffffffffffff82610160565b6101a78683610160565b95508019841693508086168417925050509392505050565b6000819050919050565b6000819050919050565b60006101ee6101e96101e4846101bf565b6101c9565b6101bf565b9050919050565b6000819050919050565b610208836101d3565b61021c610214826101f5565b84845461016d565b825550505050565b600090565b610231610224565b61023c8184846101ff565b505050565b5b8181101561026057610255600082610229565b600181019050610242565b5050565b601f8211156102a5576102768161013b565b61027f84610150565b8101602085101561028e578190505b6102a261029a85610150565b830182610241565b50505b505050565b600082821c905092915050565b60006102c8600019846008026102aa565b1980831691505092915050565b60006102e183836102b7565b9150826002028217905092915050565b6102fa826100a1565b67ffffffffffffffff811115610313576103126100ac565b5b61031d825461010a565b610328828285610264565b600060209050601f83116001811461035b5760008415610349578287015190505b61035385826102d5565b8655506103bb565b601f1984166103698661013b565b60005b828110156103915784890151825560018201915060208501945060208101905061036c565b868310156103ae57848901516103aa601f8916826102b7565b8355505b6001600288020188555050505b505050505050565b608051613c69610401600039600081816104490152818161060f0152818161096401528181610bdc01528181610c740152610d770152613c696000f3fe608060405234801561001057600080fd5b50600436106101405760003560e01c80636b20c454116100b8578063bd85b0391161007c578063bd85b03914610361578063e985e9c514610391578063eacabe14146103c1578063f23a6e61146103dd578063f242432a1461040d578063f5298aca1461042957610140565b80636b20c454146102d15780638456cb59146102ed5780638da5cb5b146102f7578063a22cb46514610315578063bc197c811461033157610140565b80632eb2c2d61161010a5780632eb2c2d61461021157806330a50a8c1461022d5780633f4ba83a146102495780634e1273f4146102535780634f558e79146102835780635c975abb146102b357610140565b80629a9b7b14610145578062fdd58e1461016357806301ffc9a7146101935780630e89341c146101c357806318160ddd146101f3575b600080fd5b61014d610445565b60405161015a9190612505565b60405180910390f35b61017d600480360381019061017891906125be565b6104dd565b60405161018a9190612505565b60405180910390f35b6101ad60048036038101906101a89190612656565b610537565b6040516101ba919061269e565b60405180910390f35b6101dd60048036038101906101d891906126b9565b610549565b6040516101ea9190612776565b60405180910390f35b6101fb61055b565b6040516102089190612505565b60405180910390f35b61022b60048036038101906102269190612995565b610565565b005b61024760048036038101906102429190612be6565b61060d565b005b610251610962565b005b61026d60048036038101906102689190612d05565b6109fa565b60405161027a9190612e3b565b60405180910390f35b61029d600480360381019061029891906126b9565b610b03565b6040516102aa919061269e565b60405180910390f35b6102bb610b17565b6040516102c8919061269e565b60405180910390f35b6102eb60048036038101906102e69190612e5d565b610b2e565b005b6102f5610bda565b005b6102ff610c72565b60405161030c9190612ef7565b60405180910390f35b61032f600480360381019061032a9190612f3e565b610c96565b005b61034b6004803603810190610346919061302f565b610cac565b604051610358919061311a565b60405180910390f35b61037b600480360381019061037691906126b9565b610cc4565b6040516103889190612505565b60405180910390f35b6103ab60048036038101906103a69190613135565b610ce1565b6040516103b8919061269e565b60405180910390f35b6103db60048036038101906103d69190613175565b610d75565b005b6103f760048036038101906103f291906131d1565b610ef1565b604051610404919061311a565b60405180910390f35b6104276004803603810190610422919061326b565b610f07565b005b610443600480360381019061043e9190613302565b610faf565b005b60007f000000000000000000000000000000000000000000000000000000000000000073ffffffffffffffffffffffffffffffffffffffff163373ffffffffffffffffffffffffffffffffffffffff16146104d5576040517f08c379a00000000000000000000000000000000000000000000000000000000081526004016104cc906133a1565b60405180910390fd5b600854905090565b600080600083815260200190815260200160002060008473ffffffffffffffffffffffffffffffffffffffff1673ffffffffffffffffffffffffffffffffffffffff16815260200190815260200160002054905092915050565b60006105428261105b565b9050919050565b6060610554826110d5565b9050919050565b6000600754905090565b600061056f6111ba565b90508073ffffffffffffffffffffffffffffffffffffffff168673ffffffffffffffffffffffffffffffffffffffff16141580156105b457506105b28682610ce1565b155b156105f85780866040517fe237d9220000000000000000000000000000000000000000000000000000000081526004016105ef9291906133c1565b60405180910390fd5b61060586868686866111c2565b505050505050565b7f000000000000000000000000000000000000000000000000000000000000000073ffffffffffffffffffffffffffffffffffffffff163373ffffffffffffffffffffffffffffffffffffffff161461069b576040517f08c379a0000000000000000000000000000000000000000000000000000000008152600401610692906133a1565b60405180910390fd5b60018151116106df576040517f08c379a00000000000000000000000000000000000000000000000000000000081526004016106d690613436565b60405180910390fd5b603281511115610724576040517f08c379a000000000000000000000000000000000000000000000000000000000815260040161071b906134a2565b60405180910390fd5b7fffffffffffffffffffffffffffffffffffffffffffffffffffffffffffffffff815160085461075491906134f1565b10610794576040517f08c379a000000000000000000000000000000000000000000000000000000000815260040161078b90613571565b60405180910390fd5b6000815167ffffffffffffffff8111156107b1576107b061279d565b5b6040519080825280602002602001820160405280156107df5781602001602082028036833780820191505090505b5090506000825167ffffffffffffffff8111156107ff576107fe61279d565b5b60405190808252806020026020018201604052801561082d5781602001602082028036833780820191505090505b50905060005b835181101561094057600084828151811061085157610850613591565b5b6020026020010151511161089a576040517f08c379a00000000000000000000000000000000000000000000000000000000081526004016108919061360c565b60405180910390fd5b6008548382815181106108b0576108af613591565b5b602002602001018181525050600860008154809291906108cf9061362c565b919050555060018282815181106108e9576108e8613591565b5b60200260200101818152505061093383828151811061090b5761090a613591565b5b602002602001015185838151811061092657610925613591565b5b60200260200101516112ba565b8080600101915050610833565b5061095c8483836040518060200160405280600081525061131f565b50505050565b7f000000000000000000000000000000000000000000000000000000000000000073ffffffffffffffffffffffffffffffffffffffff163373ffffffffffffffffffffffffffffffffffffffff16146109f0576040517f08c379a00000000000000000000000000000000000000000000000000000000081526004016109e7906133a1565b60405180910390fd5b6109f86113a5565b565b60608151835114610a4657815183516040517f5b059991000000000000000000000000000000000000000000000000000000008152600401610a3d929190613674565b60405180910390fd5b6000835167ffffffffffffffff811115610a6357610a6261279d565b5b604051908082528060200260200182016040528015610a915781602001602082028036833780820191505090505b50905060005b8451811015610af857610ace610ab6828761140890919063ffffffff16565b610ac9838761141c90919063ffffffff16565b6104dd565b828281518110610ae157610ae0613591565b5b602002602001018181525050806001019050610a97565b508091505092915050565b600080610b0f83610cc4565b119050919050565b6000600560009054906101000a900460ff16905090565b610b366111ba565b73ffffffffffffffffffffffffffffffffffffffff168373ffffffffffffffffffffffffffffffffffffffff1614158015610b7f5750610b7d83610b786111ba565b610ce1565b155b15610bca57610b8c6111ba565b836040517fe237d922000000000000000000000000000000000000000000000000000000008152600401610bc19291906133c1565b60405180910390fd5b610bd5838383611430565b505050565b7f000000000000000000000000000000000000000000000000000000000000000073ffffffffffffffffffffffffffffffffffffffff163373ffffffffffffffffffffffffffffffffffffffff1614610c68576040517f08c379a0000000000000000000000000000000000000000000000000000000008152600401610c5f906133a1565b60405180910390fd5b610c706114c4565b565b7f000000000000000000000000000000000000000000000000000000000000000081565b610ca8610ca16111ba565b8383611527565b5050565b600063bc197c8160e01b905098975050505050505050565b600060066000838152602001908152602001600020549050919050565b6000600160008473ffffffffffffffffffffffffffffffffffffffff1673ffffffffffffffffffffffffffffffffffffffff16815260200190815260200160002060008373ffffffffffffffffffffffffffffffffffffffff1673ffffffffffffffffffffffffffffffffffffffff16815260200190815260200160002060009054906101000a900460ff16905092915050565b7f000000000000000000000000000000000000000000000000000000000000000073ffffffffffffffffffffffffffffffffffffffff163373ffffffffffffffffffffffffffffffffffffffff1614610e03576040517f08c379a0000000000000000000000000000000000000000000000000000000008152600401610dfa906133a1565b60405180910390fd5b6000815111610e47576040517f08c379a0000000000000000000000000000000000000000000000000000000008152600401610e3e9061360c565b60405180910390fd5b7fffffffffffffffffffffffffffffffffffffffffffffffffffffffffffffffff60085403610eab576040517f08c379a0000000000000000000000000000000000000000000000000000000008152600401610ea290613571565b60405180910390fd5b610ec982600854600160405180602001604052806000815250611697565b610ed5600854826112ba565b60086000815480929190610ee89061362c565b91905055505050565b600063f23a6e6160e01b90509695505050505050565b6000610f116111ba565b90508073ffffffffffffffffffffffffffffffffffffffff168673ffffffffffffffffffffffffffffffffffffffff1614158015610f565750610f548682610ce1565b155b15610f9a5780866040517fe237d922000000000000000000000000000000000000000000000000000000008152600401610f919291906133c1565b60405180910390fd5b610fa78686868686611730565b505050505050565b610fb76111ba565b73ffffffffffffffffffffffffffffffffffffffff168373ffffffffffffffffffffffffffffffffffffffff16141580156110005750610ffe83610ff96111ba565b610ce1565b155b1561104b5761100d6111ba565b836040517fe237d9220000000000000000000000000000000000000000000000000000000081526004016110429291906133c1565b60405180910390fd5b61105683838361183b565b505050565b60007f4e2312e0000000000000000000000000000000000000000000000000000000007bffffffffffffffffffffffffffffffffffffffffffffffffffffffff1916827bffffffffffffffffffffffffffffffffffffffffffffffffffffffff191614806110ce57506110cd826118e2565b5b9050919050565b606060006004600084815260200190815260200160002080546110f7906136cc565b80601f0160208091040260200160405190810160405280929190818152602001828054611123906136cc565b80156111705780601f1061114557610100808354040283529160200191611170565b820191906000526020600020905b81548152906001019060200180831161115357829003601f168201915b50505050509050600081511161118e57611189836119c4565b6111b2565b6003816040516020016111a29291906137d1565b6040516020818303038152906040525b915050919050565b600033905090565b600073ffffffffffffffffffffffffffffffffffffffff168473ffffffffffffffffffffffffffffffffffffffff16036112345760006040517f57f447ce00000000000000000000000000000000000000000000000000000000815260040161122b9190612ef7565b60405180910390fd5b600073ffffffffffffffffffffffffffffffffffffffff168573ffffffffffffffffffffffffffffffffffffffff16036112a65760006040517f01a8351400000000000000000000000000000000000000000000000000000000815260040161129d9190612ef7565b60405180910390fd5b6112b38585858585611a58565b5050505050565b806004600084815260200190815260200160002090816112da919061398c565b50817f6bb7ff708619ba0610cba295a58592e0451dee2622938c8755667688daf3529b61130684610549565b6040516113139190612776565b60405180910390a25050565b600073ffffffffffffffffffffffffffffffffffffffff168473ffffffffffffffffffffffffffffffffffffffff16036113915760006040517f57f447ce0000000000000000000000000000000000000000000000000000000081526004016113889190612ef7565b60405180910390fd5b61139f600085858585611a58565b50505050565b6113ad611b0a565b6000600560006101000a81548160ff0219169083151502179055507f5db9ee0a495bf2e6ff9c91a7834c1ba4fdd244a5e8aa4e537bd38aeae4b073aa6113f16111ba565b6040516113fe9190612ef7565b60405180910390a1565b600060208202602084010151905092915050565b600060208202602084010151905092915050565b600073ffffffffffffffffffffffffffffffffffffffff168373ffffffffffffffffffffffffffffffffffffffff16036114a25760006040517f01a835140000000000000000000000000000000000000000000000000000000081526004016114999190612ef7565b60405180910390fd5b6114bf836000848460405180602001604052806000815250611a58565b505050565b6114cc611b4a565b6001600560006101000a81548160ff0219169083151502179055507f62e78cea01bee320cd4e420270b5ea74000d11b0c9f74754ebdbfc544b05a2586115106111ba565b60405161151d9190612ef7565b60405180910390a1565b600073ffffffffffffffffffffffffffffffffffffffff168273ffffffffffffffffffffffffffffffffffffffff16036115995760006040517fced3e1000000000000000000000000000000000000000000000000000000000081526004016115909190612ef7565b60405180910390fd5b80600160008573ffffffffffffffffffffffffffffffffffffffff1673ffffffffffffffffffffffffffffffffffffffff16815260200190815260200160002060008473ffffffffffffffffffffffffffffffffffffffff1673ffffffffffffffffffffffffffffffffffffffff16815260200190815260200160002060006101000a81548160ff0219169083151502179055508173ffffffffffffffffffffffffffffffffffffffff168373ffffffffffffffffffffffffffffffffffffffff167f17307eab39ab6107e8899845ad3d59bd9653f200f220920489ca2b5937696c318360405161168a919061269e565b60405180910390a3505050565b600073ffffffffffffffffffffffffffffffffffffffff168473ffffffffffffffffffffffffffffffffffffffff16036117095760006040517f57f447ce0000000000000000000000000000000000000000000000000000000081526004016117009190612ef7565b60405180910390fd5b6000806117168585611b8b565b91509150611728600087848487611a58565b505050505050565b600073ffffffffffffffffffffffffffffffffffffffff168473ffffffffffffffffffffffffffffffffffffffff16036117a25760006040517f57f447ce0000000000000000000000000000000000000000000000000000000081526004016117999190612ef7565b60405180910390fd5b600073ffffffffffffffffffffffffffffffffffffffff168573ffffffffffffffffffffffffffffffffffffffff16036118145760006040517f01a8351400000000000000000000000000000000000000000000000000000000815260040161180b9190612ef7565b60405180910390fd5b6000806118218585611b8b565b915091506118328787848487611a58565b50505050505050565b600073ffffffffffffffffffffffffffffffffffffffff168373ffffffffffffffffffffffffffffffffffffffff16036118ad5760006040517f01a835140000000000000000000000000000000000000000000000000000000081526004016118a49190612ef7565b60405180910390fd5b6000806118ba8484611b8b565b915091506118db856000848460405180602001604052806000815250611a58565b5050505050565b60007fd9b67a26000000000000000000000000000000000000000000000000000000007bffffffffffffffffffffffffffffffffffffffffffffffffffffffff1916827bffffffffffffffffffffffffffffffffffffffffffffffffffffffff191614806119ad57507f0e89341c000000000000000000000000000000000000000000000000000000007bffffffffffffffffffffffffffffffffffffffffffffffffffffffff1916827bffffffffffffffffffffffffffffffffffffffffffffffffffffffff1916145b806119bd57506119bc82611bbb565b5b9050919050565b6060600280546119d3906136cc565b80601f01602080910402602001604051908101604052809291908181526020018280546119ff906136cc565b8015611a4c5780601f10611a2157610100808354040283529160200191611a4c565b820191906000526020600020905b815481529060010190602001808311611a2f57829003601f168201915b50505050509050919050565b611a6485858585611c25565b600073ffffffffffffffffffffffffffffffffffffffff168473ffffffffffffffffffffffffffffffffffffffff1614611b03576000611aa26111ba565b90506001845103611af2576000611ac360008661141c90919063ffffffff16565b90506000611adb60008661141c90919063ffffffff16565b9050611aeb838989858589611c37565b5050611b01565b611b00818787878787611deb565b5b505b5050505050565b611b12610b17565b611b48576040517f8dfc202b00000000000000000000000000000000000000000000000000000000815260040160405180910390fd5b565b611b52610b17565b15611b89576040517fd93c066500000000000000000000000000000000000000000000000000000000815260040160405180910390fd5b565b60608060405191506001825283602083015260408201905060018152826020820152604081016040529250929050565b60007f01ffc9a7000000000000000000000000000000000000000000000000000000007bffffffffffffffffffffffffffffffffffffffffffffffffffffffff1916827bffffffffffffffffffffffffffffffffffffffffffffffffffffffff1916149050919050565b611c3184848484611f9f565b50505050565b60008473ffffffffffffffffffffffffffffffffffffffff163b1115611de3578373ffffffffffffffffffffffffffffffffffffffff1663f23a6e6187878686866040518663ffffffff1660e01b8152600401611c98959493929190613ab3565b6020604051808303816000875af1925050508015611cd457506040513d601f19601f82011682018060405250810190611cd19190613b22565b60015b611d58573d8060008114611d04576040519150601f19603f3d011682016040523d82523d6000602084013e611d09565b606091505b506000815103611d5057846040517f57f447ce000000000000000000000000000000000000000000000000000000008152600401611d479190612ef7565b60405180910390fd5b805181602001fd5b63f23a6e6160e01b7bffffffffffffffffffffffffffffffffffffffffffffffffffffffff1916817bffffffffffffffffffffffffffffffffffffffffffffffffffffffff191614611de157846040517f57f447ce000000000000000000000000000000000000000000000000000000008152600401611dd89190612ef7565b60405180910390fd5b505b505050505050565b60008473ffffffffffffffffffffffffffffffffffffffff163b1115611f97578373ffffffffffffffffffffffffffffffffffffffff1663bc197c8187878686866040518663ffffffff1660e01b8152600401611e4c959493929190613b4f565b6020604051808303816000875af1925050508015611e8857506040513d601f19601f82011682018060405250810190611e859190613b22565b60015b611f0c573d8060008114611eb8576040519150601f19603f3d011682016040523d82523d6000602084013e611ebd565b606091505b506000815103611f0457846040517f57f447ce000000000000000000000000000000000000000000000000000000008152600401611efb9190612ef7565b60405180910390fd5b805181602001fd5b63bc197c8160e01b7bffffffffffffffffffffffffffffffffffffffffffffffffffffffff1916817bffffffffffffffffffffffffffffffffffffffffffffffffffffffff191614611f9557846040517f57f447ce000000000000000000000000000000000000000000000000000000008152600401611f8c9190612ef7565b60405180910390fd5b505b505050505050565b611fab8484848461212a565b600073ffffffffffffffffffffffffffffffffffffffff168473ffffffffffffffffffffffffffffffffffffffff1603612075576000805b8351811015612059576000612001828561141c90919063ffffffff16565b9050806006600061201b858961141c90919063ffffffff16565b8152602001908152602001600020600082825461203891906134f1565b92505081905550808361204b91906134f1565b925050806001019050611fe3565b50806007600082825461206c91906134f1565b92505081905550505b600073ffffffffffffffffffffffffffffffffffffffff168373ffffffffffffffffffffffffffffffffffffffff1603612124576000805b83518110156121115760006120cb828561141c90919063ffffffff16565b905080600660006120e5858961141c90919063ffffffff16565b8152602001908152602001600020600082825403925050819055508083019250508060010190506120ad565b5080600760008282540392505081905550505b50505050565b612132611b4a565b61213e84848484612144565b50505050565b805182511461218e57815181516040517f5b059991000000000000000000000000000000000000000000000000000000008152600401612185929190613674565b60405180910390fd5b60006121986111ba565b905060005b83518110156123a75760006121bb828661141c90919063ffffffff16565b905060006121d2838661141c90919063ffffffff16565b9050600073ffffffffffffffffffffffffffffffffffffffff168873ffffffffffffffffffffffffffffffffffffffff16146122ff57600080600084815260200190815260200160002060008a73ffffffffffffffffffffffffffffffffffffffff1673ffffffffffffffffffffffffffffffffffffffff168152602001908152602001600020549050818110156122a757888183856040517f03dee4c500000000000000000000000000000000000000000000000000000000815260040161229e9493929190613bb7565b60405180910390fd5b81810360008085815260200190815260200160002060008b73ffffffffffffffffffffffffffffffffffffffff1673ffffffffffffffffffffffffffffffffffffffff16815260200190815260200160002081905550505b600073ffffffffffffffffffffffffffffffffffffffff168773ffffffffffffffffffffffffffffffffffffffff161461239a578060008084815260200190815260200160002060008973ffffffffffffffffffffffffffffffffffffffff1673ffffffffffffffffffffffffffffffffffffffff168152602001908152602001600020600082825461239291906134f1565b925050819055505b505080600101905061219d565b5060018351036124665760006123c760008561141c90919063ffffffff16565b905060006123df60008561141c90919063ffffffff16565b90508573ffffffffffffffffffffffffffffffffffffffff168773ffffffffffffffffffffffffffffffffffffffff168473ffffffffffffffffffffffffffffffffffffffff167fc3d58168c5ae7397731d063d5bbf3d657854427343f4c083240f7aacaa2d0f628585604051612457929190613674565b60405180910390a450506124e5565b8373ffffffffffffffffffffffffffffffffffffffff168573ffffffffffffffffffffffffffffffffffffffff168273ffffffffffffffffffffffffffffffffffffffff167f4a39dc06d4c0dbc64b70af90fd698a233a518aa5d07e595d983b8c0526c8f7fb86866040516124dc929190613bfc565b60405180910390a45b5050505050565b6000819050919050565b6124ff816124ec565b82525050565b600060208201905061251a60008301846124f6565b92915050565b6000604051905090565b600080fd5b600080fd5b600073ffffffffffffffffffffffffffffffffffffffff82169050919050565b600061255f82612534565b9050919050565b61256f81612554565b811461257a57600080fd5b50565b60008135905061258c81612566565b92915050565b61259b816124ec565b81146125a657600080fd5b50565b6000813590506125b881612592565b92915050565b600080604083850312156125d5576125d461252a565b5b60006125e38582860161257d565b92505060206125f4858286016125a9565b9150509250929050565b60007fffffffff0000000000000000000000000000000000000000000000000000000082169050919050565b612633816125fe565b811461263e57600080fd5b50565b6000813590506126508161262a565b92915050565b60006020828403121561266c5761266b61252a565b5b600061267a84828501612641565b91505092915050565b60008115159050919050565b61269881612683565b82525050565b60006020820190506126b3600083018461268f565b92915050565b6000602082840312156126cf576126ce61252a565b5b60006126dd848285016125a9565b91505092915050565b600081519050919050565b600082825260208201905092915050565b60005b83811015612720578082015181840152602081019050612705565b60008484015250505050565b6000601f19601f8301169050919050565b6000612748826126e6565b61275281856126f1565b9350612762818560208601612702565b61276b8161272c565b840191505092915050565b60006020820190508181036000830152612790818461273d565b905092915050565b600080fd5b7f4e487b7100000000000000000000000000000000000000000000000000000000600052604160045260246000fd5b6127d58261272c565b810181811067ffffffffffffffff821117156127f4576127f361279d565b5b80604052505050565b6000612807612520565b905061281382826127cc565b919050565b600067ffffffffffffffff8211156128335761283261279d565b5b602082029050602081019050919050565b600080fd5b600061285c61285784612818565b6127fd565b9050808382526020820190506020840283018581111561287f5761287e612844565b5b835b818110156128a8578061289488826125a9565b845260208401935050602081019050612881565b5050509392505050565b600082601f8301126128c7576128c6612798565b5b81356128d7848260208601612849565b91505092915050565b600080fd5b600067ffffffffffffffff821115612900576128ff61279d565b5b6129098261272c565b9050602081019050919050565b82818337600083830152505050565b6000612938612933846128e5565b6127fd565b905082815260208101848484011115612954576129536128e0565b5b61295f848285612916565b509392505050565b600082601f83011261297c5761297b612798565b5b813561298c848260208601612925565b91505092915050565b600080600080600060a086880312156129b1576129b061252a565b5b60006129bf8882890161257d565b95505060206129d08882890161257d565b945050604086013567ffffffffffffffff8111156129f1576129f061252f565b5b6129fd888289016128b2565b935050606086013567ffffffffffffffff811115612a1e57612a1d61252f565b5b612a2a888289016128b2565b925050608086013567ffffffffffffffff811115612a4b57612a4a61252f565b5b612a5788828901612967565b9150509295509295909350565b600067ffffffffffffffff821115612a7f57612a7e61279d565b5b602082029050602081019050919050565b600067ffffffffffffffff821115612aab57612aaa61279d565b5b612ab48261272c565b9050602081019050919050565b6000612ad4612acf84612a90565b6127fd565b905082815260208101848484011115612af057612aef6128e0565b5b612afb848285612916565b509392505050565b600082601f830112612b1857612b17612798565b5b8135612b28848260208601612ac1565b91505092915050565b6000612b44612b3f84612a64565b6127fd565b90508083825260208201905060208402830185811115612b6757612b66612844565b5b835b81811015612bae57803567ffffffffffffffff811115612b8c57612b8b612798565b5b808601612b998982612b03565b85526020850194505050602081019050612b69565b5050509392505050565b600082601f830112612bcd57612bcc612798565b5b8135612bdd848260208601612b31565b91505092915050565b60008060408385031215612bfd57612bfc61252a565b5b6000612c0b8582860161257d565b925050602083013567ffffffffffffffff811115612c2c57612c2b61252f565b5b612c3885828601612bb8565b9150509250929050565b600067ffffffffffffffff821115612c5d57612c5c61279d565b5b602082029050602081019050919050565b6000612c81612c7c84612c42565b6127fd565b90508083825260208201905060208402830185811115612ca457612ca3612844565b5b835b81811015612ccd5780612cb9888261257d565b845260208401935050602081019050612ca6565b5050509392505050565b600082601f830112612cec57612ceb612798565b5b8135612cfc848260208601612c6e565b91505092915050565b60008060408385031215612d1c57612d1b61252a565b5b600083013567ffffffffffffffff811115612d3a57612d3961252f565b5b612d4685828601612cd7565b925050602083013567ffffffffffffffff811115612d6757612d6661252f565b5b612d73858286016128b2565b9150509250929050565b600081519050919050565b600082825260208201905092915050565b6000819050602082019050919050565b612db2816124ec565b82525050565b6000612dc48383612da9565b60208301905092915050565b6000602082019050919050565b6000612de882612d7d565b612df28185612d88565b9350612dfd83612d99565b8060005b83811015612e2e578151612e158882612db8565b9750612e2083612dd0565b925050600181019050612e01565b5085935050505092915050565b60006020820190508181036000830152612e558184612ddd565b905092915050565b600080600060608486031215612e7657612e7561252a565b5b6000612e848682870161257d565b935050602084013567ffffffffffffffff811115612ea557612ea461252f565b5b612eb1868287016128b2565b925050604084013567ffffffffffffffff811115612ed257612ed161252f565b5b612ede868287016128b2565b9150509250925092565b612ef181612554565b82525050565b6000602082019050612f0c6000830184612ee8565b92915050565b612f1b81612683565b8114612f2657600080fd5b50565b600081359050612f3881612f12565b92915050565b60008060408385031215612f5557612f5461252a565b5b6000612f638582860161257d565b9250506020612f7485828601612f29565b9150509250929050565b600080fd5b60008083601f840112612f9957612f98612798565b5b8235905067ffffffffffffffff811115612fb657612fb5612f7e565b5b602083019150836020820283011115612fd257612fd1612844565b5b9250929050565b60008083601f840112612fef57612fee612798565b5b8235905067ffffffffffffffff81111561300c5761300b612f7e565b5b60208301915083600182028301111561302857613027612844565b5b9250929050565b60008060008060008060008060a0898b03121561304f5761304e61252a565b5b600061305d8b828c0161257d565b985050602061306e8b828c0161257d565b975050604089013567ffffffffffffffff81111561308f5761308e61252f565b5b61309b8b828c01612f83565b9650965050606089013567ffffffffffffffff8111156130be576130bd61252f565b5b6130ca8b828c01612f83565b9450945050608089013567ffffffffffffffff8111156130ed576130ec61252f565b5b6130f98b828c01612fd9565b92509250509295985092959890939650565b613114816125fe565b82525050565b600060208201905061312f600083018461310b565b92915050565b6000806040838503121561314c5761314b61252a565b5b600061315a8582860161257d565b925050602061316b8582860161257d565b9150509250929050565b6000806040838503121561318c5761318b61252a565b5b600061319a8582860161257d565b925050602083013567ffffffffffffffff8111156131bb576131ba61252f565b5b6131c785828601612b03565b9150509250929050565b60008060008060008060a087890312156131ee576131ed61252a565b5b60006131fc89828a0161257d565b965050602061320d89828a0161257d565b955050604061321e89828a016125a9565b945050606061322f89828a016125a9565b935050608087013567ffffffffffffffff8111156132505761324f61252f565b5b61325c89828a01612fd9565b92509250509295509295509295565b600080600080600060a086880312156132875761328661252a565b5b60006132958882890161257d565b95505060206132a68882890161257d565b94505060406132b7888289016125a9565b93505060606132c8888289016125a9565b925050608086013567ffffffffffffffff8111156132e9576132e861252f565b5b6132f588828901612967565b9150509295509295909350565b60008060006060848603121561331b5761331a61252a565b5b60006133298682870161257d565b935050602061333a868287016125a9565b925050604061334b868287016125a9565b9150509250925092565b7f4e6f7420616e206f776e65722100000000000000000000000000000000000000600082015250565b600061338b600d836126f1565b915061339682613355565b602082019050919050565b600060208201905081810360008301526133ba8161337e565b9050919050565b60006040820190506133d66000830185612ee8565b6133e36020830184612ee8565b9392505050565b7f557365206d696e744e4654282920666f72206f6e65204e465421000000000000600082015250565b6000613420601a836126f1565b915061342b826133ea565b602082019050919050565b6000602082019050818103600083015261344f81613413565b9050919050565b7f426174636820746f6f206c617267652100000000000000000000000000000000600082015250565b600061348c6010836126f1565b915061349782613456565b602082019050919050565b600060208201905081810360008301526134bb8161347f565b9050919050565b7f4e487b7100000000000000000000000000000000000000000000000000000000600052601160045260246000fd5b60006134fc826124ec565b9150613507836124ec565b925082820190508082111561351f5761351e6134c2565b5b92915050565b7f4d617820737570706c7920726561636865642100000000000000000000000000600082015250565b600061355b6013836126f1565b915061356682613525565b602082019050919050565b6000602082019050818103600083015261358a8161354e565b9050919050565b7f4e487b7100000000000000000000000000000000000000000000000000000000600052603260045260246000fd5b7f456d707479205552492100000000000000000000000000000000000000000000600082015250565b60006135f6600a836126f1565b9150613601826135c0565b602082019050919050565b60006020820190508181036000830152613625816135e9565b9050919050565b6000613637826124ec565b91507fffffffffffffffffffffffffffffffffffffffffffffffffffffffffffffffff8203613669576136686134c2565b5b600182019050919050565b600060408201905061368960008301856124f6565b61369660208301846124f6565b9392505050565b7f4e487b7100000000000000000000000000000000000000000000000000000000600052602260045260246000fd5b600060028204905060018216806136e457607f821691505b6020821081036136f7576136f661369d565b5b50919050565b600081905092915050565b60008190508160005260206000209050919050565b6000815461372a816136cc565b61373481866136fd565b9450600182166000811461374f576001811461376457613797565b60ff1983168652811515820286019350613797565b61376d85613708565b60005b8381101561378f57815481890152600182019150602081019050613770565b838801955050505b50505092915050565b60006137ab826126e6565b6137b581856136fd565b93506137c5818560208601612702565b80840191505092915050565b60006137dd828561371d565b91506137e982846137a0565b91508190509392505050565b60006020601f8301049050919050565b600082821b905092915050565b6000600883026138427fffffffffffffffffffffffffffffffffffffffffffffffffffffffffffffffff82613805565b61384c8683613805565b95508019841693508086168417925050509392505050565b6000819050919050565b600061388961388461387f846124ec565b613864565b6124ec565b9050919050565b6000819050919050565b6138a38361386e565b6138b76138af82613890565b848454613812565b825550505050565b600090565b6138cc6138bf565b6138d781848461389a565b505050565b5b818110156138fb576138f06000826138c4565b6001810190506138dd565b5050565b601f8211156139405761391181613708565b61391a846137f5565b81016020851015613929578190505b61393d613935856137f5565b8301826138dc565b50505b505050565b600082821c905092915050565b600061396360001984600802613945565b1980831691505092915050565b600061397c8383613952565b9150826002028217905092915050565b613995826126e6565b67ffffffffffffffff8111156139ae576139ad61279d565b5b6139b882546136cc565b6139c38282856138ff565b600060209050601f8311600181146139f657600084156139e4578287015190505b6139ee8582613970565b865550613a56565b601f198416613a0486613708565b60005b82811015613a2c57848901518255600182019150602085019450602081019050613a07565b86831015613a495784890151613a45601f891682613952565b8355505b6001600288020188555050505b505050505050565b600081519050919050565b600082825260208201905092915050565b6000613a8582613a5e565b613a8f8185613a69565b9350613a9f818560208601612702565b613aa88161272c565b840191505092915050565b600060a082019050613ac86000830188612ee8565b613ad56020830187612ee8565b613ae260408301866124f6565b613aef60608301856124f6565b8181036080830152613b018184613a7a565b90509695505050505050565b600081519050613b1c8161262a565b92915050565b600060208284031215613b3857613b3761252a565b5b6000613b4684828501613b0d565b91505092915050565b600060a082019050613b646000830188612ee8565b613b716020830187612ee8565b8181036040830152613b838186612ddd565b90508181036060830152613b978185612ddd565b90508181036080830152613bab8184613a7a565b90509695505050505050565b6000608082019050613bcc6000830187612ee8565b613bd960208301866124f6565b613be660408301856124f6565b613bf360608301846124f6565b95945050505050565b60006040820190508181036000830152613c168185612ddd565b90508181036020830152613c2a8184612ddd565b9050939250505056fea26469706673582212205bac99ebcb857dffe72c4d1674bda164f1d02e7bb63ea0157cfe17ebf5cea99d64736f6c634300081c0033","opcodes":"PUSH1 0xA0 PUSH1 0x40 MSTORE PUSH1 0x40 MLOAD DUP1 PUSH1 0x20 ADD PUSH1 0x40 MSTORE DUP1 PUSH1 0x0 DUP2 MSTORE POP PUSH1 0x3 SWAP1 DUP2 PUSH2 0x22 SWAP2 SWAP1 PUSH2 0x2F1 JUMP JUMPDEST POP PUSH1 0x0 PUSH1 0x8 SSTORE CALLVALUE DUP1 ISZERO PUSH2 0x34 JUMPI PUSH1 0x0 DUP1 REVERT JUMPDEST POP PUSH1 0x40 MLOAD DUP1 PUSH1 0x20 ADD PUSH1 0x40 MSTORE DUP1 PUSH1 0x0 DUP2 MSTORE POP PUSH2 0x54 DUP2 PUSH2 0x8E PUSH1 0x20 SHL PUSH1 0x20 SHR JUMP JUMPDEST POP CALLER PUSH20 0xFFFFFFFFFFFFFFFFFFFFFFFFFFFFFFFFFFFFFFFF AND PUSH1 0x80 DUP2 PUSH20 0xFFFFFFFFFFFFFFFFFFFFFFFFFFFFFFFFFFFFFFFF AND DUP2 MSTORE POP POP PUSH2 0x3C3 JUMP JUMPDEST DUP1 PUSH1 0x2 SWAP1 DUP2 PUSH2 0x9D SWAP2 SWAP1 PUSH2 0x2F1 JUMP JUMPDEST POP POP JUMP JUMPDEST PUSH1 0x0 DUP2 MLOAD SWAP1 POP SWAP2 SWAP1 POP JUMP JUMPDEST PUSH32 0x4E487B7100000000000000000000000000000000000000000000000000000000 PUSH1 0x0 MSTORE PUSH1 0x41 PUSH1 0x4 MSTORE PUSH1 0x24 PUSH1 0x0 REVERT JUMPDEST PUSH32 0x4E487B7100000000000000000000000000000000000000000000000000000000 PUSH1 0x0 MSTORE PUSH1 0x22 PUSH1 0x4 MSTORE PUSH1 0x24 PUSH1 0x0 REVERT JUMPDEST PUSH1 0x0 PUSH1 0x2 DUP3 DIV SWAP1 POP PUSH1 0x1 DUP3 AND DUP1 PUSH2 0x122 JUMPI PUSH1 0x7F DUP3 AND SWAP2 POP JUMPDEST PUSH1 0x20 DUP3 LT DUP2 SUB PUSH2 0x135 JUMPI PUSH2 0x134 PUSH2 0xDB JUMP JUMPDEST JUMPDEST POP SWAP2 SWAP1 POP JUMP JUMPDEST PUSH1 0x0 DUP2 SWAP1 POP DUP2 PUSH1 0x0 MSTORE PUSH1 0x20 PUSH1 0x0 KECCAK256 SWAP1 POP SWAP2 SWAP1 POP JUMP JUMPDEST PUSH1 0x0 PUSH1 0x20 PUSH1 0x1F DUP4 ADD DIV SWAP1 POP SWAP2 SWAP1 POP JUMP JUMPDEST PUSH1 0x0 DUP3 DUP3 SHL SWAP1 POP SWAP3 SWAP2 POP POP JUMP JUMPDEST PUSH1 0x0 PUSH1 0x8 DUP4 MUL PUSH2 0x19D PUSH32 0xFFFFFFFFFFFFFFFFFFFFFFFFFFFFFFFFFFFFFFFFFFFFFFFFFFFFFFFFFFFFFFFF DUP3 PUSH2 0x160 JUMP JUMPDEST PUSH2 0x1A7 DUP7 DUP4 PUSH2 0x160 JUMP JUMPDEST SWAP6 POP DUP1 NOT DUP5 AND SWAP4 POP DUP1 DUP7 AND DUP5 OR SWAP3 POP POP POP SWAP4 SWAP3 POP POP POP JUMP JUMPDEST PUSH1 0x0 DUP2 SWAP1 POP SWAP2 SWAP1 POP JUMP JUMPDEST PUSH1 0x0 DUP2 SWAP1 POP SWAP2 SWAP1 POP JUMP JUMPDEST PUSH1 0x0 PUSH2 0x1EE PUSH2 0x1E9 PUSH2 0x1E4 DUP5 PUSH2 0x1BF JUMP JUMPDEST PUSH2 0x1C9 JUMP JUMPDEST PUSH2 0x1BF JUMP JUMPDEST SWAP1 POP SWAP2 SWAP1 POP JUMP JUMPDEST PUSH1 0x0 DUP2 SWAP1 POP SWAP2 SWAP1 POP JUMP JUMPDEST PUSH2 0x208 DUP4 PUSH2 0x1D3 JUMP JUMPDEST PUSH2 0x21C PUSH2 0x214 DUP3 PUSH2 0x1F5 JUMP JUMPDEST DUP5 DUP5 SLOAD PUSH2 0x16D JUMP JUMPDEST DUP3 SSTORE POP POP POP POP JUMP JUMPDEST PUSH1 0x0 SWAP1 JUMP JUMPDEST PUSH2 0x231 PUSH2 0x224 JUMP JUMPDEST PUSH2 0x23C DUP2 DUP5 DUP5 PUSH2 0x1FF JUMP JUMPDEST POP POP POP JUMP JUMPDEST JUMPDEST DUP2 DUP2 LT ISZERO PUSH2 0x260 JUMPI PUSH2 0x255 PUSH1 0x0 DUP3 PUSH2 0x229 JUMP JUMPDEST PUSH1 0x1 DUP2 ADD SWAP1 POP PUSH2 0x242 JUMP JUMPDEST POP POP JUMP JUMPDEST PUSH1 0x1F DUP3 GT ISZERO PUSH2 0x2A5 JUMPI PUSH2 0x276 DUP2 PUSH2 0x13B JUMP JUMPDEST PUSH2 0x27F DUP5 PUSH2 0x150 JUMP JUMPDEST DUP2 ADD PUSH1 0x20 DUP6 LT ISZERO PUSH2 0x28E JUMPI DUP2 SWAP1 POP JUMPDEST PUSH2 0x2A2 PUSH2 0x29A DUP6 PUSH2 0x150 JUMP JUMPDEST DUP4 ADD DUP3 PUSH2 0x241 JUMP JUMPDEST POP POP JUMPDEST POP POP POP JUMP JUMPDEST PUSH1 0x0 DUP3 DUP3 SHR SWAP1 POP SWAP3 SWAP2 POP POP JUMP JUMPDEST PUSH1 0x0 PUSH2 0x2C8 PUSH1 0x0 NOT DUP5 PUSH1 0x8 MUL PUSH2 0x2AA JUMP JUMPDEST NOT DUP1 DUP4 AND SWAP2 POP POP SWAP3 SWAP2 POP POP JUMP JUMPDEST PUSH1 0x0 PUSH2 0x2E1 DUP4 DUP4 PUSH2 0x2B7 JUMP JUMPDEST SWAP2 POP DUP3 PUSH1 0x2 MUL DUP3 OR SWAP1 POP SWAP3 SWAP2 POP POP JUMP JUMPDEST PUSH2 0x2FA DUP3 PUSH2 0xA1 JUMP JUMPDEST PUSH8 0xFFFFFFFFFFFFFFFF DUP2 GT ISZERO PUSH2 0x313 JUMPI PUSH2 0x312 PUSH2 0xAC JUMP JUMPDEST JUMPDEST PUSH2 0x31D DUP3 SLOAD PUSH2 0x10A JUMP JUMPDEST PUSH2 0x328 DUP3 DUP3 DUP6 PUSH2 0x264 JUMP JUMPDEST PUSH1 0x0 PUSH1 0x20 SWAP1 POP PUSH1 0x1F DUP4 GT PUSH1 0x1 DUP2 EQ PUSH2 0x35B JUMPI PUSH1 0x0 DUP5 ISZERO PUSH2 0x349 JUMPI DUP3 DUP8 ADD MLOAD SWAP1 POP JUMPDEST PUSH2 0x353 DUP6 DUP3 PUSH2 0x2D5 JUMP JUMPDEST DUP7 SSTORE POP PUSH2 0x3BB JUMP JUMPDEST PUSH1 0x1F NOT DUP5 AND PUSH2 0x369 DUP7 PUSH2 0x13B JUMP JUMPDEST PUSH1 0x0 JUMPDEST DUP3 DUP2 LT ISZERO PUSH2 0x391 JUMPI DUP5 DUP10 ADD MLOAD DUP3 SSTORE PUSH1 0x1 DUP3 ADD SWAP2 POP PUSH1 0x20 DUP6 ADD SWAP5 POP PUSH1 0x20 DUP2 ADD SWAP1 POP PUSH2 0x36C JUMP JUMPDEST DUP7 DUP4 LT ISZERO PUSH2 0x3AE JUMPI DUP5 DUP10 ADD MLOAD PUSH2 0x3AA PUSH1 0x1F DUP10 AND DUP3 PUSH2 0x2B7 JUMP JUMPDEST DUP4 SSTORE POP JUMPDEST PUSH1 0x1 PUSH1 0x2 DUP9 MUL ADD DUP9 SSTORE POP POP POP JUMPDEST POP POP POP POP POP POP JUMP JUMPDEST PUSH1 0x80 MLOAD PUSH2 0x3C69 PUSH2 0x401 PUSH1 0x0 CODECOPY PUSH1 0x0 DUP2 DUP2 PUSH2 0x449 ADD MSTORE DUP2 DUP2 PUSH2 0x60F ADD MSTORE DUP2 DUP2 PUSH2 0x964 ADD MSTORE DUP2 DUP2 PUSH2 0xBDC ADD MSTORE DUP2 DUP2 PUSH2 0xC74 ADD MSTORE PUSH2 0xD77 ADD MSTORE PUSH2 0x3C69 PUSH1 0x0 RETURN INVALID PUSH1 0x80 PUSH1 0x40 MSTORE CALLVALUE DUP1 ISZERO PUSH2 0x10 JUMPI PUSH1 0x0 DUP1 REVERT JUMPDEST POP PUSH1 0x4 CALLDATASIZE LT PUSH2 0x140 JUMPI PUSH1 0x0 CALLDATALOAD PUSH1 0xE0 SHR DUP1 PUSH4 0x6B20C454 GT PUSH2 0xB8 JUMPI DUP1 PUSH4 0xBD85B039 GT PUSH2 0x7C JUMPI DUP1 PUSH4 0xBD85B039 EQ PUSH2 0x361 JUMPI DUP1 PUSH4 0xE985E9C5 EQ PUSH2 0x391 JUMPI DUP1 PUSH4 0xEACABE14 EQ PUSH2 0x3C1 JUMPI DUP1 PUSH4 0xF23A6E61 EQ PUSH2 0x3DD JUMPI DUP1 PUSH4 0xF242432A EQ PUSH2 0x40D JUMPI DUP1 PUSH4 0xF5298ACA EQ PUSH2 0x429 JUMPI PUSH2 0x140 JUMP JUMPDEST DUP1 PUSH4 0x6B20C454 EQ PUSH2 0x2D1 JUMPI DUP1 PUSH4 0x8456CB59 EQ PUSH2 0x2ED JUMPI DUP1 PUSH4 0x8DA5CB5B EQ PUSH2 0x2F7 JUMPI DUP1 PUSH4 0xA22CB465 EQ PUSH2 0x315 JUMPI DUP1 PUSH4 0xBC197C81 EQ PUSH2 0x331 JUMPI PUSH2 0x140 JUMP JUMPDEST DUP1 PUSH4 0x2EB2C2D6 GT PUSH2 0x10A JUMPI DUP1 PUSH4 0x2EB2C2D6 EQ PUSH2 0x211 JUMPI DUP1 PUSH4 0x30A50A8C EQ PUSH2 0x22D JUMPI DUP1 PUSH4 0x3F4BA83A EQ PUSH2 0x249 JUMPI DUP1 PUSH4 0x4E1273F4 EQ PUSH2 0x253 JUMPI DUP1 PUSH4 0x4F558E79 EQ PUSH2 0x283 JUMPI DUP1 PUSH4 0x5C975ABB EQ PUSH2 0x2B3 JUMPI PUSH2 0x140 JUMP JUMPDEST DUP1 PUSH3 0x9A9B7B EQ PUSH2 0x145 JUMPI DUP1 PUSH3 0xFDD58E EQ PUSH2 0x163 JUMPI DUP1 PUSH4 0x1FFC9A7 EQ PUSH2 0x193 JUMPI DUP1 PUSH4 0xE89341C EQ PUSH2 0x1C3 JUMPI DUP1 PUSH4 0x18160DDD EQ PUSH2 0x1F3 JUMPI JUMPDEST PUSH1 0x0 DUP1 REVERT JUMPDEST PUSH2 0x14D PUSH2 0x445 JUMP JUMPDEST PUSH1 0x40 MLOAD PUSH2 0x15A SWAP2 SWAP1 PUSH2 0x2505 JUMP JUMPDEST PUSH1 0x40 MLOAD DUP1 SWAP2 SUB SWAP1 RETURN JUMPDEST PUSH2 0x17D PUSH1 0x4 DUP1 CALLDATASIZE SUB DUP2 ADD SWAP1 PUSH2 0x178 SWAP2 SWAP1 PUSH2 0x25BE JUMP JUMPDEST PUSH2 0x4DD JUMP JUMPDEST PUSH1 0x40 MLOAD PUSH2 0x18A SWAP2 SWAP1 PUSH2 0x2505 JUMP JUMPDEST PUSH1 0x40 MLOAD DUP1 SWAP2 SUB SWAP1 RETURN JUMPDEST PUSH2 0x1AD PUSH1 0x4 DUP1 CALLDATASIZE SUB DUP2 ADD SWAP1 PUSH2 0x1A8 SWAP2 SWAP1 PUSH2 0x2656 JUMP JUMPDEST PUSH2 0x537 JUMP JUMPDEST PUSH1 0x40 MLOAD PUSH2 0x1BA SWAP2 SWAP1 PUSH2 0x269E JUMP JUMPDEST PUSH1 0x40 MLOAD DUP1 SWAP2 SUB SWAP1 RETURN JUMPDEST PUSH2 0x1DD PUSH1 0x4 DUP1 CALLDATASIZE SUB DUP2 ADD SWAP1 PUSH2 0x1D8 SWAP2 SWAP1 PUSH2 0x26B9 JUMP JUMPDEST PUSH2 0x549 JUMP JUMPDEST PUSH1 0x40 MLOAD PUSH2 0x1EA SWAP2 SWAP1 PUSH2 0x2776 JUMP JUMPDEST PUSH1 0x40 MLOAD DUP1 SWAP2 SUB SWAP1 RETURN JUMPDEST PUSH2 0x1FB PUSH2 0x55B JUMP JUMPDEST PUSH1 0x40 MLOAD PUSH2 0x208 SWAP2 SWAP1 PUSH2 0x2505 JUMP JUMPDEST PUSH1 0x40 MLOAD DUP1 SWAP2 SUB SWAP1 RETURN JUMPDEST PUSH2 0x22B PUSH1 0x4 DUP1 CALLDATASIZE SUB DUP2 ADD SWAP1 PUSH2 0x226 SWAP2 SWAP1 PUSH2 0x2995 JUMP JUMPDEST PUSH2 0x565 JUMP JUMPDEST STOP JUMPDEST PUSH2 0x247 PUSH1 0x4 DUP1 CALLDATASIZE SUB DUP2 ADD SWAP1 PUSH2 0x242 SWAP2 SWAP1 PUSH2 0x2BE6 JUMP JUMPDEST PUSH2 0x60D JUMP JUMPDEST STOP JUMPDEST PUSH2 0x251 PUSH2 0x962 JUMP JUMPDEST STOP JUMPDEST PUSH2 0x26D PUSH1 0x4 DUP1 CALLDATASIZE SUB DUP2 ADD SWAP1 PUSH2 0x268 SWAP2 SWAP1 PUSH2 0x2D05 JUMP JUMPDEST PUSH2 0x9FA JUMP JUMPDEST PUSH1 0x40 MLOAD PUSH2 0x27A SWAP2 SWAP1 PUSH2 0x2E3B JUMP JUMPDEST PUSH1 0x40 MLOAD DUP1 SWAP2 SUB SWAP1 RETURN JUMPDEST PUSH2 0x29D PUSH1 0x4 DUP1 CALLDATASIZE SUB DUP2 ADD SWAP1 PUSH2 0x298 SWAP2 SWAP1 PUSH2 0x26B9 JUMP JUMPDEST PUSH2 0xB03 JUMP JUMPDEST PUSH1 0x40 MLOAD PUSH2 0x2AA SWAP2 SWAP1 PUSH2 0x269E JUMP JUMPDEST PUSH1 0x40 MLOAD DUP1 SWAP2 SUB SWAP1 RETURN JUMPDEST PUSH2 0x2BB PUSH2 0xB17 JUMP JUMPDEST PUSH1 0x40 MLOAD PUSH2 0x2C8 SWAP2 SWAP1 PUSH2 0x269E JUMP JUMPDEST PUSH1 0x40 MLOAD DUP1 SWAP2 SUB SWAP1 RETURN JUMPDEST PUSH2 0x2EB PUSH1 0x4 DUP1 CALLDATASIZE SUB DUP2 ADD SWAP1 PUSH2 0x2E6 SWAP2 SWAP1 PUSH2 0x2E5D JUMP JUMPDEST PUSH2 0xB2E JUMP JUMPDEST STOP JUMPDEST PUSH2 0x2F5 PUSH2 0xBDA JUMP JUMPDEST STOP JUMPDEST PUSH2 0x2FF PUSH2 0xC72 JUMP JUMPDEST PUSH1 0x40 MLOAD PUSH2 0x30C SWAP2 SWAP1 PUSH2 0x2EF7 JUMP JUMPDEST PUSH1 0x40 MLOAD DUP1 SWAP2 SUB SWAP1 RETURN JUMPDEST PUSH2 0x32F PUSH1 0x4 DUP1 CALLDATASIZE SUB DUP2 ADD SWAP1 PUSH2 0x32A SWAP2 SWAP1 PUSH2 0x2F3E JUMP JUMPDEST PUSH2 0xC96 JUMP JUMPDEST STOP JUMPDEST PUSH2 0x34B PUSH1 0x4 DUP1 CALLDATASIZE SUB DUP2 ADD SWAP1 PUSH2 0x346 SWAP2 SWAP1 PUSH2 0x302F JUMP JUMPDEST PUSH2 0xCAC JUMP JUMPDEST PUSH1 0x40 MLOAD PUSH2 0x358 SWAP2 SWAP1 PUSH2 0x311A JUMP JUMPDEST PUSH1 0x40 MLOAD DUP1 SWAP2 SUB SWAP1 RETURN JUMPDEST PUSH2 0x37B PUSH1 0x4 DUP1 CALLDATASIZE SUB DUP2 ADD SWAP1 PUSH2 0x376 SWAP2 SWAP1 PUSH2 0x26B9 JUMP JUMPDEST PUSH2 0xCC4 JUMP JUMPDEST PUSH1 0x40 MLOAD PUSH2 0x388 SWAP2 SWAP1 PUSH2 0x2505 JUMP JUMPDEST PUSH1 0x40 MLOAD DUP1 SWAP2 SUB SWAP1 RETURN JUMPDEST PUSH2 0x3AB PUSH1 0x4 DUP1 CALLDATASIZE SUB DUP2 ADD SWAP1 PUSH2 0x3A6 SWAP2 SWAP1 PUSH2 0x3135 JUMP JUMPDEST PUSH2 0xCE1 JUMP JUMPDEST PUSH1 0x40 MLOAD PUSH2 0x3B8 SWAP2 SWAP1 PUSH2 0x269E JUMP JUMPDEST PUSH1 0x40 MLOAD DUP1 SWAP2 SUB SWAP1 RETURN JUMPDEST PUSH2 0x3DB PUSH1 0x4 DUP1 CALLDATASIZE SUB DUP2 ADD SWAP1 PUSH2 0x3D6 SWAP2 SWAP1 PUSH2 0x3175 JUMP JUMPDEST PUSH2 0xD75 JUMP JUMPDEST STOP JUMPDEST PUSH2 0x3F7 PUSH1 0x4 DUP1 CALLDATASIZE SUB DUP2 ADD SWAP1 PUSH2 0x3F2 SWAP2 SWAP1 PUSH2 0x31D1 JUMP JUMPDEST PUSH2 0xEF1 JUMP JUMPDEST PUSH1 0x40 MLOAD PUSH2 0x404 SWAP2 SWAP1 PUSH2 0x311A JUMP JUMPDEST PUSH1 0x40 MLOAD DUP1 SWAP2 SUB SWAP1 RETURN JUMPDEST PUSH2 0x427 PUSH1 0x4 DUP1 CALLDATASIZE SUB DUP2 ADD SWAP1 PUSH2 0x422 SWAP2 SWAP1 PUSH2 0x326B JUMP JUMPDEST PUSH2 0xF07 JUMP JUMPDEST STOP JUMPDEST PUSH2 0x443 PUSH1 0x4 DUP1 CALLDATASIZE SUB DUP2 ADD SWAP1 PUSH2 0x43E SWAP2 SWAP1 PUSH2 0x3302 JUMP JUMPDEST PUSH2 0xFAF JUMP JUMPDEST STOP JUMPDEST PUSH1 0x0 PUSH32 0x0 PUSH20 0xFFFFFFFFFFFFFFFFFFFFFFFFFFFFFFFFFFFFFFFF AND CALLER PUSH20 0xFFFFFFFFFFFFFFFFFFFFFFFFFFFFFFFFFFFFFFFF AND EQ PUSH2 0x4D5 JUMPI PUSH1 0x40 MLOAD PUSH32 0x8C379A000000000000000000000000000000000000000000000000000000000 DUP2 MSTORE PUSH1 0x4 ADD PUSH2 0x4CC SWAP1 PUSH2 0x33A1 JUMP JUMPDEST PUSH1 0x40 MLOAD DUP1 SWAP2 SUB SWAP1 REVERT JUMPDEST PUSH1 0x8 SLOAD SWAP1 POP SWAP1 JUMP JUMPDEST PUSH1 0x0 DUP1 PUSH1 0x0 DUP4 DUP2 MSTORE PUSH1 0x20 ADD SWAP1 DUP2 MSTORE PUSH1 0x20 ADD PUSH1 0x0 KECCAK256 PUSH1 0x0 DUP5 PUSH20 0xFFFFFFFFFFFFFFFFFFFFFFFFFFFFFFFFFFFFFFFF AND PUSH20 0xFFFFFFFFFFFFFFFFFFFFFFFFFFFFFFFFFFFFFFFF AND DUP2 MSTORE PUSH1 0x20 ADD SWAP1 DUP2 MSTORE PUSH1 0x20 ADD PUSH1 0x0 KECCAK256 SLOAD SWAP1 POP SWAP3 SWAP2 POP POP JUMP JUMPDEST PUSH1 0x0 PUSH2 0x542 DUP3 PUSH2 0x105B JUMP JUMPDEST SWAP1 POP SWAP2 SWAP1 POP JUMP JUMPDEST PUSH1 0x60 PUSH2 0x554 DUP3 PUSH2 0x10D5 JUMP JUMPDEST SWAP1 POP SWAP2 SWAP1 POP JUMP JUMPDEST PUSH1 0x0 PUSH1 0x7 SLOAD SWAP1 POP SWAP1 JUMP JUMPDEST PUSH1 0x0 PUSH2 0x56F PUSH2 0x11BA JUMP JUMPDEST SWAP1 POP DUP1 PUSH20 0xFFFFFFFFFFFFFFFFFFFFFFFFFFFFFFFFFFFFFFFF AND DUP7 PUSH20 0xFFFFFFFFFFFFFFFFFFFFFFFFFFFFFFFFFFFFFFFF AND EQ ISZERO DUP1 ISZERO PUSH2 0x5B4 JUMPI POP PUSH2 0x5B2 DUP7 DUP3 PUSH2 0xCE1 JUMP JUMPDEST ISZERO JUMPDEST ISZERO PUSH2 0x5F8 JUMPI DUP1 DUP7 PUSH1 0x40 MLOAD PUSH32 0xE237D92200000000000000000000000000000000000000000000000000000000 DUP2 MSTORE PUSH1 0x4 ADD PUSH2 0x5EF SWAP3 SWAP2 SWAP1 PUSH2 0x33C1 JUMP JUMPDEST PUSH1 0x40 MLOAD DUP1 SWAP2 SUB SWAP1 REVERT JUMPDEST PUSH2 0x605 DUP7 DUP7 DUP7 DUP7 DUP7 PUSH2 0x11C2 JUMP JUMPDEST POP POP POP POP POP POP JUMP JUMPDEST PUSH32 0x0 PUSH20 0xFFFFFFFFFFFFFFFFFFFFFFFFFFFFFFFFFFFFFFFF AND CALLER PUSH20 0xFFFFFFFFFFFFFFFFFFFFFFFFFFFFFFFFFFFFFFFF AND EQ PUSH2 0x69B JUMPI PUSH1 0x40 MLOAD PUSH32 0x8C379A000000000000000000000000000000000000000000000000000000000 DUP2 MSTORE PUSH1 0x4 ADD PUSH2 0x692 SWAP1 PUSH2 0x33A1 JUMP JUMPDEST PUSH1 0x40 MLOAD DUP1 SWAP2 SUB SWAP1 REVERT JUMPDEST PUSH1 0x1 DUP2 MLOAD GT PUSH2 0x6DF JUMPI PUSH1 0x40 MLOAD PUSH32 0x8C379A000000000000000000000000000000000000000000000000000000000 DUP2 MSTORE PUSH1 0x4 ADD PUSH2 0x6D6 SWAP1 PUSH2 0x3436 JUMP JUMPDEST PUSH1 0x40 MLOAD DUP1 SWAP2 SUB SWAP1 REVERT JUMPDEST PUSH1 0x32 DUP2 MLOAD GT ISZERO PUSH2 0x724 JUMPI PUSH1 0x40 MLOAD PUSH32 0x8C379A000000000000000000000000000000000000000000000000000000000 DUP2 MSTORE PUSH1 0x4 ADD PUSH2 0x71B SWAP1 PUSH2 0x34A2 JUMP JUMPDEST PUSH1 0x40 MLOAD DUP1 SWAP2 SUB SWAP1 REVERT JUMPDEST PUSH32 0xFFFFFFFFFFFFFFFFFFFFFFFFFFFFFFFFFFFFFFFFFFFFFFFFFFFFFFFFFFFFFFFF DUP2 MLOAD PUSH1 0x8 SLOAD PUSH2 0x754 SWAP2 SWAP1 PUSH2 0x34F1 JUMP JUMPDEST LT PUSH2 0x794 JUMPI PUSH1 0x40 MLOAD PUSH32 0x8C379A000000000000000000000000000000000000000000000000000000000 DUP2 MSTORE PUSH1 0x4 ADD PUSH2 0x78B SWAP1 PUSH2 0x3571 JUMP JUMPDEST PUSH1 0x40 MLOAD DUP1 SWAP2 SUB SWAP1 REVERT JUMPDEST PUSH1 0x0 DUP2 MLOAD PUSH8 0xFFFFFFFFFFFFFFFF DUP2 GT ISZERO PUSH2 0x7B1 JUMPI PUSH2 0x7B0 PUSH2 0x279D JUMP JUMPDEST JUMPDEST PUSH1 0x40 MLOAD SWAP1 DUP1 DUP3 MSTORE DUP1 PUSH1 0x20 MUL PUSH1 0x20 ADD DUP3 ADD PUSH1 0x40 MSTORE DUP1 ISZERO PUSH2 0x7DF JUMPI DUP2 PUSH1 0x20 ADD PUSH1 0x20 DUP3 MUL DUP1 CALLDATASIZE DUP4 CALLDATACOPY DUP1 DUP3 ADD SWAP2 POP POP SWAP1 POP JUMPDEST POP SWAP1 POP PUSH1 0x0 DUP3 MLOAD PUSH8 0xFFFFFFFFFFFFFFFF DUP2 GT ISZERO PUSH2 0x7FF JUMPI PUSH2 0x7FE PUSH2 0x279D JUMP JUMPDEST JUMPDEST PUSH1 0x40 MLOAD SWAP1 DUP1 DUP3 MSTORE DUP1 PUSH1 0x20 MUL PUSH1 0x20 ADD DUP3 ADD PUSH1 0x40 MSTORE DUP1 ISZERO PUSH2 0x82D JUMPI DUP2 PUSH1 0x20 ADD PUSH1 0x20 DUP3 MUL DUP1 CALLDATASIZE DUP4 CALLDATACOPY DUP1 DUP3 ADD SWAP2 POP POP SWAP1 POP JUMPDEST POP SWAP1 POP PUSH1 0x0 JUMPDEST DUP4 MLOAD DUP2 LT ISZERO PUSH2 0x940 JUMPI PUSH1 0x0 DUP5 DUP3 DUP2 MLOAD DUP2 LT PUSH2 0x851 JUMPI PUSH2 0x850 PUSH2 0x3591 JUMP JUMPDEST JUMPDEST PUSH1 0x20 MUL PUSH1 0x20 ADD ADD MLOAD MLOAD GT PUSH2 0x89A JUMPI PUSH1 0x40 MLOAD PUSH32 0x8C379A000000000000000000000000000000000000000000000000000000000 DUP2 MSTORE PUSH1 0x4 ADD PUSH2 0x891 SWAP1 PUSH2 0x360C JUMP JUMPDEST PUSH1 0x40 MLOAD DUP1 SWAP2 SUB SWAP1 REVERT JUMPDEST PUSH1 0x8 SLOAD DUP4 DUP3 DUP2 MLOAD DUP2 LT PUSH2 0x8B0 JUMPI PUSH2 0x8AF PUSH2 0x3591 JUMP JUMPDEST JUMPDEST PUSH1 0x20 MUL PUSH1 0x20 ADD ADD DUP2 DUP2 MSTORE POP POP PUSH1 0x8 PUSH1 0x0 DUP2 SLOAD DUP1 SWAP3 SWAP2 SWAP1 PUSH2 0x8CF SWAP1 PUSH2 0x362C JUMP JUMPDEST SWAP2 SWAP1 POP SSTORE POP PUSH1 0x1 DUP3 DUP3 DUP2 MLOAD DUP2 LT PUSH2 0x8E9 JUMPI PUSH2 0x8E8 PUSH2 0x3591 JUMP JUMPDEST JUMPDEST PUSH1 0x20 MUL PUSH1 0x20 ADD ADD DUP2 DUP2 MSTORE POP POP PUSH2 0x933 DUP4 DUP3 DUP2 MLOAD DUP2 LT PUSH2 0x90B JUMPI PUSH2 0x90A PUSH2 0x3591 JUMP JUMPDEST JUMPDEST PUSH1 0x20 MUL PUSH1 0x20 ADD ADD MLOAD DUP6 DUP4 DUP2 MLOAD DUP2 LT PUSH2 0x926 JUMPI PUSH2 0x925 PUSH2 0x3591 JUMP JUMPDEST JUMPDEST PUSH1 0x20 MUL PUSH1 0x20 ADD ADD MLOAD PUSH2 0x12BA JUMP JUMPDEST DUP1 DUP1 PUSH1 0x1 ADD SWAP2 POP POP PUSH2 0x833 JUMP JUMPDEST POP PUSH2 0x95C DUP5 DUP4 DUP4 PUSH1 0x40 MLOAD DUP1 PUSH1 0x20 ADD PUSH1 0x40 MSTORE DUP1 PUSH1 0x0 DUP2 MSTORE POP PUSH2 0x131F JUMP JUMPDEST POP POP POP POP JUMP JUMPDEST PUSH32 0x0 PUSH20 0xFFFFFFFFFFFFFFFFFFFFFFFFFFFFFFFFFFFFFFFF AND CALLER PUSH20 0xFFFFFFFFFFFFFFFFFFFFFFFFFFFFFFFFFFFFFFFF AND EQ PUSH2 0x9F0 JUMPI PUSH1 0x40 MLOAD PUSH32 0x8C379A000000000000000000000000000000000000000000000000000000000 DUP2 MSTORE PUSH1 0x4 ADD PUSH2 0x9E7 SWAP1 PUSH2 0x33A1 JUMP JUMPDEST PUSH1 0x40 MLOAD DUP1 SWAP2 SUB SWAP1 REVERT JUMPDEST PUSH2 0x9F8 PUSH2 0x13A5 JUMP JUMPDEST JUMP JUMPDEST PUSH1 0x60 DUP2 MLOAD DUP4 MLOAD EQ PUSH2 0xA46 JUMPI DUP2 MLOAD DUP4 MLOAD PUSH1 0x40 MLOAD PUSH32 0x5B05999100000000000000000000000000000000000000000000000000000000 DUP2 MSTORE PUSH1 0x4 ADD PUSH2 0xA3D SWAP3 SWAP2 SWAP1 PUSH2 0x3674 JUMP JUMPDEST PUSH1 0x40 MLOAD DUP1 SWAP2 SUB SWAP1 REVERT JUMPDEST PUSH1 0x0 DUP4 MLOAD PUSH8 0xFFFFFFFFFFFFFFFF DUP2 GT ISZERO PUSH2 0xA63 JUMPI PUSH2 0xA62 PUSH2 0x279D JUMP JUMPDEST JUMPDEST PUSH1 0x40 MLOAD SWAP1 DUP1 DUP3 MSTORE DUP1 PUSH1 0x20 MUL PUSH1 0x20 ADD DUP3 ADD PUSH1 0x40 MSTORE DUP1 ISZERO PUSH2 0xA91 JUMPI DUP2 PUSH1 0x20 ADD PUSH1 0x20 DUP3 MUL DUP1 CALLDATASIZE DUP4 CALLDATACOPY DUP1 DUP3 ADD SWAP2 POP POP SWAP1 POP JUMPDEST POP SWAP1 POP PUSH1 0x0 JUMPDEST DUP5 MLOAD DUP2 LT ISZERO PUSH2 0xAF8 JUMPI PUSH2 0xACE PUSH2 0xAB6 DUP3 DUP8 PUSH2 0x1408 SWAP1 SWAP2 SWAP1 PUSH4 0xFFFFFFFF AND JUMP JUMPDEST PUSH2 0xAC9 DUP4 DUP8 PUSH2 0x141C SWAP1 SWAP2 SWAP1 PUSH4 0xFFFFFFFF AND JUMP JUMPDEST PUSH2 0x4DD JUMP JUMPDEST DUP3 DUP3 DUP2 MLOAD DUP2 LT PUSH2 0xAE1 JUMPI PUSH2 0xAE0 PUSH2 0x3591 JUMP JUMPDEST JUMPDEST PUSH1 0x20 MUL PUSH1 0x20 ADD ADD DUP2 DUP2 MSTORE POP POP DUP1 PUSH1 0x1 ADD SWAP1 POP PUSH2 0xA97 JUMP JUMPDEST POP DUP1 SWAP2 POP POP SWAP3 SWAP2 POP POP JUMP JUMPDEST PUSH1 0x0 DUP1 PUSH2 0xB0F DUP4 PUSH2 0xCC4 JUMP JUMPDEST GT SWAP1 POP SWAP2 SWAP1 POP JUMP JUMPDEST PUSH1 0x0 PUSH1 0x5 PUSH1 0x0 SWAP1 SLOAD SWAP1 PUSH2 0x100 EXP SWAP1 DIV PUSH1 0xFF AND SWAP1 POP SWAP1 JUMP JUMPDEST PUSH2 0xB36 PUSH2 0x11BA JUMP JUMPDEST PUSH20 0xFFFFFFFFFFFFFFFFFFFFFFFFFFFFFFFFFFFFFFFF AND DUP4 PUSH20 0xFFFFFFFFFFFFFFFFFFFFFFFFFFFFFFFFFFFFFFFF AND EQ ISZERO DUP1 ISZERO PUSH2 0xB7F JUMPI POP PUSH2 0xB7D DUP4 PUSH2 0xB78 PUSH2 0x11BA JUMP JUMPDEST PUSH2 0xCE1 JUMP JUMPDEST ISZERO JUMPDEST ISZERO PUSH2 0xBCA JUMPI PUSH2 0xB8C PUSH2 0x11BA JUMP JUMPDEST DUP4 PUSH1 0x40 MLOAD PUSH32 0xE237D92200000000000000000000000000000000000000000000000000000000 DUP2 MSTORE PUSH1 0x4 ADD PUSH2 0xBC1 SWAP3 SWAP2 SWAP1 PUSH2 0x33C1 JUMP JUMPDEST PUSH1 0x40 MLOAD DUP1 SWAP2 SUB SWAP1 REVERT JUMPDEST PUSH2 0xBD5 DUP4 DUP4 DUP4 PUSH2 0x1430 JUMP JUMPDEST POP POP POP JUMP JUMPDEST PUSH32 0x0 PUSH20 0xFFFFFFFFFFFFFFFFFFFFFFFFFFFFFFFFFFFFFFFF AND CALLER PUSH20 0xFFFFFFFFFFFFFFFFFFFFFFFFFFFFFFFFFFFFFFFF AND EQ PUSH2 0xC68 JUMPI PUSH1 0x40 MLOAD PUSH32 0x8C379A000000000000000000000000000000000000000000000000000000000 DUP2 MSTORE PUSH1 0x4 ADD PUSH2 0xC5F SWAP1 PUSH2 0x33A1 JUMP JUMPDEST PUSH1 0x40 MLOAD DUP1 SWAP2 SUB SWAP1 REVERT JUMPDEST PUSH2 0xC70 PUSH2 0x14C4 JUMP JUMPDEST JUMP JUMPDEST PUSH32 0x0 DUP2 JUMP JUMPDEST PUSH2 0xCA8 PUSH2 0xCA1 PUSH2 0x11BA JUMP JUMPDEST DUP4 DUP4 PUSH2 0x1527 JUMP JUMPDEST POP POP JUMP JUMPDEST PUSH1 0x0 PUSH4 0xBC197C81 PUSH1 0xE0 SHL SWAP1 POP SWAP9 SWAP8 POP POP POP POP POP POP POP POP JUMP JUMPDEST PUSH1 0x0 PUSH1 0x6 PUSH1 0x0 DUP4 DUP2 MSTORE PUSH1 0x20 ADD SWAP1 DUP2 MSTORE PUSH1 0x20 ADD PUSH1 0x0 KECCAK256 SLOAD SWAP1 POP SWAP2 SWAP1 POP JUMP JUMPDEST PUSH1 0x0 PUSH1 0x1 PUSH1 0x0 DUP5 PUSH20 0xFFFFFFFFFFFFFFFFFFFFFFFFFFFFFFFFFFFFFFFF AND PUSH20 0xFFFFFFFFFFFFFFFFFFFFFFFFFFFFFFFFFFFFFFFF AND DUP2 MSTORE PUSH1 0x20 ADD SWAP1 DUP2 MSTORE PUSH1 0x20 ADD PUSH1 0x0 KECCAK256 PUSH1 0x0 DUP4 PUSH20 0xFFFFFFFFFFFFFFFFFFFFFFFFFFFFFFFFFFFFFFFF AND PUSH20 0xFFFFFFFFFFFFFFFFFFFFFFFFFFFFFFFFFFFFFFFF AND DUP2 MSTORE PUSH1 0x20 ADD SWAP1 DUP2 MSTORE PUSH1 0x20 ADD PUSH1 0x0 KECCAK256 PUSH1 0x0 SWAP1 SLOAD SWAP1 PUSH2 0x100 EXP SWAP1 DIV PUSH1 0xFF AND SWAP1 POP SWAP3 SWAP2 POP POP JUMP JUMPDEST PUSH32 0x0 PUSH20 0xFFFFFFFFFFFFFFFFFFFFFFFFFFFFFFFFFFFFFFFF AND CALLER PUSH20 0xFFFFFFFFFFFFFFFFFFFFFFFFFFFFFFFFFFFFFFFF AND EQ PUSH2 0xE03 JUMPI PUSH1 0x40 MLOAD PUSH32 0x8C379A000000000000000000000000000000000000000000000000000000000 DUP2 MSTORE PUSH1 0x4 ADD PUSH2 0xDFA SWAP1 PUSH2 0x33A1 JUMP JUMPDEST PUSH1 0x40 MLOAD DUP1 SWAP2 SUB SWAP1 REVERT JUMPDEST PUSH1 0x0 DUP2 MLOAD GT PUSH2 0xE47 JUMPI PUSH1 0x40 MLOAD PUSH32 0x8C379A000000000000000000000000000000000000000000000000000000000 DUP2 MSTORE PUSH1 0x4 ADD PUSH2 0xE3E SWAP1 PUSH2 0x360C JUMP JUMPDEST PUSH1 0x40 MLOAD DUP1 SWAP2 SUB SWAP1 REVERT JUMPDEST PUSH32 0xFFFFFFFFFFFFFFFFFFFFFFFFFFFFFFFFFFFFFFFFFFFFFFFFFFFFFFFFFFFFFFFF PUSH1 0x8 SLOAD SUB PUSH2 0xEAB JUMPI PUSH1 0x40 MLOAD PUSH32 0x8C379A000000000000000000000000000000000000000000000000000000000 DUP2 MSTORE PUSH1 0x4 ADD PUSH2 0xEA2 SWAP1 PUSH2 0x3571 JUMP JUMPDEST PUSH1 0x40 MLOAD DUP1 SWAP2 SUB SWAP1 REVERT JUMPDEST PUSH2 0xEC9 DUP3 PUSH1 0x8 SLOAD PUSH1 0x1 PUSH1 0x40 MLOAD DUP1 PUSH1 0x20 ADD PUSH1 0x40 MSTORE DUP1 PUSH1 0x0 DUP2 MSTORE POP PUSH2 0x1697 JUMP JUMPDEST PUSH2 0xED5 PUSH1 0x8 SLOAD DUP3 PUSH2 0x12BA JUMP JUMPDEST PUSH1 0x8 PUSH1 0x0 DUP2 SLOAD DUP1 SWAP3 SWAP2 SWAP1 PUSH2 0xEE8 SWAP1 PUSH2 0x362C JUMP JUMPDEST SWAP2 SWAP1 POP SSTORE POP POP POP JUMP JUMPDEST PUSH1 0x0 PUSH4 0xF23A6E61 PUSH1 0xE0 SHL SWAP1 POP SWAP7 SWAP6 POP POP POP POP POP POP JUMP JUMPDEST PUSH1 0x0 PUSH2 0xF11 PUSH2 0x11BA JUMP JUMPDEST SWAP1 POP DUP1 PUSH20 0xFFFFFFFFFFFFFFFFFFFFFFFFFFFFFFFFFFFFFFFF AND DUP7 PUSH20 0xFFFFFFFFFFFFFFFFFFFFFFFFFFFFFFFFFFFFFFFF AND EQ ISZERO DUP1 ISZERO PUSH2 0xF56 JUMPI POP PUSH2 0xF54 DUP7 DUP3 PUSH2 0xCE1 JUMP JUMPDEST ISZERO JUMPDEST ISZERO PUSH2 0xF9A JUMPI DUP1 DUP7 PUSH1 0x40 MLOAD PUSH32 0xE237D92200000000000000000000000000000000000000000000000000000000 DUP2 MSTORE PUSH1 0x4 ADD PUSH2 0xF91 SWAP3 SWAP2 SWAP1 PUSH2 0x33C1 JUMP JUMPDEST PUSH1 0x40 MLOAD DUP1 SWAP2 SUB SWAP1 REVERT JUMPDEST PUSH2 0xFA7 DUP7 DUP7 DUP7 DUP7 DUP7 PUSH2 0x1730 JUMP JUMPDEST POP POP POP POP POP POP JUMP JUMPDEST PUSH2 0xFB7 PUSH2 0x11BA JUMP JUMPDEST PUSH20 0xFFFFFFFFFFFFFFFFFFFFFFFFFFFFFFFFFFFFFFFF AND DUP4 PUSH20 0xFFFFFFFFFFFFFFFFFFFFFFFFFFFFFFFFFFFFFFFF AND EQ ISZERO DUP1 ISZERO PUSH2 0x1000 JUMPI POP PUSH2 0xFFE DUP4 PUSH2 0xFF9 PUSH2 0x11BA JUMP JUMPDEST PUSH2 0xCE1 JUMP JUMPDEST ISZERO JUMPDEST ISZERO PUSH2 0x104B JUMPI PUSH2 0x100D PUSH2 0x11BA JUMP JUMPDEST DUP4 PUSH1 0x40 MLOAD PUSH32 0xE237D92200000000000000000000000000000000000000000000000000000000 DUP2 MSTORE PUSH1 0x4 ADD PUSH2 0x1042 SWAP3 SWAP2 SWAP1 PUSH2 0x33C1 JUMP JUMPDEST PUSH1 0x40 MLOAD DUP1 SWAP2 SUB SWAP1 REVERT JUMPDEST PUSH2 0x1056 DUP4 DUP4 DUP4 PUSH2 0x183B JUMP JUMPDEST POP POP POP JUMP JUMPDEST PUSH1 0x0 PUSH32 0x4E2312E000000000000000000000000000000000000000000000000000000000 PUSH28 0xFFFFFFFFFFFFFFFFFFFFFFFFFFFFFFFFFFFFFFFFFFFFFFFFFFFFFFFF NOT AND DUP3 PUSH28 0xFFFFFFFFFFFFFFFFFFFFFFFFFFFFFFFFFFFFFFFFFFFFFFFFFFFFFFFF NOT AND EQ DUP1 PUSH2 0x10CE JUMPI POP PUSH2 0x10CD DUP3 PUSH2 0x18E2 JUMP JUMPDEST JUMPDEST SWAP1 POP SWAP2 SWAP1 POP JUMP JUMPDEST PUSH1 0x60 PUSH1 0x0 PUSH1 0x4 PUSH1 0x0 DUP5 DUP2 MSTORE PUSH1 0x20 ADD SWAP1 DUP2 MSTORE PUSH1 0x20 ADD PUSH1 0x0 KECCAK256 DUP1 SLOAD PUSH2 0x10F7 SWAP1 PUSH2 0x36CC JUMP JUMPDEST DUP1 PUSH1 0x1F ADD PUSH1 0x20 DUP1 SWAP2 DIV MUL PUSH1 0x20 ADD PUSH1 0x40 MLOAD SWAP1 DUP2 ADD PUSH1 0x40 MSTORE DUP1 SWAP3 SWAP2 SWAP1 DUP2 DUP2 MSTORE PUSH1 0x20 ADD DUP3 DUP1 SLOAD PUSH2 0x1123 SWAP1 PUSH2 0x36CC JUMP JUMPDEST DUP1 ISZERO PUSH2 0x1170 JUMPI DUP1 PUSH1 0x1F LT PUSH2 0x1145 JUMPI PUSH2 0x100 DUP1 DUP4 SLOAD DIV MUL DUP4 MSTORE SWAP2 PUSH1 0x20 ADD SWAP2 PUSH2 0x1170 JUMP JUMPDEST DUP3 ADD SWAP2 SWAP1 PUSH1 0x0 MSTORE PUSH1 0x20 PUSH1 0x0 KECCAK256 SWAP1 JUMPDEST DUP2 SLOAD DUP2 MSTORE SWAP1 PUSH1 0x1 ADD SWAP1 PUSH1 0x20 ADD DUP1 DUP4 GT PUSH2 0x1153 JUMPI DUP3 SWAP1 SUB PUSH1 0x1F AND DUP3 ADD SWAP2 JUMPDEST POP POP POP POP POP SWAP1 POP PUSH1 0x0 DUP2 MLOAD GT PUSH2 0x118E JUMPI PUSH2 0x1189 DUP4 PUSH2 0x19C4 JUMP JUMPDEST PUSH2 0x11B2 JUMP JUMPDEST PUSH1 0x3 DUP2 PUSH1 0x40 MLOAD PUSH1 0x20 ADD PUSH2 0x11A2 SWAP3 SWAP2 SWAP1 PUSH2 0x37D1 JUMP JUMPDEST PUSH1 0x40 MLOAD PUSH1 0x20 DUP2 DUP4 SUB SUB DUP2 MSTORE SWAP1 PUSH1 0x40 MSTORE JUMPDEST SWAP2 POP POP SWAP2 SWAP1 POP JUMP JUMPDEST PUSH1 0x0 CALLER SWAP1 POP SWAP1 JUMP JUMPDEST PUSH1 0x0 PUSH20 0xFFFFFFFFFFFFFFFFFFFFFFFFFFFFFFFFFFFFFFFF AND DUP5 PUSH20 0xFFFFFFFFFFFFFFFFFFFFFFFFFFFFFFFFFFFFFFFF AND SUB PUSH2 0x1234 JUMPI PUSH1 0x0 PUSH1 0x40 MLOAD PUSH32 0x57F447CE00000000000000000000000000000000000000000000000000000000 DUP2 MSTORE PUSH1 0x4 ADD PUSH2 0x122B SWAP2 SWAP1 PUSH2 0x2EF7 JUMP JUMPDEST PUSH1 0x40 MLOAD DUP1 SWAP2 SUB SWAP1 REVERT JUMPDEST PUSH1 0x0 PUSH20 0xFFFFFFFFFFFFFFFFFFFFFFFFFFFFFFFFFFFFFFFF AND DUP6 PUSH20 0xFFFFFFFFFFFFFFFFFFFFFFFFFFFFFFFFFFFFFFFF AND SUB PUSH2 0x12A6 JUMPI PUSH1 0x0 PUSH1 0x40 MLOAD PUSH32 0x1A8351400000000000000000000000000000000000000000000000000000000 DUP2 MSTORE PUSH1 0x4 ADD PUSH2 0x129D SWAP2 SWAP1 PUSH2 0x2EF7 JUMP JUMPDEST PUSH1 0x40 MLOAD DUP1 SWAP2 SUB SWAP1 REVERT JUMPDEST PUSH2 0x12B3 DUP6 DUP6 DUP6 DUP6 DUP6 PUSH2 0x1A58 JUMP JUMPDEST POP POP POP POP POP JUMP JUMPDEST DUP1 PUSH1 0x4 PUSH1 0x0 DUP5 DUP2 MSTORE PUSH1 0x20 ADD SWAP1 DUP2 MSTORE PUSH1 0x20 ADD PUSH1 0x0 KECCAK256 SWAP1 DUP2 PUSH2 0x12DA SWAP2 SWAP1 PUSH2 0x398C JUMP JUMPDEST POP DUP2 PUSH32 0x6BB7FF708619BA0610CBA295A58592E0451DEE2622938C8755667688DAF3529B PUSH2 0x1306 DUP5 PUSH2 0x549 JUMP JUMPDEST PUSH1 0x40 MLOAD PUSH2 0x1313 SWAP2 SWAP1 PUSH2 0x2776 JUMP JUMPDEST PUSH1 0x40 MLOAD DUP1 SWAP2 SUB SWAP1 LOG2 POP POP JUMP JUMPDEST PUSH1 0x0 PUSH20 0xFFFFFFFFFFFFFFFFFFFFFFFFFFFFFFFFFFFFFFFF AND DUP5 PUSH20 0xFFFFFFFFFFFFFFFFFFFFFFFFFFFFFFFFFFFFFFFF AND SUB PUSH2 0x1391 JUMPI PUSH1 0x0 PUSH1 0x40 MLOAD PUSH32 0x57F447CE00000000000000000000000000000000000000000000000000000000 DUP2 MSTORE PUSH1 0x4 ADD PUSH2 0x1388 SWAP2 SWAP1 PUSH2 0x2EF7 JUMP JUMPDEST PUSH1 0x40 MLOAD DUP1 SWAP2 SUB SWAP1 REVERT JUMPDEST PUSH2 0x139F PUSH1 0x0 DUP6 DUP6 DUP6 DUP6 PUSH2 0x1A58 JUMP JUMPDEST POP POP POP POP JUMP JUMPDEST PUSH2 0x13AD PUSH2 0x1B0A JUMP JUMPDEST PUSH1 0x0 PUSH1 0x5 PUSH1 0x0 PUSH2 0x100 EXP DUP2 SLOAD DUP2 PUSH1 0xFF MUL NOT AND SWAP1 DUP4 ISZERO ISZERO MUL OR SWAP1 SSTORE POP PUSH32 0x5DB9EE0A495BF2E6FF9C91A7834C1BA4FDD244A5E8AA4E537BD38AEAE4B073AA PUSH2 0x13F1 PUSH2 0x11BA JUMP JUMPDEST PUSH1 0x40 MLOAD PUSH2 0x13FE SWAP2 SWAP1 PUSH2 0x2EF7 JUMP JUMPDEST PUSH1 0x40 MLOAD DUP1 SWAP2 SUB SWAP1 LOG1 JUMP JUMPDEST PUSH1 0x0 PUSH1 0x20 DUP3 MUL PUSH1 0x20 DUP5 ADD ADD MLOAD SWAP1 POP SWAP3 SWAP2 POP POP JUMP JUMPDEST PUSH1 0x0 PUSH1 0x20 DUP3 MUL PUSH1 0x20 DUP5 ADD ADD MLOAD SWAP1 POP SWAP3 SWAP2 POP POP JUMP JUMPDEST PUSH1 0x0 PUSH20 0xFFFFFFFFFFFFFFFFFFFFFFFFFFFFFFFFFFFFFFFF AND DUP4 PUSH20 0xFFFFFFFFFFFFFFFFFFFFFFFFFFFFFFFFFFFFFFFF AND SUB PUSH2 0x14A2 JUMPI PUSH1 0x0 PUSH1 0x40 MLOAD PUSH32 0x1A8351400000000000000000000000000000000000000000000000000000000 DUP2 MSTORE PUSH1 0x4 ADD PUSH2 0x1499 SWAP2 SWAP1 PUSH2 0x2EF7 JUMP JUMPDEST PUSH1 0x40 MLOAD DUP1 SWAP2 SUB SWAP1 REVERT JUMPDEST PUSH2 0x14BF DUP4 PUSH1 0x0 DUP5 DUP5 PUSH1 0x40 MLOAD DUP1 PUSH1 0x20 ADD PUSH1 0x40 MSTORE DUP1 PUSH1 0x0 DUP2 MSTORE POP PUSH2 0x1A58 JUMP JUMPDEST POP POP POP JUMP JUMPDEST PUSH2 0x14CC PUSH2 0x1B4A JUMP JUMPDEST PUSH1 0x1 PUSH1 0x5 PUSH1 0x0 PUSH2 0x100 EXP DUP2 SLOAD DUP2 PUSH1 0xFF MUL NOT AND SWAP1 DUP4 ISZERO ISZERO MUL OR SWAP1 SSTORE POP PUSH32 0x62E78CEA01BEE320CD4E420270B5EA74000D11B0C9F74754EBDBFC544B05A258 PUSH2 0x1510 PUSH2 0x11BA JUMP JUMPDEST PUSH1 0x40 MLOAD PUSH2 0x151D SWAP2 SWAP1 PUSH2 0x2EF7 JUMP JUMPDEST PUSH1 0x40 MLOAD DUP1 SWAP2 SUB SWAP1 LOG1 JUMP JUMPDEST PUSH1 0x0 PUSH20 0xFFFFFFFFFFFFFFFFFFFFFFFFFFFFFFFFFFFFFFFF AND DUP3 PUSH20 0xFFFFFFFFFFFFFFFFFFFFFFFFFFFFFFFFFFFFFFFF AND SUB PUSH2 0x1599 JUMPI PUSH1 0x0 PUSH1 0x40 MLOAD PUSH32 0xCED3E10000000000000000000000000000000000000000000000000000000000 DUP2 MSTORE PUSH1 0x4 ADD PUSH2 0x1590 SWAP2 SWAP1 PUSH2 0x2EF7 JUMP JUMPDEST PUSH1 0x40 MLOAD DUP1 SWAP2 SUB SWAP1 REVERT JUMPDEST DUP1 PUSH1 0x1 PUSH1 0x0 DUP6 PUSH20 0xFFFFFFFFFFFFFFFFFFFFFFFFFFFFFFFFFFFFFFFF AND PUSH20 0xFFFFFFFFFFFFFFFFFFFFFFFFFFFFFFFFFFFFFFFF AND DUP2 MSTORE PUSH1 0x20 ADD SWAP1 DUP2 MSTORE PUSH1 0x20 ADD PUSH1 0x0 KECCAK256 PUSH1 0x0 DUP5 PUSH20 0xFFFFFFFFFFFFFFFFFFFFFFFFFFFFFFFFFFFFFFFF AND PUSH20 0xFFFFFFFFFFFFFFFFFFFFFFFFFFFFFFFFFFFFFFFF AND DUP2 MSTORE PUSH1 0x20 ADD SWAP1 DUP2 MSTORE PUSH1 0x20 ADD PUSH1 0x0 KECCAK256 PUSH1 0x0 PUSH2 0x100 EXP DUP2 SLOAD DUP2 PUSH1 0xFF MUL NOT AND SWAP1 DUP4 ISZERO ISZERO MUL OR SWAP1 SSTORE POP DUP2 PUSH20 0xFFFFFFFFFFFFFFFFFFFFFFFFFFFFFFFFFFFFFFFF AND DUP4 PUSH20 0xFFFFFFFFFFFFFFFFFFFFFFFFFFFFFFFFFFFFFFFF AND PUSH32 0x17307EAB39AB6107E8899845AD3D59BD9653F200F220920489CA2B5937696C31 DUP4 PUSH1 0x40 MLOAD PUSH2 0x168A SWAP2 SWAP1 PUSH2 0x269E JUMP JUMPDEST PUSH1 0x40 MLOAD DUP1 SWAP2 SUB SWAP1 LOG3 POP POP POP JUMP JUMPDEST PUSH1 0x0 PUSH20 0xFFFFFFFFFFFFFFFFFFFFFFFFFFFFFFFFFFFFFFFF AND DUP5 PUSH20 0xFFFFFFFFFFFFFFFFFFFFFFFFFFFFFFFFFFFFFFFF AND SUB PUSH2 0x1709 JUMPI PUSH1 0x0 PUSH1 0x40 MLOAD PUSH32 0x57F447CE00000000000000000000000000000000000000000000000000000000 DUP2 MSTORE PUSH1 0x4 ADD PUSH2 0x1700 SWAP2 SWAP1 PUSH2 0x2EF7 JUMP JUMPDEST PUSH1 0x40 MLOAD DUP1 SWAP2 SUB SWAP1 REVERT JUMPDEST PUSH1 0x0 DUP1 PUSH2 0x1716 DUP6 DUP6 PUSH2 0x1B8B JUMP JUMPDEST SWAP2 POP SWAP2 POP PUSH2 0x1728 PUSH1 0x0 DUP8 DUP5 DUP5 DUP8 PUSH2 0x1A58 JUMP JUMPDEST POP POP POP POP POP POP JUMP JUMPDEST PUSH1 0x0 PUSH20 0xFFFFFFFFFFFFFFFFFFFFFFFFFFFFFFFFFFFFFFFF AND DUP5 PUSH20 0xFFFFFFFFFFFFFFFFFFFFFFFFFFFFFFFFFFFFFFFF AND SUB PUSH2 0x17A2 JUMPI PUSH1 0x0 PUSH1 0x40 MLOAD PUSH32 0x57F447CE00000000000000000000000000000000000000000000000000000000 DUP2 MSTORE PUSH1 0x4 ADD PUSH2 0x1799 SWAP2 SWAP1 PUSH2 0x2EF7 JUMP JUMPDEST PUSH1 0x40 MLOAD DUP1 SWAP2 SUB SWAP1 REVERT JUMPDEST PUSH1 0x0 PUSH20 0xFFFFFFFFFFFFFFFFFFFFFFFFFFFFFFFFFFFFFFFF AND DUP6 PUSH20 0xFFFFFFFFFFFFFFFFFFFFFFFFFFFFFFFFFFFFFFFF AND SUB PUSH2 0x1814 JUMPI PUSH1 0x0 PUSH1 0x40 MLOAD PUSH32 0x1A8351400000000000000000000000000000000000000000000000000000000 DUP2 MSTORE PUSH1 0x4 ADD PUSH2 0x180B SWAP2 SWAP1 PUSH2 0x2EF7 JUMP JUMPDEST PUSH1 0x40 MLOAD DUP1 SWAP2 SUB SWAP1 REVERT JUMPDEST PUSH1 0x0 DUP1 PUSH2 0x1821 DUP6 DUP6 PUSH2 0x1B8B JUMP JUMPDEST SWAP2 POP SWAP2 POP PUSH2 0x1832 DUP8 DUP8 DUP5 DUP5 DUP8 PUSH2 0x1A58 JUMP JUMPDEST POP POP POP POP POP POP POP JUMP JUMPDEST PUSH1 0x0 PUSH20 0xFFFFFFFFFFFFFFFFFFFFFFFFFFFFFFFFFFFFFFFF AND DUP4 PUSH20 0xFFFFFFFFFFFFFFFFFFFFFFFFFFFFFFFFFFFFFFFF AND SUB PUSH2 0x18AD JUMPI PUSH1 0x0 PUSH1 0x40 MLOAD PUSH32 0x1A8351400000000000000000000000000000000000000000000000000000000 DUP2 MSTORE PUSH1 0x4 ADD PUSH2 0x18A4 SWAP2 SWAP1 PUSH2 0x2EF7 JUMP JUMPDEST PUSH1 0x40 MLOAD DUP1 SWAP2 SUB SWAP1 REVERT JUMPDEST PUSH1 0x0 DUP1 PUSH2 0x18BA DUP5 DUP5 PUSH2 0x1B8B JUMP JUMPDEST SWAP2 POP SWAP2 POP PUSH2 0x18DB DUP6 PUSH1 0x0 DUP5 DUP5 PUSH1 0x40 MLOAD DUP1 PUSH1 0x20 ADD PUSH1 0x40 MSTORE DUP1 PUSH1 0x0 DUP2 MSTORE POP PUSH2 0x1A58 JUMP JUMPDEST POP POP POP POP POP JUMP JUMPDEST PUSH1 0x0 PUSH32 0xD9B67A2600000000000000000000000000000000000000000000000000000000 PUSH28 0xFFFFFFFFFFFFFFFFFFFFFFFFFFFFFFFFFFFFFFFFFFFFFFFFFFFFFFFF NOT AND DUP3 PUSH28 0xFFFFFFFFFFFFFFFFFFFFFFFFFFFFFFFFFFFFFFFFFFFFFFFFFFFFFFFF NOT AND EQ DUP1 PUSH2 0x19AD JUMPI POP PUSH32 0xE89341C00000000000000000000000000000000000000000000000000000000 PUSH28 0xFFFFFFFFFFFFFFFFFFFFFFFFFFFFFFFFFFFFFFFFFFFFFFFFFFFFFFFF NOT AND DUP3 PUSH28 0xFFFFFFFFFFFFFFFFFFFFFFFFFFFFFFFFFFFFFFFFFFFFFFFFFFFFFFFF NOT AND EQ JUMPDEST DUP1 PUSH2 0x19BD JUMPI POP PUSH2 0x19BC DUP3 PUSH2 0x1BBB JUMP JUMPDEST JUMPDEST SWAP1 POP SWAP2 SWAP1 POP JUMP JUMPDEST PUSH1 0x60 PUSH1 0x2 DUP1 SLOAD PUSH2 0x19D3 SWAP1 PUSH2 0x36CC JUMP JUMPDEST DUP1 PUSH1 0x1F ADD PUSH1 0x20 DUP1 SWAP2 DIV MUL PUSH1 0x20 ADD PUSH1 0x40 MLOAD SWAP1 DUP2 ADD PUSH1 0x40 MSTORE DUP1 SWAP3 SWAP2 SWAP1 DUP2 DUP2 MSTORE PUSH1 0x20 ADD DUP3 DUP1 SLOAD PUSH2 0x19FF SWAP1 PUSH2 0x36CC JUMP JUMPDEST DUP1 ISZERO PUSH2 0x1A4C JUMPI DUP1 PUSH1 0x1F LT PUSH2 0x1A21 JUMPI PUSH2 0x100 DUP1 DUP4 SLOAD DIV MUL DUP4 MSTORE SWAP2 PUSH1 0x20 ADD SWAP2 PUSH2 0x1A4C JUMP JUMPDEST DUP3 ADD SWAP2 SWAP1 PUSH1 0x0 MSTORE PUSH1 0x20 PUSH1 0x0 KECCAK256 SWAP1 JUMPDEST DUP2 SLOAD DUP2 MSTORE SWAP1 PUSH1 0x1 ADD SWAP1 PUSH1 0x20 ADD DUP1 DUP4 GT PUSH2 0x1A2F JUMPI DUP3 SWAP1 SUB PUSH1 0x1F AND DUP3 ADD SWAP2 JUMPDEST POP POP POP POP POP SWAP1 POP SWAP2 SWAP1 POP JUMP JUMPDEST PUSH2 0x1A64 DUP6 DUP6 DUP6 DUP6 PUSH2 0x1C25 JUMP JUMPDEST PUSH1 0x0 PUSH20 0xFFFFFFFFFFFFFFFFFFFFFFFFFFFFFFFFFFFFFFFF AND DUP5 PUSH20 0xFFFFFFFFFFFFFFFFFFFFFFFFFFFFFFFFFFFFFFFF AND EQ PUSH2 0x1B03 JUMPI PUSH1 0x0 PUSH2 0x1AA2 PUSH2 0x11BA JUMP JUMPDEST SWAP1 POP PUSH1 0x1 DUP5 MLOAD SUB PUSH2 0x1AF2 JUMPI PUSH1 0x0 PUSH2 0x1AC3 PUSH1 0x0 DUP7 PUSH2 0x141C SWAP1 SWAP2 SWAP1 PUSH4 0xFFFFFFFF AND JUMP JUMPDEST SWAP1 POP PUSH1 0x0 PUSH2 0x1ADB PUSH1 0x0 DUP7 PUSH2 0x141C SWAP1 SWAP2 SWAP1 PUSH4 0xFFFFFFFF AND JUMP JUMPDEST SWAP1 POP PUSH2 0x1AEB DUP4 DUP10 DUP10 DUP6 DUP6 DUP10 PUSH2 0x1C37 JUMP JUMPDEST POP POP PUSH2 0x1B01 JUMP JUMPDEST PUSH2 0x1B00 DUP2 DUP8 DUP8 DUP8 DUP8 DUP8 PUSH2 0x1DEB JUMP JUMPDEST JUMPDEST POP JUMPDEST POP POP POP POP POP JUMP JUMPDEST PUSH2 0x1B12 PUSH2 0xB17 JUMP JUMPDEST PUSH2 0x1B48 JUMPI PUSH1 0x40 MLOAD PUSH32 0x8DFC202B00000000000000000000000000000000000000000000000000000000 DUP2 MSTORE PUSH1 0x4 ADD PUSH1 0x40 MLOAD DUP1 SWAP2 SUB SWAP1 REVERT JUMPDEST JUMP JUMPDEST PUSH2 0x1B52 PUSH2 0xB17 JUMP JUMPDEST ISZERO PUSH2 0x1B89 JUMPI PUSH1 0x40 MLOAD PUSH32 0xD93C066500000000000000000000000000000000000000000000000000000000 DUP2 MSTORE PUSH1 0x4 ADD PUSH1 0x40 MLOAD DUP1 SWAP2 SUB SWAP1 REVERT JUMPDEST JUMP JUMPDEST PUSH1 0x60 DUP1 PUSH1 0x40 MLOAD SWAP2 POP PUSH1 0x1 DUP3 MSTORE DUP4 PUSH1 0x20 DUP4 ADD MSTORE PUSH1 0x40 DUP3 ADD SWAP1 POP PUSH1 0x1 DUP2 MSTORE DUP3 PUSH1 0x20 DUP3 ADD MSTORE PUSH1 0x40 DUP2 ADD PUSH1 0x40 MSTORE SWAP3 POP SWAP3 SWAP1 POP JUMP JUMPDEST PUSH1 0x0 PUSH32 0x1FFC9A700000000000000000000000000000000000000000000000000000000 PUSH28 0xFFFFFFFFFFFFFFFFFFFFFFFFFFFFFFFFFFFFFFFFFFFFFFFFFFFFFFFF NOT AND DUP3 PUSH28 0xFFFFFFFFFFFFFFFFFFFFFFFFFFFFFFFFFFFFFFFFFFFFFFFFFFFFFFFF NOT AND EQ SWAP1 POP SWAP2 SWAP1 POP JUMP JUMPDEST PUSH2 0x1C31 DUP5 DUP5 DUP5 DUP5 PUSH2 0x1F9F JUMP JUMPDEST POP POP POP POP JUMP JUMPDEST PUSH1 0x0 DUP5 PUSH20 0xFFFFFFFFFFFFFFFFFFFFFFFFFFFFFFFFFFFFFFFF AND EXTCODESIZE GT ISZERO PUSH2 0x1DE3 JUMPI DUP4 PUSH20 0xFFFFFFFFFFFFFFFFFFFFFFFFFFFFFFFFFFFFFFFF AND PUSH4 0xF23A6E61 DUP8 DUP8 DUP7 DUP7 DUP7 PUSH1 0x40 MLOAD DUP7 PUSH4 0xFFFFFFFF AND PUSH1 0xE0 SHL DUP2 MSTORE PUSH1 0x4 ADD PUSH2 0x1C98 SWAP6 SWAP5 SWAP4 SWAP3 SWAP2 SWAP1 PUSH2 0x3AB3 JUMP JUMPDEST PUSH1 0x20 PUSH1 0x40 MLOAD DUP1 DUP4 SUB DUP2 PUSH1 0x0 DUP8 GAS CALL SWAP3 POP POP POP DUP1 ISZERO PUSH2 0x1CD4 JUMPI POP PUSH1 0x40 MLOAD RETURNDATASIZE PUSH1 0x1F NOT PUSH1 0x1F DUP3 ADD AND DUP3 ADD DUP1 PUSH1 0x40 MSTORE POP DUP2 ADD SWAP1 PUSH2 0x1CD1 SWAP2 SWAP1 PUSH2 0x3B22 JUMP JUMPDEST PUSH1 0x1 JUMPDEST PUSH2 0x1D58 JUMPI RETURNDATASIZE DUP1 PUSH1 0x0 DUP2 EQ PUSH2 0x1D04 JUMPI PUSH1 0x40 MLOAD SWAP2 POP PUSH1 0x1F NOT PUSH1 0x3F RETURNDATASIZE ADD AND DUP3 ADD PUSH1 0x40 MSTORE RETURNDATASIZE DUP3 MSTORE RETURNDATASIZE PUSH1 0x0 PUSH1 0x20 DUP5 ADD RETURNDATACOPY PUSH2 0x1D09 JUMP JUMPDEST PUSH1 0x60 SWAP2 POP JUMPDEST POP PUSH1 0x0 DUP2 MLOAD SUB PUSH2 0x1D50 JUMPI DUP5 PUSH1 0x40 MLOAD PUSH32 0x57F447CE00000000000000000000000000000000000000000000000000000000 DUP2 MSTORE PUSH1 0x4 ADD PUSH2 0x1D47 SWAP2 SWAP1 PUSH2 0x2EF7 JUMP JUMPDEST PUSH1 0x40 MLOAD DUP1 SWAP2 SUB SWAP1 REVERT JUMPDEST DUP1 MLOAD DUP2 PUSH1 0x20 ADD REVERT JUMPDEST PUSH4 0xF23A6E61 PUSH1 0xE0 SHL PUSH28 0xFFFFFFFFFFFFFFFFFFFFFFFFFFFFFFFFFFFFFFFFFFFFFFFFFFFFFFFF NOT AND DUP2 PUSH28 0xFFFFFFFFFFFFFFFFFFFFFFFFFFFFFFFFFFFFFFFFFFFFFFFFFFFFFFFF NOT AND EQ PUSH2 0x1DE1 JUMPI DUP5 PUSH1 0x40 MLOAD PUSH32 0x57F447CE00000000000000000000000000000000000000000000000000000000 DUP2 MSTORE PUSH1 0x4 ADD PUSH2 0x1DD8 SWAP2 SWAP1 PUSH2 0x2EF7 JUMP JUMPDEST PUSH1 0x40 MLOAD DUP1 SWAP2 SUB SWAP1 REVERT JUMPDEST POP JUMPDEST POP POP POP POP POP POP JUMP JUMPDEST PUSH1 0x0 DUP5 PUSH20 0xFFFFFFFFFFFFFFFFFFFFFFFFFFFFFFFFFFFFFFFF AND EXTCODESIZE GT ISZERO PUSH2 0x1F97 JUMPI DUP4 PUSH20 0xFFFFFFFFFFFFFFFFFFFFFFFFFFFFFFFFFFFFFFFF AND PUSH4 0xBC197C81 DUP8 DUP8 DUP7 DUP7 DUP7 PUSH1 0x40 MLOAD DUP7 PUSH4 0xFFFFFFFF AND PUSH1 0xE0 SHL DUP2 MSTORE PUSH1 0x4 ADD PUSH2 0x1E4C SWAP6 SWAP5 SWAP4 SWAP3 SWAP2 SWAP1 PUSH2 0x3B4F JUMP JUMPDEST PUSH1 0x20 PUSH1 0x40 MLOAD DUP1 DUP4 SUB DUP2 PUSH1 0x0 DUP8 GAS CALL SWAP3 POP POP POP DUP1 ISZERO PUSH2 0x1E88 JUMPI POP PUSH1 0x40 MLOAD RETURNDATASIZE PUSH1 0x1F NOT PUSH1 0x1F DUP3 ADD AND DUP3 ADD DUP1 PUSH1 0x40 MSTORE POP DUP2 ADD SWAP1 PUSH2 0x1E85 SWAP2 SWAP1 PUSH2 0x3B22 JUMP JUMPDEST PUSH1 0x1 JUMPDEST PUSH2 0x1F0C JUMPI RETURNDATASIZE DUP1 PUSH1 0x0 DUP2 EQ PUSH2 0x1EB8 JUMPI PUSH1 0x40 MLOAD SWAP2 POP PUSH1 0x1F NOT PUSH1 0x3F RETURNDATASIZE ADD AND DUP3 ADD PUSH1 0x40 MSTORE RETURNDATASIZE DUP3 MSTORE RETURNDATASIZE PUSH1 0x0 PUSH1 0x20 DUP5 ADD RETURNDATACOPY PUSH2 0x1EBD JUMP JUMPDEST PUSH1 0x60 SWAP2 POP JUMPDEST POP PUSH1 0x0 DUP2 MLOAD SUB PUSH2 0x1F04 JUMPI DUP5 PUSH1 0x40 MLOAD PUSH32 0x57F447CE00000000000000000000000000000000000000000000000000000000 DUP2 MSTORE PUSH1 0x4 ADD PUSH2 0x1EFB SWAP2 SWAP1 PUSH2 0x2EF7 JUMP JUMPDEST PUSH1 0x40 MLOAD DUP1 SWAP2 SUB SWAP1 REVERT JUMPDEST DUP1 MLOAD DUP2 PUSH1 0x20 ADD REVERT JUMPDEST PUSH4 0xBC197C81 PUSH1 0xE0 SHL PUSH28 0xFFFFFFFFFFFFFFFFFFFFFFFFFFFFFFFFFFFFFFFFFFFFFFFFFFFFFFFF NOT AND DUP2 PUSH28 0xFFFFFFFFFFFFFFFFFFFFFFFFFFFFFFFFFFFFFFFFFFFFFFFFFFFFFFFF NOT AND EQ PUSH2 0x1F95 JUMPI DUP5 PUSH1 0x40 MLOAD PUSH32 0x57F447CE00000000000000000000000000000000000000000000000000000000 DUP2 MSTORE PUSH1 0x4 ADD PUSH2 0x1F8C SWAP2 SWAP1 PUSH2 0x2EF7 JUMP JUMPDEST PUSH1 0x40 MLOAD DUP1 SWAP2 SUB SWAP1 REVERT JUMPDEST POP JUMPDEST POP POP POP POP POP POP JUMP JUMPDEST PUSH2 0x1FAB DUP5 DUP5 DUP5 DUP5 PUSH2 0x212A JUMP JUMPDEST PUSH1 0x0 PUSH20 0xFFFFFFFFFFFFFFFFFFFFFFFFFFFFFFFFFFFFFFFF AND DUP5 PUSH20 0xFFFFFFFFFFFFFFFFFFFFFFFFFFFFFFFFFFFFFFFF AND SUB PUSH2 0x2075 JUMPI PUSH1 0x0 DUP1 JUMPDEST DUP4 MLOAD DUP2 LT ISZERO PUSH2 0x2059 JUMPI PUSH1 0x0 PUSH2 0x2001 DUP3 DUP6 PUSH2 0x141C SWAP1 SWAP2 SWAP1 PUSH4 0xFFFFFFFF AND JUMP JUMPDEST SWAP1 POP DUP1 PUSH1 0x6 PUSH1 0x0 PUSH2 0x201B DUP6 DUP10 PUSH2 0x141C SWAP1 SWAP2 SWAP1 PUSH4 0xFFFFFFFF AND JUMP JUMPDEST DUP2 MSTORE PUSH1 0x20 ADD SWAP1 DUP2 MSTORE PUSH1 0x20 ADD PUSH1 0x0 KECCAK256 PUSH1 0x0 DUP3 DUP3 SLOAD PUSH2 0x2038 SWAP2 SWAP1 PUSH2 0x34F1 JUMP JUMPDEST SWAP3 POP POP DUP2 SWAP1 SSTORE POP DUP1 DUP4 PUSH2 0x204B SWAP2 SWAP1 PUSH2 0x34F1 JUMP JUMPDEST SWAP3 POP POP DUP1 PUSH1 0x1 ADD SWAP1 POP PUSH2 0x1FE3 JUMP JUMPDEST POP DUP1 PUSH1 0x7 PUSH1 0x0 DUP3 DUP3 SLOAD PUSH2 0x206C SWAP2 SWAP1 PUSH2 0x34F1 JUMP JUMPDEST SWAP3 POP POP DUP2 SWAP1 SSTORE POP POP JUMPDEST PUSH1 0x0 PUSH20 0xFFFFFFFFFFFFFFFFFFFFFFFFFFFFFFFFFFFFFFFF AND DUP4 PUSH20 0xFFFFFFFFFFFFFFFFFFFFFFFFFFFFFFFFFFFFFFFF AND SUB PUSH2 0x2124 JUMPI PUSH1 0x0 DUP1 JUMPDEST DUP4 MLOAD DUP2 LT ISZERO PUSH2 0x2111 JUMPI PUSH1 0x0 PUSH2 0x20CB DUP3 DUP6 PUSH2 0x141C SWAP1 SWAP2 SWAP1 PUSH4 0xFFFFFFFF AND JUMP JUMPDEST SWAP1 POP DUP1 PUSH1 0x6 PUSH1 0x0 PUSH2 0x20E5 DUP6 DUP10 PUSH2 0x141C SWAP1 SWAP2 SWAP1 PUSH4 0xFFFFFFFF AND JUMP JUMPDEST DUP2 MSTORE PUSH1 0x20 ADD SWAP1 DUP2 MSTORE PUSH1 0x20 ADD PUSH1 0x0 KECCAK256 PUSH1 0x0 DUP3 DUP3 SLOAD SUB SWAP3 POP POP DUP2 SWAP1 SSTORE POP DUP1 DUP4 ADD SWAP3 POP POP DUP1 PUSH1 0x1 ADD SWAP1 POP PUSH2 0x20AD JUMP JUMPDEST POP DUP1 PUSH1 0x7 PUSH1 0x0 DUP3 DUP3 SLOAD SUB SWAP3 POP POP DUP2 SWAP1 SSTORE POP POP JUMPDEST POP POP POP POP JUMP JUMPDEST PUSH2 0x2132 PUSH2 0x1B4A JUMP JUMPDEST PUSH2 0x213E DUP5 DUP5 DUP5 DUP5 PUSH2 0x2144 JUMP JUMPDEST POP POP POP POP JUMP JUMPDEST DUP1 MLOAD DUP3 MLOAD EQ PUSH2 0x218E JUMPI DUP2 MLOAD DUP2 MLOAD PUSH1 0x40 MLOAD PUSH32 0x5B05999100000000000000000000000000000000000000000000000000000000 DUP2 MSTORE PUSH1 0x4 ADD PUSH2 0x2185 SWAP3 SWAP2 SWAP1 PUSH2 0x3674 JUMP JUMPDEST PUSH1 0x40 MLOAD DUP1 SWAP2 SUB SWAP1 REVERT JUMPDEST PUSH1 0x0 PUSH2 0x2198 PUSH2 0x11BA JUMP JUMPDEST SWAP1 POP PUSH1 0x0 JUMPDEST DUP4 MLOAD DUP2 LT ISZERO PUSH2 0x23A7 JUMPI PUSH1 0x0 PUSH2 0x21BB DUP3 DUP7 PUSH2 0x141C SWAP1 SWAP2 SWAP1 PUSH4 0xFFFFFFFF AND JUMP JUMPDEST SWAP1 POP PUSH1 0x0 PUSH2 0x21D2 DUP4 DUP7 PUSH2 0x141C SWAP1 SWAP2 SWAP1 PUSH4 0xFFFFFFFF AND JUMP JUMPDEST SWAP1 POP PUSH1 0x0 PUSH20 0xFFFFFFFFFFFFFFFFFFFFFFFFFFFFFFFFFFFFFFFF AND DUP9 PUSH20 0xFFFFFFFFFFFFFFFFFFFFFFFFFFFFFFFFFFFFFFFF AND EQ PUSH2 0x22FF JUMPI PUSH1 0x0 DUP1 PUSH1 0x0 DUP5 DUP2 MSTORE PUSH1 0x20 ADD SWAP1 DUP2 MSTORE PUSH1 0x20 ADD PUSH1 0x0 KECCAK256 PUSH1 0x0 DUP11 PUSH20 0xFFFFFFFFFFFFFFFFFFFFFFFFFFFFFFFFFFFFFFFF AND PUSH20 0xFFFFFFFFFFFFFFFFFFFFFFFFFFFFFFFFFFFFFFFF AND DUP2 MSTORE PUSH1 0x20 ADD SWAP1 DUP2 MSTORE PUSH1 0x20 ADD PUSH1 0x0 KECCAK256 SLOAD SWAP1 POP DUP2 DUP2 LT ISZERO PUSH2 0x22A7 JUMPI DUP9 DUP2 DUP4 DUP6 PUSH1 0x40 MLOAD PUSH32 0x3DEE4C500000000000000000000000000000000000000000000000000000000 DUP2 MSTORE PUSH1 0x4 ADD PUSH2 0x229E SWAP5 SWAP4 SWAP3 SWAP2 SWAP1 PUSH2 0x3BB7 JUMP JUMPDEST PUSH1 0x40 MLOAD DUP1 SWAP2 SUB SWAP1 REVERT JUMPDEST DUP2 DUP2 SUB PUSH1 0x0 DUP1 DUP6 DUP2 MSTORE PUSH1 0x20 ADD SWAP1 DUP2 MSTORE PUSH1 0x20 ADD PUSH1 0x0 KECCAK256 PUSH1 0x0 DUP12 PUSH20 0xFFFFFFFFFFFFFFFFFFFFFFFFFFFFFFFFFFFFFFFF AND PUSH20 0xFFFFFFFFFFFFFFFFFFFFFFFFFFFFFFFFFFFFFFFF AND DUP2 MSTORE PUSH1 0x20 ADD SWAP1 DUP2 MSTORE PUSH1 0x20 ADD PUSH1 0x0 KECCAK256 DUP2 SWAP1 SSTORE POP POP JUMPDEST PUSH1 0x0 PUSH20 0xFFFFFFFFFFFFFFFFFFFFFFFFFFFFFFFFFFFFFFFF AND DUP8 PUSH20 0xFFFFFFFFFFFFFFFFFFFFFFFFFFFFFFFFFFFFFFFF AND EQ PUSH2 0x239A JUMPI DUP1 PUSH1 0x0 DUP1 DUP5 DUP2 MSTORE PUSH1 0x20 ADD SWAP1 DUP2 MSTORE PUSH1 0x20 ADD PUSH1 0x0 KECCAK256 PUSH1 0x0 DUP10 PUSH20 0xFFFFFFFFFFFFFFFFFFFFFFFFFFFFFFFFFFFFFFFF AND PUSH20 0xFFFFFFFFFFFFFFFFFFFFFFFFFFFFFFFFFFFFFFFF AND DUP2 MSTORE PUSH1 0x20 ADD SWAP1 DUP2 MSTORE PUSH1 0x20 ADD PUSH1 0x0 KECCAK256 PUSH1 0x0 DUP3 DUP3 SLOAD PUSH2 0x2392 SWAP2 SWAP1 PUSH2 0x34F1 JUMP JUMPDEST SWAP3 POP POP DUP2 SWAP1 SSTORE POP JUMPDEST POP POP DUP1 PUSH1 0x1 ADD SWAP1 POP PUSH2 0x219D JUMP JUMPDEST POP PUSH1 0x1 DUP4 MLOAD SUB PUSH2 0x2466 JUMPI PUSH1 0x0 PUSH2 0x23C7 PUSH1 0x0 DUP6 PUSH2 0x141C SWAP1 SWAP2 SWAP1 PUSH4 0xFFFFFFFF AND JUMP JUMPDEST SWAP1 POP PUSH1 0x0 PUSH2 0x23DF PUSH1 0x0 DUP6 PUSH2 0x141C SWAP1 SWAP2 SWAP1 PUSH4 0xFFFFFFFF AND JUMP JUMPDEST SWAP1 POP DUP6 PUSH20 0xFFFFFFFFFFFFFFFFFFFFFFFFFFFFFFFFFFFFFFFF AND DUP8 PUSH20 0xFFFFFFFFFFFFFFFFFFFFFFFFFFFFFFFFFFFFFFFF AND DUP5 PUSH20 0xFFFFFFFFFFFFFFFFFFFFFFFFFFFFFFFFFFFFFFFF AND PUSH32 0xC3D58168C5AE7397731D063D5BBF3D657854427343F4C083240F7AACAA2D0F62 DUP6 DUP6 PUSH1 0x40 MLOAD PUSH2 0x2457 SWAP3 SWAP2 SWAP1 PUSH2 0x3674 JUMP JUMPDEST PUSH1 0x40 MLOAD DUP1 SWAP2 SUB SWAP1 LOG4 POP POP PUSH2 0x24E5 JUMP JUMPDEST DUP4 PUSH20 0xFFFFFFFFFFFFFFFFFFFFFFFFFFFFFFFFFFFFFFFF AND DUP6 PUSH20 0xFFFFFFFFFFFFFFFFFFFFFFFFFFFFFFFFFFFFFFFF AND DUP3 PUSH20 0xFFFFFFFFFFFFFFFFFFFFFFFFFFFFFFFFFFFFFFFF AND PUSH32 0x4A39DC06D4C0DBC64B70AF90FD698A233A518AA5D07E595D983B8C0526C8F7FB DUP7 DUP7 PUSH1 0x40 MLOAD PUSH2 0x24DC SWAP3 SWAP2 SWAP1 PUSH2 0x3BFC JUMP JUMPDEST PUSH1 0x40 MLOAD DUP1 SWAP2 SUB SWAP1 LOG4 JUMPDEST POP POP POP POP POP JUMP JUMPDEST PUSH1 0x0 DUP2 SWAP1 POP SWAP2 SWAP1 POP JUMP JUMPDEST PUSH2 0x24FF DUP2 PUSH2 0x24EC JUMP JUMPDEST DUP3 MSTORE POP POP JUMP JUMPDEST PUSH1 0x0 PUSH1 0x20 DUP3 ADD SWAP1 POP PUSH2 0x251A PUSH1 0x0 DUP4 ADD DUP5 PUSH2 0x24F6 JUMP JUMPDEST SWAP3 SWAP2 POP POP JUMP JUMPDEST PUSH1 0x0 PUSH1 0x40 MLOAD SWAP1 POP SWAP1 JUMP JUMPDEST PUSH1 0x0 DUP1 REVERT JUMPDEST PUSH1 0x0 DUP1 REVERT JUMPDEST PUSH1 0x0 PUSH20 0xFFFFFFFFFFFFFFFFFFFFFFFFFFFFFFFFFFFFFFFF DUP3 AND SWAP1 POP SWAP2 SWAP1 POP JUMP JUMPDEST PUSH1 0x0 PUSH2 0x255F DUP3 PUSH2 0x2534 JUMP JUMPDEST SWAP1 POP SWAP2 SWAP1 POP JUMP JUMPDEST PUSH2 0x256F DUP2 PUSH2 0x2554 JUMP JUMPDEST DUP2 EQ PUSH2 0x257A JUMPI PUSH1 0x0 DUP1 REVERT JUMPDEST POP JUMP JUMPDEST PUSH1 0x0 DUP2 CALLDATALOAD SWAP1 POP PUSH2 0x258C DUP2 PUSH2 0x2566 JUMP JUMPDEST SWAP3 SWAP2 POP POP JUMP JUMPDEST PUSH2 0x259B DUP2 PUSH2 0x24EC JUMP JUMPDEST DUP2 EQ PUSH2 0x25A6 JUMPI PUSH1 0x0 DUP1 REVERT JUMPDEST POP JUMP JUMPDEST PUSH1 0x0 DUP2 CALLDATALOAD SWAP1 POP PUSH2 0x25B8 DUP2 PUSH2 0x2592 JUMP JUMPDEST SWAP3 SWAP2 POP POP JUMP JUMPDEST PUSH1 0x0 DUP1 PUSH1 0x40 DUP4 DUP6 SUB SLT ISZERO PUSH2 0x25D5 JUMPI PUSH2 0x25D4 PUSH2 0x252A JUMP JUMPDEST JUMPDEST PUSH1 0x0 PUSH2 0x25E3 DUP6 DUP3 DUP7 ADD PUSH2 0x257D JUMP JUMPDEST SWAP3 POP POP PUSH1 0x20 PUSH2 0x25F4 DUP6 DUP3 DUP7 ADD PUSH2 0x25A9 JUMP JUMPDEST SWAP2 POP POP SWAP3 POP SWAP3 SWAP1 POP JUMP JUMPDEST PUSH1 0x0 PUSH32 0xFFFFFFFF00000000000000000000000000000000000000000000000000000000 DUP3 AND SWAP1 POP SWAP2 SWAP1 POP JUMP JUMPDEST PUSH2 0x2633 DUP2 PUSH2 0x25FE JUMP JUMPDEST DUP2 EQ PUSH2 0x263E JUMPI PUSH1 0x0 DUP1 REVERT JUMPDEST POP JUMP JUMPDEST PUSH1 0x0 DUP2 CALLDATALOAD SWAP1 POP PUSH2 0x2650 DUP2 PUSH2 0x262A JUMP JUMPDEST SWAP3 SWAP2 POP POP JUMP JUMPDEST PUSH1 0x0 PUSH1 0x20 DUP3 DUP5 SUB SLT ISZERO PUSH2 0x266C JUMPI PUSH2 0x266B PUSH2 0x252A JUMP JUMPDEST JUMPDEST PUSH1 0x0 PUSH2 0x267A DUP5 DUP3 DUP6 ADD PUSH2 0x2641 JUMP JUMPDEST SWAP2 POP POP SWAP3 SWAP2 POP POP JUMP JUMPDEST PUSH1 0x0 DUP2 ISZERO ISZERO SWAP1 POP SWAP2 SWAP1 POP JUMP JUMPDEST PUSH2 0x2698 DUP2 PUSH2 0x2683 JUMP JUMPDEST DUP3 MSTORE POP POP JUMP JUMPDEST PUSH1 0x0 PUSH1 0x20 DUP3 ADD SWAP1 POP PUSH2 0x26B3 PUSH1 0x0 DUP4 ADD DUP5 PUSH2 0x268F JUMP JUMPDEST SWAP3 SWAP2 POP POP JUMP JUMPDEST PUSH1 0x0 PUSH1 0x20 DUP3 DUP5 SUB SLT ISZERO PUSH2 0x26CF JUMPI PUSH2 0x26CE PUSH2 0x252A JUMP JUMPDEST JUMPDEST PUSH1 0x0 PUSH2 0x26DD DUP5 DUP3 DUP6 ADD PUSH2 0x25A9 JUMP JUMPDEST SWAP2 POP POP SWAP3 SWAP2 POP POP JUMP JUMPDEST PUSH1 0x0 DUP2 MLOAD SWAP1 POP SWAP2 SWAP1 POP JUMP JUMPDEST PUSH1 0x0 DUP3 DUP3 MSTORE PUSH1 0x20 DUP3 ADD SWAP1 POP SWAP3 SWAP2 POP POP JUMP JUMPDEST PUSH1 0x0 JUMPDEST DUP4 DUP2 LT ISZERO PUSH2 0x2720 JUMPI DUP1 DUP3 ADD MLOAD DUP2 DUP5 ADD MSTORE PUSH1 0x20 DUP2 ADD SWAP1 POP PUSH2 0x2705 JUMP JUMPDEST PUSH1 0x0 DUP5 DUP5 ADD MSTORE POP POP POP POP JUMP JUMPDEST PUSH1 0x0 PUSH1 0x1F NOT PUSH1 0x1F DUP4 ADD AND SWAP1 POP SWAP2 SWAP1 POP JUMP JUMPDEST PUSH1 0x0 PUSH2 0x2748 DUP3 PUSH2 0x26E6 JUMP JUMPDEST PUSH2 0x2752 DUP2 DUP6 PUSH2 0x26F1 JUMP JUMPDEST SWAP4 POP PUSH2 0x2762 DUP2 DUP6 PUSH1 0x20 DUP7 ADD PUSH2 0x2702 JUMP JUMPDEST PUSH2 0x276B DUP2 PUSH2 0x272C JUMP JUMPDEST DUP5 ADD SWAP2 POP POP SWAP3 SWAP2 POP POP JUMP JUMPDEST PUSH1 0x0 PUSH1 0x20 DUP3 ADD SWAP1 POP DUP2 DUP2 SUB PUSH1 0x0 DUP4 ADD MSTORE PUSH2 0x2790 DUP2 DUP5 PUSH2 0x273D JUMP JUMPDEST SWAP1 POP SWAP3 SWAP2 POP POP JUMP JUMPDEST PUSH1 0x0 DUP1 REVERT JUMPDEST PUSH32 0x4E487B7100000000000000000000000000000000000000000000000000000000 PUSH1 0x0 MSTORE PUSH1 0x41 PUSH1 0x4 MSTORE PUSH1 0x24 PUSH1 0x0 REVERT JUMPDEST PUSH2 0x27D5 DUP3 PUSH2 0x272C JUMP JUMPDEST DUP2 ADD DUP2 DUP2 LT PUSH8 0xFFFFFFFFFFFFFFFF DUP3 GT OR ISZERO PUSH2 0x27F4 JUMPI PUSH2 0x27F3 PUSH2 0x279D JUMP JUMPDEST JUMPDEST DUP1 PUSH1 0x40 MSTORE POP POP POP JUMP JUMPDEST PUSH1 0x0 PUSH2 0x2807 PUSH2 0x2520 JUMP JUMPDEST SWAP1 POP PUSH2 0x2813 DUP3 DUP3 PUSH2 0x27CC JUMP JUMPDEST SWAP2 SWAP1 POP JUMP JUMPDEST PUSH1 0x0 PUSH8 0xFFFFFFFFFFFFFFFF DUP3 GT ISZERO PUSH2 0x2833 JUMPI PUSH2 0x2832 PUSH2 0x279D JUMP JUMPDEST JUMPDEST PUSH1 0x20 DUP3 MUL SWAP1 POP PUSH1 0x20 DUP2 ADD SWAP1 POP SWAP2 SWAP1 POP JUMP JUMPDEST PUSH1 0x0 DUP1 REVERT JUMPDEST PUSH1 0x0 PUSH2 0x285C PUSH2 0x2857 DUP5 PUSH2 0x2818 JUMP JUMPDEST PUSH2 0x27FD JUMP JUMPDEST SWAP1 POP DUP1 DUP4 DUP3 MSTORE PUSH1 0x20 DUP3 ADD SWAP1 POP PUSH1 0x20 DUP5 MUL DUP4 ADD DUP6 DUP2 GT ISZERO PUSH2 0x287F JUMPI PUSH2 0x287E PUSH2 0x2844 JUMP JUMPDEST JUMPDEST DUP4 JUMPDEST DUP2 DUP2 LT ISZERO PUSH2 0x28A8 JUMPI DUP1 PUSH2 0x2894 DUP9 DUP3 PUSH2 0x25A9 JUMP JUMPDEST DUP5 MSTORE PUSH1 0x20 DUP5 ADD SWAP4 POP POP PUSH1 0x20 DUP2 ADD SWAP1 POP PUSH2 0x2881 JUMP JUMPDEST POP POP POP SWAP4 SWAP3 POP POP POP JUMP JUMPDEST PUSH1 0x0 DUP3 PUSH1 0x1F DUP4 ADD SLT PUSH2 0x28C7 JUMPI PUSH2 0x28C6 PUSH2 0x2798 JUMP JUMPDEST JUMPDEST DUP2 CALLDATALOAD PUSH2 0x28D7 DUP5 DUP3 PUSH1 0x20 DUP7 ADD PUSH2 0x2849 JUMP JUMPDEST SWAP2 POP POP SWAP3 SWAP2 POP POP JUMP JUMPDEST PUSH1 0x0 DUP1 REVERT JUMPDEST PUSH1 0x0 PUSH8 0xFFFFFFFFFFFFFFFF DUP3 GT ISZERO PUSH2 0x2900 JUMPI PUSH2 0x28FF PUSH2 0x279D JUMP JUMPDEST JUMPDEST PUSH2 0x2909 DUP3 PUSH2 0x272C JUMP JUMPDEST SWAP1 POP PUSH1 0x20 DUP2 ADD SWAP1 POP SWAP2 SWAP1 POP JUMP JUMPDEST DUP3 DUP2 DUP4 CALLDATACOPY PUSH1 0x0 DUP4 DUP4 ADD MSTORE POP POP POP JUMP JUMPDEST PUSH1 0x0 PUSH2 0x2938 PUSH2 0x2933 DUP5 PUSH2 0x28E5 JUMP JUMPDEST PUSH2 0x27FD JUMP JUMPDEST SWAP1 POP DUP3 DUP2 MSTORE PUSH1 0x20 DUP2 ADD DUP5 DUP5 DUP5 ADD GT ISZERO PUSH2 0x2954 JUMPI PUSH2 0x2953 PUSH2 0x28E0 JUMP JUMPDEST JUMPDEST PUSH2 0x295F DUP5 DUP3 DUP6 PUSH2 0x2916 JUMP JUMPDEST POP SWAP4 SWAP3 POP POP POP JUMP JUMPDEST PUSH1 0x0 DUP3 PUSH1 0x1F DUP4 ADD SLT PUSH2 0x297C JUMPI PUSH2 0x297B PUSH2 0x2798 JUMP JUMPDEST JUMPDEST DUP2 CALLDATALOAD PUSH2 0x298C DUP5 DUP3 PUSH1 0x20 DUP7 ADD PUSH2 0x2925 JUMP JUMPDEST SWAP2 POP POP SWAP3 SWAP2 POP POP JUMP JUMPDEST PUSH1 0x0 DUP1 PUSH1 0x0 DUP1 PUSH1 0x0 PUSH1 0xA0 DUP7 DUP9 SUB SLT ISZERO PUSH2 0x29B1 JUMPI PUSH2 0x29B0 PUSH2 0x252A JUMP JUMPDEST JUMPDEST PUSH1 0x0 PUSH2 0x29BF DUP9 DUP3 DUP10 ADD PUSH2 0x257D JUMP JUMPDEST SWAP6 POP POP PUSH1 0x20 PUSH2 0x29D0 DUP9 DUP3 DUP10 ADD PUSH2 0x257D JUMP JUMPDEST SWAP5 POP POP PUSH1 0x40 DUP7 ADD CALLDATALOAD PUSH8 0xFFFFFFFFFFFFFFFF DUP2 GT ISZERO PUSH2 0x29F1 JUMPI PUSH2 0x29F0 PUSH2 0x252F JUMP JUMPDEST JUMPDEST PUSH2 0x29FD DUP9 DUP3 DUP10 ADD PUSH2 0x28B2 JUMP JUMPDEST SWAP4 POP POP PUSH1 0x60 DUP7 ADD CALLDATALOAD PUSH8 0xFFFFFFFFFFFFFFFF DUP2 GT ISZERO PUSH2 0x2A1E JUMPI PUSH2 0x2A1D PUSH2 0x252F JUMP JUMPDEST JUMPDEST PUSH2 0x2A2A DUP9 DUP3 DUP10 ADD PUSH2 0x28B2 JUMP JUMPDEST SWAP3 POP POP PUSH1 0x80 DUP7 ADD CALLDATALOAD PUSH8 0xFFFFFFFFFFFFFFFF DUP2 GT ISZERO PUSH2 0x2A4B JUMPI PUSH2 0x2A4A PUSH2 0x252F JUMP JUMPDEST JUMPDEST PUSH2 0x2A57 DUP9 DUP3 DUP10 ADD PUSH2 0x2967 JUMP JUMPDEST SWAP2 POP POP SWAP3 SWAP6 POP SWAP3 SWAP6 SWAP1 SWAP4 POP JUMP JUMPDEST PUSH1 0x0 PUSH8 0xFFFFFFFFFFFFFFFF DUP3 GT ISZERO PUSH2 0x2A7F JUMPI PUSH2 0x2A7E PUSH2 0x279D JUMP JUMPDEST JUMPDEST PUSH1 0x20 DUP3 MUL SWAP1 POP PUSH1 0x20 DUP2 ADD SWAP1 POP SWAP2 SWAP1 POP JUMP JUMPDEST PUSH1 0x0 PUSH8 0xFFFFFFFFFFFFFFFF DUP3 GT ISZERO PUSH2 0x2AAB JUMPI PUSH2 0x2AAA PUSH2 0x279D JUMP JUMPDEST JUMPDEST PUSH2 0x2AB4 DUP3 PUSH2 0x272C JUMP JUMPDEST SWAP1 POP PUSH1 0x20 DUP2 ADD SWAP1 POP SWAP2 SWAP1 POP JUMP JUMPDEST PUSH1 0x0 PUSH2 0x2AD4 PUSH2 0x2ACF DUP5 PUSH2 0x2A90 JUMP JUMPDEST PUSH2 0x27FD JUMP JUMPDEST SWAP1 POP DUP3 DUP2 MSTORE PUSH1 0x20 DUP2 ADD DUP5 DUP5 DUP5 ADD GT ISZERO PUSH2 0x2AF0 JUMPI PUSH2 0x2AEF PUSH2 0x28E0 JUMP JUMPDEST JUMPDEST PUSH2 0x2AFB DUP5 DUP3 DUP6 PUSH2 0x2916 JUMP JUMPDEST POP SWAP4 SWAP3 POP POP POP JUMP JUMPDEST PUSH1 0x0 DUP3 PUSH1 0x1F DUP4 ADD SLT PUSH2 0x2B18 JUMPI PUSH2 0x2B17 PUSH2 0x2798 JUMP JUMPDEST JUMPDEST DUP2 CALLDATALOAD PUSH2 0x2B28 DUP5 DUP3 PUSH1 0x20 DUP7 ADD PUSH2 0x2AC1 JUMP JUMPDEST SWAP2 POP POP SWAP3 SWAP2 POP POP JUMP JUMPDEST PUSH1 0x0 PUSH2 0x2B44 PUSH2 0x2B3F DUP5 PUSH2 0x2A64 JUMP JUMPDEST PUSH2 0x27FD JUMP JUMPDEST SWAP1 POP DUP1 DUP4 DUP3 MSTORE PUSH1 0x20 DUP3 ADD SWAP1 POP PUSH1 0x20 DUP5 MUL DUP4 ADD DUP6 DUP2 GT ISZERO PUSH2 0x2B67 JUMPI PUSH2 0x2B66 PUSH2 0x2844 JUMP JUMPDEST JUMPDEST DUP4 JUMPDEST DUP2 DUP2 LT ISZERO PUSH2 0x2BAE JUMPI DUP1 CALLDATALOAD PUSH8 0xFFFFFFFFFFFFFFFF DUP2 GT ISZERO PUSH2 0x2B8C JUMPI PUSH2 0x2B8B PUSH2 0x2798 JUMP JUMPDEST JUMPDEST DUP1 DUP7 ADD PUSH2 0x2B99 DUP10 DUP3 PUSH2 0x2B03 JUMP JUMPDEST DUP6 MSTORE PUSH1 0x20 DUP6 ADD SWAP5 POP POP POP PUSH1 0x20 DUP2 ADD SWAP1 POP PUSH2 0x2B69 JUMP JUMPDEST POP POP POP SWAP4 SWAP3 POP POP POP JUMP JUMPDEST PUSH1 0x0 DUP3 PUSH1 0x1F DUP4 ADD SLT PUSH2 0x2BCD JUMPI PUSH2 0x2BCC PUSH2 0x2798 JUMP JUMPDEST JUMPDEST DUP2 CALLDATALOAD PUSH2 0x2BDD DUP5 DUP3 PUSH1 0x20 DUP7 ADD PUSH2 0x2B31 JUMP JUMPDEST SWAP2 POP POP SWAP3 SWAP2 POP POP JUMP JUMPDEST PUSH1 0x0 DUP1 PUSH1 0x40 DUP4 DUP6 SUB SLT ISZERO PUSH2 0x2BFD JUMPI PUSH2 0x2BFC PUSH2 0x252A JUMP JUMPDEST JUMPDEST PUSH1 0x0 PUSH2 0x2C0B DUP6 DUP3 DUP7 ADD PUSH2 0x257D JUMP JUMPDEST SWAP3 POP POP PUSH1 0x20 DUP4 ADD CALLDATALOAD PUSH8 0xFFFFFFFFFFFFFFFF DUP2 GT ISZERO PUSH2 0x2C2C JUMPI PUSH2 0x2C2B PUSH2 0x252F JUMP JUMPDEST JUMPDEST PUSH2 0x2C38 DUP6 DUP3 DUP7 ADD PUSH2 0x2BB8 JUMP JUMPDEST SWAP2 POP POP SWAP3 POP SWAP3 SWAP1 POP JUMP JUMPDEST PUSH1 0x0 PUSH8 0xFFFFFFFFFFFFFFFF DUP3 GT ISZERO PUSH2 0x2C5D JUMPI PUSH2 0x2C5C PUSH2 0x279D JUMP JUMPDEST JUMPDEST PUSH1 0x20 DUP3 MUL SWAP1 POP PUSH1 0x20 DUP2 ADD SWAP1 POP SWAP2 SWAP1 POP JUMP JUMPDEST PUSH1 0x0 PUSH2 0x2C81 PUSH2 0x2C7C DUP5 PUSH2 0x2C42 JUMP JUMPDEST PUSH2 0x27FD JUMP JUMPDEST SWAP1 POP DUP1 DUP4 DUP3 MSTORE PUSH1 0x20 DUP3 ADD SWAP1 POP PUSH1 0x20 DUP5 MUL DUP4 ADD DUP6 DUP2 GT ISZERO PUSH2 0x2CA4 JUMPI PUSH2 0x2CA3 PUSH2 0x2844 JUMP JUMPDEST JUMPDEST DUP4 JUMPDEST DUP2 DUP2 LT ISZERO PUSH2 0x2CCD JUMPI DUP1 PUSH2 0x2CB9 DUP9 DUP3 PUSH2 0x257D JUMP JUMPDEST DUP5 MSTORE PUSH1 0x20 DUP5 ADD SWAP4 POP POP PUSH1 0x20 DUP2 ADD SWAP1 POP PUSH2 0x2CA6 JUMP JUMPDEST POP POP POP SWAP4 SWAP3 POP POP POP JUMP JUMPDEST PUSH1 0x0 DUP3 PUSH1 0x1F DUP4 ADD SLT PUSH2 0x2CEC JUMPI PUSH2 0x2CEB PUSH2 0x2798 JUMP JUMPDEST JUMPDEST DUP2 CALLDATALOAD PUSH2 0x2CFC DUP5 DUP3 PUSH1 0x20 DUP7 ADD PUSH2 0x2C6E JUMP JUMPDEST SWAP2 POP POP SWAP3 SWAP2 POP POP JUMP JUMPDEST PUSH1 0x0 DUP1 PUSH1 0x40 DUP4 DUP6 SUB SLT ISZERO PUSH2 0x2D1C JUMPI PUSH2 0x2D1B PUSH2 0x252A JUMP JUMPDEST JUMPDEST PUSH1 0x0 DUP4 ADD CALLDATALOAD PUSH8 0xFFFFFFFFFFFFFFFF DUP2 GT ISZERO PUSH2 0x2D3A JUMPI PUSH2 0x2D39 PUSH2 0x252F JUMP JUMPDEST JUMPDEST PUSH2 0x2D46 DUP6 DUP3 DUP7 ADD PUSH2 0x2CD7 JUMP JUMPDEST SWAP3 POP POP PUSH1 0x20 DUP4 ADD CALLDATALOAD PUSH8 0xFFFFFFFFFFFFFFFF DUP2 GT ISZERO PUSH2 0x2D67 JUMPI PUSH2 0x2D66 PUSH2 0x252F JUMP JUMPDEST JUMPDEST PUSH2 0x2D73 DUP6 DUP3 DUP7 ADD PUSH2 0x28B2 JUMP JUMPDEST SWAP2 POP POP SWAP3 POP SWAP3 SWAP1 POP JUMP JUMPDEST PUSH1 0x0 DUP2 MLOAD SWAP1 POP SWAP2 SWAP1 POP JUMP JUMPDEST PUSH1 0x0 DUP3 DUP3 MSTORE PUSH1 0x20 DUP3 ADD SWAP1 POP SWAP3 SWAP2 POP POP JUMP JUMPDEST PUSH1 0x0 DUP2 SWAP1 POP PUSH1 0x20 DUP3 ADD SWAP1 POP SWAP2 SWAP1 POP JUMP JUMPDEST PUSH2 0x2DB2 DUP2 PUSH2 0x24EC JUMP JUMPDEST DUP3 MSTORE POP POP JUMP JUMPDEST PUSH1 0x0 PUSH2 0x2DC4 DUP4 DUP4 PUSH2 0x2DA9 JUMP JUMPDEST PUSH1 0x20 DUP4 ADD SWAP1 POP SWAP3 SWAP2 POP POP JUMP JUMPDEST PUSH1 0x0 PUSH1 0x20 DUP3 ADD SWAP1 POP SWAP2 SWAP1 POP JUMP JUMPDEST PUSH1 0x0 PUSH2 0x2DE8 DUP3 PUSH2 0x2D7D JUMP JUMPDEST PUSH2 0x2DF2 DUP2 DUP6 PUSH2 0x2D88 JUMP JUMPDEST SWAP4 POP PUSH2 0x2DFD DUP4 PUSH2 0x2D99 JUMP JUMPDEST DUP1 PUSH1 0x0 JUMPDEST DUP4 DUP2 LT ISZERO PUSH2 0x2E2E JUMPI DUP2 MLOAD PUSH2 0x2E15 DUP9 DUP3 PUSH2 0x2DB8 JUMP JUMPDEST SWAP8 POP PUSH2 0x2E20 DUP4 PUSH2 0x2DD0 JUMP JUMPDEST SWAP3 POP POP PUSH1 0x1 DUP2 ADD SWAP1 POP PUSH2 0x2E01 JUMP JUMPDEST POP DUP6 SWAP4 POP POP POP POP SWAP3 SWAP2 POP POP JUMP JUMPDEST PUSH1 0x0 PUSH1 0x20 DUP3 ADD SWAP1 POP DUP2 DUP2 SUB PUSH1 0x0 DUP4 ADD MSTORE PUSH2 0x2E55 DUP2 DUP5 PUSH2 0x2DDD JUMP JUMPDEST SWAP1 POP SWAP3 SWAP2 POP POP JUMP JUMPDEST PUSH1 0x0 DUP1 PUSH1 0x0 PUSH1 0x60 DUP5 DUP7 SUB SLT ISZERO PUSH2 0x2E76 JUMPI PUSH2 0x2E75 PUSH2 0x252A JUMP JUMPDEST JUMPDEST PUSH1 0x0 PUSH2 0x2E84 DUP7 DUP3 DUP8 ADD PUSH2 0x257D JUMP JUMPDEST SWAP4 POP POP PUSH1 0x20 DUP5 ADD CALLDATALOAD PUSH8 0xFFFFFFFFFFFFFFFF DUP2 GT ISZERO PUSH2 0x2EA5 JUMPI PUSH2 0x2EA4 PUSH2 0x252F JUMP JUMPDEST JUMPDEST PUSH2 0x2EB1 DUP7 DUP3 DUP8 ADD PUSH2 0x28B2 JUMP JUMPDEST SWAP3 POP POP PUSH1 0x40 DUP5 ADD CALLDATALOAD PUSH8 0xFFFFFFFFFFFFFFFF DUP2 GT ISZERO PUSH2 0x2ED2 JUMPI PUSH2 0x2ED1 PUSH2 0x252F JUMP JUMPDEST JUMPDEST PUSH2 0x2EDE DUP7 DUP3 DUP8 ADD PUSH2 0x28B2 JUMP JUMPDEST SWAP2 POP POP SWAP3 POP SWAP3 POP SWAP3 JUMP JUMPDEST PUSH2 0x2EF1 DUP2 PUSH2 0x2554 JUMP JUMPDEST DUP3 MSTORE POP POP JUMP JUMPDEST PUSH1 0x0 PUSH1 0x20 DUP3 ADD SWAP1 POP PUSH2 0x2F0C PUSH1 0x0 DUP4 ADD DUP5 PUSH2 0x2EE8 JUMP JUMPDEST SWAP3 SWAP2 POP POP JUMP JUMPDEST PUSH2 0x2F1B DUP2 PUSH2 0x2683 JUMP JUMPDEST DUP2 EQ PUSH2 0x2F26 JUMPI PUSH1 0x0 DUP1 REVERT JUMPDEST POP JUMP JUMPDEST PUSH1 0x0 DUP2 CALLDATALOAD SWAP1 POP PUSH2 0x2F38 DUP2 PUSH2 0x2F12 JUMP JUMPDEST SWAP3 SWAP2 POP POP JUMP JUMPDEST PUSH1 0x0 DUP1 PUSH1 0x40 DUP4 DUP6 SUB SLT ISZERO PUSH2 0x2F55 JUMPI PUSH2 0x2F54 PUSH2 0x252A JUMP JUMPDEST JUMPDEST PUSH1 0x0 PUSH2 0x2F63 DUP6 DUP3 DUP7 ADD PUSH2 0x257D JUMP JUMPDEST SWAP3 POP POP PUSH1 0x20 PUSH2 0x2F74 DUP6 DUP3 DUP7 ADD PUSH2 0x2F29 JUMP JUMPDEST SWAP2 POP POP SWAP3 POP SWAP3 SWAP1 POP JUMP JUMPDEST PUSH1 0x0 DUP1 REVERT JUMPDEST PUSH1 0x0 DUP1 DUP4 PUSH1 0x1F DUP5 ADD SLT PUSH2 0x2F99 JUMPI PUSH2 0x2F98 PUSH2 0x2798 JUMP JUMPDEST JUMPDEST DUP3 CALLDATALOAD SWAP1 POP PUSH8 0xFFFFFFFFFFFFFFFF DUP2 GT ISZERO PUSH2 0x2FB6 JUMPI PUSH2 0x2FB5 PUSH2 0x2F7E JUMP JUMPDEST JUMPDEST PUSH1 0x20 DUP4 ADD SWAP2 POP DUP4 PUSH1 0x20 DUP3 MUL DUP4 ADD GT ISZERO PUSH2 0x2FD2 JUMPI PUSH2 0x2FD1 PUSH2 0x2844 JUMP JUMPDEST JUMPDEST SWAP3 POP SWAP3 SWAP1 POP JUMP JUMPDEST PUSH1 0x0 DUP1 DUP4 PUSH1 0x1F DUP5 ADD SLT PUSH2 0x2FEF JUMPI PUSH2 0x2FEE PUSH2 0x2798 JUMP JUMPDEST JUMPDEST DUP3 CALLDATALOAD SWAP1 POP PUSH8 0xFFFFFFFFFFFFFFFF DUP2 GT ISZERO PUSH2 0x300C JUMPI PUSH2 0x300B PUSH2 0x2F7E JUMP JUMPDEST JUMPDEST PUSH1 0x20 DUP4 ADD SWAP2 POP DUP4 PUSH1 0x1 DUP3 MUL DUP4 ADD GT ISZERO PUSH2 0x3028 JUMPI PUSH2 0x3027 PUSH2 0x2844 JUMP JUMPDEST JUMPDEST SWAP3 POP SWAP3 SWAP1 POP JUMP JUMPDEST PUSH1 0x0 DUP1 PUSH1 0x0 DUP1 PUSH1 0x0 DUP1 PUSH1 0x0 DUP1 PUSH1 0xA0 DUP10 DUP12 SUB SLT ISZERO PUSH2 0x304F JUMPI PUSH2 0x304E PUSH2 0x252A JUMP JUMPDEST JUMPDEST PUSH1 0x0 PUSH2 0x305D DUP12 DUP3 DUP13 ADD PUSH2 0x257D JUMP JUMPDEST SWAP9 POP POP PUSH1 0x20 PUSH2 0x306E DUP12 DUP3 DUP13 ADD PUSH2 0x257D JUMP JUMPDEST SWAP8 POP POP PUSH1 0x40 DUP10 ADD CALLDATALOAD PUSH8 0xFFFFFFFFFFFFFFFF DUP2 GT ISZERO PUSH2 0x308F JUMPI PUSH2 0x308E PUSH2 0x252F JUMP JUMPDEST JUMPDEST PUSH2 0x309B DUP12 DUP3 DUP13 ADD PUSH2 0x2F83 JUMP JUMPDEST SWAP7 POP SWAP7 POP POP PUSH1 0x60 DUP10 ADD CALLDATALOAD PUSH8 0xFFFFFFFFFFFFFFFF DUP2 GT ISZERO PUSH2 0x30BE JUMPI PUSH2 0x30BD PUSH2 0x252F JUMP JUMPDEST JUMPDEST PUSH2 0x30CA DUP12 DUP3 DUP13 ADD PUSH2 0x2F83 JUMP JUMPDEST SWAP5 POP SWAP5 POP POP PUSH1 0x80 DUP10 ADD CALLDATALOAD PUSH8 0xFFFFFFFFFFFFFFFF DUP2 GT ISZERO PUSH2 0x30ED JUMPI PUSH2 0x30EC PUSH2 0x252F JUMP JUMPDEST JUMPDEST PUSH2 0x30F9 DUP12 DUP3 DUP13 ADD PUSH2 0x2FD9 JUMP JUMPDEST SWAP3 POP SWAP3 POP POP SWAP3 SWAP6 SWAP9 POP SWAP3 SWAP6 SWAP9 SWAP1 SWAP4 SWAP7 POP JUMP JUMPDEST PUSH2 0x3114 DUP2 PUSH2 0x25FE JUMP JUMPDEST DUP3 MSTORE POP POP JUMP JUMPDEST PUSH1 0x0 PUSH1 0x20 DUP3 ADD SWAP1 POP PUSH2 0x312F PUSH1 0x0 DUP4 ADD DUP5 PUSH2 0x310B JUMP JUMPDEST SWAP3 SWAP2 POP POP JUMP JUMPDEST PUSH1 0x0 DUP1 PUSH1 0x40 DUP4 DUP6 SUB SLT ISZERO PUSH2 0x314C JUMPI PUSH2 0x314B PUSH2 0x252A JUMP JUMPDEST JUMPDEST PUSH1 0x0 PUSH2 0x315A DUP6 DUP3 DUP7 ADD PUSH2 0x257D JUMP JUMPDEST SWAP3 POP POP PUSH1 0x20 PUSH2 0x316B DUP6 DUP3 DUP7 ADD PUSH2 0x257D JUMP JUMPDEST SWAP2 POP POP SWAP3 POP SWAP3 SWAP1 POP JUMP JUMPDEST PUSH1 0x0 DUP1 PUSH1 0x40 DUP4 DUP6 SUB SLT ISZERO PUSH2 0x318C JUMPI PUSH2 0x318B PUSH2 0x252A JUMP JUMPDEST JUMPDEST PUSH1 0x0 PUSH2 0x319A DUP6 DUP3 DUP7 ADD PUSH2 0x257D JUMP JUMPDEST SWAP3 POP POP PUSH1 0x20 DUP4 ADD CALLDATALOAD PUSH8 0xFFFFFFFFFFFFFFFF DUP2 GT ISZERO PUSH2 0x31BB JUMPI PUSH2 0x31BA PUSH2 0x252F JUMP JUMPDEST JUMPDEST PUSH2 0x31C7 DUP6 DUP3 DUP7 ADD PUSH2 0x2B03 JUMP JUMPDEST SWAP2 POP POP SWAP3 POP SWAP3 SWAP1 POP JUMP JUMPDEST PUSH1 0x0 DUP1 PUSH1 0x0 DUP1 PUSH1 0x0 DUP1 PUSH1 0xA0 DUP8 DUP10 SUB SLT ISZERO PUSH2 0x31EE JUMPI PUSH2 0x31ED PUSH2 0x252A JUMP JUMPDEST JUMPDEST PUSH1 0x0 PUSH2 0x31FC DUP10 DUP3 DUP11 ADD PUSH2 0x257D JUMP JUMPDEST SWAP7 POP POP PUSH1 0x20 PUSH2 0x320D DUP10 DUP3 DUP11 ADD PUSH2 0x257D JUMP JUMPDEST SWAP6 POP POP PUSH1 0x40 PUSH2 0x321E DUP10 DUP3 DUP11 ADD PUSH2 0x25A9 JUMP JUMPDEST SWAP5 POP POP PUSH1 0x60 PUSH2 0x322F DUP10 DUP3 DUP11 ADD PUSH2 0x25A9 JUMP JUMPDEST SWAP4 POP POP PUSH1 0x80 DUP8 ADD CALLDATALOAD PUSH8 0xFFFFFFFFFFFFFFFF DUP2 GT ISZERO PUSH2 0x3250 JUMPI PUSH2 0x324F PUSH2 0x252F JUMP JUMPDEST JUMPDEST PUSH2 0x325C DUP10 DUP3 DUP11 ADD PUSH2 0x2FD9 JUMP JUMPDEST SWAP3 POP SWAP3 POP POP SWAP3 SWAP6 POP SWAP3 SWAP6 POP SWAP3 SWAP6 JUMP JUMPDEST PUSH1 0x0 DUP1 PUSH1 0x0 DUP1 PUSH1 0x0 PUSH1 0xA0 DUP7 DUP9 SUB SLT ISZERO PUSH2 0x3287 JUMPI PUSH2 0x3286 PUSH2 0x252A JUMP JUMPDEST JUMPDEST PUSH1 0x0 PUSH2 0x3295 DUP9 DUP3 DUP10 ADD PUSH2 0x257D JUMP JUMPDEST SWAP6 POP POP PUSH1 0x20 PUSH2 0x32A6 DUP9 DUP3 DUP10 ADD PUSH2 0x257D JUMP JUMPDEST SWAP5 POP POP PUSH1 0x40 PUSH2 0x32B7 DUP9 DUP3 DUP10 ADD PUSH2 0x25A9 JUMP JUMPDEST SWAP4 POP POP PUSH1 0x60 PUSH2 0x32C8 DUP9 DUP3 DUP10 ADD PUSH2 0x25A9 JUMP JUMPDEST SWAP3 POP POP PUSH1 0x80 DUP7 ADD CALLDATALOAD PUSH8 0xFFFFFFFFFFFFFFFF DUP2 GT ISZERO PUSH2 0x32E9 JUMPI PUSH2 0x32E8 PUSH2 0x252F JUMP JUMPDEST JUMPDEST PUSH2 0x32F5 DUP9 DUP3 DUP10 ADD PUSH2 0x2967 JUMP JUMPDEST SWAP2 POP POP SWAP3 SWAP6 POP SWAP3 SWAP6 SWAP1 SWAP4 POP JUMP JUMPDEST PUSH1 0x0 DUP1 PUSH1 0x0 PUSH1 0x60 DUP5 DUP7 SUB SLT ISZERO PUSH2 0x331B JUMPI PUSH2 0x331A PUSH2 0x252A JUMP JUMPDEST JUMPDEST PUSH1 0x0 PUSH2 0x3329 DUP7 DUP3 DUP8 ADD PUSH2 0x257D JUMP JUMPDEST SWAP4 POP POP PUSH1 0x20 PUSH2 0x333A DUP7 DUP3 DUP8 ADD PUSH2 0x25A9 JUMP JUMPDEST SWAP3 POP POP PUSH1 0x40 PUSH2 0x334B DUP7 DUP3 DUP8 ADD PUSH2 0x25A9 JUMP JUMPDEST SWAP2 POP POP SWAP3 POP SWAP3 POP SWAP3 JUMP JUMPDEST PUSH32 0x4E6F7420616E206F776E65722100000000000000000000000000000000000000 PUSH1 0x0 DUP3 ADD MSTORE POP JUMP JUMPDEST PUSH1 0x0 PUSH2 0x338B PUSH1 0xD DUP4 PUSH2 0x26F1 JUMP JUMPDEST SWAP2 POP PUSH2 0x3396 DUP3 PUSH2 0x3355 JUMP JUMPDEST PUSH1 0x20 DUP3 ADD SWAP1 POP SWAP2 SWAP1 POP JUMP JUMPDEST PUSH1 0x0 PUSH1 0x20 DUP3 ADD SWAP1 POP DUP2 DUP2 SUB PUSH1 0x0 DUP4 ADD MSTORE PUSH2 0x33BA DUP2 PUSH2 0x337E JUMP JUMPDEST SWAP1 POP SWAP2 SWAP1 POP JUMP JUMPDEST PUSH1 0x0 PUSH1 0x40 DUP3 ADD SWAP1 POP PUSH2 0x33D6 PUSH1 0x0 DUP4 ADD DUP6 PUSH2 0x2EE8 JUMP JUMPDEST PUSH2 0x33E3 PUSH1 0x20 DUP4 ADD DUP5 PUSH2 0x2EE8 JUMP JUMPDEST SWAP4 SWAP3 POP POP POP JUMP JUMPDEST PUSH32 0x557365206D696E744E4654282920666F72206F6E65204E465421000000000000 PUSH1 0x0 DUP3 ADD MSTORE POP JUMP JUMPDEST PUSH1 0x0 PUSH2 0x3420 PUSH1 0x1A DUP4 PUSH2 0x26F1 JUMP JUMPDEST SWAP2 POP PUSH2 0x342B DUP3 PUSH2 0x33EA JUMP JUMPDEST PUSH1 0x20 DUP3 ADD SWAP1 POP SWAP2 SWAP1 POP JUMP JUMPDEST PUSH1 0x0 PUSH1 0x20 DUP3 ADD SWAP1 POP DUP2 DUP2 SUB PUSH1 0x0 DUP4 ADD MSTORE PUSH2 0x344F DUP2 PUSH2 0x3413 JUMP JUMPDEST SWAP1 POP SWAP2 SWAP1 POP JUMP JUMPDEST PUSH32 0x426174636820746F6F206C617267652100000000000000000000000000000000 PUSH1 0x0 DUP3 ADD MSTORE POP JUMP JUMPDEST PUSH1 0x0 PUSH2 0x348C PUSH1 0x10 DUP4 PUSH2 0x26F1 JUMP JUMPDEST SWAP2 POP PUSH2 0x3497 DUP3 PUSH2 0x3456 JUMP JUMPDEST PUSH1 0x20 DUP3 ADD SWAP1 POP SWAP2 SWAP1 POP JUMP JUMPDEST PUSH1 0x0 PUSH1 0x20 DUP3 ADD SWAP1 POP DUP2 DUP2 SUB PUSH1 0x0 DUP4 ADD MSTORE PUSH2 0x34BB DUP2 PUSH2 0x347F JUMP JUMPDEST SWAP1 POP SWAP2 SWAP1 POP JUMP JUMPDEST PUSH32 0x4E487B7100000000000000000000000000000000000000000000000000000000 PUSH1 0x0 MSTORE PUSH1 0x11 PUSH1 0x4 MSTORE PUSH1 0x24 PUSH1 0x0 REVERT JUMPDEST PUSH1 0x0 PUSH2 0x34FC DUP3 PUSH2 0x24EC JUMP JUMPDEST SWAP2 POP PUSH2 0x3507 DUP4 PUSH2 0x24EC JUMP JUMPDEST SWAP3 POP DUP3 DUP3 ADD SWAP1 POP DUP1 DUP3 GT ISZERO PUSH2 0x351F JUMPI PUSH2 0x351E PUSH2 0x34C2 JUMP JUMPDEST JUMPDEST SWAP3 SWAP2 POP POP JUMP JUMPDEST PUSH32 0x4D617820737570706C7920726561636865642100000000000000000000000000 PUSH1 0x0 DUP3 ADD MSTORE POP JUMP JUMPDEST PUSH1 0x0 PUSH2 0x355B PUSH1 0x13 DUP4 PUSH2 0x26F1 JUMP JUMPDEST SWAP2 POP PUSH2 0x3566 DUP3 PUSH2 0x3525 JUMP JUMPDEST PUSH1 0x20 DUP3 ADD SWAP1 POP SWAP2 SWAP1 POP JUMP JUMPDEST PUSH1 0x0 PUSH1 0x20 DUP3 ADD SWAP1 POP DUP2 DUP2 SUB PUSH1 0x0 DUP4 ADD MSTORE PUSH2 0x358A DUP2 PUSH2 0x354E JUMP JUMPDEST SWAP1 POP SWAP2 SWAP1 POP JUMP JUMPDEST PUSH32 0x4E487B7100000000000000000000000000000000000000000000000000000000 PUSH1 0x0 MSTORE PUSH1 0x32 PUSH1 0x4 MSTORE PUSH1 0x24 PUSH1 0x0 REVERT JUMPDEST PUSH32 0x456D707479205552492100000000000000000000000000000000000000000000 PUSH1 0x0 DUP3 ADD MSTORE POP JUMP JUMPDEST PUSH1 0x0 PUSH2 0x35F6 PUSH1 0xA DUP4 PUSH2 0x26F1 JUMP JUMPDEST SWAP2 POP PUSH2 0x3601 DUP3 PUSH2 0x35C0 JUMP JUMPDEST PUSH1 0x20 DUP3 ADD SWAP1 POP SWAP2 SWAP1 POP JUMP JUMPDEST PUSH1 0x0 PUSH1 0x20 DUP3 ADD SWAP1 POP DUP2 DUP2 SUB PUSH1 0x0 DUP4 ADD MSTORE PUSH2 0x3625 DUP2 PUSH2 0x35E9 JUMP JUMPDEST SWAP1 POP SWAP2 SWAP1 POP JUMP JUMPDEST PUSH1 0x0 PUSH2 0x3637 DUP3 PUSH2 0x24EC JUMP JUMPDEST SWAP2 POP PUSH32 0xFFFFFFFFFFFFFFFFFFFFFFFFFFFFFFFFFFFFFFFFFFFFFFFFFFFFFFFFFFFFFFFF DUP3 SUB PUSH2 0x3669 JUMPI PUSH2 0x3668 PUSH2 0x34C2 JUMP JUMPDEST JUMPDEST PUSH1 0x1 DUP3 ADD SWAP1 POP SWAP2 SWAP1 POP JUMP JUMPDEST PUSH1 0x0 PUSH1 0x40 DUP3 ADD SWAP1 POP PUSH2 0x3689 PUSH1 0x0 DUP4 ADD DUP6 PUSH2 0x24F6 JUMP JUMPDEST PUSH2 0x3696 PUSH1 0x20 DUP4 ADD DUP5 PUSH2 0x24F6 JUMP JUMPDEST SWAP4 SWAP3 POP POP POP JUMP JUMPDEST PUSH32 0x4E487B7100000000000000000000000000000000000000000000000000000000 PUSH1 0x0 MSTORE PUSH1 0x22 PUSH1 0x4 MSTORE PUSH1 0x24 PUSH1 0x0 REVERT JUMPDEST PUSH1 0x0 PUSH1 0x2 DUP3 DIV SWAP1 POP PUSH1 0x1 DUP3 AND DUP1 PUSH2 0x36E4 JUMPI PUSH1 0x7F DUP3 AND SWAP2 POP JUMPDEST PUSH1 0x20 DUP3 LT DUP2 SUB PUSH2 0x36F7 JUMPI PUSH2 0x36F6 PUSH2 0x369D JUMP JUMPDEST JUMPDEST POP SWAP2 SWAP1 POP JUMP JUMPDEST PUSH1 0x0 DUP2 SWAP1 POP SWAP3 SWAP2 POP POP JUMP JUMPDEST PUSH1 0x0 DUP2 SWAP1 POP DUP2 PUSH1 0x0 MSTORE PUSH1 0x20 PUSH1 0x0 KECCAK256 SWAP1 POP SWAP2 SWAP1 POP JUMP JUMPDEST PUSH1 0x0 DUP2 SLOAD PUSH2 0x372A DUP2 PUSH2 0x36CC JUMP JUMPDEST PUSH2 0x3734 DUP2 DUP7 PUSH2 0x36FD JUMP JUMPDEST SWAP5 POP PUSH1 0x1 DUP3 AND PUSH1 0x0 DUP2 EQ PUSH2 0x374F JUMPI PUSH1 0x1 DUP2 EQ PUSH2 0x3764 JUMPI PUSH2 0x3797 JUMP JUMPDEST PUSH1 0xFF NOT DUP4 AND DUP7 MSTORE DUP2 ISZERO ISZERO DUP3 MUL DUP7 ADD SWAP4 POP PUSH2 0x3797 JUMP JUMPDEST PUSH2 0x376D DUP6 PUSH2 0x3708 JUMP JUMPDEST PUSH1 0x0 JUMPDEST DUP4 DUP2 LT ISZERO PUSH2 0x378F JUMPI DUP2 SLOAD DUP2 DUP10 ADD MSTORE PUSH1 0x1 DUP3 ADD SWAP2 POP PUSH1 0x20 DUP2 ADD SWAP1 POP PUSH2 0x3770 JUMP JUMPDEST DUP4 DUP9 ADD SWAP6 POP POP POP JUMPDEST POP POP POP SWAP3 SWAP2 POP POP JUMP JUMPDEST PUSH1 0x0 PUSH2 0x37AB DUP3 PUSH2 0x26E6 JUMP JUMPDEST PUSH2 0x37B5 DUP2 DUP6 PUSH2 0x36FD JUMP JUMPDEST SWAP4 POP PUSH2 0x37C5 DUP2 DUP6 PUSH1 0x20 DUP7 ADD PUSH2 0x2702 JUMP JUMPDEST DUP1 DUP5 ADD SWAP2 POP POP SWAP3 SWAP2 POP POP JUMP JUMPDEST PUSH1 0x0 PUSH2 0x37DD DUP3 DUP6 PUSH2 0x371D JUMP JUMPDEST SWAP2 POP PUSH2 0x37E9 DUP3 DUP5 PUSH2 0x37A0 JUMP JUMPDEST SWAP2 POP DUP2 SWAP1 POP SWAP4 SWAP3 POP POP POP JUMP JUMPDEST PUSH1 0x0 PUSH1 0x20 PUSH1 0x1F DUP4 ADD DIV SWAP1 POP SWAP2 SWAP1 POP JUMP JUMPDEST PUSH1 0x0 DUP3 DUP3 SHL SWAP1 POP SWAP3 SWAP2 POP POP JUMP JUMPDEST PUSH1 0x0 PUSH1 0x8 DUP4 MUL PUSH2 0x3842 PUSH32 0xFFFFFFFFFFFFFFFFFFFFFFFFFFFFFFFFFFFFFFFFFFFFFFFFFFFFFFFFFFFFFFFF DUP3 PUSH2 0x3805 JUMP JUMPDEST PUSH2 0x384C DUP7 DUP4 PUSH2 0x3805 JUMP JUMPDEST SWAP6 POP DUP1 NOT DUP5 AND SWAP4 POP DUP1 DUP7 AND DUP5 OR SWAP3 POP POP POP SWAP4 SWAP3 POP POP POP JUMP JUMPDEST PUSH1 0x0 DUP2 SWAP1 POP SWAP2 SWAP1 POP JUMP JUMPDEST PUSH1 0x0 PUSH2 0x3889 PUSH2 0x3884 PUSH2 0x387F DUP5 PUSH2 0x24EC JUMP JUMPDEST PUSH2 0x3864 JUMP JUMPDEST PUSH2 0x24EC JUMP JUMPDEST SWAP1 POP SWAP2 SWAP1 POP JUMP JUMPDEST PUSH1 0x0 DUP2 SWAP1 POP SWAP2 SWAP1 POP JUMP JUMPDEST PUSH2 0x38A3 DUP4 PUSH2 0x386E JUMP JUMPDEST PUSH2 0x38B7 PUSH2 0x38AF DUP3 PUSH2 0x3890 JUMP JUMPDEST DUP5 DUP5 SLOAD PUSH2 0x3812 JUMP JUMPDEST DUP3 SSTORE POP POP POP POP JUMP JUMPDEST PUSH1 0x0 SWAP1 JUMP JUMPDEST PUSH2 0x38CC PUSH2 0x38BF JUMP JUMPDEST PUSH2 0x38D7 DUP2 DUP5 DUP5 PUSH2 0x389A JUMP JUMPDEST POP POP POP JUMP JUMPDEST JUMPDEST DUP2 DUP2 LT ISZERO PUSH2 0x38FB JUMPI PUSH2 0x38F0 PUSH1 0x0 DUP3 PUSH2 0x38C4 JUMP JUMPDEST PUSH1 0x1 DUP2 ADD SWAP1 POP PUSH2 0x38DD JUMP JUMPDEST POP POP JUMP JUMPDEST PUSH1 0x1F DUP3 GT ISZERO PUSH2 0x3940 JUMPI PUSH2 0x3911 DUP2 PUSH2 0x3708 JUMP JUMPDEST PUSH2 0x391A DUP5 PUSH2 0x37F5 JUMP JUMPDEST DUP2 ADD PUSH1 0x20 DUP6 LT ISZERO PUSH2 0x3929 JUMPI DUP2 SWAP1 POP JUMPDEST PUSH2 0x393D PUSH2 0x3935 DUP6 PUSH2 0x37F5 JUMP JUMPDEST DUP4 ADD DUP3 PUSH2 0x38DC JUMP JUMPDEST POP POP JUMPDEST POP POP POP JUMP JUMPDEST PUSH1 0x0 DUP3 DUP3 SHR SWAP1 POP SWAP3 SWAP2 POP POP JUMP JUMPDEST PUSH1 0x0 PUSH2 0x3963 PUSH1 0x0 NOT DUP5 PUSH1 0x8 MUL PUSH2 0x3945 JUMP JUMPDEST NOT DUP1 DUP4 AND SWAP2 POP POP SWAP3 SWAP2 POP POP JUMP JUMPDEST PUSH1 0x0 PUSH2 0x397C DUP4 DUP4 PUSH2 0x3952 JUMP JUMPDEST SWAP2 POP DUP3 PUSH1 0x2 MUL DUP3 OR SWAP1 POP SWAP3 SWAP2 POP POP JUMP JUMPDEST PUSH2 0x3995 DUP3 PUSH2 0x26E6 JUMP JUMPDEST PUSH8 0xFFFFFFFFFFFFFFFF DUP2 GT ISZERO PUSH2 0x39AE JUMPI PUSH2 0x39AD PUSH2 0x279D JUMP JUMPDEST JUMPDEST PUSH2 0x39B8 DUP3 SLOAD PUSH2 0x36CC JUMP JUMPDEST PUSH2 0x39C3 DUP3 DUP3 DUP6 PUSH2 0x38FF JUMP JUMPDEST PUSH1 0x0 PUSH1 0x20 SWAP1 POP PUSH1 0x1F DUP4 GT PUSH1 0x1 DUP2 EQ PUSH2 0x39F6 JUMPI PUSH1 0x0 DUP5 ISZERO PUSH2 0x39E4 JUMPI DUP3 DUP8 ADD MLOAD SWAP1 POP JUMPDEST PUSH2 0x39EE DUP6 DUP3 PUSH2 0x3970 JUMP JUMPDEST DUP7 SSTORE POP PUSH2 0x3A56 JUMP JUMPDEST PUSH1 0x1F NOT DUP5 AND PUSH2 0x3A04 DUP7 PUSH2 0x3708 JUMP JUMPDEST PUSH1 0x0 JUMPDEST DUP3 DUP2 LT ISZERO PUSH2 0x3A2C JUMPI DUP5 DUP10 ADD MLOAD DUP3 SSTORE PUSH1 0x1 DUP3 ADD SWAP2 POP PUSH1 0x20 DUP6 ADD SWAP5 POP PUSH1 0x20 DUP2 ADD SWAP1 POP PUSH2 0x3A07 JUMP JUMPDEST DUP7 DUP4 LT ISZERO PUSH2 0x3A49 JUMPI DUP5 DUP10 ADD MLOAD PUSH2 0x3A45 PUSH1 0x1F DUP10 AND DUP3 PUSH2 0x3952 JUMP JUMPDEST DUP4 SSTORE POP JUMPDEST PUSH1 0x1 PUSH1 0x2 DUP9 MUL ADD DUP9 SSTORE POP POP POP JUMPDEST POP POP POP POP POP POP JUMP JUMPDEST PUSH1 0x0 DUP2 MLOAD SWAP1 POP SWAP2 SWAP1 POP JUMP JUMPDEST PUSH1 0x0 DUP3 DUP3 MSTORE PUSH1 0x20 DUP3 ADD SWAP1 POP SWAP3 SWAP2 POP POP JUMP JUMPDEST PUSH1 0x0 PUSH2 0x3A85 DUP3 PUSH2 0x3A5E JUMP JUMPDEST PUSH2 0x3A8F DUP2 DUP6 PUSH2 0x3A69 JUMP JUMPDEST SWAP4 POP PUSH2 0x3A9F DUP2 DUP6 PUSH1 0x20 DUP7 ADD PUSH2 0x2702 JUMP JUMPDEST PUSH2 0x3AA8 DUP2 PUSH2 0x272C JUMP JUMPDEST DUP5 ADD SWAP2 POP POP SWAP3 SWAP2 POP POP JUMP JUMPDEST PUSH1 0x0 PUSH1 0xA0 DUP3 ADD SWAP1 POP PUSH2 0x3AC8 PUSH1 0x0 DUP4 ADD DUP9 PUSH2 0x2EE8 JUMP JUMPDEST PUSH2 0x3AD5 PUSH1 0x20 DUP4 ADD DUP8 PUSH2 0x2EE8 JUMP JUMPDEST PUSH2 0x3AE2 PUSH1 0x40 DUP4 ADD DUP7 PUSH2 0x24F6 JUMP JUMPDEST PUSH2 0x3AEF PUSH1 0x60 DUP4 ADD DUP6 PUSH2 0x24F6 JUMP JUMPDEST DUP2 DUP2 SUB PUSH1 0x80 DUP4 ADD MSTORE PUSH2 0x3B01 DUP2 DUP5 PUSH2 0x3A7A JUMP JUMPDEST SWAP1 POP SWAP7 SWAP6 POP POP POP POP POP POP JUMP JUMPDEST PUSH1 0x0 DUP2 MLOAD SWAP1 POP PUSH2 0x3B1C DUP2 PUSH2 0x262A JUMP JUMPDEST SWAP3 SWAP2 POP POP JUMP JUMPDEST PUSH1 0x0 PUSH1 0x20 DUP3 DUP5 SUB SLT ISZERO PUSH2 0x3B38 JUMPI PUSH2 0x3B37 PUSH2 0x252A JUMP JUMPDEST JUMPDEST PUSH1 0x0 PUSH2 0x3B46 DUP5 DUP3 DUP6 ADD PUSH2 0x3B0D JUMP JUMPDEST SWAP2 POP POP SWAP3 SWAP2 POP POP JUMP JUMPDEST PUSH1 0x0 PUSH1 0xA0 DUP3 ADD SWAP1 POP PUSH2 0x3B64 PUSH1 0x0 DUP4 ADD DUP9 PUSH2 0x2EE8 JUMP JUMPDEST PUSH2 0x3B71 PUSH1 0x20 DUP4 ADD DUP8 PUSH2 0x2EE8 JUMP JUMPDEST DUP2 DUP2 SUB PUSH1 0x40 DUP4 ADD MSTORE PUSH2 0x3B83 DUP2 DUP7 PUSH2 0x2DDD JUMP JUMPDEST SWAP1 POP DUP2 DUP2 SUB PUSH1 0x60 DUP4 ADD MSTORE PUSH2 0x3B97 DUP2 DUP6 PUSH2 0x2DDD JUMP JUMPDEST SWAP1 POP DUP2 DUP2 SUB PUSH1 0x80 DUP4 ADD MSTORE PUSH2 0x3BAB DUP2 DUP5 PUSH2 0x3A7A JUMP JUMPDEST SWAP1 POP SWAP7 SWAP6 POP POP POP POP POP POP JUMP JUMPDEST PUSH1 0x0 PUSH1 0x80 DUP3 ADD SWAP1 POP PUSH2 0x3BCC PUSH1 0x0 DUP4 ADD DUP8 PUSH2 0x2EE8 JUMP JUMPDEST PUSH2 0x3BD9 PUSH1 0x20 DUP4 ADD DUP7 PUSH2 0x24F6 JUMP JUMPDEST PUSH2 0x3BE6 PUSH1 0x40 DUP4 ADD DUP6 PUSH2 0x24F6 JUMP JUMPDEST PUSH2 0x3BF3 PUSH1 0x60 DUP4 ADD DUP5 PUSH2 0x24F6 JUMP JUMPDEST SWAP6 SWAP5 POP POP POP POP POP JUMP JUMPDEST PUSH1 0x0 PUSH1 0x40 DUP3 ADD SWAP1 POP DUP2 DUP2 SUB PUSH1 0x0 DUP4 ADD MSTORE PUSH2 0x3C16 DUP2 DUP6 PUSH2 0x2DDD JUMP JUMPDEST SWAP1 POP DUP2 DUP2 SUB PUSH1 0x20 DUP4 ADD MSTORE PUSH2 0x3C2A DUP2 DUP5 PUSH2 0x2DDD JUMP JUMPDEST SWAP1 POP SWAP4 SWAP3 POP POP POP JUMP INVALID LOG2 PUSH5 0x6970667358 0x22 SLT KECCAK256 JUMPDEST 0xAC SWAP10 0xEB 0xCB DUP6 PUSH30 0xFFE72C4D1674BDA164F1D02E7BB63EA0157CFE17EBF5CEA99D64736F6C63 NUMBER STOP ADDMOD SHR STOP CALLER "},"methodIdentifiers":{"balanceOf(address,uint256)":"00fdd58e","balanceOfBatch(address[],uint256[])":"4e1273f4","burn(address,uint256,uint256)":"f5298aca","burnBatch(address,uint256[],uint256[])":"6b20c454","currentTokenId()":"009a9b7b","exists(uint256)":"4f558e79","isApprovedForAll(address,address)":"e985e9c5","mintBatchNFT(address,string[])":"30a50a8c","mintNFT(address,string)":"eacabe14","onERC1155BatchReceived(address,address,uint256[],uint256[],bytes)":"bc197c81","onERC1155Received(address,address,uint256,uint256,bytes)":"f23a6e61","owner()":"8da5cb5b","pause()":"8456cb59","paused()":"5c975abb","safeBatchTransferFrom(address,address,uint256[],uint256[],bytes)":"2eb2c2d6","safeTransferFrom(address,address,uint256,uint256,bytes)":"f242432a","setApprovalForAll(address,bool)":"a22cb465","supportsInterface(bytes4)":"01ffc9a7","totalSupply()":"18160ddd","totalSupply(uint256)":"bd85b039","unpause()":"3f4ba83a","uri(uint256)":"0e89341c"}},"storageLayout":{"storage":[{"astId":561,"contract":"contracts/TokensERC1155.sol:TokensERC1155","label":"_balances","offset":0,"slot":"0","type":"t_mapping(t_uint256,t_mapping(t_address,t_uint256))"},{"astId":567,"contract":"contracts/TokensERC1155.sol:TokensERC1155","label":"_operatorApprovals","offset":0,"slot":"1","type":"t_mapping(t_address,t_mapping(t_address,t_bool))"},{"astId":569,"contract":"contracts/TokensERC1155.sol:TokensERC1155","label":"_uri","offset":0,"slot":"2","type":"t_string_storage"},{"astId":1917,"contract":"contracts/TokensERC1155.sol:TokensERC1155","label":"_baseURI","offset":0,"slot":"3","type":"t_string_storage"},{"astId":1921,"contract":"contracts/TokensERC1155.sol:TokensERC1155","label":"_tokenURIs","offset":0,"slot":"4","type":"t_mapping(t_uint256,t_string_storage)"},{"astId":3161,"contract":"contracts/TokensERC1155.sol:TokensERC1155","label":"_paused","offset":0,"slot":"5","type":"t_bool"},{"astId":1737,"contract":"contracts/TokensERC1155.sol:TokensERC1155","label":"_totalSupply","offset":0,"slot":"6","type":"t_mapping(t_uint256,t_uint256)"},{"astId":1739,"contract":"contracts/TokensERC1155.sol:TokensERC1155","label":"_totalSupplyAll","offset":0,"slot":"7","type":"t_uint256"},{"astId":101,"contract":"contracts/TokensERC1155.sol:TokensERC1155","label":"_currentTokenId","offset":0,"slot":"8","type":"t_uint256"}],"types":{"t_address":{"encoding":"inplace","label":"address","numberOfBytes":"20"},"t_bool":{"encoding":"inplace","label":"bool","numberOfBytes":"1"},"t_mapping(t_address,t_bool)":{"encoding":"mapping","key":"t_address","label":"mapping(address => bool)","numberOfBytes":"32","value":"t_bool"},"t_mapping(t_address,t_mapping(t_address,t_bool))":{"encoding":"mapping","key":"t_address","label":"mapping(address => mapping(address => bool))","numberOfBytes":"32","value":"t_mapping(t_address,t_bool)"},"t_mapping(t_address,t_uint256)":{"encoding":"mapping","key":"t_address","label":"mapping(address => uint256)","numberOfBytes":"32","value":"t_uint256"},"t_mapping(t_uint256,t_mapping(t_address,t_uint256))":{"encoding":"mapping","key":"t_uint256","label":"mapping(uint256 => mapping(address => uint256))","numberOfBytes":"32","value":"t_mapping(t_address,t_uint256)"},"t_mapping(t_uint256,t_string_storage)":{"encoding":"mapping","key":"t_uint256","label":"mapping(uint256 => string)","numberOfBytes":"32","value":"t_string_storage"},"t_mapping(t_uint256,t_uint256)":{"encoding":"mapping","key":"t_uint256","label":"mapping(uint256 => uint256)","numberOfBytes":"32","value":"t_uint256"},"t_string_storage":{"encoding":"bytes","label":"string","numberOfBytes":"32"},"t_uint256":{"encoding":"inplace","label":"uint256","numberOfBytes":"32"}}}}}}