{
  "_format": "hh-sol-artifact-1",
  "contractName": "Market",
  "sourceName": "contracts/Market.sol",
  "abi": [
    {
      "inputs": [],
      "name": "InvalidInitialization",
      "type": "error"
    },
    {
      "inputs": [],
      "name": "NotInitializing",
      "type": "error"
    },
    {
      "inputs": [
        {
          "internalType": "address",
          "name": "owner",
          "type": "address"
        }
      ],
      "name": "OwnableInvalidOwner",
      "type": "error"
    },
    {
      "inputs": [
        {
          "internalType": "address",
          "name": "account",
          "type": "address"
        }
      ],
      "name": "OwnableUnauthorizedAccount",
      "type": "error"
    },
    {
      "anonymous": false,
      "inputs": [
        {
          "indexed": false,
          "internalType": "uint64",
          "name": "version",
          "type": "uint64"
        }
      ],
      "name": "Initialized",
      "type": "event"
    },
    {
      "anonymous": false,
      "inputs": [
        {
          "indexed": true,
          "internalType": "address",
          "name": "previousOwner",
          "type": "address"
        },
        {
          "indexed": true,
          "internalType": "address",
          "name": "newOwner",
          "type": "address"
        }
      ],
      "name": "OwnershipTransferred",
      "type": "event"
    },
    {
      "stateMutability": "payable",
      "type": "fallback"
    },
    {
      "inputs": [
        {
          "internalType": "uint256",
          "name": "id",
          "type": "uint256"
        },
        {
          "internalType": "uint256",
          "name": "value",
          "type": "uint256"
        }
      ],
      "name": "buyFT",
      "outputs": [],
      "stateMutability": "payable",
      "type": "function"
    },
    {
      "inputs": [
        {
          "internalType": "uint256",
          "name": "id",
          "type": "uint256"
        }
      ],
      "name": "buyNFT",
      "outputs": [],
      "stateMutability": "payable",
      "type": "function"
    },
    {
      "inputs": [
        {
          "internalType": "uint256",
          "name": "id",
          "type": "uint256"
        }
      ],
      "name": "exhibitedNFTOwners",
      "outputs": [
        {
          "internalType": "address",
          "name": "tokenOwner",
          "type": "address"
        }
      ],
      "stateMutability": "view",
      "type": "function"
    },
    {
      "inputs": [],
      "name": "getAllIdsFTExhibited",
      "outputs": [
        {
          "internalType": "uint256[]",
          "name": "",
          "type": "uint256[]"
        }
      ],
      "stateMutability": "view",
      "type": "function"
    },
    {
      "inputs": [],
      "name": "getAllIdsNFTExhibited",
      "outputs": [
        {
          "internalType": "uint256[]",
          "name": "",
          "type": "uint256[]"
        }
      ],
      "stateMutability": "view",
      "type": "function"
    },
    {
      "inputs": [],
      "name": "getImplementetionVersion",
      "outputs": [
        {
          "internalType": "uint256",
          "name": "",
          "type": "uint256"
        }
      ],
      "stateMutability": "view",
      "type": "function"
    },
    {
      "inputs": [
        {
          "internalType": "uint256",
          "name": "id",
          "type": "uint256"
        }
      ],
      "name": "getPlaceInQueue",
      "outputs": [
        {
          "internalType": "uint256[]",
          "name": "",
          "type": "uint256[]"
        }
      ],
      "stateMutability": "view",
      "type": "function"
    },
    {
      "inputs": [
        {
          "internalType": "uint256",
          "name": "id",
          "type": "uint256"
        }
      ],
      "name": "getPriceFT",
      "outputs": [
        {
          "internalType": "uint256",
          "name": "",
          "type": "uint256"
        }
      ],
      "stateMutability": "view",
      "type": "function"
    },
    {
      "inputs": [
        {
          "internalType": "uint256",
          "name": "id",
          "type": "uint256"
        }
      ],
      "name": "getPriceNFT",
      "outputs": [
        {
          "internalType": "uint256",
          "name": "",
          "type": "uint256"
        }
      ],
      "stateMutability": "view",
      "type": "function"
    },
    {
      "inputs": [
        {
          "internalType": "uint256",
          "name": "id",
          "type": "uint256"
        }
      ],
      "name": "getQueueHead",
      "outputs": [
        {
          "internalType": "uint256",
          "name": "",
          "type": "uint256"
        }
      ],
      "stateMutability": "view",
      "type": "function"
    },
    {
      "inputs": [
        {
          "internalType": "uint256",
          "name": "id",
          "type": "uint256"
        }
      ],
      "name": "getQueueTail",
      "outputs": [
        {
          "internalType": "uint256",
          "name": "",
          "type": "uint256"
        }
      ],
      "stateMutability": "view",
      "type": "function"
    },
    {
      "inputs": [
        {
          "internalType": "uint256",
          "name": "id",
          "type": "uint256"
        },
        {
          "internalType": "uint256",
          "name": "queueIndex",
          "type": "uint256"
        }
      ],
      "name": "getSellerInQueue",
      "outputs": [
        {
          "internalType": "address",
          "name": "",
          "type": "address"
        }
      ],
      "stateMutability": "view",
      "type": "function"
    },
    {
      "inputs": [
        {
          "internalType": "uint256",
          "name": "id",
          "type": "uint256"
        },
        {
          "internalType": "uint256",
          "name": "queueIndex",
          "type": "uint256"
        }
      ],
      "name": "getValueInQueue",
      "outputs": [
        {
          "internalType": "uint256",
          "name": "",
          "type": "uint256"
        }
      ],
      "stateMutability": "view",
      "type": "function"
    },
    {
      "inputs": [
        {
          "internalType": "uint256",
          "name": "",
          "type": "uint256"
        }
      ],
      "name": "idsFTExhibited",
      "outputs": [
        {
          "internalType": "uint256",
          "name": "",
          "type": "uint256"
        }
      ],
      "stateMutability": "view",
      "type": "function"
    },
    {
      "inputs": [
        {
          "internalType": "uint256",
          "name": "",
          "type": "uint256"
        }
      ],
      "name": "idsNFTExhibited",
      "outputs": [
        {
          "internalType": "uint256",
          "name": "",
          "type": "uint256"
        }
      ],
      "stateMutability": "view",
      "type": "function"
    },
    {
      "inputs": [
        {
          "internalType": "address payable",
          "name": "_token",
          "type": "address"
        }
      ],
      "name": "initialize",
      "outputs": [],
      "stateMutability": "nonpayable",
      "type": "function"
    },
    {
      "inputs": [
        {
          "internalType": "address",
          "name": "",
          "type": "address"
        },
        {
          "internalType": "address",
          "name": "from",
          "type": "address"
        },
        {
          "internalType": "uint256[]",
          "name": "ids",
          "type": "uint256[]"
        },
        {
          "internalType": "uint256[]",
          "name": "values",
          "type": "uint256[]"
        },
        {
          "internalType": "bytes",
          "name": "",
          "type": "bytes"
        }
      ],
      "name": "onERC1155BatchReceived",
      "outputs": [
        {
          "internalType": "bytes4",
          "name": "",
          "type": "bytes4"
        }
      ],
      "stateMutability": "nonpayable",
      "type": "function"
    },
    {
      "inputs": [
        {
          "internalType": "address",
          "name": "",
          "type": "address"
        },
        {
          "internalType": "address",
          "name": "from",
          "type": "address"
        },
        {
          "internalType": "uint256",
          "name": "id",
          "type": "uint256"
        },
        {
          "internalType": "uint256",
          "name": "value",
          "type": "uint256"
        },
        {
          "internalType": "bytes",
          "name": "",
          "type": "bytes"
        }
      ],
      "name": "onERC1155Received",
      "outputs": [
        {
          "internalType": "bytes4",
          "name": "",
          "type": "bytes4"
        }
      ],
      "stateMutability": "nonpayable",
      "type": "function"
    },
    {
      "inputs": [],
      "name": "owner",
      "outputs": [
        {
          "internalType": "address",
          "name": "",
          "type": "address"
        }
      ],
      "stateMutability": "view",
      "type": "function"
    },
    {
      "inputs": [],
      "name": "renounceOwnership",
      "outputs": [],
      "stateMutability": "nonpayable",
      "type": "function"
    },
    {
      "inputs": [
        {
          "internalType": "uint256",
          "name": "id",
          "type": "uint256"
        },
        {
          "internalType": "uint256",
          "name": "price",
          "type": "uint256"
        }
      ],
      "name": "setPriceFT",
      "outputs": [],
      "stateMutability": "nonpayable",
      "type": "function"
    },
    {
      "inputs": [
        {
          "internalType": "uint256[]",
          "name": "ids",
          "type": "uint256[]"
        },
        {
          "internalType": "uint256[]",
          "name": "price",
          "type": "uint256[]"
        }
      ],
      "name": "setPriceNFTBatch",
      "outputs": [],
      "stateMutability": "nonpayable",
      "type": "function"
    },
    {
      "inputs": [
        {
          "internalType": "uint256",
          "name": "id",
          "type": "uint256"
        }
      ],
      "name": "stopExhibitFT",
      "outputs": [],
      "stateMutability": "nonpayable",
      "type": "function"
    },
    {
      "inputs": [
        {
          "internalType": "uint256",
          "name": "id",
          "type": "uint256"
        }
      ],
      "name": "stopExhibitNFT",
      "outputs": [],
      "stateMutability": "nonpayable",
      "type": "function"
    },
    {
      "inputs": [
        {
          "internalType": "uint256[]",
          "name": "ids",
          "type": "uint256[]"
        }
      ],
      "name": "stopExhibitNFTBatch",
      "outputs": [],
      "stateMutability": "nonpayable",
      "type": "function"
    },
    {
      "inputs": [],
      "name": "toWithdraw",
      "outputs": [
        {
          "internalType": "uint256",
          "name": "",
          "type": "uint256"
        }
      ],
      "stateMutability": "view",
      "type": "function"
    },
    {
      "inputs": [],
      "name": "token",
      "outputs": [
        {
          "internalType": "contract TokensERC1155",
          "name": "",
          "type": "address"
        }
      ],
      "stateMutability": "view",
      "type": "function"
    },
    {
      "inputs": [
        {
          "internalType": "address",
          "name": "newOwner",
          "type": "address"
        }
      ],
      "name": "transferOwnership",
      "outputs": [],
      "stateMutability": "nonpayable",
      "type": "function"
    },
    {
      "inputs": [],
      "name": "withdrawETH",
      "outputs": [],
      "stateMutability": "nonpayable",
      "type": "function"
    },
    {
      "stateMutability": "payable",
      "type": "receive"
    }
  ],
  "bytecode": "0x6080604052348015600f57600080fd5b506149218061001f6000396000f3fe6080604052600436106101c65760003560e01c80638da5cb5b116100f7578063e086e5ec11610095578063f2fde38b11610064578063f2fde38b146106fa578063f63bac3f14610723578063f9240b881461074c578063fc0c546a146107895761020e565b8063e086e5ec14610640578063eee99f3714610657578063eefffabb14610680578063f23a6e61146106bd5761020e565b8063c4d66de8116100d1578063c4d66de814610586578063c977bcde146105af578063d7ed977a146105d8578063d86bc9ac146106035761020e565b80638da5cb5b146104f3578063ab69e6a31461051e578063bc197c81146105495761020e565b80636fc39dc2116101645780637cb5cf181161013e5780637cb5cf181461041357806387fe0446146104505780638a59fef51461048d5780638cb7993e146104b65761020e565b80636fc39dc2146103a3578063715018a6146103e05780637bff2fbe146103f75761020e565b8063509a6969116101a0578063509a6969146102e457806351ed82881461032157806365cf36f51461033d57806365f8e8c8146103665761020e565b80631f1b4d1914610251578063267999551461028e578063347f2336146102b95761020e565b3661020e57600061020c576040517f08c379a000000000000000000000000000000000000000000000000000000000815260040161020390613336565b60405180910390fd5b005b600061024f576040517f08c379a0000000000000000000000000000000000000000000000000000000008152600401610246906133a2565b60405180910390fd5b005b34801561025d57600080fd5b5061027860048036038101906102739190613402565b6107b4565b6040516102859190613470565b60405180910390f35b34801561029a57600080fd5b506102a36107e7565b6040516102b0919061349a565b60405180910390f35b3480156102c557600080fd5b506102ce6107f0565b6040516102db919061349a565b60405180910390f35b3480156102f057600080fd5b5061030b60048036038101906103069190613402565b610837565b604051610318919061349a565b60405180910390f35b61033b60048036038101906103369190613402565b610854565b005b34801561034957600080fd5b50610364600480360381019061035f91906134b5565b610bb7565b005b34801561037257600080fd5b5061038d60048036038101906103889190613402565b610cfd565b60405161039a919061349a565b60405180910390f35b3480156103af57600080fd5b506103ca60048036038101906103c59190613402565b610d21565b6040516103d7919061349a565b60405180910390f35b3480156103ec57600080fd5b506103f5610d93565b005b610411600480360381019061040c91906134b5565b610da7565b005b34801561041f57600080fd5b5061043a60048036038101906104359190613402565b6113ff565b604051610447919061349a565b60405180910390f35b34801561045c57600080fd5b5061047760048036038101906104729190613402565b611423565b604051610484919061349a565b60405180910390f35b34801561049957600080fd5b506104b460048036038101906104af919061355a565b611495565b005b3480156104c257600080fd5b506104dd60048036038101906104d89190613402565b611699565b6040516104ea919061349a565b60405180910390f35b3480156104ff57600080fd5b506105086116b6565b6040516105159190613470565b60405180910390f35b34801561052a57600080fd5b506105336116ee565b6040516105409190613665565b60405180910390f35b34801561055557600080fd5b50610570600480360381019061056b9190613709565b611746565b60405161057d9190613820565b60405180910390f35b34801561059257600080fd5b506105ad60048036038101906105a89190613879565b6119dc565b005b3480156105bb57600080fd5b506105d660048036038101906105d19190613402565b611bb4565b005b3480156105e457600080fd5b506105ed612031565b6040516105fa9190613665565b60405180910390f35b34801561060f57600080fd5b5061062a60048036038101906106259190613402565b612089565b6040516106379190613665565b60405180910390f35b34801561064c57600080fd5b506106556121c7565b005b34801561066357600080fd5b5061067e60048036038101906106799190613402565b61237c565b005b34801561068c57600080fd5b506106a760048036038101906106a291906134b5565b61259d565b6040516106b4919061349a565b60405180910390f35b3480156106c957600080fd5b506106e460048036038101906106df91906138a6565b6125cc565b6040516106f19190613820565b60405180910390f35b34801561070657600080fd5b50610721600480360381019061071c9190613940565b61278f565b005b34801561072f57600080fd5b5061074a6004803603810190610745919061396d565b612815565b005b34801561075857600080fd5b50610773600480360381019061076e91906134b5565b612ad5565b6040516107809190613470565b60405180910390f35b34801561079557600080fd5b5061079e612b24565b6040516107ab9190613a4d565b60405180910390f35b60046020528060005260406000206000915054906101000a900473ffffffffffffffffffffffffffffffffffffffff1681565b60008054905090565b6000600e60003373ffffffffffffffffffffffffffffffffffffffff1673ffffffffffffffffffffffffffffffffffffffff16815260200190815260200160002054905090565b600060096000838152602001908152602001600020549050919050565b8060018060009054906101000a900473ffffffffffffffffffffffffffffffffffffffff1673ffffffffffffffffffffffffffffffffffffffff1663bd85b039836040518263ffffffff1660e01b81526004016108b1919061349a565b602060405180830381865afa1580156108ce573d6000803e3d6000fd5b505050506040513d601f19601f820116820180604052508101906108f29190613a7d565b14610932576040517f08c379a000000000000000000000000000000000000000000000000000000000815260040161092990613af6565b60405180910390fd5b60018060009054906101000a900473ffffffffffffffffffffffffffffffffffffffff1673ffffffffffffffffffffffffffffffffffffffff1662fdd58e30856040518363ffffffff1660e01b815260040161098f929190613b16565b602060405180830381865afa1580156109ac573d6000803e3d6000fd5b505050506040513d601f19601f820116820180604052508101906109d09190613a7d565b14610a10576040517f08c379a0000000000000000000000000000000000000000000000000000000008152600401610a0790613b8b565b60405180910390fd5b6000600560008481526020019081526020016000205411610a66576040517f08c379a0000000000000000000000000000000000000000000000000000000008152600401610a5d90613bf7565b60405180910390fd5b60056000838152602001908152602001600020543414610abb576040517f08c379a0000000000000000000000000000000000000000000000000000000008152600401610ab290613c63565b60405180910390fd5b6000610ac683612b4a565b905034600e60008373ffffffffffffffffffffffffffffffffffffffff1673ffffffffffffffffffffffffffffffffffffffff1681526020019081526020016000206000828254610b179190613cb2565b92505081905550600160009054906101000a900473ffffffffffffffffffffffffffffffffffffffff1673ffffffffffffffffffffffffffffffffffffffff1663f242432a30338660016040518563ffffffff1660e01b8152600401610b809493929190613d58565b600060405180830381600087803b158015610b9a57600080fd5b505af1158015610bae573d6000803e3d6000fd5b50505050505050565b610bbf612cb4565b8160018060009054906101000a900473ffffffffffffffffffffffffffffffffffffffff1673ffffffffffffffffffffffffffffffffffffffff1663bd85b039836040518263ffffffff1660e01b8152600401610c1c919061349a565b602060405180830381865afa158015610c39573d6000803e3d6000fd5b505050506040513d601f19601f82011682018060405250810190610c5d9190613a7d565b11610c9d576040517f08c379a0000000000000000000000000000000000000000000000000000000008152600401610c9490613dfc565b60405180910390fd5b60008211610ce0576040517f08c379a0000000000000000000000000000000000000000000000000000000008152600401610cd790613e68565b60405180910390fd5b816006600085815260200190815260200160002081905550505050565b60028181548110610d0d57600080fd5b906000526020600020016000915090505481565b600080600660008481526020019081526020016000205403610d78576040517f08c379a0000000000000000000000000000000000000000000000000000000008152600401610d6f90613ed4565b60405180910390fd5b60066000838152602001908152602001600020549050919050565b610d9b612cb4565b610da56000612d3b565b565b8160018060009054906101000a900473ffffffffffffffffffffffffffffffffffffffff1673ffffffffffffffffffffffffffffffffffffffff1663bd85b039836040518263ffffffff1660e01b8152600401610e04919061349a565b602060405180830381865afa158015610e21573d6000803e3d6000fd5b505050506040513d601f19601f82011682018060405250810190610e459190613a7d565b11610e85576040517f08c379a0000000000000000000000000000000000000000000000000000000008152600401610e7c90613dfc565b60405180910390fd5b600160009054906101000a900473ffffffffffffffffffffffffffffffffffffffff1673ffffffffffffffffffffffffffffffffffffffff1662fdd58e30856040518363ffffffff1660e01b8152600401610ee1929190613b16565b602060405180830381865afa158015610efe573d6000803e3d6000fd5b505050506040513d601f19601f82011682018060405250810190610f229190613a7d565b821115610f64576040517f08c379a0000000000000000000000000000000000000000000000000000000008152600401610f5b90613f40565b60405180910390fd5b6000600660008581526020019081526020016000205411610fba576040517f08c379a0000000000000000000000000000000000000000000000000000000008152600401610fb190613bf7565b60405180910390fd5b816006600085815260200190815260200160002054610fd99190613f60565b341461101a576040517f08c379a000000000000000000000000000000000000000000000000000000000815260040161101190613fee565b60405180910390fd5b6000806000600960008781526020019081526020016000205490505b600a60008781526020019081526020016000205481101561134c57600b6000878152602001908152602001600020600082815260200190815260200160002054836110819190613cb2565b925084831061133f5760008584611098919061400e565b9050600081600b60008a81526020019081526020016000206000858152602001908152602001600020546110cc919061400e565b905081600b60008a81526020019081526020016000206000858152602001908152602001600020819055506006600089815260200190815260200160002054816111169190613f60565b600e6000600c60008c8152602001908152602001600020600087815260200190815260200160002060009054906101000a900473ffffffffffffffffffffffffffffffffffffffff1673ffffffffffffffffffffffffffffffffffffffff1673ffffffffffffffffffffffffffffffffffffffff16815260200190815260200160002060008282546111a89190613cb2565b925050819055508293506000600960008a81526020019081526020016000205490505b84811015611337576000600b60008b815260200190815260200160002060008381526020019081526020016000205490506000600c60008c8152602001908152602001600020600084815260200190815260200160002060009054906101000a900473ffffffffffffffffffffffffffffffffffffffff169050600b60008c8152602001908152602001600020600084815260200190815260200160002060009055600c60008c8152602001908152602001600020600084815260200190815260200160002060006101000a81549073ffffffffffffffffffffffffffffffffffffffff0219169055600660008c815260200190815260200160002054826112d39190613f60565b600e60008373ffffffffffffffffffffffffffffffffffffffff1673ffffffffffffffffffffffffffffffffffffffff16815260200190815260200160002060008282546113219190613cb2565b92505081905550505080806001019150506111cb565b50505061134c565b8080600101915050611036565b50806009600087815260200190815260200160002081905550600160009054906101000a900473ffffffffffffffffffffffffffffffffffffffff1673ffffffffffffffffffffffffffffffffffffffff1663f242432a303388886040518563ffffffff1660e01b81526004016113c69493929190614042565b600060405180830381600087803b1580156113e057600080fd5b505af11580156113f4573d6000803e3d6000fd5b505050505050505050565b6003818154811061140f57600080fd5b906000526020600020016000915090505481565b60008060056000848152602001908152602001600020540361147a576040517f08c379a000000000000000000000000000000000000000000000000000000000815260040161147190613ed4565b60405180910390fd5b60056000838152602001908152602001600020549050919050565b60008282905067ffffffffffffffff8111156114b4576114b361409a565b5b6040519080825280602002602001820160405280156114e25781602001602082028036833780820191505090505b50905060005b838390508110156115fe573373ffffffffffffffffffffffffffffffffffffffff1660046000868685818110611521576115206140c9565b5b90506020020135815260200190815260200160002060009054906101000a900473ffffffffffffffffffffffffffffffffffffffff1673ffffffffffffffffffffffffffffffffffffffff16146115ad576040517f08c379a00000000000000000000000000000000000000000000000000000000081526004016115a490614144565b60405180910390fd5b6115cf8484838181106115c3576115c26140c9565b5b90506020020135612b4a565b5060018282815181106115e5576115e46140c9565b5b60200260200101818152505080806001019150506114e8565b50600160009054906101000a900473ffffffffffffffffffffffffffffffffffffffff1673ffffffffffffffffffffffffffffffffffffffff16632eb2c2d630338686866040518663ffffffff1660e01b81526004016116629594939291906141ce565b600060405180830381600087803b15801561167c57600080fd5b505af1158015611690573d6000803e3d6000fd5b50505050505050565b6000600a6000838152602001908152602001600020549050919050565b6000806116c1612e12565b90508060000160009054906101000a900473ffffffffffffffffffffffffffffffffffffffff1691505090565b6060600380548060200260200160405190810160405280929190818152602001828054801561173c57602002820191906000526020600020905b815481526020019060010190808311611728575b5050505050905090565b600080600090505b8787905081101561185a57600160009054906101000a900473ffffffffffffffffffffffffffffffffffffffff1673ffffffffffffffffffffffffffffffffffffffff16634f558e798989848181106117aa576117a96140c9565b5b905060200201356040518263ffffffff1660e01b81526004016117cd919061349a565b602060405180830381865afa1580156117ea573d6000803e3d6000fd5b505050506040513d601f19601f8201168201806040525081019061180e919061426e565b61184d576040517f08c379a0000000000000000000000000000000000000000000000000000000008152600401611844906142e7565b60405180910390fd5b808060010191505061174e565b5060005b878790508110156119c5576000600160009054906101000a900473ffffffffffffffffffffffffffffffffffffffff1673ffffffffffffffffffffffffffffffffffffffff1663bd85b0398a8a858181106118bc576118bb6140c9565b5b905060200201356040518263ffffffff1660e01b81526004016118df919061349a565b602060405180830381865afa1580156118fc573d6000803e3d6000fd5b505050506040513d601f19601f820116820180604052508101906119209190613a7d565b90506001810361194e5761194d8a8a8a85818110611941576119406140c9565b5b90506020020135612e3a565b5b60018111156119b7576119948a8a8a8581811061196e5761196d6140c9565b5b90506020020135898986818110611988576119876140c9565b5b90506020020135612eb9565b6119b68989848181106119aa576119a96140c9565b5b905060200201356130a8565b5b50808060010191505061185e565b5063bc197c8160e01b905098975050505050505050565b60006119e6613198565b905060008160000160089054906101000a900460ff1615905060008260000160009054906101000a900467ffffffffffffffff1690506000808267ffffffffffffffff16148015611a345750825b9050600060018367ffffffffffffffff16148015611a69575060003073ffffffffffffffffffffffffffffffffffffffff163b145b905081158015611a77575080155b15611aae576040517ff92ee8a900000000000000000000000000000000000000000000000000000000815260040160405180910390fd5b60018560000160006101000a81548167ffffffffffffffff021916908367ffffffffffffffff1602179055508315611afe5760018560000160086101000a81548160ff0219169083151502179055505b611b07336131ac565b85600160006101000a81548173ffffffffffffffffffffffffffffffffffffffff021916908373ffffffffffffffffffffffffffffffffffffffff16021790555060016000819055508315611bac5760008560000160086101000a81548160ff0219169083151502179055507fc7f505b2f371ae2175ee4913f4499e1f2633a7b5936321eed1cdaeb6115181d26001604051611ba3919061434c565b60405180910390a15b505050505050565b8060018060009054906101000a900473ffffffffffffffffffffffffffffffffffffffff1673ffffffffffffffffffffffffffffffffffffffff1663bd85b039836040518263ffffffff1660e01b8152600401611c11919061349a565b602060405180830381865afa158015611c2e573d6000803e3d6000fd5b505050506040513d601f19601f82011682018060405250810190611c529190613a7d565b11611c92576040517f08c379a0000000000000000000000000000000000000000000000000000000008152600401611c8990613dfc565b60405180910390fd5b6000600d600084815260200190815260200160002060003373ffffffffffffffffffffffffffffffffffffffff1673ffffffffffffffffffffffffffffffffffffffff168152602001908152602001600020805480602002602001604051908101604052809291908181526020018280548015611d2e57602002820191906000526020600020905b815481526020019060010190808311611d1a575b50505050509050600080825103611d7a576040517f08c379a0000000000000000000000000000000000000000000000000000000008152600401611d71906143b3565b60405180910390fd5b60005b8251811015611f9757600b60008681526020019081526020016000206000848381518110611dae57611dad6140c9565b5b602002602001015181526020019081526020016000205482611dd09190613cb2565b915060008203611e15576040517f08c379a0000000000000000000000000000000000000000000000000000000008152600401611e0c9061441f565b60405180910390fd5b6000600c60008781526020019081526020016000206000858481518110611e3f57611e3e6140c9565b5b6020026020010151815260200190815260200160002060009054906101000a900473ffffffffffffffffffffffffffffffffffffffff1690503373ffffffffffffffffffffffffffffffffffffffff168173ffffffffffffffffffffffffffffffffffffffff1614611ee6576040517f08c379a0000000000000000000000000000000000000000000000000000000008152600401611edd9061448b565b60405180910390fd5b600b60008781526020019081526020016000206000858481518110611f0e57611f0d6140c9565b5b6020026020010151815260200190815260200160002060009055600c60008781526020019081526020016000206000858481518110611f5057611f4f6140c9565b5b6020026020010151815260200190815260200160002060006101000a81549073ffffffffffffffffffffffffffffffffffffffff0219169055508080600101915050611d7d565b50600160009054906101000a900473ffffffffffffffffffffffffffffffffffffffff1673ffffffffffffffffffffffffffffffffffffffff1663f242432a303387856040518563ffffffff1660e01b8152600401611ff99493929190614042565b600060405180830381600087803b15801561201357600080fd5b505af1158015612027573d6000803e3d6000fd5b5050505050505050565b6060600280548060200260200160405190810160405280929190818152602001828054801561207f57602002820191906000526020600020905b81548152602001906001019080831161206b575b5050505050905090565b60606000600d600084815260200190815260200160002060003373ffffffffffffffffffffffffffffffffffffffff1673ffffffffffffffffffffffffffffffffffffffff1681526020019081526020016000208054905003612121576040517f08c379a0000000000000000000000000000000000000000000000000000000008152600401612118906144f7565b60405180910390fd5b600d600083815260200190815260200160002060003373ffffffffffffffffffffffffffffffffffffffff1673ffffffffffffffffffffffffffffffffffffffff1681526020019081526020016000208054806020026020016040519081016040528092919081815260200182805480156121bb57602002820191906000526020600020905b8154815260200190600101908083116121a7575b50505050509050919050565b6000600e60003373ffffffffffffffffffffffffffffffffffffffff1673ffffffffffffffffffffffffffffffffffffffff1681526020019081526020016000205411612249576040517f08c379a000000000000000000000000000000000000000000000000000000000815260040161224090614563565b60405180910390fd5b6000600e60003373ffffffffffffffffffffffffffffffffffffffff1673ffffffffffffffffffffffffffffffffffffffff1681526020019081526020016000208190555060003373ffffffffffffffffffffffffffffffffffffffff16600e60003373ffffffffffffffffffffffffffffffffffffffff1673ffffffffffffffffffffffffffffffffffffffff168152602001908152602001600020546040516122f3906145b1565b60006040518083038185875af1925050503d8060008114612330576040519150601f19603f3d011682016040523d82523d6000602084013e612335565b606091505b5050905080612379576040517f08c379a000000000000000000000000000000000000000000000000000000000815260040161237090614612565b60405180910390fd5b50565b8060018060009054906101000a900473ffffffffffffffffffffffffffffffffffffffff1673ffffffffffffffffffffffffffffffffffffffff1663bd85b039836040518263ffffffff1660e01b81526004016123d9919061349a565b602060405180830381865afa1580156123f6573d6000803e3d6000fd5b505050506040513d601f19601f8201168201806040525081019061241a9190613a7d565b1461245a576040517f08c379a000000000000000000000000000000000000000000000000000000000815260040161245190613af6565b60405180910390fd5b3373ffffffffffffffffffffffffffffffffffffffff166004600084815260200190815260200160002060009054906101000a900473ffffffffffffffffffffffffffffffffffffffff1673ffffffffffffffffffffffffffffffffffffffff16146124fb576040517f08c379a00000000000000000000000000000000000000000000000000000000081526004016124f290614144565b60405180910390fd5b61250482612b4a565b50600160009054906101000a900473ffffffffffffffffffffffffffffffffffffffff1673ffffffffffffffffffffffffffffffffffffffff1663f242432a30338560016040518563ffffffff1660e01b81526004016125679493929190613d58565b600060405180830381600087803b15801561258157600080fd5b505af1158015612595573d6000803e3d6000fd5b505050505050565b6000600b6000848152602001908152602001600020600083815260200190815260200160002054905092915050565b6000600160009054906101000a900473ffffffffffffffffffffffffffffffffffffffff1673ffffffffffffffffffffffffffffffffffffffff16634f558e79866040518263ffffffff1660e01b8152600401612629919061349a565b602060405180830381865afa158015612646573d6000803e3d6000fd5b505050506040513d601f19601f8201168201806040525081019061266a919061426e565b6126a9576040517f08c379a00000000000000000000000000000000000000000000000000000000081526004016126a09061467e565b60405180910390fd5b6000600160009054906101000a900473ffffffffffffffffffffffffffffffffffffffff1673ffffffffffffffffffffffffffffffffffffffff1663bd85b039876040518263ffffffff1660e01b8152600401612706919061349a565b602060405180830381865afa158015612723573d6000803e3d6000fd5b505050506040513d601f19601f820116820180604052508101906127479190613a7d565b90506001810361275c5761275b8787612e3a565b5b600181111561277a57612770878787612eb9565b612779866130a8565b5b63f23a6e6160e01b9150509695505050505050565b612797612cb4565b600073ffffffffffffffffffffffffffffffffffffffff168173ffffffffffffffffffffffffffffffffffffffff16036128095760006040517f1e4fbdf70000000000000000000000000000000000000000000000000000000081526004016128009190613470565b60405180910390fd5b61281281612d3b565b50565b81819050848490501461285d576040517f08c379a0000000000000000000000000000000000000000000000000000000008152600401612854906146ea565b60405180910390fd5b60005b84849050811015612ace5760008383838181106128805761287f6140c9565b5b90506020020135116128c7576040517f08c379a00000000000000000000000000000000000000000000000000000000081526004016128be90613e68565b60405180910390fd5b60018060009054906101000a900473ffffffffffffffffffffffffffffffffffffffff1673ffffffffffffffffffffffffffffffffffffffff1663bd85b039878785818110612919576129186140c9565b5b905060200201356040518263ffffffff1660e01b815260040161293c919061349a565b602060405180830381865afa158015612959573d6000803e3d6000fd5b505050506040513d601f19601f8201168201806040525081019061297d9190613a7d565b146129bd576040517f08c379a00000000000000000000000000000000000000000000000000000000081526004016129b490613af6565b60405180910390fd5b3373ffffffffffffffffffffffffffffffffffffffff16600460008787858181106129eb576129ea6140c9565b5b90506020020135815260200190815260200160002060009054906101000a900473ffffffffffffffffffffffffffffffffffffffff1673ffffffffffffffffffffffffffffffffffffffff1614612a77576040517f08c379a0000000000000000000000000000000000000000000000000000000008152600401612a6e9061477c565b60405180910390fd5b828282818110612a8a57612a896140c9565b5b9050602002013560056000878785818110612aa857612aa76140c9565b5b905060200201358152602001908152602001600020819055508080600101915050612860565b5050505050565b6000600c6000848152602001908152602001600020600083815260200190815260200160002060009054906101000a900473ffffffffffffffffffffffffffffffffffffffff16905092915050565b600160009054906101000a900473ffffffffffffffffffffffffffffffffffffffff1681565b60008060005b600280549050811015612c93578360028281548110612b7257612b716140c9565b5b906000526020600020015403612c865760026001600280549050612b96919061400e565b81548110612ba757612ba66140c9565b5b906000526020600020015460028281548110612bc657612bc56140c9565b5b90600052602060002001819055506002805480612be657612be561479c565b5b600190038181906000526020600020016000905590556004600082815260200190815260200160002060009054906101000a900473ffffffffffffffffffffffffffffffffffffffff16915060006004600086815260200190815260200160002060006101000a81548173ffffffffffffffffffffffffffffffffffffffff021916908373ffffffffffffffffffffffffffffffffffffffff1602179055505b8080600101915050612b50565b50600560008481526020019081526020016000206000905580915050919050565b612cbc6131c0565b73ffffffffffffffffffffffffffffffffffffffff16612cda6116b6565b73ffffffffffffffffffffffffffffffffffffffff1614612d3957612cfd6131c0565b6040517f118cdaa7000000000000000000000000000000000000000000000000000000008152600401612d309190613470565b60405180910390fd5b565b6000612d45612e12565b905060008160000160009054906101000a900473ffffffffffffffffffffffffffffffffffffffff169050828260000160006101000a81548173ffffffffffffffffffffffffffffffffffffffff021916908373ffffffffffffffffffffffffffffffffffffffff1602179055508273ffffffffffffffffffffffffffffffffffffffff168173ffffffffffffffffffffffffffffffffffffffff167f8be0079c531659141344cd1fd0a4f28419497f9722a3daafe3b4186f6b6457e060405160405180910390a3505050565b60007f9016d09d72d40fdae2fd8ceac6b6234c7706214fd39c1cd1e609a0528c199300905090565b6002819080600181540180825580915050600190039060005260206000200160009091909190915055816004600083815260200190815260200160002060006101000a81548173ffffffffffffffffffffffffffffffffffffffff021916908373ffffffffffffffffffffffffffffffffffffffff1602179055505050565b60018111612efc576040517f08c379a0000000000000000000000000000000000000000000000000000000008152600401612ef390614817565b60405180910390fd5b6000600a60008481526020019081526020016000205490507fffffffffffffffffffffffffffffffffffffffffffffffffffffffffffffffff8110612f76576040517f08c379a0000000000000000000000000000000000000000000000000000000008152600401612f6d90614883565b60405180910390fd5b81600b600085815260200190815260200160002060008381526020019081526020016000208190555083600c6000858152602001908152602001600020600083815260200190815260200160002060006101000a81548173ffffffffffffffffffffffffffffffffffffffff021916908373ffffffffffffffffffffffffffffffffffffffff160217905550600d600084815260200190815260200160002060008573ffffffffffffffffffffffffffffffffffffffff1673ffffffffffffffffffffffffffffffffffffffff168152602001908152602001600020819080600181540180825580915050600190039060005260206000200160009091909190915055600a6000848152602001908152602001600020600081548092919061309d906148a3565b919050555050505050565b6000600380549050036130e3576003819080600181540180825580915050600190039060005260206000200160009091909190915055613195565b60005b600380549050811015613193578160038281548110613108576131076140c9565b5b9060005260206000200154031561319357816003828154811061312e5761312d6140c9565b5b90600052602060002001541415801561315757506003805490506001826131559190613cb2565b145b156131865760038290806001815401808255809150506001900390600052602060002001600090919091909150555b80806001019150506130e6565b505b50565b6000806131a36131c8565b90508091505090565b6131b46131f3565b6131bd81613233565b50565b600033905090565b60007ff0c57e16840df040f15088dc2f81fe391c3923bec73e23a9662efc9c229c6a0060001b905090565b6131fb6132b9565b613231576040517fd7e6bcf800000000000000000000000000000000000000000000000000000000815260040160405180910390fd5b565b61323b6131f3565b600073ffffffffffffffffffffffffffffffffffffffff168173ffffffffffffffffffffffffffffffffffffffff16036132ad5760006040517f1e4fbdf70000000000000000000000000000000000000000000000000000000081526004016132a49190613470565b60405180910390fd5b6132b681612d3b565b50565b60006132c3613198565b60000160089054906101000a900460ff16905090565b600082825260208201905092915050565b7f4920646f6e742072656365697665210000000000000000000000000000000000600082015250565b6000613320600f836132d9565b915061332b826132ea565b602082019050919050565b6000602082019050818103600083015261334f81613313565b9050919050565b7f546869732066756e6374696f6e20646f65736e27742065786973747321000000600082015250565b600061338c601d836132d9565b915061339782613356565b602082019050919050565b600060208201905081810360008301526133bb8161337f565b9050919050565b600080fd5b600080fd5b6000819050919050565b6133df816133cc565b81146133ea57600080fd5b50565b6000813590506133fc816133d6565b92915050565b600060208284031215613418576134176133c2565b5b6000613426848285016133ed565b91505092915050565b600073ffffffffffffffffffffffffffffffffffffffff82169050919050565b600061345a8261342f565b9050919050565b61346a8161344f565b82525050565b60006020820190506134856000830184613461565b92915050565b613494816133cc565b82525050565b60006020820190506134af600083018461348b565b92915050565b600080604083850312156134cc576134cb6133c2565b5b60006134da858286016133ed565b92505060206134eb858286016133ed565b9150509250929050565b600080fd5b600080fd5b600080fd5b60008083601f84011261351a576135196134f5565b5b8235905067ffffffffffffffff811115613537576135366134fa565b5b602083019150836020820283011115613553576135526134ff565b5b9250929050565b60008060208385031215613571576135706133c2565b5b600083013567ffffffffffffffff81111561358f5761358e6133c7565b5b61359b85828601613504565b92509250509250929050565b600081519050919050565b600082825260208201905092915050565b6000819050602082019050919050565b6135dc816133cc565b82525050565b60006135ee83836135d3565b60208301905092915050565b6000602082019050919050565b6000613612826135a7565b61361c81856135b2565b9350613627836135c3565b8060005b8381101561365857815161363f88826135e2565b975061364a836135fa565b92505060018101905061362b565b5085935050505092915050565b6000602082019050818103600083015261367f8184613607565b905092915050565b6136908161344f565b811461369b57600080fd5b50565b6000813590506136ad81613687565b92915050565b60008083601f8401126136c9576136c86134f5565b5b8235905067ffffffffffffffff8111156136e6576136e56134fa565b5b602083019150836001820283011115613702576137016134ff565b5b9250929050565b60008060008060008060008060a0898b031215613729576137286133c2565b5b60006137378b828c0161369e565b98505060206137488b828c0161369e565b975050604089013567ffffffffffffffff811115613769576137686133c7565b5b6137758b828c01613504565b9650965050606089013567ffffffffffffffff811115613798576137976133c7565b5b6137a48b828c01613504565b9450945050608089013567ffffffffffffffff8111156137c7576137c66133c7565b5b6137d38b828c016136b3565b92509250509295985092959890939650565b60007fffffffff0000000000000000000000000000000000000000000000000000000082169050919050565b61381a816137e5565b82525050565b60006020820190506138356000830184613811565b92915050565b60006138468261342f565b9050919050565b6138568161383b565b811461386157600080fd5b50565b6000813590506138738161384d565b92915050565b60006020828403121561388f5761388e6133c2565b5b600061389d84828501613864565b91505092915050565b60008060008060008060a087890312156138c3576138c26133c2565b5b60006138d189828a0161369e565b96505060206138e289828a0161369e565b95505060406138f389828a016133ed565b945050606061390489828a016133ed565b935050608087013567ffffffffffffffff811115613925576139246133c7565b5b61393189828a016136b3565b92509250509295509295509295565b600060208284031215613956576139556133c2565b5b60006139648482850161369e565b91505092915050565b60008060008060408587031215613987576139866133c2565b5b600085013567ffffffffffffffff8111156139a5576139a46133c7565b5b6139b187828801613504565b9450945050602085013567ffffffffffffffff8111156139d4576139d36133c7565b5b6139e087828801613504565b925092505092959194509250565b6000819050919050565b6000613a13613a0e613a098461342f565b6139ee565b61342f565b9050919050565b6000613a25826139f8565b9050919050565b6000613a3782613a1a565b9050919050565b613a4781613a2c565b82525050565b6000602082019050613a626000830184613a3e565b92915050565b600081519050613a77816133d6565b92915050565b600060208284031215613a9357613a926133c2565b5b6000613aa184828501613a68565b91505092915050565b7f4f6e6c79204e4654210000000000000000000000000000000000000000000000600082015250565b6000613ae06009836132d9565b9150613aeb82613aaa565b602082019050919050565b60006020820190508181036000830152613b0f81613ad3565b9050919050565b6000604082019050613b2b6000830185613461565b613b38602083018461348b565b9392505050565b7f546f6b656e20646f65736e27742073656c6c2100000000000000000000000000600082015250565b6000613b756013836132d9565b9150613b8082613b3f565b602082019050919050565b60006020820190508181036000830152613ba481613b68565b9050919050565b7f436f73742069736e277420796574207365742100000000000000000000000000600082015250565b6000613be16013836132d9565b9150613bec82613bab565b602082019050919050565b60006020820190508181036000830152613c1081613bd4565b9050919050565b7f56616c75652069736e277420636f727265637421000000000000000000000000600082015250565b6000613c4d6014836132d9565b9150613c5882613c17565b602082019050919050565b60006020820190508181036000830152613c7c81613c40565b9050919050565b7f4e487b7100000000000000000000000000000000000000000000000000000000600052601160045260246000fd5b6000613cbd826133cc565b9150613cc8836133cc565b9250828201905080821115613ce057613cdf613c83565b5b92915050565b6000819050919050565b6000613d0b613d06613d0184613ce6565b6139ee565b6133cc565b9050919050565b613d1b81613cf0565b82525050565b600082825260208201905092915050565b50565b6000613d42600083613d21565b9150613d4d82613d32565b600082019050919050565b600060a082019050613d6d6000830187613461565b613d7a6020830186613461565b613d87604083018561348b565b613d946060830184613d12565b8181036080830152613da581613d35565b905095945050505050565b7f4f6e6c7920465421000000000000000000000000000000000000000000000000600082015250565b6000613de66008836132d9565b9150613df182613db0565b602082019050919050565b60006020820190508181036000830152613e1581613dd9565b9050919050565b7f496e636f72726563742070726963652100000000000000000000000000000000600082015250565b6000613e526010836132d9565b9150613e5d82613e1c565b602082019050919050565b60006020820190508181036000830152613e8181613e45565b9050919050565b7f486176656e277420707269636521000000000000000000000000000000000000600082015250565b6000613ebe600e836132d9565b9150613ec982613e88565b602082019050919050565b60006020820190508181036000830152613eed81613eb1565b9050919050565b7f48617665206e6f742066756e6473210000000000000000000000000000000000600082015250565b6000613f2a600f836132d9565b9150613f3582613ef4565b602082019050919050565b60006020820190508181036000830152613f5981613f1d565b9050919050565b6000613f6b826133cc565b9150613f76836133cc565b9250828202613f84816133cc565b91508282048414831517613f9b57613f9a613c83565b5b5092915050565b7f496e636f7272656374206d73672e76616c756521000000000000000000000000600082015250565b6000613fd86014836132d9565b9150613fe382613fa2565b602082019050919050565b6000602082019050818103600083015261400781613fcb565b9050919050565b6000614019826133cc565b9150614024836133cc565b925082820390508181111561403c5761403b613c83565b5b92915050565b600060a0820190506140576000830187613461565b6140646020830186613461565b614071604083018561348b565b61407e606083018461348b565b818103608083015261408f81613d35565b905095945050505050565b7f4e487b7100000000000000000000000000000000000000000000000000000000600052604160045260246000fd5b7f4e487b7100000000000000000000000000000000000000000000000000000000600052603260045260246000fd5b7f596f7572206172656e277420616e207468697320746f6b656e206f776e657221600082015250565b600061412e6020836132d9565b9150614139826140f8565b602082019050919050565b6000602082019050818103600083015261415d81614121565b9050919050565b600080fd5b82818337505050565b600061417e83856135b2565b93507f07ffffffffffffffffffffffffffffffffffffffffffffffffffffffffffffff8311156141b1576141b0614164565b5b6020830292506141c2838584614169565b82840190509392505050565b600060a0820190506141e36000830188613461565b6141f06020830187613461565b8181036040830152614203818587614172565b905081810360608301526142178184613607565b9050818103608083015261422a81613d35565b90509695505050505050565b60008115159050919050565b61424b81614236565b811461425657600080fd5b50565b60008151905061426881614242565b92915050565b600060208284031215614284576142836133c2565b5b600061429284828501614259565b91505092915050565b7f4f6e6c79206d696e74656420746f6b656e732100000000000000000000000000600082015250565b60006142d16013836132d9565b91506142dc8261429b565b602082019050919050565b60006020820190508181036000830152614300816142c4565b9050919050565b600067ffffffffffffffff82169050919050565b600061433661433161432c84613ce6565b6139ee565b614307565b9050919050565b6143468161431b565b82525050565b6000602082019050614361600083018461433d565b92915050565b7f596f75206469646e2774206a6f696e20696e2071756571756521000000000000600082015250565b600061439d601a836132d9565b91506143a882614367565b602082019050919050565b600060208201905081810360008301526143cc81614390565b9050919050565b7f56616c756520657175616c203021000000000000000000000000000000000000600082015250565b6000614409600e836132d9565b9150614414826143d3565b602082019050919050565b60006020820190508181036000830152614438816143fc565b9050919050565b7f596f7520617265206e6f7420616e20746f6b656e73206f776e65722100000000600082015250565b6000614475601c836132d9565b91506144808261443f565b602082019050919050565b600060208201905081810360008301526144a481614468565b9050919050565b7f596f75206469646e2774206a6f696e2071756571756521000000000000000000600082015250565b60006144e16017836132d9565b91506144ec826144ab565b602082019050919050565b60006020820190508181036000830152614510816144d4565b9050919050565b7f596f7520686176656e27742076616c756520666f722077697468647261772100600082015250565b600061454d601f836132d9565b915061455882614517565b602082019050919050565b6000602082019050818103600083015261457c81614540565b9050919050565b600081905092915050565b600061459b600083614583565b91506145a682613d32565b600082019050919050565b60006145bc8261458e565b9150819050919050565b7f5478206661696c65642100000000000000000000000000000000000000000000600082015250565b60006145fc600a836132d9565b9150614607826145c6565b602082019050919050565b6000602082019050818103600083015261462b816145ef565b9050919050565b7f4f6e6c79206d696e74656420746f6b656e210000000000000000000000000000600082015250565b60006146686012836132d9565b915061467382614632565b602082019050919050565b600060208201905081810360008301526146978161465b565b9050919050565b7f496e636f727265637420617272617973206c656e677468210000000000000000600082015250565b60006146d46018836132d9565b91506146df8261469e565b602082019050919050565b60006020820190508181036000830152614703816146c7565b9050919050565b7f596f75206172656e277420746f6b656e206f776e6572206f72204e465420697360008201527f6e27742065786869626974656421000000000000000000000000000000000000602082015250565b6000614766602e836132d9565b91506147718261470a565b604082019050919050565b6000602082019050818103600083015261479581614759565b9050919050565b7f4e487b7100000000000000000000000000000000000000000000000000000000600052603160045260246000fd5b7f496e636f72726563742076616c75650000000000000000000000000000000000600082015250565b6000614801600f836132d9565b915061480c826147cb565b602082019050919050565b60006020820190508181036000830152614830816147f4565b9050919050565b7f5175657565206973206f766572666c6f77210000000000000000000000000000600082015250565b600061486d6012836132d9565b915061487882614837565b602082019050919050565b6000602082019050818103600083015261489c81614860565b9050919050565b60006148ae826133cc565b91507fffffffffffffffffffffffffffffffffffffffffffffffffffffffffffffffff82036148e0576148df613c83565b5b60018201905091905056fea2646970667358221220a3d9cc417baf37df35a1c6c594b46d46e3d42021adb7929b978306bdaf38ec7664736f6c634300081c0033",
  "linkReferences": {},
  "deployedLinkReferences": {}
}