{
  "_format": "hh-sol-artifact-1",
  "contractName": "Market",
  "sourceName": "contracts/Market.sol",
  "abi": [
    {
      "inputs": [],
      "name": "InvalidInitialization",
      "type": "error"
    },
    {
      "inputs": [],
      "name": "NotInitializing",
      "type": "error"
    },
    {
      "inputs": [
        {
          "internalType": "address",
          "name": "owner",
          "type": "address"
        }
      ],
      "name": "OwnableInvalidOwner",
      "type": "error"
    },
    {
      "inputs": [
        {
          "internalType": "address",
          "name": "account",
          "type": "address"
        }
      ],
      "name": "OwnableUnauthorizedAccount",
      "type": "error"
    },
    {
      "anonymous": false,
      "inputs": [
        {
          "indexed": false,
          "internalType": "uint64",
          "name": "version",
          "type": "uint64"
        }
      ],
      "name": "Initialized",
      "type": "event"
    },
    {
      "anonymous": false,
      "inputs": [
        {
          "indexed": true,
          "internalType": "address",
          "name": "previousOwner",
          "type": "address"
        },
        {
          "indexed": true,
          "internalType": "address",
          "name": "newOwner",
          "type": "address"
        }
      ],
      "name": "OwnershipTransferred",
      "type": "event"
    },
    {
      "stateMutability": "payable",
      "type": "fallback"
    },
    {
      "inputs": [
        {
          "internalType": "uint256",
          "name": "id",
          "type": "uint256"
        },
        {
          "internalType": "uint256",
          "name": "value",
          "type": "uint256"
        }
      ],
      "name": "buyFT",
      "outputs": [],
      "stateMutability": "payable",
      "type": "function"
    },
    {
      "inputs": [
        {
          "internalType": "uint256",
          "name": "id",
          "type": "uint256"
        }
      ],
      "name": "buyNFT",
      "outputs": [],
      "stateMutability": "payable",
      "type": "function"
    },
    {
      "inputs": [
        {
          "internalType": "uint256",
          "name": "id",
          "type": "uint256"
        }
      ],
      "name": "exhibitedNFTOwners",
      "outputs": [
        {
          "internalType": "address",
          "name": "tokenOwner",
          "type": "address"
        }
      ],
      "stateMutability": "view",
      "type": "function"
    },
    {
      "inputs": [],
      "name": "getAllIdsFTExhibited",
      "outputs": [
        {
          "internalType": "uint256[]",
          "name": "",
          "type": "uint256[]"
        }
      ],
      "stateMutability": "view",
      "type": "function"
    },
    {
      "inputs": [],
      "name": "getAllIdsNFTExhibited",
      "outputs": [
        {
          "internalType": "uint256[]",
          "name": "",
          "type": "uint256[]"
        }
      ],
      "stateMutability": "view",
      "type": "function"
    },
    {
      "inputs": [],
      "name": "getImplementetionVersion",
      "outputs": [
        {
          "internalType": "uint256",
          "name": "",
          "type": "uint256"
        }
      ],
      "stateMutability": "view",
      "type": "function"
    },
    {
      "inputs": [
        {
          "internalType": "uint256",
          "name": "id",
          "type": "uint256"
        }
      ],
      "name": "getPlaceInQueue",
      "outputs": [
        {
          "internalType": "uint256[]",
          "name": "",
          "type": "uint256[]"
        }
      ],
      "stateMutability": "view",
      "type": "function"
    },
    {
      "inputs": [
        {
          "internalType": "uint256",
          "name": "id",
          "type": "uint256"
        }
      ],
      "name": "getPriceFT",
      "outputs": [
        {
          "internalType": "uint256",
          "name": "",
          "type": "uint256"
        }
      ],
      "stateMutability": "view",
      "type": "function"
    },
    {
      "inputs": [
        {
          "internalType": "uint256",
          "name": "id",
          "type": "uint256"
        }
      ],
      "name": "getPriceNFT",
      "outputs": [
        {
          "internalType": "uint256",
          "name": "",
          "type": "uint256"
        }
      ],
      "stateMutability": "view",
      "type": "function"
    },
    {
      "inputs": [
        {
          "internalType": "uint256",
          "name": "id",
          "type": "uint256"
        }
      ],
      "name": "getQueueHead",
      "outputs": [
        {
          "internalType": "uint256",
          "name": "",
          "type": "uint256"
        }
      ],
      "stateMutability": "view",
      "type": "function"
    },
    {
      "inputs": [
        {
          "internalType": "uint256",
          "name": "id",
          "type": "uint256"
        }
      ],
      "name": "getQueueTail",
      "outputs": [
        {
          "internalType": "uint256",
          "name": "",
          "type": "uint256"
        }
      ],
      "stateMutability": "view",
      "type": "function"
    },
    {
      "inputs": [
        {
          "internalType": "uint256",
          "name": "id",
          "type": "uint256"
        },
        {
          "internalType": "uint256",
          "name": "queueIndex",
          "type": "uint256"
        }
      ],
      "name": "getSellerInQueue",
      "outputs": [
        {
          "internalType": "address",
          "name": "",
          "type": "address"
        }
      ],
      "stateMutability": "view",
      "type": "function"
    },
    {
      "inputs": [
        {
          "internalType": "uint256",
          "name": "id",
          "type": "uint256"
        },
        {
          "internalType": "uint256",
          "name": "queueIndex",
          "type": "uint256"
        }
      ],
      "name": "getValueInQueue",
      "outputs": [
        {
          "internalType": "uint256",
          "name": "",
          "type": "uint256"
        }
      ],
      "stateMutability": "view",
      "type": "function"
    },
    {
      "inputs": [
        {
          "internalType": "uint256",
          "name": "",
          "type": "uint256"
        }
      ],
      "name": "idsFTExhibited",
      "outputs": [
        {
          "internalType": "uint256",
          "name": "",
          "type": "uint256"
        }
      ],
      "stateMutability": "view",
      "type": "function"
    },
    {
      "inputs": [
        {
          "internalType": "uint256",
          "name": "",
          "type": "uint256"
        }
      ],
      "name": "idsNFTExhibited",
      "outputs": [
        {
          "internalType": "uint256",
          "name": "",
          "type": "uint256"
        }
      ],
      "stateMutability": "view",
      "type": "function"
    },
    {
      "inputs": [
        {
          "internalType": "address payable",
          "name": "_token",
          "type": "address"
        }
      ],
      "name": "initialize",
      "outputs": [],
      "stateMutability": "nonpayable",
      "type": "function"
    },
    {
      "inputs": [
        {
          "internalType": "address",
          "name": "",
          "type": "address"
        },
        {
          "internalType": "address",
          "name": "from",
          "type": "address"
        },
        {
          "internalType": "uint256[]",
          "name": "ids",
          "type": "uint256[]"
        },
        {
          "internalType": "uint256[]",
          "name": "values",
          "type": "uint256[]"
        },
        {
          "internalType": "bytes",
          "name": "",
          "type": "bytes"
        }
      ],
      "name": "onERC1155BatchReceived",
      "outputs": [
        {
          "internalType": "bytes4",
          "name": "",
          "type": "bytes4"
        }
      ],
      "stateMutability": "nonpayable",
      "type": "function"
    },
    {
      "inputs": [
        {
          "internalType": "address",
          "name": "",
          "type": "address"
        },
        {
          "internalType": "address",
          "name": "from",
          "type": "address"
        },
        {
          "internalType": "uint256",
          "name": "id",
          "type": "uint256"
        },
        {
          "internalType": "uint256",
          "name": "value",
          "type": "uint256"
        },
        {
          "internalType": "bytes",
          "name": "",
          "type": "bytes"
        }
      ],
      "name": "onERC1155Received",
      "outputs": [
        {
          "internalType": "bytes4",
          "name": "",
          "type": "bytes4"
        }
      ],
      "stateMutability": "nonpayable",
      "type": "function"
    },
    {
      "inputs": [],
      "name": "owner",
      "outputs": [
        {
          "internalType": "address",
          "name": "",
          "type": "address"
        }
      ],
      "stateMutability": "view",
      "type": "function"
    },
    {
      "inputs": [],
      "name": "renounceOwnership",
      "outputs": [],
      "stateMutability": "nonpayable",
      "type": "function"
    },
    {
      "inputs": [
        {
          "internalType": "uint256",
          "name": "id",
          "type": "uint256"
        },
        {
          "internalType": "uint256",
          "name": "price",
          "type": "uint256"
        }
      ],
      "name": "setPriceFT",
      "outputs": [],
      "stateMutability": "nonpayable",
      "type": "function"
    },
    {
      "inputs": [
        {
          "internalType": "uint256[]",
          "name": "ids",
          "type": "uint256[]"
        },
        {
          "internalType": "uint256[]",
          "name": "price",
          "type": "uint256[]"
        }
      ],
      "name": "setPriceNFTBatch",
      "outputs": [],
      "stateMutability": "nonpayable",
      "type": "function"
    },
    {
      "inputs": [
        {
          "internalType": "uint256",
          "name": "id",
          "type": "uint256"
        }
      ],
      "name": "stopExhibitFT",
      "outputs": [],
      "stateMutability": "nonpayable",
      "type": "function"
    },
    {
      "inputs": [
        {
          "internalType": "uint256",
          "name": "id",
          "type": "uint256"
        }
      ],
      "name": "stopExhibitNFT",
      "outputs": [],
      "stateMutability": "nonpayable",
      "type": "function"
    },
    {
      "inputs": [
        {
          "internalType": "uint256[]",
          "name": "ids",
          "type": "uint256[]"
        }
      ],
      "name": "stopExhibitNFTBatch",
      "outputs": [],
      "stateMutability": "nonpayable",
      "type": "function"
    },
    {
      "inputs": [],
      "name": "toWithdraw",
      "outputs": [
        {
          "internalType": "uint256",
          "name": "",
          "type": "uint256"
        }
      ],
      "stateMutability": "view",
      "type": "function"
    },
    {
      "inputs": [],
      "name": "token",
      "outputs": [
        {
          "internalType": "contract TokensERC1155",
          "name": "",
          "type": "address"
        }
      ],
      "stateMutability": "view",
      "type": "function"
    },
    {
      "inputs": [
        {
          "internalType": "address",
          "name": "newOwner",
          "type": "address"
        }
      ],
      "name": "transferOwnership",
      "outputs": [],
      "stateMutability": "nonpayable",
      "type": "function"
    },
    {
      "inputs": [],
      "name": "withdrawETH",
      "outputs": [],
      "stateMutability": "nonpayable",
      "type": "function"
    },
    {
      "stateMutability": "payable",
      "type": "receive"
    }
  ],
  "bytecode": "0x6080604052348015600f57600080fd5b506149278061001f6000396000f3fe6080604052600436106101c65760003560e01c80638da5cb5b116100f7578063e086e5ec11610095578063f2fde38b11610064578063f2fde38b146106fa578063f63bac3f14610723578063f9240b881461074c578063fc0c546a146107895761020e565b8063e086e5ec14610640578063eee99f3714610657578063eefffabb14610680578063f23a6e61146106bd5761020e565b8063c4d66de8116100d1578063c4d66de814610586578063c977bcde146105af578063d7ed977a146105d8578063d86bc9ac146106035761020e565b80638da5cb5b146104f3578063ab69e6a31461051e578063bc197c81146105495761020e565b80636fc39dc2116101645780637cb5cf181161013e5780637cb5cf181461041357806387fe0446146104505780638a59fef51461048d5780638cb7993e146104b65761020e565b80636fc39dc2146103a3578063715018a6146103e05780637bff2fbe146103f75761020e565b8063509a6969116101a0578063509a6969146102e457806351ed82881461032157806365cf36f51461033d57806365f8e8c8146103665761020e565b80631f1b4d1914610251578063267999551461028e578063347f2336146102b95761020e565b3661020e57600061020c576040517f08c379a00000000000000000000000000000000000000000000000000000000081526004016102039061333c565b60405180910390fd5b005b600061024f576040517f08c379a0000000000000000000000000000000000000000000000000000000008152600401610246906133a8565b60405180910390fd5b005b34801561025d57600080fd5b5061027860048036038101906102739190613408565b6107b4565b6040516102859190613476565b60405180910390f35b34801561029a57600080fd5b506102a36107e7565b6040516102b091906134a0565b60405180910390f35b3480156102c557600080fd5b506102ce6107f0565b6040516102db91906134a0565b60405180910390f35b3480156102f057600080fd5b5061030b60048036038101906103069190613408565b610837565b60405161031891906134a0565b60405180910390f35b61033b60048036038101906103369190613408565b610854565b005b34801561034957600080fd5b50610364600480360381019061035f91906134bb565b610bb7565b005b34801561037257600080fd5b5061038d60048036038101906103889190613408565b610cfd565b60405161039a91906134a0565b60405180910390f35b3480156103af57600080fd5b506103ca60048036038101906103c59190613408565b610d21565b6040516103d791906134a0565b60405180910390f35b3480156103ec57600080fd5b506103f5610d93565b005b610411600480360381019061040c91906134bb565b610da7565b005b34801561041f57600080fd5b5061043a60048036038101906104359190613408565b6113ff565b60405161044791906134a0565b60405180910390f35b34801561045c57600080fd5b5061047760048036038101906104729190613408565b611423565b60405161048491906134a0565b60405180910390f35b34801561049957600080fd5b506104b460048036038101906104af9190613560565b611495565b005b3480156104c257600080fd5b506104dd60048036038101906104d89190613408565b611699565b6040516104ea91906134a0565b60405180910390f35b3480156104ff57600080fd5b506105086116b6565b6040516105159190613476565b60405180910390f35b34801561052a57600080fd5b506105336116ee565b604051610540919061366b565b60405180910390f35b34801561055557600080fd5b50610570600480360381019061056b919061370f565b611746565b60405161057d9190613826565b60405180910390f35b34801561059257600080fd5b506105ad60048036038101906105a8919061387f565b6119dc565b005b3480156105bb57600080fd5b506105d660048036038101906105d19190613408565b611bb4565b005b3480156105e457600080fd5b506105ed612031565b6040516105fa919061366b565b60405180910390f35b34801561060f57600080fd5b5061062a60048036038101906106259190613408565b612089565b604051610637919061366b565b60405180910390f35b34801561064c57600080fd5b506106556121c7565b005b34801561066357600080fd5b5061067e60048036038101906106799190613408565b612382565b005b34801561068c57600080fd5b506106a760048036038101906106a291906134bb565b6125a3565b6040516106b491906134a0565b60405180910390f35b3480156106c957600080fd5b506106e460048036038101906106df91906138ac565b6125d2565b6040516106f19190613826565b60405180910390f35b34801561070657600080fd5b50610721600480360381019061071c9190613946565b612795565b005b34801561072f57600080fd5b5061074a60048036038101906107459190613973565b61281b565b005b34801561075857600080fd5b50610773600480360381019061076e91906134bb565b612adb565b6040516107809190613476565b60405180910390f35b34801561079557600080fd5b5061079e612b2a565b6040516107ab9190613a53565b60405180910390f35b60046020528060005260406000206000915054906101000a900473ffffffffffffffffffffffffffffffffffffffff1681565b60008054905090565b6000600c60003373ffffffffffffffffffffffffffffffffffffffff1673ffffffffffffffffffffffffffffffffffffffff16815260200190815260200160002054905090565b600060076000838152602001908152602001600020549050919050565b8060018060009054906101000a900473ffffffffffffffffffffffffffffffffffffffff1673ffffffffffffffffffffffffffffffffffffffff1663bd85b039836040518263ffffffff1660e01b81526004016108b191906134a0565b602060405180830381865afa1580156108ce573d6000803e3d6000fd5b505050506040513d601f19601f820116820180604052508101906108f29190613a83565b14610932576040517f08c379a000000000000000000000000000000000000000000000000000000000815260040161092990613afc565b60405180910390fd5b60018060009054906101000a900473ffffffffffffffffffffffffffffffffffffffff1673ffffffffffffffffffffffffffffffffffffffff1662fdd58e30856040518363ffffffff1660e01b815260040161098f929190613b1c565b602060405180830381865afa1580156109ac573d6000803e3d6000fd5b505050506040513d601f19601f820116820180604052508101906109d09190613a83565b14610a10576040517f08c379a0000000000000000000000000000000000000000000000000000000008152600401610a0790613b91565b60405180910390fd5b6000600560008481526020019081526020016000205411610a66576040517f08c379a0000000000000000000000000000000000000000000000000000000008152600401610a5d90613bfd565b60405180910390fd5b60056000838152602001908152602001600020543414610abb576040517f08c379a0000000000000000000000000000000000000000000000000000000008152600401610ab290613c69565b60405180910390fd5b6000610ac683612b50565b905034600c60008373ffffffffffffffffffffffffffffffffffffffff1673ffffffffffffffffffffffffffffffffffffffff1681526020019081526020016000206000828254610b179190613cb8565b92505081905550600160009054906101000a900473ffffffffffffffffffffffffffffffffffffffff1673ffffffffffffffffffffffffffffffffffffffff1663f242432a30338660016040518563ffffffff1660e01b8152600401610b809493929190613d5e565b600060405180830381600087803b158015610b9a57600080fd5b505af1158015610bae573d6000803e3d6000fd5b50505050505050565b610bbf612cba565b8160018060009054906101000a900473ffffffffffffffffffffffffffffffffffffffff1673ffffffffffffffffffffffffffffffffffffffff1663bd85b039836040518263ffffffff1660e01b8152600401610c1c91906134a0565b602060405180830381865afa158015610c39573d6000803e3d6000fd5b505050506040513d601f19601f82011682018060405250810190610c5d9190613a83565b11610c9d576040517f08c379a0000000000000000000000000000000000000000000000000000000008152600401610c9490613e02565b60405180910390fd5b60008211610ce0576040517f08c379a0000000000000000000000000000000000000000000000000000000008152600401610cd790613e6e565b60405180910390fd5b816006600085815260200190815260200160002081905550505050565b60028181548110610d0d57600080fd5b906000526020600020016000915090505481565b600080600660008481526020019081526020016000205403610d78576040517f08c379a0000000000000000000000000000000000000000000000000000000008152600401610d6f90613eda565b60405180910390fd5b60066000838152602001908152602001600020549050919050565b610d9b612cba565b610da56000612d41565b565b8160018060009054906101000a900473ffffffffffffffffffffffffffffffffffffffff1673ffffffffffffffffffffffffffffffffffffffff1663bd85b039836040518263ffffffff1660e01b8152600401610e0491906134a0565b602060405180830381865afa158015610e21573d6000803e3d6000fd5b505050506040513d601f19601f82011682018060405250810190610e459190613a83565b11610e85576040517f08c379a0000000000000000000000000000000000000000000000000000000008152600401610e7c90613e02565b60405180910390fd5b600160009054906101000a900473ffffffffffffffffffffffffffffffffffffffff1673ffffffffffffffffffffffffffffffffffffffff1662fdd58e30856040518363ffffffff1660e01b8152600401610ee1929190613b1c565b602060405180830381865afa158015610efe573d6000803e3d6000fd5b505050506040513d601f19601f82011682018060405250810190610f229190613a83565b821115610f64576040517f08c379a0000000000000000000000000000000000000000000000000000000008152600401610f5b90613f46565b60405180910390fd5b6000600660008581526020019081526020016000205411610fba576040517f08c379a0000000000000000000000000000000000000000000000000000000008152600401610fb190613bfd565b60405180910390fd5b816006600085815260200190815260200160002054610fd99190613f66565b341461101a576040517f08c379a000000000000000000000000000000000000000000000000000000000815260040161101190613ff4565b60405180910390fd5b6000806000600760008781526020019081526020016000205490505b600860008781526020019081526020016000205481101561134c5760096000878152602001908152602001600020600082815260200190815260200160002054836110819190613cb8565b925084831061133f57600085846110989190614014565b9050600081600960008a81526020019081526020016000206000858152602001908152602001600020546110cc9190614014565b905081600960008a81526020019081526020016000206000858152602001908152602001600020819055506006600089815260200190815260200160002054816111169190613f66565b600c6000600a60008c8152602001908152602001600020600087815260200190815260200160002060009054906101000a900473ffffffffffffffffffffffffffffffffffffffff1673ffffffffffffffffffffffffffffffffffffffff1673ffffffffffffffffffffffffffffffffffffffff16815260200190815260200160002060008282546111a89190613cb8565b925050819055508293506000600760008a81526020019081526020016000205490505b84811015611337576000600960008b815260200190815260200160002060008381526020019081526020016000205490506000600a60008c8152602001908152602001600020600084815260200190815260200160002060009054906101000a900473ffffffffffffffffffffffffffffffffffffffff169050600960008c8152602001908152602001600020600084815260200190815260200160002060009055600a60008c8152602001908152602001600020600084815260200190815260200160002060006101000a81549073ffffffffffffffffffffffffffffffffffffffff0219169055600660008c815260200190815260200160002054826112d39190613f66565b600c60008373ffffffffffffffffffffffffffffffffffffffff1673ffffffffffffffffffffffffffffffffffffffff16815260200190815260200160002060008282546113219190613cb8565b92505081905550505080806001019150506111cb565b50505061134c565b8080600101915050611036565b50806007600087815260200190815260200160002081905550600160009054906101000a900473ffffffffffffffffffffffffffffffffffffffff1673ffffffffffffffffffffffffffffffffffffffff1663f242432a303388886040518563ffffffff1660e01b81526004016113c69493929190614048565b600060405180830381600087803b1580156113e057600080fd5b505af11580156113f4573d6000803e3d6000fd5b505050505050505050565b6003818154811061140f57600080fd5b906000526020600020016000915090505481565b60008060056000848152602001908152602001600020540361147a576040517f08c379a000000000000000000000000000000000000000000000000000000000815260040161147190613eda565b60405180910390fd5b60056000838152602001908152602001600020549050919050565b60008282905067ffffffffffffffff8111156114b4576114b36140a0565b5b6040519080825280602002602001820160405280156114e25781602001602082028036833780820191505090505b50905060005b838390508110156115fe573373ffffffffffffffffffffffffffffffffffffffff1660046000868685818110611521576115206140cf565b5b90506020020135815260200190815260200160002060009054906101000a900473ffffffffffffffffffffffffffffffffffffffff1673ffffffffffffffffffffffffffffffffffffffff16146115ad576040517f08c379a00000000000000000000000000000000000000000000000000000000081526004016115a49061414a565b60405180910390fd5b6115cf8484838181106115c3576115c26140cf565b5b90506020020135612b50565b5060018282815181106115e5576115e46140cf565b5b60200260200101818152505080806001019150506114e8565b50600160009054906101000a900473ffffffffffffffffffffffffffffffffffffffff1673ffffffffffffffffffffffffffffffffffffffff16632eb2c2d630338686866040518663ffffffff1660e01b81526004016116629594939291906141d4565b600060405180830381600087803b15801561167c57600080fd5b505af1158015611690573d6000803e3d6000fd5b50505050505050565b600060086000838152602001908152602001600020549050919050565b6000806116c1612e18565b90508060000160009054906101000a900473ffffffffffffffffffffffffffffffffffffffff1691505090565b6060600380548060200260200160405190810160405280929190818152602001828054801561173c57602002820191906000526020600020905b815481526020019060010190808311611728575b5050505050905090565b600080600090505b8787905081101561185a57600160009054906101000a900473ffffffffffffffffffffffffffffffffffffffff1673ffffffffffffffffffffffffffffffffffffffff16634f558e798989848181106117aa576117a96140cf565b5b905060200201356040518263ffffffff1660e01b81526004016117cd91906134a0565b602060405180830381865afa1580156117ea573d6000803e3d6000fd5b505050506040513d601f19601f8201168201806040525081019061180e9190614274565b61184d576040517f08c379a0000000000000000000000000000000000000000000000000000000008152600401611844906142ed565b60405180910390fd5b808060010191505061174e565b5060005b878790508110156119c5576000600160009054906101000a900473ffffffffffffffffffffffffffffffffffffffff1673ffffffffffffffffffffffffffffffffffffffff1663bd85b0398a8a858181106118bc576118bb6140cf565b5b905060200201356040518263ffffffff1660e01b81526004016118df91906134a0565b602060405180830381865afa1580156118fc573d6000803e3d6000fd5b505050506040513d601f19601f820116820180604052508101906119209190613a83565b90506001810361194e5761194d8a8a8a85818110611941576119406140cf565b5b90506020020135612e40565b5b60018111156119b7576119948a8a8a8581811061196e5761196d6140cf565b5b90506020020135898986818110611988576119876140cf565b5b90506020020135612ebf565b6119b68989848181106119aa576119a96140cf565b5b905060200201356130ae565b5b50808060010191505061185e565b5063bc197c8160e01b905098975050505050505050565b60006119e661319e565b905060008160000160089054906101000a900460ff1615905060008260000160009054906101000a900467ffffffffffffffff1690506000808267ffffffffffffffff16148015611a345750825b9050600060018367ffffffffffffffff16148015611a69575060003073ffffffffffffffffffffffffffffffffffffffff163b145b905081158015611a77575080155b15611aae576040517ff92ee8a900000000000000000000000000000000000000000000000000000000815260040160405180910390fd5b60018560000160006101000a81548167ffffffffffffffff021916908367ffffffffffffffff1602179055508315611afe5760018560000160086101000a81548160ff0219169083151502179055505b611b07336131b2565b85600160006101000a81548173ffffffffffffffffffffffffffffffffffffffff021916908373ffffffffffffffffffffffffffffffffffffffff16021790555060016000819055508315611bac5760008560000160086101000a81548160ff0219169083151502179055507fc7f505b2f371ae2175ee4913f4499e1f2633a7b5936321eed1cdaeb6115181d26001604051611ba39190614352565b60405180910390a15b505050505050565b8060018060009054906101000a900473ffffffffffffffffffffffffffffffffffffffff1673ffffffffffffffffffffffffffffffffffffffff1663bd85b039836040518263ffffffff1660e01b8152600401611c1191906134a0565b602060405180830381865afa158015611c2e573d6000803e3d6000fd5b505050506040513d601f19601f82011682018060405250810190611c529190613a83565b11611c92576040517f08c379a0000000000000000000000000000000000000000000000000000000008152600401611c8990613e02565b60405180910390fd5b6000600b600084815260200190815260200160002060003373ffffffffffffffffffffffffffffffffffffffff1673ffffffffffffffffffffffffffffffffffffffff168152602001908152602001600020805480602002602001604051908101604052809291908181526020018280548015611d2e57602002820191906000526020600020905b815481526020019060010190808311611d1a575b50505050509050600080825103611d7a576040517f08c379a0000000000000000000000000000000000000000000000000000000008152600401611d71906143b9565b60405180910390fd5b60005b8251811015611f9757600960008681526020019081526020016000206000848381518110611dae57611dad6140cf565b5b602002602001015181526020019081526020016000205482611dd09190613cb8565b915060008203611e15576040517f08c379a0000000000000000000000000000000000000000000000000000000008152600401611e0c90614425565b60405180910390fd5b6000600a60008781526020019081526020016000206000858481518110611e3f57611e3e6140cf565b5b6020026020010151815260200190815260200160002060009054906101000a900473ffffffffffffffffffffffffffffffffffffffff1690503373ffffffffffffffffffffffffffffffffffffffff168173ffffffffffffffffffffffffffffffffffffffff1614611ee6576040517f08c379a0000000000000000000000000000000000000000000000000000000008152600401611edd90614491565b60405180910390fd5b600960008781526020019081526020016000206000858481518110611f0e57611f0d6140cf565b5b6020026020010151815260200190815260200160002060009055600a60008781526020019081526020016000206000858481518110611f5057611f4f6140cf565b5b6020026020010151815260200190815260200160002060006101000a81549073ffffffffffffffffffffffffffffffffffffffff0219169055508080600101915050611d7d565b50600160009054906101000a900473ffffffffffffffffffffffffffffffffffffffff1673ffffffffffffffffffffffffffffffffffffffff1663f242432a303387856040518563ffffffff1660e01b8152600401611ff99493929190614048565b600060405180830381600087803b15801561201357600080fd5b505af1158015612027573d6000803e3d6000fd5b5050505050505050565b6060600280548060200260200160405190810160405280929190818152602001828054801561207f57602002820191906000526020600020905b81548152602001906001019080831161206b575b5050505050905090565b60606000600b600084815260200190815260200160002060003373ffffffffffffffffffffffffffffffffffffffff1673ffffffffffffffffffffffffffffffffffffffff1681526020019081526020016000208054905003612121576040517f08c379a0000000000000000000000000000000000000000000000000000000008152600401612118906144fd565b60405180910390fd5b600b600083815260200190815260200160002060003373ffffffffffffffffffffffffffffffffffffffff1673ffffffffffffffffffffffffffffffffffffffff1681526020019081526020016000208054806020026020016040519081016040528092919081815260200182805480156121bb57602002820191906000526020600020905b8154815260200190600101908083116121a7575b50505050509050919050565b6000600c60003373ffffffffffffffffffffffffffffffffffffffff1673ffffffffffffffffffffffffffffffffffffffff1681526020019081526020016000205411612249576040517f08c379a000000000000000000000000000000000000000000000000000000000815260040161224090614569565b60405180910390fd5b6000600c60003373ffffffffffffffffffffffffffffffffffffffff1673ffffffffffffffffffffffffffffffffffffffff1681526020019081526020016000205490506000600c60003373ffffffffffffffffffffffffffffffffffffffff1673ffffffffffffffffffffffffffffffffffffffff1681526020019081526020016000208190555060003373ffffffffffffffffffffffffffffffffffffffff16826040516122f8906145b7565b60006040518083038185875af1925050503d8060008114612335576040519150601f19603f3d011682016040523d82523d6000602084013e61233a565b606091505b505090508061237e576040517f08c379a000000000000000000000000000000000000000000000000000000000815260040161237590614618565b60405180910390fd5b5050565b8060018060009054906101000a900473ffffffffffffffffffffffffffffffffffffffff1673ffffffffffffffffffffffffffffffffffffffff1663bd85b039836040518263ffffffff1660e01b81526004016123df91906134a0565b602060405180830381865afa1580156123fc573d6000803e3d6000fd5b505050506040513d601f19601f820116820180604052508101906124209190613a83565b14612460576040517f08c379a000000000000000000000000000000000000000000000000000000000815260040161245790613afc565b60405180910390fd5b3373ffffffffffffffffffffffffffffffffffffffff166004600084815260200190815260200160002060009054906101000a900473ffffffffffffffffffffffffffffffffffffffff1673ffffffffffffffffffffffffffffffffffffffff1614612501576040517f08c379a00000000000000000000000000000000000000000000000000000000081526004016124f89061414a565b60405180910390fd5b61250a82612b50565b50600160009054906101000a900473ffffffffffffffffffffffffffffffffffffffff1673ffffffffffffffffffffffffffffffffffffffff1663f242432a30338560016040518563ffffffff1660e01b815260040161256d9493929190613d5e565b600060405180830381600087803b15801561258757600080fd5b505af115801561259b573d6000803e3d6000fd5b505050505050565b600060096000848152602001908152602001600020600083815260200190815260200160002054905092915050565b6000600160009054906101000a900473ffffffffffffffffffffffffffffffffffffffff1673ffffffffffffffffffffffffffffffffffffffff16634f558e79866040518263ffffffff1660e01b815260040161262f91906134a0565b602060405180830381865afa15801561264c573d6000803e3d6000fd5b505050506040513d601f19601f820116820180604052508101906126709190614274565b6126af576040517f08c379a00000000000000000000000000000000000000000000000000000000081526004016126a690614684565b60405180910390fd5b6000600160009054906101000a900473ffffffffffffffffffffffffffffffffffffffff1673ffffffffffffffffffffffffffffffffffffffff1663bd85b039876040518263ffffffff1660e01b815260040161270c91906134a0565b602060405180830381865afa158015612729573d6000803e3d6000fd5b505050506040513d601f19601f8201168201806040525081019061274d9190613a83565b905060018103612762576127618787612e40565b5b600181111561278057612776878787612ebf565b61277f866130ae565b5b63f23a6e6160e01b9150509695505050505050565b61279d612cba565b600073ffffffffffffffffffffffffffffffffffffffff168173ffffffffffffffffffffffffffffffffffffffff160361280f5760006040517f1e4fbdf70000000000000000000000000000000000000000000000000000000081526004016128069190613476565b60405180910390fd5b61281881612d41565b50565b818190508484905014612863576040517f08c379a000000000000000000000000000000000000000000000000000000000815260040161285a906146f0565b60405180910390fd5b60005b84849050811015612ad4576000838383818110612886576128856140cf565b5b90506020020135116128cd576040517f08c379a00000000000000000000000000000000000000000000000000000000081526004016128c490613e6e565b60405180910390fd5b60018060009054906101000a900473ffffffffffffffffffffffffffffffffffffffff1673ffffffffffffffffffffffffffffffffffffffff1663bd85b03987878581811061291f5761291e6140cf565b5b905060200201356040518263ffffffff1660e01b815260040161294291906134a0565b602060405180830381865afa15801561295f573d6000803e3d6000fd5b505050506040513d601f19601f820116820180604052508101906129839190613a83565b146129c3576040517f08c379a00000000000000000000000000000000000000000000000000000000081526004016129ba90613afc565b60405180910390fd5b3373ffffffffffffffffffffffffffffffffffffffff16600460008787858181106129f1576129f06140cf565b5b90506020020135815260200190815260200160002060009054906101000a900473ffffffffffffffffffffffffffffffffffffffff1673ffffffffffffffffffffffffffffffffffffffff1614612a7d576040517f08c379a0000000000000000000000000000000000000000000000000000000008152600401612a7490614782565b60405180910390fd5b828282818110612a9057612a8f6140cf565b5b9050602002013560056000878785818110612aae57612aad6140cf565b5b905060200201358152602001908152602001600020819055508080600101915050612866565b5050505050565b6000600a6000848152602001908152602001600020600083815260200190815260200160002060009054906101000a900473ffffffffffffffffffffffffffffffffffffffff16905092915050565b600160009054906101000a900473ffffffffffffffffffffffffffffffffffffffff1681565b60008060005b600280549050811015612c99578360028281548110612b7857612b776140cf565b5b906000526020600020015403612c8c5760026001600280549050612b9c9190614014565b81548110612bad57612bac6140cf565b5b906000526020600020015460028281548110612bcc57612bcb6140cf565b5b90600052602060002001819055506002805480612bec57612beb6147a2565b5b600190038181906000526020600020016000905590556004600082815260200190815260200160002060009054906101000a900473ffffffffffffffffffffffffffffffffffffffff16915060006004600086815260200190815260200160002060006101000a81548173ffffffffffffffffffffffffffffffffffffffff021916908373ffffffffffffffffffffffffffffffffffffffff1602179055505b8080600101915050612b56565b50600560008481526020019081526020016000206000905580915050919050565b612cc26131c6565b73ffffffffffffffffffffffffffffffffffffffff16612ce06116b6565b73ffffffffffffffffffffffffffffffffffffffff1614612d3f57612d036131c6565b6040517f118cdaa7000000000000000000000000000000000000000000000000000000008152600401612d369190613476565b60405180910390fd5b565b6000612d4b612e18565b905060008160000160009054906101000a900473ffffffffffffffffffffffffffffffffffffffff169050828260000160006101000a81548173ffffffffffffffffffffffffffffffffffffffff021916908373ffffffffffffffffffffffffffffffffffffffff1602179055508273ffffffffffffffffffffffffffffffffffffffff168173ffffffffffffffffffffffffffffffffffffffff167f8be0079c531659141344cd1fd0a4f28419497f9722a3daafe3b4186f6b6457e060405160405180910390a3505050565b60007f9016d09d72d40fdae2fd8ceac6b6234c7706214fd39c1cd1e609a0528c199300905090565b6002819080600181540180825580915050600190039060005260206000200160009091909190915055816004600083815260200190815260200160002060006101000a81548173ffffffffffffffffffffffffffffffffffffffff021916908373ffffffffffffffffffffffffffffffffffffffff1602179055505050565b60018111612f02576040517f08c379a0000000000000000000000000000000000000000000000000000000008152600401612ef99061481d565b60405180910390fd5b6000600860008481526020019081526020016000205490507fffffffffffffffffffffffffffffffffffffffffffffffffffffffffffffffff8110612f7c576040517f08c379a0000000000000000000000000000000000000000000000000000000008152600401612f7390614889565b60405180910390fd5b816009600085815260200190815260200160002060008381526020019081526020016000208190555083600a6000858152602001908152602001600020600083815260200190815260200160002060006101000a81548173ffffffffffffffffffffffffffffffffffffffff021916908373ffffffffffffffffffffffffffffffffffffffff160217905550600b600084815260200190815260200160002060008573ffffffffffffffffffffffffffffffffffffffff1673ffffffffffffffffffffffffffffffffffffffff1681526020019081526020016000208190806001815401808255809150506001900390600052602060002001600090919091909150556008600084815260200190815260200160002060008154809291906130a3906148a9565b919050555050505050565b6000600380549050036130e957600381908060018154018082558091505060019003906000526020600020016000909190919091505561319b565b60005b60038054905081101561319957816003828154811061310e5761310d6140cf565b5b90600052602060002001540315613199578160038281548110613134576131336140cf565b5b90600052602060002001541415801561315d575060038054905060018261315b9190613cb8565b145b1561318c5760038290806001815401808255809150506001900390600052602060002001600090919091909150555b80806001019150506130ec565b505b50565b6000806131a96131ce565b90508091505090565b6131ba6131f9565b6131c381613239565b50565b600033905090565b60007ff0c57e16840df040f15088dc2f81fe391c3923bec73e23a9662efc9c229c6a0060001b905090565b6132016132bf565b613237576040517fd7e6bcf800000000000000000000000000000000000000000000000000000000815260040160405180910390fd5b565b6132416131f9565b600073ffffffffffffffffffffffffffffffffffffffff168173ffffffffffffffffffffffffffffffffffffffff16036132b35760006040517f1e4fbdf70000000000000000000000000000000000000000000000000000000081526004016132aa9190613476565b60405180910390fd5b6132bc81612d41565b50565b60006132c961319e565b60000160089054906101000a900460ff16905090565b600082825260208201905092915050565b7f4920646f6e742072656365697665210000000000000000000000000000000000600082015250565b6000613326600f836132df565b9150613331826132f0565b602082019050919050565b6000602082019050818103600083015261335581613319565b9050919050565b7f546869732066756e6374696f6e20646f65736e27742065786973747321000000600082015250565b6000613392601d836132df565b915061339d8261335c565b602082019050919050565b600060208201905081810360008301526133c181613385565b9050919050565b600080fd5b600080fd5b6000819050919050565b6133e5816133d2565b81146133f057600080fd5b50565b600081359050613402816133dc565b92915050565b60006020828403121561341e5761341d6133c8565b5b600061342c848285016133f3565b91505092915050565b600073ffffffffffffffffffffffffffffffffffffffff82169050919050565b600061346082613435565b9050919050565b61347081613455565b82525050565b600060208201905061348b6000830184613467565b92915050565b61349a816133d2565b82525050565b60006020820190506134b56000830184613491565b92915050565b600080604083850312156134d2576134d16133c8565b5b60006134e0858286016133f3565b92505060206134f1858286016133f3565b9150509250929050565b600080fd5b600080fd5b600080fd5b60008083601f8401126135205761351f6134fb565b5b8235905067ffffffffffffffff81111561353d5761353c613500565b5b60208301915083602082028301111561355957613558613505565b5b9250929050565b60008060208385031215613577576135766133c8565b5b600083013567ffffffffffffffff811115613595576135946133cd565b5b6135a18582860161350a565b92509250509250929050565b600081519050919050565b600082825260208201905092915050565b6000819050602082019050919050565b6135e2816133d2565b82525050565b60006135f483836135d9565b60208301905092915050565b6000602082019050919050565b6000613618826135ad565b61362281856135b8565b935061362d836135c9565b8060005b8381101561365e57815161364588826135e8565b975061365083613600565b925050600181019050613631565b5085935050505092915050565b60006020820190508181036000830152613685818461360d565b905092915050565b61369681613455565b81146136a157600080fd5b50565b6000813590506136b38161368d565b92915050565b60008083601f8401126136cf576136ce6134fb565b5b8235905067ffffffffffffffff8111156136ec576136eb613500565b5b60208301915083600182028301111561370857613707613505565b5b9250929050565b60008060008060008060008060a0898b03121561372f5761372e6133c8565b5b600061373d8b828c016136a4565b985050602061374e8b828c016136a4565b975050604089013567ffffffffffffffff81111561376f5761376e6133cd565b5b61377b8b828c0161350a565b9650965050606089013567ffffffffffffffff81111561379e5761379d6133cd565b5b6137aa8b828c0161350a565b9450945050608089013567ffffffffffffffff8111156137cd576137cc6133cd565b5b6137d98b828c016136b9565b92509250509295985092959890939650565b60007fffffffff0000000000000000000000000000000000000000000000000000000082169050919050565b613820816137eb565b82525050565b600060208201905061383b6000830184613817565b92915050565b600061384c82613435565b9050919050565b61385c81613841565b811461386757600080fd5b50565b60008135905061387981613853565b92915050565b600060208284031215613895576138946133c8565b5b60006138a38482850161386a565b91505092915050565b60008060008060008060a087890312156138c9576138c86133c8565b5b60006138d789828a016136a4565b96505060206138e889828a016136a4565b95505060406138f989828a016133f3565b945050606061390a89828a016133f3565b935050608087013567ffffffffffffffff81111561392b5761392a6133cd565b5b61393789828a016136b9565b92509250509295509295509295565b60006020828403121561395c5761395b6133c8565b5b600061396a848285016136a4565b91505092915050565b6000806000806040858703121561398d5761398c6133c8565b5b600085013567ffffffffffffffff8111156139ab576139aa6133cd565b5b6139b78782880161350a565b9450945050602085013567ffffffffffffffff8111156139da576139d96133cd565b5b6139e68782880161350a565b925092505092959194509250565b6000819050919050565b6000613a19613a14613a0f84613435565b6139f4565b613435565b9050919050565b6000613a2b826139fe565b9050919050565b6000613a3d82613a20565b9050919050565b613a4d81613a32565b82525050565b6000602082019050613a686000830184613a44565b92915050565b600081519050613a7d816133dc565b92915050565b600060208284031215613a9957613a986133c8565b5b6000613aa784828501613a6e565b91505092915050565b7f4f6e6c79204e4654210000000000000000000000000000000000000000000000600082015250565b6000613ae66009836132df565b9150613af182613ab0565b602082019050919050565b60006020820190508181036000830152613b1581613ad9565b9050919050565b6000604082019050613b316000830185613467565b613b3e6020830184613491565b9392505050565b7f546f6b656e20646f65736e27742073656c6c2100000000000000000000000000600082015250565b6000613b7b6013836132df565b9150613b8682613b45565b602082019050919050565b60006020820190508181036000830152613baa81613b6e565b9050919050565b7f436f73742069736e277420796574207365742100000000000000000000000000600082015250565b6000613be76013836132df565b9150613bf282613bb1565b602082019050919050565b60006020820190508181036000830152613c1681613bda565b9050919050565b7f56616c75652069736e277420636f727265637421000000000000000000000000600082015250565b6000613c536014836132df565b9150613c5e82613c1d565b602082019050919050565b60006020820190508181036000830152613c8281613c46565b9050919050565b7f4e487b7100000000000000000000000000000000000000000000000000000000600052601160045260246000fd5b6000613cc3826133d2565b9150613cce836133d2565b9250828201905080821115613ce657613ce5613c89565b5b92915050565b6000819050919050565b6000613d11613d0c613d0784613cec565b6139f4565b6133d2565b9050919050565b613d2181613cf6565b82525050565b600082825260208201905092915050565b50565b6000613d48600083613d27565b9150613d5382613d38565b600082019050919050565b600060a082019050613d736000830187613467565b613d806020830186613467565b613d8d6040830185613491565b613d9a6060830184613d18565b8181036080830152613dab81613d3b565b905095945050505050565b7f4f6e6c7920465421000000000000000000000000000000000000000000000000600082015250565b6000613dec6008836132df565b9150613df782613db6565b602082019050919050565b60006020820190508181036000830152613e1b81613ddf565b9050919050565b7f496e636f72726563742070726963652100000000000000000000000000000000600082015250565b6000613e586010836132df565b9150613e6382613e22565b602082019050919050565b60006020820190508181036000830152613e8781613e4b565b9050919050565b7f486176656e277420707269636521000000000000000000000000000000000000600082015250565b6000613ec4600e836132df565b9150613ecf82613e8e565b602082019050919050565b60006020820190508181036000830152613ef381613eb7565b9050919050565b7f48617665206e6f742066756e6473210000000000000000000000000000000000600082015250565b6000613f30600f836132df565b9150613f3b82613efa565b602082019050919050565b60006020820190508181036000830152613f5f81613f23565b9050919050565b6000613f71826133d2565b9150613f7c836133d2565b9250828202613f8a816133d2565b91508282048414831517613fa157613fa0613c89565b5b5092915050565b7f496e636f7272656374206d73672e76616c756521000000000000000000000000600082015250565b6000613fde6014836132df565b9150613fe982613fa8565b602082019050919050565b6000602082019050818103600083015261400d81613fd1565b9050919050565b600061401f826133d2565b915061402a836133d2565b925082820390508181111561404257614041613c89565b5b92915050565b600060a08201905061405d6000830187613467565b61406a6020830186613467565b6140776040830185613491565b6140846060830184613491565b818103608083015261409581613d3b565b905095945050505050565b7f4e487b7100000000000000000000000000000000000000000000000000000000600052604160045260246000fd5b7f4e487b7100000000000000000000000000000000000000000000000000000000600052603260045260246000fd5b7f596f7572206172656e277420616e207468697320746f6b656e206f776e657221600082015250565b60006141346020836132df565b915061413f826140fe565b602082019050919050565b6000602082019050818103600083015261416381614127565b9050919050565b600080fd5b82818337505050565b600061418483856135b8565b93507f07ffffffffffffffffffffffffffffffffffffffffffffffffffffffffffffff8311156141b7576141b661416a565b5b6020830292506141c883858461416f565b82840190509392505050565b600060a0820190506141e96000830188613467565b6141f66020830187613467565b8181036040830152614209818587614178565b9050818103606083015261421d818461360d565b9050818103608083015261423081613d3b565b90509695505050505050565b60008115159050919050565b6142518161423c565b811461425c57600080fd5b50565b60008151905061426e81614248565b92915050565b60006020828403121561428a576142896133c8565b5b60006142988482850161425f565b91505092915050565b7f4f6e6c79206d696e74656420746f6b656e732100000000000000000000000000600082015250565b60006142d76013836132df565b91506142e2826142a1565b602082019050919050565b60006020820190508181036000830152614306816142ca565b9050919050565b600067ffffffffffffffff82169050919050565b600061433c61433761433284613cec565b6139f4565b61430d565b9050919050565b61434c81614321565b82525050565b60006020820190506143676000830184614343565b92915050565b7f596f75206469646e2774206a6f696e20696e2071756571756521000000000000600082015250565b60006143a3601a836132df565b91506143ae8261436d565b602082019050919050565b600060208201905081810360008301526143d281614396565b9050919050565b7f56616c756520657175616c203021000000000000000000000000000000000000600082015250565b600061440f600e836132df565b915061441a826143d9565b602082019050919050565b6000602082019050818103600083015261443e81614402565b9050919050565b7f596f7520617265206e6f7420616e20746f6b656e73206f776e65722100000000600082015250565b600061447b601c836132df565b915061448682614445565b602082019050919050565b600060208201905081810360008301526144aa8161446e565b9050919050565b7f596f75206469646e2774206a6f696e2071756571756521000000000000000000600082015250565b60006144e76017836132df565b91506144f2826144b1565b602082019050919050565b60006020820190508181036000830152614516816144da565b9050919050565b7f596f7520686176656e27742076616c756520666f722077697468647261772100600082015250565b6000614553601f836132df565b915061455e8261451d565b602082019050919050565b6000602082019050818103600083015261458281614546565b9050919050565b600081905092915050565b60006145a1600083614589565b91506145ac82613d38565b600082019050919050565b60006145c282614594565b9150819050919050565b7f5478206661696c65642100000000000000000000000000000000000000000000600082015250565b6000614602600a836132df565b915061460d826145cc565b602082019050919050565b60006020820190508181036000830152614631816145f5565b9050919050565b7f4f6e6c79206d696e74656420746f6b656e210000000000000000000000000000600082015250565b600061466e6012836132df565b915061467982614638565b602082019050919050565b6000602082019050818103600083015261469d81614661565b9050919050565b7f496e636f727265637420617272617973206c656e677468210000000000000000600082015250565b60006146da6018836132df565b91506146e5826146a4565b602082019050919050565b60006020820190508181036000830152614709816146cd565b9050919050565b7f596f75206172656e277420746f6b656e206f776e6572206f72204e465420697360008201527f6e27742065786869626974656421000000000000000000000000000000000000602082015250565b600061476c602e836132df565b915061477782614710565b604082019050919050565b6000602082019050818103600083015261479b8161475f565b9050919050565b7f4e487b7100000000000000000000000000000000000000000000000000000000600052603160045260246000fd5b7f496e636f72726563742076616c75650000000000000000000000000000000000600082015250565b6000614807600f836132df565b9150614812826147d1565b602082019050919050565b60006020820190508181036000830152614836816147fa565b9050919050565b7f5175657565206973206f766572666c6f77210000000000000000000000000000600082015250565b60006148736012836132df565b915061487e8261483d565b602082019050919050565b600060208201905081810360008301526148a281614866565b9050919050565b60006148b4826133d2565b91507fffffffffffffffffffffffffffffffffffffffffffffffffffffffffffffffff82036148e6576148e5613c89565b5b60018201905091905056fea26469706673582212208aaf04ca392fc287863369a09fc764d0aa1c77951fadf8f8f44439075a3d808764736f6c634300081c0033",
  "linkReferences": {},
  "deployedLinkReferences": {}
}