{
  "_format": "hh-sol-artifact-1",
  "contractName": "TokensERC1155",
  "sourceName": "contracts/TokensERC1155.sol",
  "abi": [
    {
      "inputs": [],
      "stateMutability": "nonpayable",
      "type": "constructor"
    },
    {
      "inputs": [
        {
          "internalType": "address",
          "name": "sender",
          "type": "address"
        },
        {
          "internalType": "uint256",
          "name": "balance",
          "type": "uint256"
        },
        {
          "internalType": "uint256",
          "name": "needed",
          "type": "uint256"
        },
        {
          "internalType": "uint256",
          "name": "tokenId",
          "type": "uint256"
        }
      ],
      "name": "ERC1155InsufficientBalance",
      "type": "error"
    },
    {
      "inputs": [
        {
          "internalType": "address",
          "name": "approver",
          "type": "address"
        }
      ],
      "name": "ERC1155InvalidApprover",
      "type": "error"
    },
    {
      "inputs": [
        {
          "internalType": "uint256",
          "name": "idsLength",
          "type": "uint256"
        },
        {
          "internalType": "uint256",
          "name": "valuesLength",
          "type": "uint256"
        }
      ],
      "name": "ERC1155InvalidArrayLength",
      "type": "error"
    },
    {
      "inputs": [
        {
          "internalType": "address",
          "name": "operator",
          "type": "address"
        }
      ],
      "name": "ERC1155InvalidOperator",
      "type": "error"
    },
    {
      "inputs": [
        {
          "internalType": "address",
          "name": "receiver",
          "type": "address"
        }
      ],
      "name": "ERC1155InvalidReceiver",
      "type": "error"
    },
    {
      "inputs": [
        {
          "internalType": "address",
          "name": "sender",
          "type": "address"
        }
      ],
      "name": "ERC1155InvalidSender",
      "type": "error"
    },
    {
      "inputs": [
        {
          "internalType": "address",
          "name": "operator",
          "type": "address"
        },
        {
          "internalType": "address",
          "name": "owner",
          "type": "address"
        }
      ],
      "name": "ERC1155MissingApprovalForAll",
      "type": "error"
    },
    {
      "inputs": [],
      "name": "EnforcedPause",
      "type": "error"
    },
    {
      "inputs": [],
      "name": "ExpectedPause",
      "type": "error"
    },
    {
      "anonymous": false,
      "inputs": [
        {
          "indexed": true,
          "internalType": "address",
          "name": "account",
          "type": "address"
        },
        {
          "indexed": true,
          "internalType": "address",
          "name": "operator",
          "type": "address"
        },
        {
          "indexed": false,
          "internalType": "bool",
          "name": "approved",
          "type": "bool"
        }
      ],
      "name": "ApprovalForAll",
      "type": "event"
    },
    {
      "anonymous": false,
      "inputs": [
        {
          "indexed": false,
          "internalType": "address",
          "name": "account",
          "type": "address"
        }
      ],
      "name": "Paused",
      "type": "event"
    },
    {
      "anonymous": false,
      "inputs": [
        {
          "indexed": true,
          "internalType": "address",
          "name": "operator",
          "type": "address"
        },
        {
          "indexed": true,
          "internalType": "address",
          "name": "from",
          "type": "address"
        },
        {
          "indexed": true,
          "internalType": "address",
          "name": "to",
          "type": "address"
        },
        {
          "indexed": false,
          "internalType": "uint256[]",
          "name": "ids",
          "type": "uint256[]"
        },
        {
          "indexed": false,
          "internalType": "uint256[]",
          "name": "values",
          "type": "uint256[]"
        }
      ],
      "name": "TransferBatch",
      "type": "event"
    },
    {
      "anonymous": false,
      "inputs": [
        {
          "indexed": true,
          "internalType": "address",
          "name": "operator",
          "type": "address"
        },
        {
          "indexed": true,
          "internalType": "address",
          "name": "from",
          "type": "address"
        },
        {
          "indexed": true,
          "internalType": "address",
          "name": "to",
          "type": "address"
        },
        {
          "indexed": false,
          "internalType": "uint256",
          "name": "id",
          "type": "uint256"
        },
        {
          "indexed": false,
          "internalType": "uint256",
          "name": "value",
          "type": "uint256"
        }
      ],
      "name": "TransferSingle",
      "type": "event"
    },
    {
      "anonymous": false,
      "inputs": [
        {
          "indexed": false,
          "internalType": "string",
          "name": "value",
          "type": "string"
        },
        {
          "indexed": true,
          "internalType": "uint256",
          "name": "id",
          "type": "uint256"
        }
      ],
      "name": "URI",
      "type": "event"
    },
    {
      "anonymous": false,
      "inputs": [
        {
          "indexed": false,
          "internalType": "address",
          "name": "account",
          "type": "address"
        }
      ],
      "name": "Unpaused",
      "type": "event"
    },
    {
      "inputs": [
        {
          "internalType": "address",
          "name": "account",
          "type": "address"
        },
        {
          "internalType": "uint256",
          "name": "id",
          "type": "uint256"
        }
      ],
      "name": "balanceOf",
      "outputs": [
        {
          "internalType": "uint256",
          "name": "",
          "type": "uint256"
        }
      ],
      "stateMutability": "view",
      "type": "function"
    },
    {
      "inputs": [
        {
          "internalType": "address[]",
          "name": "accounts",
          "type": "address[]"
        },
        {
          "internalType": "uint256[]",
          "name": "ids",
          "type": "uint256[]"
        }
      ],
      "name": "balanceOfBatch",
      "outputs": [
        {
          "internalType": "uint256[]",
          "name": "",
          "type": "uint256[]"
        }
      ],
      "stateMutability": "view",
      "type": "function"
    },
    {
      "inputs": [
        {
          "internalType": "address",
          "name": "account",
          "type": "address"
        },
        {
          "internalType": "uint256",
          "name": "id",
          "type": "uint256"
        },
        {
          "internalType": "uint256",
          "name": "value",
          "type": "uint256"
        }
      ],
      "name": "burn",
      "outputs": [],
      "stateMutability": "nonpayable",
      "type": "function"
    },
    {
      "inputs": [
        {
          "internalType": "address",
          "name": "account",
          "type": "address"
        },
        {
          "internalType": "uint256[]",
          "name": "ids",
          "type": "uint256[]"
        },
        {
          "internalType": "uint256[]",
          "name": "values",
          "type": "uint256[]"
        }
      ],
      "name": "burnBatch",
      "outputs": [],
      "stateMutability": "nonpayable",
      "type": "function"
    },
    {
      "inputs": [],
      "name": "currentTokenId",
      "outputs": [
        {
          "internalType": "uint256",
          "name": "",
          "type": "uint256"
        }
      ],
      "stateMutability": "view",
      "type": "function"
    },
    {
      "inputs": [
        {
          "internalType": "uint256",
          "name": "id",
          "type": "uint256"
        }
      ],
      "name": "exists",
      "outputs": [
        {
          "internalType": "bool",
          "name": "",
          "type": "bool"
        }
      ],
      "stateMutability": "view",
      "type": "function"
    },
    {
      "inputs": [
        {
          "internalType": "address",
          "name": "account",
          "type": "address"
        },
        {
          "internalType": "address",
          "name": "operator",
          "type": "address"
        }
      ],
      "name": "isApprovedForAll",
      "outputs": [
        {
          "internalType": "bool",
          "name": "",
          "type": "bool"
        }
      ],
      "stateMutability": "view",
      "type": "function"
    },
    {
      "inputs": [
        {
          "internalType": "address",
          "name": "to",
          "type": "address"
        },
        {
          "internalType": "string",
          "name": "tokenURI",
          "type": "string"
        },
        {
          "internalType": "uint256",
          "name": "collectionLength",
          "type": "uint256"
        },
        {
          "internalType": "uint256[]",
          "name": "values",
          "type": "uint256[]"
        }
      ],
      "name": "mint",
      "outputs": [],
      "stateMutability": "nonpayable",
      "type": "function"
    },
    {
      "inputs": [
        {
          "internalType": "address",
          "name": "to",
          "type": "address"
        },
        {
          "internalType": "string",
          "name": "tokenURI",
          "type": "string"
        },
        {
          "internalType": "uint256",
          "name": "value",
          "type": "uint256"
        }
      ],
      "name": "mint",
      "outputs": [],
      "stateMutability": "nonpayable",
      "type": "function"
    },
    {
      "inputs": [
        {
          "internalType": "address",
          "name": "",
          "type": "address"
        },
        {
          "internalType": "address",
          "name": "",
          "type": "address"
        },
        {
          "internalType": "uint256[]",
          "name": "ids",
          "type": "uint256[]"
        },
        {
          "internalType": "uint256[]",
          "name": "",
          "type": "uint256[]"
        },
        {
          "internalType": "bytes",
          "name": "",
          "type": "bytes"
        }
      ],
      "name": "onERC1155BatchReceived",
      "outputs": [
        {
          "internalType": "bytes4",
          "name": "",
          "type": "bytes4"
        }
      ],
      "stateMutability": "view",
      "type": "function"
    },
    {
      "inputs": [
        {
          "internalType": "address",
          "name": "",
          "type": "address"
        },
        {
          "internalType": "address",
          "name": "",
          "type": "address"
        },
        {
          "internalType": "uint256",
          "name": "id",
          "type": "uint256"
        },
        {
          "internalType": "uint256",
          "name": "",
          "type": "uint256"
        },
        {
          "internalType": "bytes",
          "name": "",
          "type": "bytes"
        }
      ],
      "name": "onERC1155Received",
      "outputs": [
        {
          "internalType": "bytes4",
          "name": "",
          "type": "bytes4"
        }
      ],
      "stateMutability": "view",
      "type": "function"
    },
    {
      "inputs": [],
      "name": "owner",
      "outputs": [
        {
          "internalType": "address",
          "name": "",
          "type": "address"
        }
      ],
      "stateMutability": "view",
      "type": "function"
    },
    {
      "inputs": [],
      "name": "pause",
      "outputs": [],
      "stateMutability": "nonpayable",
      "type": "function"
    },
    {
      "inputs": [],
      "name": "paused",
      "outputs": [
        {
          "internalType": "bool",
          "name": "",
          "type": "bool"
        }
      ],
      "stateMutability": "view",
      "type": "function"
    },
    {
      "inputs": [
        {
          "internalType": "address",
          "name": "from",
          "type": "address"
        },
        {
          "internalType": "address",
          "name": "to",
          "type": "address"
        },
        {
          "internalType": "uint256[]",
          "name": "ids",
          "type": "uint256[]"
        },
        {
          "internalType": "uint256[]",
          "name": "values",
          "type": "uint256[]"
        },
        {
          "internalType": "bytes",
          "name": "data",
          "type": "bytes"
        }
      ],
      "name": "safeBatchTransferFrom",
      "outputs": [],
      "stateMutability": "nonpayable",
      "type": "function"
    },
    {
      "inputs": [
        {
          "internalType": "address",
          "name": "from",
          "type": "address"
        },
        {
          "internalType": "address",
          "name": "to",
          "type": "address"
        },
        {
          "internalType": "uint256",
          "name": "id",
          "type": "uint256"
        },
        {
          "internalType": "uint256",
          "name": "value",
          "type": "uint256"
        },
        {
          "internalType": "bytes",
          "name": "data",
          "type": "bytes"
        }
      ],
      "name": "safeTransferFrom",
      "outputs": [],
      "stateMutability": "nonpayable",
      "type": "function"
    },
    {
      "inputs": [
        {
          "internalType": "address",
          "name": "operator",
          "type": "address"
        },
        {
          "internalType": "bool",
          "name": "approved",
          "type": "bool"
        }
      ],
      "name": "setApprovalForAll",
      "outputs": [],
      "stateMutability": "nonpayable",
      "type": "function"
    },
    {
      "inputs": [
        {
          "internalType": "bytes4",
          "name": "interfaceId",
          "type": "bytes4"
        }
      ],
      "name": "supportsInterface",
      "outputs": [
        {
          "internalType": "bool",
          "name": "",
          "type": "bool"
        }
      ],
      "stateMutability": "view",
      "type": "function"
    },
    {
      "inputs": [],
      "name": "topUp",
      "outputs": [],
      "stateMutability": "payable",
      "type": "function"
    },
    {
      "inputs": [],
      "name": "totalSupply",
      "outputs": [
        {
          "internalType": "uint256",
          "name": "",
          "type": "uint256"
        }
      ],
      "stateMutability": "view",
      "type": "function"
    },
    {
      "inputs": [
        {
          "internalType": "uint256",
          "name": "id",
          "type": "uint256"
        }
      ],
      "name": "totalSupply",
      "outputs": [
        {
          "internalType": "uint256",
          "name": "",
          "type": "uint256"
        }
      ],
      "stateMutability": "view",
      "type": "function"
    },
    {
      "inputs": [],
      "name": "unpause",
      "outputs": [],
      "stateMutability": "nonpayable",
      "type": "function"
    },
    {
      "inputs": [
        {
          "internalType": "uint256",
          "name": "tokenId",
          "type": "uint256"
        }
      ],
      "name": "uri",
      "outputs": [
        {
          "internalType": "string",
          "name": "",
          "type": "string"
        }
      ],
      "stateMutability": "view",
      "type": "function"
    },
    {
      "inputs": [
        {
          "internalType": "uint256[]",
          "name": "ids",
          "type": "uint256[]"
        },
        {
          "internalType": "address[]",
          "name": "accounts",
          "type": "address[]"
        }
      ],
      "name": "withdraw",
      "outputs": [],
      "stateMutability": "nonpayable",
      "type": "function"
    },
    {
      "inputs": [
        {
          "internalType": "uint256",
          "name": "id",
          "type": "uint256"
        }
      ],
      "name": "withdraw",
      "outputs": [],
      "stateMutability": "nonpayable",
      "type": "function"
    },
    {
      "inputs": [],
      "name": "withdraw",
      "outputs": [],
      "stateMutability": "nonpayable",
      "type": "function"
    },
    {
      "stateMutability": "payable",
      "type": "receive"
    }
  ],
  "bytecode": "0x60a0604052600060065534801561001557600080fd5b50604051806020016040528060008152506100358161006f60201b60201c565b503373ffffffffffffffffffffffffffffffffffffffff1660808173ffffffffffffffffffffffffffffffffffffffff16815250506103a4565b806002908161007e91906102d2565b5050565b600081519050919050565b7f4e487b7100000000000000000000000000000000000000000000000000000000600052604160045260246000fd5b7f4e487b7100000000000000000000000000000000000000000000000000000000600052602260045260246000fd5b6000600282049050600182168061010357607f821691505b602082108103610116576101156100bc565b5b50919050565b60008190508160005260206000209050919050565b60006020601f8301049050919050565b600082821b905092915050565b60006008830261017e7fffffffffffffffffffffffffffffffffffffffffffffffffffffffffffffffff82610141565b6101888683610141565b95508019841693508086168417925050509392505050565b6000819050919050565b6000819050919050565b60006101cf6101ca6101c5846101a0565b6101aa565b6101a0565b9050919050565b6000819050919050565b6101e9836101b4565b6101fd6101f5826101d6565b84845461014e565b825550505050565b600090565b610212610205565b61021d8184846101e0565b505050565b5b818110156102415761023660008261020a565b600181019050610223565b5050565b601f821115610286576102578161011c565b61026084610131565b8101602085101561026f578190505b61028361027b85610131565b830182610222565b50505b505050565b600082821c905092915050565b60006102a96000198460080261028b565b1980831691505092915050565b60006102c28383610298565b9150826002028217905092915050565b6102db82610082565b67ffffffffffffffff8111156102f4576102f361008d565b5b6102fe82546100eb565b610309828285610245565b600060209050601f83116001811461033c576000841561032a578287015190505b61033485826102b6565b86555061039c565b601f19841661034a8661011c565b60005b828110156103725784890151825560018201915060208501945060208101905061034d565b8683101561038f578489015161038b601f891682610298565b8355505b6001600288020188555050505b505050505050565b6080516145756104136000396000818161062a015281816106bc015281816108b10152818161099d015281816109e401528181610a8401528181610b6801528181610bf801528181610cc501528181610f3d01528181610fd5015281816110c4015261138301526145756000f3fe6080604052600436106101835760003560e01c80636b20c454116100d1578063bc197c811161008a578063e985e9c511610064578063e985e9c51461055c578063f23a6e6114610599578063f242432a146105d6578063f5298aca146105ff57610192565b8063bc197c81146104d8578063bd85b03914610515578063dc29f1de1461055257610192565b80636b20c454146103f25780638456cb591461041b5780638da5cb5b14610432578063a22cb4651461045d578063adbaed0414610486578063ba7aef43146104af57610192565b80632e1a7d4d1161013e5780633f4ba83a116101185780633f4ba83a146103365780634e1273f41461034d5780634f558e791461038a5780635c975abb146103c757610192565b80632e1a7d4d146102cd5780632eb2c2d6146102f65780633ccfd60b1461031f57610192565b80629a9b7b14610197578062fdd58e146101c257806301ffc9a7146101ff5780630e89341c1461023c57806316e576521461027957806318160ddd146102a257610192565b3661019257610190610628565b005b600080fd5b3480156101a357600080fd5b506101ac6106b8565b6040516101b99190612c6d565b60405180910390f35b3480156101ce57600080fd5b506101e960048036038101906101e49190612d26565b610750565b6040516101f69190612c6d565b60405180910390f35b34801561020b57600080fd5b5061022660048036038101906102219190612dbe565b6107aa565b6040516102339190612e06565b60405180910390f35b34801561024857600080fd5b50610263600480360381019061025e9190612e21565b6107bc565b6040516102709190612ede565b60405180910390f35b34801561028557600080fd5b506102a0600480360381019061029b919061310b565b6108af565b005b3480156102ae57600080fd5b506102b76109d8565b6040516102c49190612c6d565b60405180910390f35b3480156102d957600080fd5b506102f460048036038101906102ef9190612e21565b6109e2565b005b34801561030257600080fd5b5061031d60048036038101906103189190613238565b610abe565b005b34801561032b57600080fd5b50610334610b66565b005b34801561034257600080fd5b5061034b610cc3565b005b34801561035957600080fd5b50610374600480360381019061036f9190613307565b610d5b565b604051610381919061343d565b60405180910390f35b34801561039657600080fd5b506103b160048036038101906103ac9190612e21565b610e64565b6040516103be9190612e06565b60405180910390f35b3480156103d357600080fd5b506103dc610e78565b6040516103e99190612e06565b60405180910390f35b3480156103fe57600080fd5b506104196004803603810190610414919061345f565b610e8f565b005b34801561042757600080fd5b50610430610f3b565b005b34801561043e57600080fd5b50610447610fd3565b60405161045491906134f9565b60405180910390f35b34801561046957600080fd5b50610484600480360381019061047f9190613540565b610ff7565b005b34801561049257600080fd5b506104ad60048036038101906104a89190613621565b61100d565b005b3480156104bb57600080fd5b506104d660048036038101906104d191906136c0565b6112cb565b005b3480156104e457600080fd5b506104ff60048036038101906104fa91906137e0565b61149a565b60405161050c91906138cb565b60405180910390f35b34801561052157600080fd5b5061053c60048036038101906105379190612e21565b611532565b6040516105499190612c6d565b60405180910390f35b61055a610628565b005b34801561056857600080fd5b50610583600480360381019061057e91906138e6565b61154f565b6040516105909190612e06565b60405180910390f35b3480156105a557600080fd5b506105c060048036038101906105bb9190613926565b6115e3565b6040516105cd91906138cb565b60405180910390f35b3480156105e257600080fd5b506105fd60048036038101906105f891906139c0565b611641565b005b34801561060b57600080fd5b5061062660048036038101906106219190613a57565b6116e9565b005b7f000000000000000000000000000000000000000000000000000000000000000073ffffffffffffffffffffffffffffffffffffffff163373ffffffffffffffffffffffffffffffffffffffff16146106b6576040517f08c379a00000000000000000000000000000000000000000000000000000000081526004016106ad90613af6565b60405180910390fd5b565b60007f000000000000000000000000000000000000000000000000000000000000000073ffffffffffffffffffffffffffffffffffffffff163373ffffffffffffffffffffffffffffffffffffffff1614610748576040517f08c379a000000000000000000000000000000000000000000000000000000000815260040161073f90613af6565b60405180910390fd5b600654905090565b600080600083815260200190815260200160002060008473ffffffffffffffffffffffffffffffffffffffff1673ffffffffffffffffffffffffffffffffffffffff16815260200190815260200160002054905092915050565b60006107b582611795565b9050919050565b606060006007600084815260200190815260200160002080546107de90613b45565b80601f016020809104026020016040519081016040528092919081815260200182805461080a90613b45565b80156108575780601f1061082c57610100808354040283529160200191610857565b820191906000526020600020905b81548152906001019060200180831161083a57829003601f168201915b50505050509050600081511161087c57604051806020016040528060008152506108a7565b8061088684611877565b604051602001610897929190613bd8565b6040516020818303038152906040525b915050919050565b7f000000000000000000000000000000000000000000000000000000000000000073ffffffffffffffffffffffffffffffffffffffff163373ffffffffffffffffffffffffffffffffffffffff161461093d576040517f08c379a000000000000000000000000000000000000000000000000000000000815260040161093490613af6565b60405180910390fd5b6000825167ffffffffffffffff81111561095a57610959612f05565b5b6040519080825280602002602001820160405280156109885781602001602082028036833780820191505090505b5090506109958284610d5b565b90506109d3307f0000000000000000000000000000000000000000000000000000000000000000858460405180602001604052806000815250611945565b505050565b6000600554905090565b7f000000000000000000000000000000000000000000000000000000000000000073ffffffffffffffffffffffffffffffffffffffff163373ffffffffffffffffffffffffffffffffffffffff1614610a70576040517f08c379a0000000000000000000000000000000000000000000000000000000008152600401610a6790613af6565b60405180910390fd5b6000610a7c3083610750565b9050610aba307f0000000000000000000000000000000000000000000000000000000000000000848460405180602001604052806000815250611a3d565b5050565b6000610ac8611b48565b90508073ffffffffffffffffffffffffffffffffffffffff168673ffffffffffffffffffffffffffffffffffffffff1614158015610b0d5750610b0b868261154f565b155b15610b515780866040517fe237d922000000000000000000000000000000000000000000000000000000008152600401610b48929190613c0b565b60405180910390fd5b610b5e8686868686611945565b505050505050565b7f000000000000000000000000000000000000000000000000000000000000000073ffffffffffffffffffffffffffffffffffffffff163373ffffffffffffffffffffffffffffffffffffffff1614610bf4576040517f08c379a0000000000000000000000000000000000000000000000000000000008152600401610beb90613af6565b60405180910390fd5b60007f000000000000000000000000000000000000000000000000000000000000000073ffffffffffffffffffffffffffffffffffffffff1647604051610c3a90613c65565b60006040518083038185875af1925050503d8060008114610c77576040519150601f19603f3d011682016040523d82523d6000602084013e610c7c565b606091505b5050905080610cc0576040517f08c379a0000000000000000000000000000000000000000000000000000000008152600401610cb790613cc6565b60405180910390fd5b50565b7f000000000000000000000000000000000000000000000000000000000000000073ffffffffffffffffffffffffffffffffffffffff163373ffffffffffffffffffffffffffffffffffffffff1614610d51576040517f08c379a0000000000000000000000000000000000000000000000000000000008152600401610d4890613af6565b60405180910390fd5b610d59611b50565b565b60608151835114610da757815183516040517f5b059991000000000000000000000000000000000000000000000000000000008152600401610d9e929190613ce6565b60405180910390fd5b6000835167ffffffffffffffff811115610dc457610dc3612f05565b5b604051908082528060200260200182016040528015610df25781602001602082028036833780820191505090505b50905060005b8451811015610e5957610e2f610e178287611bb390919063ffffffff16565b610e2a8387611bc790919063ffffffff16565b610750565b828281518110610e4257610e41613d0f565b5b602002602001018181525050806001019050610df8565b508091505092915050565b600080610e7083611532565b119050919050565b6000600360009054906101000a900460ff16905090565b610e97611b48565b73ffffffffffffffffffffffffffffffffffffffff168373ffffffffffffffffffffffffffffffffffffffff1614158015610ee05750610ede83610ed9611b48565b61154f565b155b15610f2b57610eed611b48565b836040517fe237d922000000000000000000000000000000000000000000000000000000008152600401610f22929190613c0b565b60405180910390fd5b610f36838383611bdb565b505050565b7f000000000000000000000000000000000000000000000000000000000000000073ffffffffffffffffffffffffffffffffffffffff163373ffffffffffffffffffffffffffffffffffffffff1614610fc9576040517f08c379a0000000000000000000000000000000000000000000000000000000008152600401610fc090613af6565b60405180910390fd5b610fd1611c6f565b565b7f000000000000000000000000000000000000000000000000000000000000000081565b611009611002611b48565b8383611cd2565b5050565b82826000825111611053576040517f08c379a000000000000000000000000000000000000000000000000000000000815260040161104a90613d8a565b60405180910390fd5b7fffffffffffffffffffffffffffffffffffffffffffffffffffffffffffffffff816006546110829190613dd9565b106110c2576040517f08c379a00000000000000000000000000000000000000000000000000000000081526004016110b990613e59565b60405180910390fd5b7f000000000000000000000000000000000000000000000000000000000000000073ffffffffffffffffffffffffffffffffffffffff163373ffffffffffffffffffffffffffffffffffffffff1614611150576040517f08c379a000000000000000000000000000000000000000000000000000000000815260040161114790613af6565b60405180910390fd5b600184118015611161575060328411155b6111a0576040517f08c379a000000000000000000000000000000000000000000000000000000000815260040161119790613eeb565b60405180910390fd5b838351146111e3576040517f08c379a00000000000000000000000000000000000000000000000000000000081526004016111da90613f57565b60405180910390fd5b60008467ffffffffffffffff8111156111ff576111fe612f05565b5b60405190808252806020026020018201604052801561122d5781602001602082028036833780820191505090505b50905060005b858110156112a65760065482828151811061125157611250613d0f565b5b6020026020010181815250506006600081548092919061127090613f77565b919050555061129982828151811061128b5761128a613d0f565b5b602002602001015188611e42565b8080600101915050611233565b506112c287828660405180602001604052806000815250611ea7565b50505050505050565b8160016000825111611312576040517f08c379a000000000000000000000000000000000000000000000000000000000815260040161130990613d8a565b60405180910390fd5b7fffffffffffffffffffffffffffffffffffffffffffffffffffffffffffffffff816006546113419190613dd9565b10611381576040517f08c379a000000000000000000000000000000000000000000000000000000000815260040161137890613e59565b60405180910390fd5b7f000000000000000000000000000000000000000000000000000000000000000073ffffffffffffffffffffffffffffffffffffffff163373ffffffffffffffffffffffffffffffffffffffff161461140f576040517f08c379a000000000000000000000000000000000000000000000000000000000815260040161140690613af6565b60405180910390fd5b60018311611452576040517f08c379a00000000000000000000000000000000000000000000000000000000081526004016114499061400b565b60405180910390fd5b61146f856006548560405180602001604052806000815250611f2d565b61147b60065485611e42565b6006600081548092919061148e90613f77565b91905055505050505050565b600080600090505b8787905081101561151b576114cf8888838181106114c3576114c2613d0f565b5b90506020020135610e64565b61150e576040517f08c379a00000000000000000000000000000000000000000000000000000000081526004016115059061409d565b60405180910390fd5b80806001019150506114a2565b5063bc197c8160e01b905098975050505050505050565b600060046000838152602001908152602001600020549050919050565b6000600160008473ffffffffffffffffffffffffffffffffffffffff1673ffffffffffffffffffffffffffffffffffffffff16815260200190815260200160002060008373ffffffffffffffffffffffffffffffffffffffff1673ffffffffffffffffffffffffffffffffffffffff16815260200190815260200160002060009054906101000a900460ff16905092915050565b60006115ee85610e64565b61162d576040517f08c379a00000000000000000000000000000000000000000000000000000000081526004016116249061409d565b60405180910390fd5b63f23a6e6160e01b90509695505050505050565b600061164b611b48565b90508073ffffffffffffffffffffffffffffffffffffffff168673ffffffffffffffffffffffffffffffffffffffff1614158015611690575061168e868261154f565b155b156116d45780866040517fe237d9220000000000000000000000000000000000000000000000000000000081526004016116cb929190613c0b565b60405180910390fd5b6116e18686868686611a3d565b505050505050565b6116f1611b48565b73ffffffffffffffffffffffffffffffffffffffff168373ffffffffffffffffffffffffffffffffffffffff161415801561173a575061173883611733611b48565b61154f565b155b1561178557611747611b48565b836040517fe237d92200000000000000000000000000000000000000000000000000000000815260040161177c929190613c0b565b60405180910390fd5b611790838383611fc6565b505050565b60007fd9b67a26000000000000000000000000000000000000000000000000000000007bffffffffffffffffffffffffffffffffffffffffffffffffffffffff1916827bffffffffffffffffffffffffffffffffffffffffffffffffffffffff1916148061186057507f0e89341c000000000000000000000000000000000000000000000000000000007bffffffffffffffffffffffffffffffffffffffffffffffffffffffff1916827bffffffffffffffffffffffffffffffffffffffffffffffffffffffff1916145b80611870575061186f8261206d565b5b9050919050565b606060006001611886846120d7565b01905060008167ffffffffffffffff8111156118a5576118a4612f05565b5b6040519080825280601f01601f1916602001820160405280156118d75781602001600182028036833780820191505090505b509050600082602001820190505b60011561193a578080600190039150507f3031323334353637383961626364656600000000000000000000000000000000600a86061a8153600a858161192e5761192d6140bd565b5b049450600085036118e5575b819350505050919050565b600073ffffffffffffffffffffffffffffffffffffffff168473ffffffffffffffffffffffffffffffffffffffff16036119b75760006040517f57f447ce0000000000000000000000000000000000000000000000000000000081526004016119ae91906134f9565b60405180910390fd5b600073ffffffffffffffffffffffffffffffffffffffff168573ffffffffffffffffffffffffffffffffffffffff1603611a295760006040517f01a83514000000000000000000000000000000000000000000000000000000008152600401611a2091906134f9565b60405180910390fd5b611a36858585858561222a565b5050505050565b600073ffffffffffffffffffffffffffffffffffffffff168473ffffffffffffffffffffffffffffffffffffffff1603611aaf5760006040517f57f447ce000000000000000000000000000000000000000000000000000000008152600401611aa691906134f9565b60405180910390fd5b600073ffffffffffffffffffffffffffffffffffffffff168573ffffffffffffffffffffffffffffffffffffffff1603611b215760006040517f01a83514000000000000000000000000000000000000000000000000000000008152600401611b1891906134f9565b60405180910390fd5b600080611b2e85856122dc565b91509150611b3f878784848761222a565b50505050505050565b600033905090565b611b5861230c565b6000600360006101000a81548160ff0219169083151502179055507f5db9ee0a495bf2e6ff9c91a7834c1ba4fdd244a5e8aa4e537bd38aeae4b073aa611b9c611b48565b604051611ba991906134f9565b60405180910390a1565b600060208202602084010151905092915050565b600060208202602084010151905092915050565b600073ffffffffffffffffffffffffffffffffffffffff168373ffffffffffffffffffffffffffffffffffffffff1603611c4d5760006040517f01a83514000000000000000000000000000000000000000000000000000000008152600401611c4491906134f9565b60405180910390fd5b611c6a83600084846040518060200160405280600081525061222a565b505050565b611c7761234c565b6001600360006101000a81548160ff0219169083151502179055507f62e78cea01bee320cd4e420270b5ea74000d11b0c9f74754ebdbfc544b05a258611cbb611b48565b604051611cc891906134f9565b60405180910390a1565b600073ffffffffffffffffffffffffffffffffffffffff168273ffffffffffffffffffffffffffffffffffffffff1603611d445760006040517fced3e100000000000000000000000000000000000000000000000000000000008152600401611d3b91906134f9565b60405180910390fd5b80600160008573ffffffffffffffffffffffffffffffffffffffff1673ffffffffffffffffffffffffffffffffffffffff16815260200190815260200160002060008473ffffffffffffffffffffffffffffffffffffffff1673ffffffffffffffffffffffffffffffffffffffff16815260200190815260200160002060006101000a81548160ff0219169083151502179055508173ffffffffffffffffffffffffffffffffffffffff168373ffffffffffffffffffffffffffffffffffffffff167f17307eab39ab6107e8899845ad3d59bd9653f200f220920489ca2b5937696c3183604051611e359190612e06565b60405180910390a3505050565b80600760008481526020019081526020016000209081611e629190614298565b50817f6bb7ff708619ba0610cba295a58592e0451dee2622938c8755667688daf3529b611e8e846107bc565b604051611e9b9190612ede565b60405180910390a25050565b600073ffffffffffffffffffffffffffffffffffffffff168473ffffffffffffffffffffffffffffffffffffffff1603611f195760006040517f57f447ce000000000000000000000000000000000000000000000000000000008152600401611f1091906134f9565b60405180910390fd5b611f2760008585858561222a565b50505050565b600073ffffffffffffffffffffffffffffffffffffffff168473ffffffffffffffffffffffffffffffffffffffff1603611f9f5760006040517f57f447ce000000000000000000000000000000000000000000000000000000008152600401611f9691906134f9565b60405180910390fd5b600080611fac85856122dc565b91509150611fbe60008784848761222a565b505050505050565b600073ffffffffffffffffffffffffffffffffffffffff168373ffffffffffffffffffffffffffffffffffffffff16036120385760006040517f01a8351400000000000000000000000000000000000000000000000000000000815260040161202f91906134f9565b60405180910390fd5b60008061204584846122dc565b9150915061206685600084846040518060200160405280600081525061222a565b5050505050565b60007f01ffc9a7000000000000000000000000000000000000000000000000000000007bffffffffffffffffffffffffffffffffffffffffffffffffffffffff1916827bffffffffffffffffffffffffffffffffffffffffffffffffffffffff1916149050919050565b600080600090507a184f03e93ff9f4daa797ed6e38ed64bf6a1f0100000000000000008310612135577a184f03e93ff9f4daa797ed6e38ed64bf6a1f010000000000000000838161212b5761212a6140bd565b5b0492506040810190505b6d04ee2d6d415b85acef81000000008310612172576d04ee2d6d415b85acef81000000008381612168576121676140bd565b5b0492506020810190505b662386f26fc1000083106121a157662386f26fc100008381612197576121966140bd565b5b0492506010810190505b6305f5e10083106121ca576305f5e10083816121c0576121bf6140bd565b5b0492506008810190505b61271083106121ef5761271083816121e5576121e46140bd565b5b0492506004810190505b606483106122125760648381612208576122076140bd565b5b0492506002810190505b600a8310612221576001810190505b80915050919050565b6122368585858561238d565b600073ffffffffffffffffffffffffffffffffffffffff168473ffffffffffffffffffffffffffffffffffffffff16146122d5576000612274611b48565b905060018451036122c4576000612295600086611bc790919063ffffffff16565b905060006122ad600086611bc790919063ffffffff16565b90506122bd83898985858961239f565b50506122d3565b6122d2818787878787612553565b5b505b5050505050565b60608060405191506001825283602083015260408201905060018152826020820152604081016040529250929050565b612314610e78565b61234a576040517f8dfc202b00000000000000000000000000000000000000000000000000000000815260040160405180910390fd5b565b612354610e78565b1561238b576040517fd93c066500000000000000000000000000000000000000000000000000000000815260040160405180910390fd5b565b61239984848484612707565b50505050565b60008473ffffffffffffffffffffffffffffffffffffffff163b111561254b578373ffffffffffffffffffffffffffffffffffffffff1663f23a6e6187878686866040518663ffffffff1660e01b81526004016124009594939291906143bf565b6020604051808303816000875af192505050801561243c57506040513d601f19601f82011682018060405250810190612439919061442e565b60015b6124c0573d806000811461246c576040519150601f19603f3d011682016040523d82523d6000602084013e612471565b606091505b5060008151036124b857846040517f57f447ce0000000000000000000000000000000000000000000000000000000081526004016124af91906134f9565b60405180910390fd5b805181602001fd5b63f23a6e6160e01b7bffffffffffffffffffffffffffffffffffffffffffffffffffffffff1916817bffffffffffffffffffffffffffffffffffffffffffffffffffffffff19161461254957846040517f57f447ce00000000000000000000000000000000000000000000000000000000815260040161254091906134f9565b60405180910390fd5b505b505050505050565b60008473ffffffffffffffffffffffffffffffffffffffff163b11156126ff578373ffffffffffffffffffffffffffffffffffffffff1663bc197c8187878686866040518663ffffffff1660e01b81526004016125b495949392919061445b565b6020604051808303816000875af19250505080156125f057506040513d601f19601f820116820180604052508101906125ed919061442e565b60015b612674573d8060008114612620576040519150601f19603f3d011682016040523d82523d6000602084013e612625565b606091505b50600081510361266c57846040517f57f447ce00000000000000000000000000000000000000000000000000000000815260040161266391906134f9565b60405180910390fd5b805181602001fd5b63bc197c8160e01b7bffffffffffffffffffffffffffffffffffffffffffffffffffffffff1916817bffffffffffffffffffffffffffffffffffffffffffffffffffffffff1916146126fd57846040517f57f447ce0000000000000000000000000000000000000000000000000000000081526004016126f491906134f9565b60405180910390fd5b505b505050505050565b61271384848484612892565b600073ffffffffffffffffffffffffffffffffffffffff168473ffffffffffffffffffffffffffffffffffffffff16036127dd576000805b83518110156127c15760006127698285611bc790919063ffffffff16565b905080600460006127838589611bc790919063ffffffff16565b815260200190815260200160002060008282546127a09190613dd9565b9250508190555080836127b39190613dd9565b92505080600101905061274b565b5080600560008282546127d49190613dd9565b92505081905550505b600073ffffffffffffffffffffffffffffffffffffffff168373ffffffffffffffffffffffffffffffffffffffff160361288c576000805b83518110156128795760006128338285611bc790919063ffffffff16565b9050806004600061284d8589611bc790919063ffffffff16565b815260200190815260200160002060008282540392505081905550808301925050806001019050612815565b5080600560008282540392505081905550505b50505050565b61289a61234c565b6128a6848484846128ac565b50505050565b80518251146128f657815181516040517f5b0599910000000000000000000000000000000000000000000000000000000081526004016128ed929190613ce6565b60405180910390fd5b6000612900611b48565b905060005b8351811015612b0f5760006129238286611bc790919063ffffffff16565b9050600061293a8386611bc790919063ffffffff16565b9050600073ffffffffffffffffffffffffffffffffffffffff168873ffffffffffffffffffffffffffffffffffffffff1614612a6757600080600084815260200190815260200160002060008a73ffffffffffffffffffffffffffffffffffffffff1673ffffffffffffffffffffffffffffffffffffffff16815260200190815260200160002054905081811015612a0f57888183856040517f03dee4c5000000000000000000000000000000000000000000000000000000008152600401612a0694939291906144c3565b60405180910390fd5b81810360008085815260200190815260200160002060008b73ffffffffffffffffffffffffffffffffffffffff1673ffffffffffffffffffffffffffffffffffffffff16815260200190815260200160002081905550505b600073ffffffffffffffffffffffffffffffffffffffff168773ffffffffffffffffffffffffffffffffffffffff1614612b02578060008084815260200190815260200160002060008973ffffffffffffffffffffffffffffffffffffffff1673ffffffffffffffffffffffffffffffffffffffff1681526020019081526020016000206000828254612afa9190613dd9565b925050819055505b5050806001019050612905565b506001835103612bce576000612b2f600085611bc790919063ffffffff16565b90506000612b47600085611bc790919063ffffffff16565b90508573ffffffffffffffffffffffffffffffffffffffff168773ffffffffffffffffffffffffffffffffffffffff168473ffffffffffffffffffffffffffffffffffffffff167fc3d58168c5ae7397731d063d5bbf3d657854427343f4c083240f7aacaa2d0f628585604051612bbf929190613ce6565b60405180910390a45050612c4d565b8373ffffffffffffffffffffffffffffffffffffffff168573ffffffffffffffffffffffffffffffffffffffff168273ffffffffffffffffffffffffffffffffffffffff167f4a39dc06d4c0dbc64b70af90fd698a233a518aa5d07e595d983b8c0526c8f7fb8686604051612c44929190614508565b60405180910390a45b5050505050565b6000819050919050565b612c6781612c54565b82525050565b6000602082019050612c826000830184612c5e565b92915050565b6000604051905090565b600080fd5b600080fd5b600073ffffffffffffffffffffffffffffffffffffffff82169050919050565b6000612cc782612c9c565b9050919050565b612cd781612cbc565b8114612ce257600080fd5b50565b600081359050612cf481612cce565b92915050565b612d0381612c54565b8114612d0e57600080fd5b50565b600081359050612d2081612cfa565b92915050565b60008060408385031215612d3d57612d3c612c92565b5b6000612d4b85828601612ce5565b9250506020612d5c85828601612d11565b9150509250929050565b60007fffffffff0000000000000000000000000000000000000000000000000000000082169050919050565b612d9b81612d66565b8114612da657600080fd5b50565b600081359050612db881612d92565b92915050565b600060208284031215612dd457612dd3612c92565b5b6000612de284828501612da9565b91505092915050565b60008115159050919050565b612e0081612deb565b82525050565b6000602082019050612e1b6000830184612df7565b92915050565b600060208284031215612e3757612e36612c92565b5b6000612e4584828501612d11565b91505092915050565b600081519050919050565b600082825260208201905092915050565b60005b83811015612e88578082015181840152602081019050612e6d565b60008484015250505050565b6000601f19601f8301169050919050565b6000612eb082612e4e565b612eba8185612e59565b9350612eca818560208601612e6a565b612ed381612e94565b840191505092915050565b60006020820190508181036000830152612ef88184612ea5565b905092915050565b600080fd5b7f4e487b7100000000000000000000000000000000000000000000000000000000600052604160045260246000fd5b612f3d82612e94565b810181811067ffffffffffffffff82111715612f5c57612f5b612f05565b5b80604052505050565b6000612f6f612c88565b9050612f7b8282612f34565b919050565b600067ffffffffffffffff821115612f9b57612f9a612f05565b5b602082029050602081019050919050565b600080fd5b6000612fc4612fbf84612f80565b612f65565b90508083825260208201905060208402830185811115612fe757612fe6612fac565b5b835b818110156130105780612ffc8882612d11565b845260208401935050602081019050612fe9565b5050509392505050565b600082601f83011261302f5761302e612f00565b5b813561303f848260208601612fb1565b91505092915050565b600067ffffffffffffffff82111561306357613062612f05565b5b602082029050602081019050919050565b600061308761308284613048565b612f65565b905080838252602082019050602084028301858111156130aa576130a9612fac565b5b835b818110156130d357806130bf8882612ce5565b8452602084019350506020810190506130ac565b5050509392505050565b600082601f8301126130f2576130f1612f00565b5b8135613102848260208601613074565b91505092915050565b6000806040838503121561312257613121612c92565b5b600083013567ffffffffffffffff8111156131405761313f612c97565b5b61314c8582860161301a565b925050602083013567ffffffffffffffff81111561316d5761316c612c97565b5b613179858286016130dd565b9150509250929050565b600080fd5b600067ffffffffffffffff8211156131a3576131a2612f05565b5b6131ac82612e94565b9050602081019050919050565b82818337600083830152505050565b60006131db6131d684613188565b612f65565b9050828152602081018484840111156131f7576131f6613183565b5b6132028482856131b9565b509392505050565b600082601f83011261321f5761321e612f00565b5b813561322f8482602086016131c8565b91505092915050565b600080600080600060a0868803121561325457613253612c92565b5b600061326288828901612ce5565b955050602061327388828901612ce5565b945050604086013567ffffffffffffffff81111561329457613293612c97565b5b6132a08882890161301a565b935050606086013567ffffffffffffffff8111156132c1576132c0612c97565b5b6132cd8882890161301a565b925050608086013567ffffffffffffffff8111156132ee576132ed612c97565b5b6132fa8882890161320a565b9150509295509295909350565b6000806040838503121561331e5761331d612c92565b5b600083013567ffffffffffffffff81111561333c5761333b612c97565b5b613348858286016130dd565b925050602083013567ffffffffffffffff81111561336957613368612c97565b5b6133758582860161301a565b9150509250929050565b600081519050919050565b600082825260208201905092915050565b6000819050602082019050919050565b6133b481612c54565b82525050565b60006133c683836133ab565b60208301905092915050565b6000602082019050919050565b60006133ea8261337f565b6133f4818561338a565b93506133ff8361339b565b8060005b8381101561343057815161341788826133ba565b9750613422836133d2565b925050600181019050613403565b5085935050505092915050565b6000602082019050818103600083015261345781846133df565b905092915050565b60008060006060848603121561347857613477612c92565b5b600061348686828701612ce5565b935050602084013567ffffffffffffffff8111156134a7576134a6612c97565b5b6134b38682870161301a565b925050604084013567ffffffffffffffff8111156134d4576134d3612c97565b5b6134e08682870161301a565b9150509250925092565b6134f381612cbc565b82525050565b600060208201905061350e60008301846134ea565b92915050565b61351d81612deb565b811461352857600080fd5b50565b60008135905061353a81613514565b92915050565b6000806040838503121561355757613556612c92565b5b600061356585828601612ce5565b92505060206135768582860161352b565b9150509250929050565b600067ffffffffffffffff82111561359b5761359a612f05565b5b6135a482612e94565b9050602081019050919050565b60006135c46135bf84613580565b612f65565b9050828152602081018484840111156135e0576135df613183565b5b6135eb8482856131b9565b509392505050565b600082601f83011261360857613607612f00565b5b81356136188482602086016135b1565b91505092915050565b6000806000806080858703121561363b5761363a612c92565b5b600061364987828801612ce5565b945050602085013567ffffffffffffffff81111561366a57613669612c97565b5b613676878288016135f3565b935050604061368787828801612d11565b925050606085013567ffffffffffffffff8111156136a8576136a7612c97565b5b6136b48782880161301a565b91505092959194509250565b6000806000606084860312156136d9576136d8612c92565b5b60006136e786828701612ce5565b935050602084013567ffffffffffffffff81111561370857613707612c97565b5b613714868287016135f3565b925050604061372586828701612d11565b9150509250925092565b600080fd5b60008083601f84011261374a57613749612f00565b5b8235905067ffffffffffffffff8111156137675761376661372f565b5b60208301915083602082028301111561378357613782612fac565b5b9250929050565b60008083601f8401126137a05761379f612f00565b5b8235905067ffffffffffffffff8111156137bd576137bc61372f565b5b6020830191508360018202830111156137d9576137d8612fac565b5b9250929050565b60008060008060008060008060a0898b031215613800576137ff612c92565b5b600061380e8b828c01612ce5565b985050602061381f8b828c01612ce5565b975050604089013567ffffffffffffffff8111156138405761383f612c97565b5b61384c8b828c01613734565b9650965050606089013567ffffffffffffffff81111561386f5761386e612c97565b5b61387b8b828c01613734565b9450945050608089013567ffffffffffffffff81111561389e5761389d612c97565b5b6138aa8b828c0161378a565b92509250509295985092959890939650565b6138c581612d66565b82525050565b60006020820190506138e060008301846138bc565b92915050565b600080604083850312156138fd576138fc612c92565b5b600061390b85828601612ce5565b925050602061391c85828601612ce5565b9150509250929050565b60008060008060008060a0878903121561394357613942612c92565b5b600061395189828a01612ce5565b965050602061396289828a01612ce5565b955050604061397389828a01612d11565b945050606061398489828a01612d11565b935050608087013567ffffffffffffffff8111156139a5576139a4612c97565b5b6139b189828a0161378a565b92509250509295509295509295565b600080600080600060a086880312156139dc576139db612c92565b5b60006139ea88828901612ce5565b95505060206139fb88828901612ce5565b9450506040613a0c88828901612d11565b9350506060613a1d88828901612d11565b925050608086013567ffffffffffffffff811115613a3e57613a3d612c97565b5b613a4a8882890161320a565b9150509295509295909350565b600080600060608486031215613a7057613a6f612c92565b5b6000613a7e86828701612ce5565b9350506020613a8f86828701612d11565b9250506040613aa086828701612d11565b9150509250925092565b7f4e6f7420616e206f776e65722100000000000000000000000000000000000000600082015250565b6000613ae0600d83612e59565b9150613aeb82613aaa565b602082019050919050565b60006020820190508181036000830152613b0f81613ad3565b9050919050565b7f4e487b7100000000000000000000000000000000000000000000000000000000600052602260045260246000fd5b60006002820490506001821680613b5d57607f821691505b602082108103613b7057613b6f613b16565b5b50919050565b600081905092915050565b6000613b8c82612e4e565b613b968185613b76565b9350613ba6818560208601612e6a565b80840191505092915050565b7f2e6a736f6e000000000000000000000000000000000000000000000000000000815250565b6000613be48285613b81565b9150613bf08284613b81565b9150613bfb82613bb2565b6005820191508190509392505050565b6000604082019050613c2060008301856134ea565b613c2d60208301846134ea565b9392505050565b600081905092915050565b50565b6000613c4f600083613c34565b9150613c5a82613c3f565b600082019050919050565b6000613c7082613c42565b9150819050919050565b7f5478206572726f72210000000000000000000000000000000000000000000000600082015250565b6000613cb0600983612e59565b9150613cbb82613c7a565b602082019050919050565b60006020820190508181036000830152613cdf81613ca3565b9050919050565b6000604082019050613cfb6000830185612c5e565b613d086020830184612c5e565b9392505050565b7f4e487b7100000000000000000000000000000000000000000000000000000000600052603260045260246000fd5b7f456d707479205552492100000000000000000000000000000000000000000000600082015250565b6000613d74600a83612e59565b9150613d7f82613d3e565b602082019050919050565b60006020820190508181036000830152613da381613d67565b9050919050565b7f4e487b7100000000000000000000000000000000000000000000000000000000600052601160045260246000fd5b6000613de482612c54565b9150613def83612c54565b9250828201905080821115613e0757613e06613daa565b5b92915050565b7f4d617820737570706c7920726561636865642100000000000000000000000000600082015250565b6000613e43601383612e59565b9150613e4e82613e0d565b602082019050919050565b60006020820190508181036000830152613e7281613e36565b9050919050565b7f54686520636f6c6c656374696f6e206d757374206265203220746f203530204e60008201527f4654210000000000000000000000000000000000000000000000000000000000602082015250565b6000613ed5602383612e59565b9150613ee082613e79565b604082019050919050565b60006020820190508181036000830152613f0481613ec8565b9050919050565b7f496e636f7272656374206c656e67746821000000000000000000000000000000600082015250565b6000613f41601183612e59565b9150613f4c82613f0b565b602082019050919050565b60006020820190508181036000830152613f7081613f34565b9050919050565b6000613f8282612c54565b91507fffffffffffffffffffffffffffffffffffffffffffffffffffffffffffffffff8203613fb457613fb3613daa565b5b600182019050919050565b7f416d6f756e74206d757374206265206d6f7265207468656e2031210000000000600082015250565b6000613ff5601b83612e59565b915061400082613fbf565b602082019050919050565b6000602082019050818103600083015261402481613fe8565b9050919050565b7f4f6e6c7920746f6b656e73207768696368206d696e74656420696e207468697360008201527f20636f6e74726163742100000000000000000000000000000000000000000000602082015250565b6000614087602a83612e59565b91506140928261402b565b604082019050919050565b600060208201905081810360008301526140b68161407a565b9050919050565b7f4e487b7100000000000000000000000000000000000000000000000000000000600052601260045260246000fd5b60008190508160005260206000209050919050565b60006020601f8301049050919050565b600082821b905092915050565b60006008830261414e7fffffffffffffffffffffffffffffffffffffffffffffffffffffffffffffffff82614111565b6141588683614111565b95508019841693508086168417925050509392505050565b6000819050919050565b600061419561419061418b84612c54565b614170565b612c54565b9050919050565b6000819050919050565b6141af8361417a565b6141c36141bb8261419c565b84845461411e565b825550505050565b600090565b6141d86141cb565b6141e38184846141a6565b505050565b5b81811015614207576141fc6000826141d0565b6001810190506141e9565b5050565b601f82111561424c5761421d816140ec565b61422684614101565b81016020851015614235578190505b61424961424185614101565b8301826141e8565b50505b505050565b600082821c905092915050565b600061426f60001984600802614251565b1980831691505092915050565b6000614288838361425e565b9150826002028217905092915050565b6142a182612e4e565b67ffffffffffffffff8111156142ba576142b9612f05565b5b6142c48254613b45565b6142cf82828561420b565b600060209050601f83116001811461430257600084156142f0578287015190505b6142fa858261427c565b865550614362565b601f198416614310866140ec565b60005b8281101561433857848901518255600182019150602085019450602081019050614313565b868310156143555784890151614351601f89168261425e565b8355505b6001600288020188555050505b505050505050565b600081519050919050565b600082825260208201905092915050565b60006143918261436a565b61439b8185614375565b93506143ab818560208601612e6a565b6143b481612e94565b840191505092915050565b600060a0820190506143d460008301886134ea565b6143e160208301876134ea565b6143ee6040830186612c5e565b6143fb6060830185612c5e565b818103608083015261440d8184614386565b90509695505050505050565b60008151905061442881612d92565b92915050565b60006020828403121561444457614443612c92565b5b600061445284828501614419565b91505092915050565b600060a08201905061447060008301886134ea565b61447d60208301876134ea565b818103604083015261448f81866133df565b905081810360608301526144a381856133df565b905081810360808301526144b78184614386565b90509695505050505050565b60006080820190506144d860008301876134ea565b6144e56020830186612c5e565b6144f26040830185612c5e565b6144ff6060830184612c5e565b95945050505050565b6000604082019050818103600083015261452281856133df565b9050818103602083015261453681846133df565b9050939250505056fea26469706673582212202b01f5ca084fde84ea841f5e834bfee9174eb8c8465e2d6d3c95902da7da3f6064736f6c634300081c0033",
  "linkReferences": {},
  "deployedLinkReferences": {}
}