{
  "_format": "hh-sol-artifact-1",
  "contractName": "TokensERC1155",
  "sourceName": "contracts/TokensERC1155.sol",
  "abi": [
    {
      "inputs": [],
      "stateMutability": "nonpayable",
      "type": "constructor"
    },
    {
      "inputs": [
        {
          "internalType": "address",
          "name": "sender",
          "type": "address"
        },
        {
          "internalType": "uint256",
          "name": "balance",
          "type": "uint256"
        },
        {
          "internalType": "uint256",
          "name": "needed",
          "type": "uint256"
        },
        {
          "internalType": "uint256",
          "name": "tokenId",
          "type": "uint256"
        }
      ],
      "name": "ERC1155InsufficientBalance",
      "type": "error"
    },
    {
      "inputs": [
        {
          "internalType": "address",
          "name": "approver",
          "type": "address"
        }
      ],
      "name": "ERC1155InvalidApprover",
      "type": "error"
    },
    {
      "inputs": [
        {
          "internalType": "uint256",
          "name": "idsLength",
          "type": "uint256"
        },
        {
          "internalType": "uint256",
          "name": "valuesLength",
          "type": "uint256"
        }
      ],
      "name": "ERC1155InvalidArrayLength",
      "type": "error"
    },
    {
      "inputs": [
        {
          "internalType": "address",
          "name": "operator",
          "type": "address"
        }
      ],
      "name": "ERC1155InvalidOperator",
      "type": "error"
    },
    {
      "inputs": [
        {
          "internalType": "address",
          "name": "receiver",
          "type": "address"
        }
      ],
      "name": "ERC1155InvalidReceiver",
      "type": "error"
    },
    {
      "inputs": [
        {
          "internalType": "address",
          "name": "sender",
          "type": "address"
        }
      ],
      "name": "ERC1155InvalidSender",
      "type": "error"
    },
    {
      "inputs": [
        {
          "internalType": "address",
          "name": "operator",
          "type": "address"
        },
        {
          "internalType": "address",
          "name": "owner",
          "type": "address"
        }
      ],
      "name": "ERC1155MissingApprovalForAll",
      "type": "error"
    },
    {
      "inputs": [],
      "name": "EnforcedPause",
      "type": "error"
    },
    {
      "inputs": [],
      "name": "ExpectedPause",
      "type": "error"
    },
    {
      "anonymous": false,
      "inputs": [
        {
          "indexed": true,
          "internalType": "address",
          "name": "account",
          "type": "address"
        },
        {
          "indexed": true,
          "internalType": "address",
          "name": "operator",
          "type": "address"
        },
        {
          "indexed": false,
          "internalType": "bool",
          "name": "approved",
          "type": "bool"
        }
      ],
      "name": "ApprovalForAll",
      "type": "event"
    },
    {
      "anonymous": false,
      "inputs": [
        {
          "indexed": false,
          "internalType": "address",
          "name": "account",
          "type": "address"
        }
      ],
      "name": "Paused",
      "type": "event"
    },
    {
      "anonymous": false,
      "inputs": [
        {
          "indexed": true,
          "internalType": "address",
          "name": "operator",
          "type": "address"
        },
        {
          "indexed": true,
          "internalType": "address",
          "name": "from",
          "type": "address"
        },
        {
          "indexed": true,
          "internalType": "address",
          "name": "to",
          "type": "address"
        },
        {
          "indexed": false,
          "internalType": "uint256[]",
          "name": "ids",
          "type": "uint256[]"
        },
        {
          "indexed": false,
          "internalType": "uint256[]",
          "name": "values",
          "type": "uint256[]"
        }
      ],
      "name": "TransferBatch",
      "type": "event"
    },
    {
      "anonymous": false,
      "inputs": [
        {
          "indexed": true,
          "internalType": "address",
          "name": "operator",
          "type": "address"
        },
        {
          "indexed": true,
          "internalType": "address",
          "name": "from",
          "type": "address"
        },
        {
          "indexed": true,
          "internalType": "address",
          "name": "to",
          "type": "address"
        },
        {
          "indexed": false,
          "internalType": "uint256",
          "name": "id",
          "type": "uint256"
        },
        {
          "indexed": false,
          "internalType": "uint256",
          "name": "value",
          "type": "uint256"
        }
      ],
      "name": "TransferSingle",
      "type": "event"
    },
    {
      "anonymous": false,
      "inputs": [
        {
          "indexed": false,
          "internalType": "string",
          "name": "value",
          "type": "string"
        },
        {
          "indexed": true,
          "internalType": "uint256",
          "name": "id",
          "type": "uint256"
        }
      ],
      "name": "URI",
      "type": "event"
    },
    {
      "anonymous": false,
      "inputs": [
        {
          "indexed": false,
          "internalType": "address",
          "name": "account",
          "type": "address"
        }
      ],
      "name": "Unpaused",
      "type": "event"
    },
    {
      "inputs": [
        {
          "internalType": "address",
          "name": "account",
          "type": "address"
        },
        {
          "internalType": "uint256",
          "name": "id",
          "type": "uint256"
        }
      ],
      "name": "balanceOf",
      "outputs": [
        {
          "internalType": "uint256",
          "name": "",
          "type": "uint256"
        }
      ],
      "stateMutability": "view",
      "type": "function"
    },
    {
      "inputs": [
        {
          "internalType": "address[]",
          "name": "accounts",
          "type": "address[]"
        },
        {
          "internalType": "uint256[]",
          "name": "ids",
          "type": "uint256[]"
        }
      ],
      "name": "balanceOfBatch",
      "outputs": [
        {
          "internalType": "uint256[]",
          "name": "",
          "type": "uint256[]"
        }
      ],
      "stateMutability": "view",
      "type": "function"
    },
    {
      "inputs": [
        {
          "internalType": "address",
          "name": "account",
          "type": "address"
        },
        {
          "internalType": "uint256",
          "name": "id",
          "type": "uint256"
        },
        {
          "internalType": "uint256",
          "name": "value",
          "type": "uint256"
        }
      ],
      "name": "burn",
      "outputs": [],
      "stateMutability": "nonpayable",
      "type": "function"
    },
    {
      "inputs": [
        {
          "internalType": "address",
          "name": "account",
          "type": "address"
        },
        {
          "internalType": "uint256[]",
          "name": "ids",
          "type": "uint256[]"
        },
        {
          "internalType": "uint256[]",
          "name": "values",
          "type": "uint256[]"
        }
      ],
      "name": "burnBatch",
      "outputs": [],
      "stateMutability": "nonpayable",
      "type": "function"
    },
    {
      "inputs": [],
      "name": "currentTokenId",
      "outputs": [
        {
          "internalType": "uint256",
          "name": "",
          "type": "uint256"
        }
      ],
      "stateMutability": "view",
      "type": "function"
    },
    {
      "inputs": [
        {
          "internalType": "uint256",
          "name": "id",
          "type": "uint256"
        }
      ],
      "name": "exists",
      "outputs": [
        {
          "internalType": "bool",
          "name": "",
          "type": "bool"
        }
      ],
      "stateMutability": "view",
      "type": "function"
    },
    {
      "inputs": [
        {
          "internalType": "address",
          "name": "account",
          "type": "address"
        },
        {
          "internalType": "address",
          "name": "operator",
          "type": "address"
        }
      ],
      "name": "isApprovedForAll",
      "outputs": [
        {
          "internalType": "bool",
          "name": "",
          "type": "bool"
        }
      ],
      "stateMutability": "view",
      "type": "function"
    },
    {
      "inputs": [
        {
          "internalType": "address",
          "name": "to",
          "type": "address"
        },
        {
          "internalType": "uint256",
          "name": "id",
          "type": "uint256"
        },
        {
          "internalType": "uint256",
          "name": "value",
          "type": "uint256"
        }
      ],
      "name": "mintFT",
      "outputs": [],
      "stateMutability": "nonpayable",
      "type": "function"
    },
    {
      "inputs": [
        {
          "internalType": "address",
          "name": "to",
          "type": "address"
        },
        {
          "internalType": "string",
          "name": "tokenURI",
          "type": "string"
        },
        {
          "internalType": "uint256",
          "name": "collectionLength",
          "type": "uint256"
        },
        {
          "internalType": "uint256[]",
          "name": "values",
          "type": "uint256[]"
        }
      ],
      "name": "mintNFT",
      "outputs": [],
      "stateMutability": "nonpayable",
      "type": "function"
    },
    {
      "inputs": [
        {
          "internalType": "address",
          "name": "to",
          "type": "address"
        },
        {
          "internalType": "string",
          "name": "tokenURI",
          "type": "string"
        },
        {
          "internalType": "uint256",
          "name": "value",
          "type": "uint256"
        }
      ],
      "name": "mintNewFT",
      "outputs": [],
      "stateMutability": "nonpayable",
      "type": "function"
    },
    {
      "inputs": [
        {
          "internalType": "address",
          "name": "",
          "type": "address"
        },
        {
          "internalType": "address",
          "name": "",
          "type": "address"
        },
        {
          "internalType": "uint256[]",
          "name": "ids",
          "type": "uint256[]"
        },
        {
          "internalType": "uint256[]",
          "name": "",
          "type": "uint256[]"
        },
        {
          "internalType": "bytes",
          "name": "",
          "type": "bytes"
        }
      ],
      "name": "onERC1155BatchReceived",
      "outputs": [
        {
          "internalType": "bytes4",
          "name": "",
          "type": "bytes4"
        }
      ],
      "stateMutability": "view",
      "type": "function"
    },
    {
      "inputs": [
        {
          "internalType": "address",
          "name": "",
          "type": "address"
        },
        {
          "internalType": "address",
          "name": "",
          "type": "address"
        },
        {
          "internalType": "uint256",
          "name": "id",
          "type": "uint256"
        },
        {
          "internalType": "uint256",
          "name": "",
          "type": "uint256"
        },
        {
          "internalType": "bytes",
          "name": "",
          "type": "bytes"
        }
      ],
      "name": "onERC1155Received",
      "outputs": [
        {
          "internalType": "bytes4",
          "name": "",
          "type": "bytes4"
        }
      ],
      "stateMutability": "view",
      "type": "function"
    },
    {
      "inputs": [],
      "name": "owner",
      "outputs": [
        {
          "internalType": "address",
          "name": "",
          "type": "address"
        }
      ],
      "stateMutability": "view",
      "type": "function"
    },
    {
      "inputs": [],
      "name": "pause",
      "outputs": [],
      "stateMutability": "nonpayable",
      "type": "function"
    },
    {
      "inputs": [],
      "name": "paused",
      "outputs": [
        {
          "internalType": "bool",
          "name": "",
          "type": "bool"
        }
      ],
      "stateMutability": "view",
      "type": "function"
    },
    {
      "inputs": [
        {
          "internalType": "address",
          "name": "from",
          "type": "address"
        },
        {
          "internalType": "address",
          "name": "to",
          "type": "address"
        },
        {
          "internalType": "uint256[]",
          "name": "ids",
          "type": "uint256[]"
        },
        {
          "internalType": "uint256[]",
          "name": "values",
          "type": "uint256[]"
        },
        {
          "internalType": "bytes",
          "name": "data",
          "type": "bytes"
        }
      ],
      "name": "safeBatchTransferFrom",
      "outputs": [],
      "stateMutability": "nonpayable",
      "type": "function"
    },
    {
      "inputs": [
        {
          "internalType": "address",
          "name": "from",
          "type": "address"
        },
        {
          "internalType": "address",
          "name": "to",
          "type": "address"
        },
        {
          "internalType": "uint256",
          "name": "id",
          "type": "uint256"
        },
        {
          "internalType": "uint256",
          "name": "value",
          "type": "uint256"
        },
        {
          "internalType": "bytes",
          "name": "data",
          "type": "bytes"
        }
      ],
      "name": "safeTransferFrom",
      "outputs": [],
      "stateMutability": "nonpayable",
      "type": "function"
    },
    {
      "inputs": [
        {
          "internalType": "address",
          "name": "operator",
          "type": "address"
        },
        {
          "internalType": "bool",
          "name": "approved",
          "type": "bool"
        }
      ],
      "name": "setApprovalForAll",
      "outputs": [],
      "stateMutability": "nonpayable",
      "type": "function"
    },
    {
      "inputs": [
        {
          "internalType": "bytes4",
          "name": "interfaceId",
          "type": "bytes4"
        }
      ],
      "name": "supportsInterface",
      "outputs": [
        {
          "internalType": "bool",
          "name": "",
          "type": "bool"
        }
      ],
      "stateMutability": "view",
      "type": "function"
    },
    {
      "inputs": [],
      "name": "totalSupply",
      "outputs": [
        {
          "internalType": "uint256",
          "name": "",
          "type": "uint256"
        }
      ],
      "stateMutability": "view",
      "type": "function"
    },
    {
      "inputs": [
        {
          "internalType": "uint256",
          "name": "id",
          "type": "uint256"
        }
      ],
      "name": "totalSupply",
      "outputs": [
        {
          "internalType": "uint256",
          "name": "",
          "type": "uint256"
        }
      ],
      "stateMutability": "view",
      "type": "function"
    },
    {
      "inputs": [],
      "name": "unpause",
      "outputs": [],
      "stateMutability": "nonpayable",
      "type": "function"
    },
    {
      "inputs": [
        {
          "internalType": "uint256",
          "name": "tokenId",
          "type": "uint256"
        }
      ],
      "name": "uri",
      "outputs": [
        {
          "internalType": "string",
          "name": "",
          "type": "string"
        }
      ],
      "stateMutability": "view",
      "type": "function"
    },
    {
      "inputs": [
        {
          "internalType": "uint256[]",
          "name": "ids",
          "type": "uint256[]"
        },
        {
          "internalType": "address[]",
          "name": "accounts",
          "type": "address[]"
        }
      ],
      "name": "withdrawBatch",
      "outputs": [],
      "stateMutability": "nonpayable",
      "type": "function"
    },
    {
      "inputs": [
        {
          "internalType": "uint256",
          "name": "id",
          "type": "uint256"
        }
      ],
      "name": "withdrawSingle",
      "outputs": [],
      "stateMutability": "nonpayable",
      "type": "function"
    },
    {
      "stateMutability": "payable",
      "type": "receive"
    }
  ],
  "bytecode": "0x60a0604052600060065534801561001557600080fd5b50604051806020016040528060008152506100358161006f60201b60201c565b503373ffffffffffffffffffffffffffffffffffffffff1660808173ffffffffffffffffffffffffffffffffffffffff16815250506103a4565b806002908161007e91906102d2565b5050565b600081519050919050565b7f4e487b7100000000000000000000000000000000000000000000000000000000600052604160045260246000fd5b7f4e487b7100000000000000000000000000000000000000000000000000000000600052602260045260246000fd5b6000600282049050600182168061010357607f821691505b602082108103610116576101156100bc565b5b50919050565b60008190508160005260206000209050919050565b60006020601f8301049050919050565b600082821b905092915050565b60006008830261017e7fffffffffffffffffffffffffffffffffffffffffffffffffffffffffffffffff82610141565b6101888683610141565b95508019841693508086168417925050509392505050565b6000819050919050565b6000819050919050565b60006101cf6101ca6101c5846101a0565b6101aa565b6101a0565b9050919050565b6000819050919050565b6101e9836101b4565b6101fd6101f5826101d6565b84845461014e565b825550505050565b600090565b610212610205565b61021d8184846101e0565b505050565b5b818110156102415761023660008261020a565b600181019050610223565b5050565b601f821115610286576102578161011c565b61026084610131565b8101602085101561026f578190505b61028361027b85610131565b830182610222565b50505b505050565b600082821c905092915050565b60006102a96000198460080261028b565b1980831691505092915050565b60006102c28383610298565b9150826002028217905092915050565b6102db82610082565b67ffffffffffffffff8111156102f4576102f361008d565b5b6102fe82546100eb565b610309828285610245565b600060209050601f83116001811461033c576000841561032a578287015190505b61033485826102b6565b86555061039c565b601f19841661034a8661011c565b60005b828110156103725784890151825560018201915060208501945060208101905061034d565b8683101561038f578489015161038b601f891682610298565b8355505b6001600288020188555050505b505050505050565b60805161457461040560003960008181610652015281816109a801528181610c5901528181610cf101528181610e210152818161103e015281816110d6015281816110fa0152818161119a01528181611357015261147001526145746000f3fe6080604052600436106101685760003560e01c80636b20c454116100d1578063bd85b0391161008a578063e985e9c511610064578063e985e9c514610582578063f23a6e61146105bf578063f242432a146105fc578063f5298aca14610625576101b0565b8063bd85b039146104f3578063dc550e9c14610530578063de34ff3514610559576101b0565b80636b20c454146103f95780638456cb59146104225780638da5cb5b14610439578063950d02e214610464578063a22cb4651461048d578063bc197c81146104b6576101b0565b80632eb2c2d6116101235780632eb2c2d6146102eb5780633f4ba83a14610314578063400707121461032b5780634e1273f4146103545780634f558e79146103915780635c975abb146103ce576101b0565b80629a9b7b146101b5578062fdd58e146101e057806301ffc9a71461021d5780630e89341c1461025a57806318160ddd146102975780632a527cc5146102c2576101b0565b366101b05760006101ae576040517f08c379a00000000000000000000000000000000000000000000000000000000081526004016101a590612cc1565b60405180910390fd5b005b600080fd5b3480156101c157600080fd5b506101ca61064e565b6040516101d79190612cfa565b60405180910390f35b3480156101ec57600080fd5b5061020760048036038101906102029190612db3565b6106e6565b6040516102149190612cfa565b60405180910390f35b34801561022957600080fd5b50610244600480360381019061023f9190612e4b565b610740565b6040516102519190612e93565b60405180910390f35b34801561026657600080fd5b50610281600480360381019061027c9190612eae565b6107ba565b60405161028e9190612f5a565b60405180910390f35b3480156102a357600080fd5b506102ac6108e7565b6040516102b99190612cfa565b60405180910390f35b3480156102ce57600080fd5b506102e960048036038101906102e49190613179565b6108f1565b005b3480156102f757600080fd5b50610312600480360381019061030d91906132b9565b610baf565b005b34801561032057600080fd5b50610329610c57565b005b34801561033757600080fd5b50610352600480360381019061034d919061344b565b610cef565b005b34801561036057600080fd5b5061037b600480360381019061037691906134c3565b610e5c565b60405161038891906135f9565b60405180910390f35b34801561039d57600080fd5b506103b860048036038101906103b39190612eae565b610f65565b6040516103c59190612e93565b60405180910390f35b3480156103da57600080fd5b506103e3610f79565b6040516103f09190612e93565b60405180910390f35b34801561040557600080fd5b50610420600480360381019061041b919061361b565b610f90565b005b34801561042e57600080fd5b5061043761103c565b005b34801561044557600080fd5b5061044e6110d4565b60405161045b91906136b5565b60405180910390f35b34801561047057600080fd5b5061048b60048036038101906104869190612eae565b6110f8565b005b34801561049957600080fd5b506104b460048036038101906104af91906136fc565b6111d4565b005b3480156104c257600080fd5b506104dd60048036038101906104d891906137ed565b6111ea565b6040516104ea91906138d8565b60405180910390f35b3480156104ff57600080fd5b5061051a60048036038101906105159190612eae565b611282565b6040516105279190612cfa565b60405180910390f35b34801561053c57600080fd5b50610557600480360381019061055291906138f3565b61129f565b005b34801561056557600080fd5b50610580600480360381019061057b9190613962565b61146e565b005b34801561058e57600080fd5b506105a960048036038101906105a491906139b5565b61155f565b6040516105b69190612e93565b60405180910390f35b3480156105cb57600080fd5b506105e660048036038101906105e191906139f5565b6115f3565b6040516105f391906138d8565b60405180910390f35b34801561060857600080fd5b50610623600480360381019061061e9190613a8f565b611651565b005b34801561063157600080fd5b5061064c60048036038101906106479190613962565b6116f9565b005b60007f000000000000000000000000000000000000000000000000000000000000000073ffffffffffffffffffffffffffffffffffffffff163373ffffffffffffffffffffffffffffffffffffffff16146106de576040517f08c379a00000000000000000000000000000000000000000000000000000000081526004016106d590613b72565b60405180910390fd5b600654905090565b600080600083815260200190815260200160002060008473ffffffffffffffffffffffffffffffffffffffff1673ffffffffffffffffffffffffffffffffffffffff16815260200190815260200160002054905092915050565b60007f06145678000000000000000000000000000000000000000000000000000000007bffffffffffffffffffffffffffffffffffffffffffffffffffffffff1916827bffffffffffffffffffffffffffffffffffffffffffffffffffffffff191614806107b357506107b2826117a5565b5b9050919050565b606060006007600084815260200190815260200160002080546107dc90613bc1565b80601f016020809104026020016040519081016040528092919081815260200182805461080890613bc1565b80156108555780601f1061082a57610100808354040283529160200191610855565b820191906000526020600020905b81548152906001019060200180831161083857829003601f168201915b50505050509050600161086784611282565b111561089557600081511161088b576040518060200160405280600081525061088d565b805b9150506108e2565b60008151116108b357604051806020016040528060008152506108de565b806108bd84611887565b6040516020016108ce929190613c7a565b6040516020818303038152906040525b9150505b919050565b6000600554905090565b82826000825111610937576040517f08c379a000000000000000000000000000000000000000000000000000000000815260040161092e90613d08565b60405180910390fd5b7fffffffffffffffffffffffffffffffffffffffffffffffffffffffffffffffff816006546109669190613d57565b106109a6576040517f08c379a000000000000000000000000000000000000000000000000000000000815260040161099d90613dd7565b60405180910390fd5b7f000000000000000000000000000000000000000000000000000000000000000073ffffffffffffffffffffffffffffffffffffffff163373ffffffffffffffffffffffffffffffffffffffff1614610a34576040517f08c379a0000000000000000000000000000000000000000000000000000000008152600401610a2b90613b72565b60405180910390fd5b600184118015610a45575060328411155b610a84576040517f08c379a0000000000000000000000000000000000000000000000000000000008152600401610a7b90613e69565b60405180910390fd5b83835114610ac7576040517f08c379a0000000000000000000000000000000000000000000000000000000008152600401610abe90613ed5565b60405180910390fd5b60008467ffffffffffffffff811115610ae357610ae2612f86565b5b604051908082528060200260200182016040528015610b115781602001602082028036833780820191505090505b50905060005b85811015610b8a57600654828281518110610b3557610b34613ef5565b5b60200260200101818152505060066000815480929190610b5490613f24565b9190505550610b7d828281518110610b6f57610b6e613ef5565b5b602002602001015188611955565b8080600101915050610b17565b50610ba6878286604051806020016040528060008152506119ba565b50505050505050565b6000610bb9611a40565b90508073ffffffffffffffffffffffffffffffffffffffff168673ffffffffffffffffffffffffffffffffffffffff1614158015610bfe5750610bfc868261155f565b155b15610c425780866040517fe237d922000000000000000000000000000000000000000000000000000000008152600401610c39929190613f6c565b60405180910390fd5b610c4f8686868686611a48565b505050505050565b7f000000000000000000000000000000000000000000000000000000000000000073ffffffffffffffffffffffffffffffffffffffff163373ffffffffffffffffffffffffffffffffffffffff1614610ce5576040517f08c379a0000000000000000000000000000000000000000000000000000000008152600401610cdc90613b72565b60405180910390fd5b610ced611b40565b565b7f000000000000000000000000000000000000000000000000000000000000000073ffffffffffffffffffffffffffffffffffffffff163373ffffffffffffffffffffffffffffffffffffffff1614610d7d576040517f08c379a0000000000000000000000000000000000000000000000000000000008152600401610d7490613b72565b60405180910390fd5b8051825114610dc1576040517f08c379a0000000000000000000000000000000000000000000000000000000008152600401610db890613ed5565b60405180910390fd5b6000825167ffffffffffffffff811115610dde57610ddd612f86565b5b604051908082528060200260200182016040528015610e0c5781602001602082028036833780820191505090505b509050610e198284610e5c565b9050610e57307f0000000000000000000000000000000000000000000000000000000000000000858460405180602001604052806000815250611a48565b505050565b60608151835114610ea857815183516040517f5b059991000000000000000000000000000000000000000000000000000000008152600401610e9f929190613f95565b60405180910390fd5b6000835167ffffffffffffffff811115610ec557610ec4612f86565b5b604051908082528060200260200182016040528015610ef35781602001602082028036833780820191505090505b50905060005b8451811015610f5a57610f30610f188287611ba390919063ffffffff16565b610f2b8387611bb790919063ffffffff16565b6106e6565b828281518110610f4357610f42613ef5565b5b602002602001018181525050806001019050610ef9565b508091505092915050565b600080610f7183611282565b119050919050565b6000600360009054906101000a900460ff16905090565b610f98611a40565b73ffffffffffffffffffffffffffffffffffffffff168373ffffffffffffffffffffffffffffffffffffffff1614158015610fe15750610fdf83610fda611a40565b61155f565b155b1561102c57610fee611a40565b836040517fe237d922000000000000000000000000000000000000000000000000000000008152600401611023929190613f6c565b60405180910390fd5b611037838383611bcb565b505050565b7f000000000000000000000000000000000000000000000000000000000000000073ffffffffffffffffffffffffffffffffffffffff163373ffffffffffffffffffffffffffffffffffffffff16146110ca576040517f08c379a00000000000000000000000000000000000000000000000000000000081526004016110c190613b72565b60405180910390fd5b6110d2611c5f565b565b7f000000000000000000000000000000000000000000000000000000000000000081565b7f000000000000000000000000000000000000000000000000000000000000000073ffffffffffffffffffffffffffffffffffffffff163373ffffffffffffffffffffffffffffffffffffffff1614611186576040517f08c379a000000000000000000000000000000000000000000000000000000000815260040161117d90613b72565b60405180910390fd5b600061119230836106e6565b90506111d0307f0000000000000000000000000000000000000000000000000000000000000000848460405180602001604052806000815250611cc2565b5050565b6111e66111df611a40565b8383611dcd565b5050565b600080600090505b8787905081101561126b5761121f88888381811061121357611212613ef5565b5b90506020020135610f65565b61125e576040517f08c379a000000000000000000000000000000000000000000000000000000000815260040161125590614030565b60405180910390fd5b80806001019150506111f2565b5063bc197c8160e01b905098975050505050505050565b600060046000838152602001908152602001600020549050919050565b81600160008251116112e6576040517f08c379a00000000000000000000000000000000000000000000000000000000081526004016112dd90613d08565b60405180910390fd5b7fffffffffffffffffffffffffffffffffffffffffffffffffffffffffffffffff816006546113159190613d57565b10611355576040517f08c379a000000000000000000000000000000000000000000000000000000000815260040161134c90613dd7565b60405180910390fd5b7f000000000000000000000000000000000000000000000000000000000000000073ffffffffffffffffffffffffffffffffffffffff163373ffffffffffffffffffffffffffffffffffffffff16146113e3576040517f08c379a00000000000000000000000000000000000000000000000000000000081526004016113da90613b72565b60405180910390fd5b60018311611426576040517f08c379a000000000000000000000000000000000000000000000000000000000815260040161141d9061409c565b60405180910390fd5b611443856006548560405180602001604052806000815250611f3d565b61144f60065485611955565b6006600081548092919061146290613f24565b91905055505050505050565b7f000000000000000000000000000000000000000000000000000000000000000073ffffffffffffffffffffffffffffffffffffffff163373ffffffffffffffffffffffffffffffffffffffff16146114fc576040517f08c379a00000000000000000000000000000000000000000000000000000000081526004016114f390613b72565b60405180910390fd5b6001811161153f576040517f08c379a00000000000000000000000000000000000000000000000000000000081526004016115369061409c565b60405180910390fd5b61155a83838360405180602001604052806000815250611f3d565b505050565b6000600160008473ffffffffffffffffffffffffffffffffffffffff1673ffffffffffffffffffffffffffffffffffffffff16815260200190815260200160002060008373ffffffffffffffffffffffffffffffffffffffff1673ffffffffffffffffffffffffffffffffffffffff16815260200190815260200160002060009054906101000a900460ff16905092915050565b60006115fe85610f65565b61163d576040517f08c379a000000000000000000000000000000000000000000000000000000000815260040161163490614030565b60405180910390fd5b63f23a6e6160e01b90509695505050505050565b600061165b611a40565b90508073ffffffffffffffffffffffffffffffffffffffff168673ffffffffffffffffffffffffffffffffffffffff16141580156116a0575061169e868261155f565b155b156116e45780866040517fe237d9220000000000000000000000000000000000000000000000000000000081526004016116db929190613f6c565b60405180910390fd5b6116f18686868686611cc2565b505050505050565b611701611a40565b73ffffffffffffffffffffffffffffffffffffffff168373ffffffffffffffffffffffffffffffffffffffff161415801561174a575061174883611743611a40565b61155f565b155b1561179557611757611a40565b836040517fe237d92200000000000000000000000000000000000000000000000000000000815260040161178c929190613f6c565b60405180910390fd5b6117a0838383611fd6565b505050565b60007fd9b67a26000000000000000000000000000000000000000000000000000000007bffffffffffffffffffffffffffffffffffffffffffffffffffffffff1916827bffffffffffffffffffffffffffffffffffffffffffffffffffffffff1916148061187057507f0e89341c000000000000000000000000000000000000000000000000000000007bffffffffffffffffffffffffffffffffffffffffffffffffffffffff1916827bffffffffffffffffffffffffffffffffffffffffffffffffffffffff1916145b80611880575061187f8261207d565b5b9050919050565b606060006001611896846120e7565b01905060008167ffffffffffffffff8111156118b5576118b4612f86565b5b6040519080825280601f01601f1916602001820160405280156118e75781602001600182028036833780820191505090505b509050600082602001820190505b60011561194a578080600190039150507f3031323334353637383961626364656600000000000000000000000000000000600a86061a8153600a858161193e5761193d6140bc565b5b049450600085036118f5575b819350505050919050565b806007600084815260200190815260200160002090816119759190614297565b50817f6bb7ff708619ba0610cba295a58592e0451dee2622938c8755667688daf3529b6119a1846107ba565b6040516119ae9190612f5a565b60405180910390a25050565b600073ffffffffffffffffffffffffffffffffffffffff168473ffffffffffffffffffffffffffffffffffffffff1603611a2c5760006040517f57f447ce000000000000000000000000000000000000000000000000000000008152600401611a2391906136b5565b60405180910390fd5b611a3a60008585858561223a565b50505050565b600033905090565b600073ffffffffffffffffffffffffffffffffffffffff168473ffffffffffffffffffffffffffffffffffffffff1603611aba5760006040517f57f447ce000000000000000000000000000000000000000000000000000000008152600401611ab191906136b5565b60405180910390fd5b600073ffffffffffffffffffffffffffffffffffffffff168573ffffffffffffffffffffffffffffffffffffffff1603611b2c5760006040517f01a83514000000000000000000000000000000000000000000000000000000008152600401611b2391906136b5565b60405180910390fd5b611b39858585858561223a565b5050505050565b611b486122ec565b6000600360006101000a81548160ff0219169083151502179055507f5db9ee0a495bf2e6ff9c91a7834c1ba4fdd244a5e8aa4e537bd38aeae4b073aa611b8c611a40565b604051611b9991906136b5565b60405180910390a1565b600060208202602084010151905092915050565b600060208202602084010151905092915050565b600073ffffffffffffffffffffffffffffffffffffffff168373ffffffffffffffffffffffffffffffffffffffff1603611c3d5760006040517f01a83514000000000000000000000000000000000000000000000000000000008152600401611c3491906136b5565b60405180910390fd5b611c5a83600084846040518060200160405280600081525061223a565b505050565b611c6761232c565b6001600360006101000a81548160ff0219169083151502179055507f62e78cea01bee320cd4e420270b5ea74000d11b0c9f74754ebdbfc544b05a258611cab611a40565b604051611cb891906136b5565b60405180910390a1565b600073ffffffffffffffffffffffffffffffffffffffff168473ffffffffffffffffffffffffffffffffffffffff1603611d345760006040517f57f447ce000000000000000000000000000000000000000000000000000000008152600401611d2b91906136b5565b60405180910390fd5b600073ffffffffffffffffffffffffffffffffffffffff168573ffffffffffffffffffffffffffffffffffffffff1603611da65760006040517f01a83514000000000000000000000000000000000000000000000000000000008152600401611d9d91906136b5565b60405180910390fd5b600080611db3858561236d565b91509150611dc4878784848761223a565b50505050505050565b600073ffffffffffffffffffffffffffffffffffffffff168273ffffffffffffffffffffffffffffffffffffffff1603611e3f5760006040517fced3e100000000000000000000000000000000000000000000000000000000008152600401611e3691906136b5565b60405180910390fd5b80600160008573ffffffffffffffffffffffffffffffffffffffff1673ffffffffffffffffffffffffffffffffffffffff16815260200190815260200160002060008473ffffffffffffffffffffffffffffffffffffffff1673ffffffffffffffffffffffffffffffffffffffff16815260200190815260200160002060006101000a81548160ff0219169083151502179055508173ffffffffffffffffffffffffffffffffffffffff168373ffffffffffffffffffffffffffffffffffffffff167f17307eab39ab6107e8899845ad3d59bd9653f200f220920489ca2b5937696c3183604051611f309190612e93565b60405180910390a3505050565b600073ffffffffffffffffffffffffffffffffffffffff168473ffffffffffffffffffffffffffffffffffffffff1603611faf5760006040517f57f447ce000000000000000000000000000000000000000000000000000000008152600401611fa691906136b5565b60405180910390fd5b600080611fbc858561236d565b91509150611fce60008784848761223a565b505050505050565b600073ffffffffffffffffffffffffffffffffffffffff168373ffffffffffffffffffffffffffffffffffffffff16036120485760006040517f01a8351400000000000000000000000000000000000000000000000000000000815260040161203f91906136b5565b60405180910390fd5b600080612055848461236d565b9150915061207685600084846040518060200160405280600081525061223a565b5050505050565b60007f01ffc9a7000000000000000000000000000000000000000000000000000000007bffffffffffffffffffffffffffffffffffffffffffffffffffffffff1916827bffffffffffffffffffffffffffffffffffffffffffffffffffffffff1916149050919050565b600080600090507a184f03e93ff9f4daa797ed6e38ed64bf6a1f0100000000000000008310612145577a184f03e93ff9f4daa797ed6e38ed64bf6a1f010000000000000000838161213b5761213a6140bc565b5b0492506040810190505b6d04ee2d6d415b85acef81000000008310612182576d04ee2d6d415b85acef81000000008381612178576121776140bc565b5b0492506020810190505b662386f26fc1000083106121b157662386f26fc1000083816121a7576121a66140bc565b5b0492506010810190505b6305f5e10083106121da576305f5e10083816121d0576121cf6140bc565b5b0492506008810190505b61271083106121ff5761271083816121f5576121f46140bc565b5b0492506004810190505b606483106122225760648381612218576122176140bc565b5b0492506002810190505b600a8310612231576001810190505b80915050919050565b6122468585858561239d565b600073ffffffffffffffffffffffffffffffffffffffff168473ffffffffffffffffffffffffffffffffffffffff16146122e5576000612284611a40565b905060018451036122d45760006122a5600086611bb790919063ffffffff16565b905060006122bd600086611bb790919063ffffffff16565b90506122cd8389898585896123af565b50506122e3565b6122e2818787878787612563565b5b505b5050505050565b6122f4610f79565b61232a576040517f8dfc202b00000000000000000000000000000000000000000000000000000000815260040160405180910390fd5b565b612334610f79565b1561236b576040517fd93c066500000000000000000000000000000000000000000000000000000000815260040160405180910390fd5b565b60608060405191506001825283602083015260408201905060018152826020820152604081016040529250929050565b6123a984848484612717565b50505050565b60008473ffffffffffffffffffffffffffffffffffffffff163b111561255b578373ffffffffffffffffffffffffffffffffffffffff1663f23a6e6187878686866040518663ffffffff1660e01b81526004016124109594939291906143be565b6020604051808303816000875af192505050801561244c57506040513d601f19601f82011682018060405250810190612449919061442d565b60015b6124d0573d806000811461247c576040519150601f19603f3d011682016040523d82523d6000602084013e612481565b606091505b5060008151036124c857846040517f57f447ce0000000000000000000000000000000000000000000000000000000081526004016124bf91906136b5565b60405180910390fd5b805181602001fd5b63f23a6e6160e01b7bffffffffffffffffffffffffffffffffffffffffffffffffffffffff1916817bffffffffffffffffffffffffffffffffffffffffffffffffffffffff19161461255957846040517f57f447ce00000000000000000000000000000000000000000000000000000000815260040161255091906136b5565b60405180910390fd5b505b505050505050565b60008473ffffffffffffffffffffffffffffffffffffffff163b111561270f578373ffffffffffffffffffffffffffffffffffffffff1663bc197c8187878686866040518663ffffffff1660e01b81526004016125c495949392919061445a565b6020604051808303816000875af192505050801561260057506040513d601f19601f820116820180604052508101906125fd919061442d565b60015b612684573d8060008114612630576040519150601f19603f3d011682016040523d82523d6000602084013e612635565b606091505b50600081510361267c57846040517f57f447ce00000000000000000000000000000000000000000000000000000000815260040161267391906136b5565b60405180910390fd5b805181602001fd5b63bc197c8160e01b7bffffffffffffffffffffffffffffffffffffffffffffffffffffffff1916817bffffffffffffffffffffffffffffffffffffffffffffffffffffffff19161461270d57846040517f57f447ce00000000000000000000000000000000000000000000000000000000815260040161270491906136b5565b60405180910390fd5b505b505050505050565b612723848484846128a2565b600073ffffffffffffffffffffffffffffffffffffffff168473ffffffffffffffffffffffffffffffffffffffff16036127ed576000805b83518110156127d15760006127798285611bb790919063ffffffff16565b905080600460006127938589611bb790919063ffffffff16565b815260200190815260200160002060008282546127b09190613d57565b9250508190555080836127c39190613d57565b92505080600101905061275b565b5080600560008282546127e49190613d57565b92505081905550505b600073ffffffffffffffffffffffffffffffffffffffff168373ffffffffffffffffffffffffffffffffffffffff160361289c576000805b83518110156128895760006128438285611bb790919063ffffffff16565b9050806004600061285d8589611bb790919063ffffffff16565b815260200190815260200160002060008282540392505081905550808301925050806001019050612825565b5080600560008282540392505081905550505b50505050565b6128aa61232c565b6128b6848484846128bc565b50505050565b805182511461290657815181516040517f5b0599910000000000000000000000000000000000000000000000000000000081526004016128fd929190613f95565b60405180910390fd5b6000612910611a40565b905060005b8351811015612b1f5760006129338286611bb790919063ffffffff16565b9050600061294a8386611bb790919063ffffffff16565b9050600073ffffffffffffffffffffffffffffffffffffffff168873ffffffffffffffffffffffffffffffffffffffff1614612a7757600080600084815260200190815260200160002060008a73ffffffffffffffffffffffffffffffffffffffff1673ffffffffffffffffffffffffffffffffffffffff16815260200190815260200160002054905081811015612a1f57888183856040517f03dee4c5000000000000000000000000000000000000000000000000000000008152600401612a1694939291906144c2565b60405180910390fd5b81810360008085815260200190815260200160002060008b73ffffffffffffffffffffffffffffffffffffffff1673ffffffffffffffffffffffffffffffffffffffff16815260200190815260200160002081905550505b600073ffffffffffffffffffffffffffffffffffffffff168773ffffffffffffffffffffffffffffffffffffffff1614612b12578060008084815260200190815260200160002060008973ffffffffffffffffffffffffffffffffffffffff1673ffffffffffffffffffffffffffffffffffffffff1681526020019081526020016000206000828254612b0a9190613d57565b925050819055505b5050806001019050612915565b506001835103612bde576000612b3f600085611bb790919063ffffffff16565b90506000612b57600085611bb790919063ffffffff16565b90508573ffffffffffffffffffffffffffffffffffffffff168773ffffffffffffffffffffffffffffffffffffffff168473ffffffffffffffffffffffffffffffffffffffff167fc3d58168c5ae7397731d063d5bbf3d657854427343f4c083240f7aacaa2d0f628585604051612bcf929190613f95565b60405180910390a45050612c5d565b8373ffffffffffffffffffffffffffffffffffffffff168573ffffffffffffffffffffffffffffffffffffffff168273ffffffffffffffffffffffffffffffffffffffff167f4a39dc06d4c0dbc64b70af90fd698a233a518aa5d07e595d983b8c0526c8f7fb8686604051612c54929190614507565b60405180910390a45b5050505050565b600082825260208201905092915050565b7f4920646f6e742072656365697665204554482100000000000000000000000000600082015250565b6000612cab601383612c64565b9150612cb682612c75565b602082019050919050565b60006020820190508181036000830152612cda81612c9e565b9050919050565b6000819050919050565b612cf481612ce1565b82525050565b6000602082019050612d0f6000830184612ceb565b92915050565b6000604051905090565b600080fd5b600080fd5b600073ffffffffffffffffffffffffffffffffffffffff82169050919050565b6000612d5482612d29565b9050919050565b612d6481612d49565b8114612d6f57600080fd5b50565b600081359050612d8181612d5b565b92915050565b612d9081612ce1565b8114612d9b57600080fd5b50565b600081359050612dad81612d87565b92915050565b60008060408385031215612dca57612dc9612d1f565b5b6000612dd885828601612d72565b9250506020612de985828601612d9e565b9150509250929050565b60007fffffffff0000000000000000000000000000000000000000000000000000000082169050919050565b612e2881612df3565b8114612e3357600080fd5b50565b600081359050612e4581612e1f565b92915050565b600060208284031215612e6157612e60612d1f565b5b6000612e6f84828501612e36565b91505092915050565b60008115159050919050565b612e8d81612e78565b82525050565b6000602082019050612ea86000830184612e84565b92915050565b600060208284031215612ec457612ec3612d1f565b5b6000612ed284828501612d9e565b91505092915050565b600081519050919050565b60005b83811015612f04578082015181840152602081019050612ee9565b60008484015250505050565b6000601f19601f8301169050919050565b6000612f2c82612edb565b612f368185612c64565b9350612f46818560208601612ee6565b612f4f81612f10565b840191505092915050565b60006020820190508181036000830152612f748184612f21565b905092915050565b600080fd5b600080fd5b7f4e487b7100000000000000000000000000000000000000000000000000000000600052604160045260246000fd5b612fbe82612f10565b810181811067ffffffffffffffff82111715612fdd57612fdc612f86565b5b80604052505050565b6000612ff0612d15565b9050612ffc8282612fb5565b919050565b600067ffffffffffffffff82111561301c5761301b612f86565b5b61302582612f10565b9050602081019050919050565b82818337600083830152505050565b600061305461304f84613001565b612fe6565b9050828152602081018484840111156130705761306f612f81565b5b61307b848285613032565b509392505050565b600082601f83011261309857613097612f7c565b5b81356130a8848260208601613041565b91505092915050565b600067ffffffffffffffff8211156130cc576130cb612f86565b5b602082029050602081019050919050565b600080fd5b60006130f56130f0846130b1565b612fe6565b90508083825260208201905060208402830185811115613118576131176130dd565b5b835b81811015613141578061312d8882612d9e565b84526020840193505060208101905061311a565b5050509392505050565b600082601f8301126131605761315f612f7c565b5b81356131708482602086016130e2565b91505092915050565b6000806000806080858703121561319357613192612d1f565b5b60006131a187828801612d72565b945050602085013567ffffffffffffffff8111156131c2576131c1612d24565b5b6131ce87828801613083565b93505060406131df87828801612d9e565b925050606085013567ffffffffffffffff811115613200576131ff612d24565b5b61320c8782880161314b565b91505092959194509250565b600067ffffffffffffffff82111561323357613232612f86565b5b61323c82612f10565b9050602081019050919050565b600061325c61325784613218565b612fe6565b90508281526020810184848401111561327857613277612f81565b5b613283848285613032565b509392505050565b600082601f8301126132a05761329f612f7c565b5b81356132b0848260208601613249565b91505092915050565b600080600080600060a086880312156132d5576132d4612d1f565b5b60006132e388828901612d72565b95505060206132f488828901612d72565b945050604086013567ffffffffffffffff81111561331557613314612d24565b5b6133218882890161314b565b935050606086013567ffffffffffffffff81111561334257613341612d24565b5b61334e8882890161314b565b925050608086013567ffffffffffffffff81111561336f5761336e612d24565b5b61337b8882890161328b565b9150509295509295909350565b600067ffffffffffffffff8211156133a3576133a2612f86565b5b602082029050602081019050919050565b60006133c76133c284613388565b612fe6565b905080838252602082019050602084028301858111156133ea576133e96130dd565b5b835b8181101561341357806133ff8882612d72565b8452602084019350506020810190506133ec565b5050509392505050565b600082601f83011261343257613431612f7c565b5b81356134428482602086016133b4565b91505092915050565b6000806040838503121561346257613461612d1f565b5b600083013567ffffffffffffffff8111156134805761347f612d24565b5b61348c8582860161314b565b925050602083013567ffffffffffffffff8111156134ad576134ac612d24565b5b6134b98582860161341d565b9150509250929050565b600080604083850312156134da576134d9612d1f565b5b600083013567ffffffffffffffff8111156134f8576134f7612d24565b5b6135048582860161341d565b925050602083013567ffffffffffffffff81111561352557613524612d24565b5b6135318582860161314b565b9150509250929050565b600081519050919050565b600082825260208201905092915050565b6000819050602082019050919050565b61357081612ce1565b82525050565b60006135828383613567565b60208301905092915050565b6000602082019050919050565b60006135a68261353b565b6135b08185613546565b93506135bb83613557565b8060005b838110156135ec5781516135d38882613576565b97506135de8361358e565b9250506001810190506135bf565b5085935050505092915050565b60006020820190508181036000830152613613818461359b565b905092915050565b60008060006060848603121561363457613633612d1f565b5b600061364286828701612d72565b935050602084013567ffffffffffffffff81111561366357613662612d24565b5b61366f8682870161314b565b925050604084013567ffffffffffffffff8111156136905761368f612d24565b5b61369c8682870161314b565b9150509250925092565b6136af81612d49565b82525050565b60006020820190506136ca60008301846136a6565b92915050565b6136d981612e78565b81146136e457600080fd5b50565b6000813590506136f6816136d0565b92915050565b6000806040838503121561371357613712612d1f565b5b600061372185828601612d72565b9250506020613732858286016136e7565b9150509250929050565b600080fd5b60008083601f84011261375757613756612f7c565b5b8235905067ffffffffffffffff8111156137745761377361373c565b5b6020830191508360208202830111156137905761378f6130dd565b5b9250929050565b60008083601f8401126137ad576137ac612f7c565b5b8235905067ffffffffffffffff8111156137ca576137c961373c565b5b6020830191508360018202830111156137e6576137e56130dd565b5b9250929050565b60008060008060008060008060a0898b03121561380d5761380c612d1f565b5b600061381b8b828c01612d72565b985050602061382c8b828c01612d72565b975050604089013567ffffffffffffffff81111561384d5761384c612d24565b5b6138598b828c01613741565b9650965050606089013567ffffffffffffffff81111561387c5761387b612d24565b5b6138888b828c01613741565b9450945050608089013567ffffffffffffffff8111156138ab576138aa612d24565b5b6138b78b828c01613797565b92509250509295985092959890939650565b6138d281612df3565b82525050565b60006020820190506138ed60008301846138c9565b92915050565b60008060006060848603121561390c5761390b612d1f565b5b600061391a86828701612d72565b935050602084013567ffffffffffffffff81111561393b5761393a612d24565b5b61394786828701613083565b925050604061395886828701612d9e565b9150509250925092565b60008060006060848603121561397b5761397a612d1f565b5b600061398986828701612d72565b935050602061399a86828701612d9e565b92505060406139ab86828701612d9e565b9150509250925092565b600080604083850312156139cc576139cb612d1f565b5b60006139da85828601612d72565b92505060206139eb85828601612d72565b9150509250929050565b60008060008060008060a08789031215613a1257613a11612d1f565b5b6000613a2089828a01612d72565b9650506020613a3189828a01612d72565b9550506040613a4289828a01612d9e565b9450506060613a5389828a01612d9e565b935050608087013567ffffffffffffffff811115613a7457613a73612d24565b5b613a8089828a01613797565b92509250509295509295509295565b600080600080600060a08688031215613aab57613aaa612d1f565b5b6000613ab988828901612d72565b9550506020613aca88828901612d72565b9450506040613adb88828901612d9e565b9350506060613aec88828901612d9e565b925050608086013567ffffffffffffffff811115613b0d57613b0c612d24565b5b613b198882890161328b565b9150509295509295909350565b7f4e6f7420616e206f776e65722100000000000000000000000000000000000000600082015250565b6000613b5c600d83612c64565b9150613b6782613b26565b602082019050919050565b60006020820190508181036000830152613b8b81613b4f565b9050919050565b7f4e487b7100000000000000000000000000000000000000000000000000000000600052602260045260246000fd5b60006002820490506001821680613bd957607f821691505b602082108103613bec57613beb613b92565b5b50919050565b600081905092915050565b6000613c0882612edb565b613c128185613bf2565b9350613c22818560208601612ee6565b80840191505092915050565b7f6d657461646174615f0000000000000000000000000000000000000000000000815250565b7f2e6a736f6e000000000000000000000000000000000000000000000000000000815250565b6000613c868285613bfd565b9150613c9182613c2e565b600982019150613ca18284613bfd565b9150613cac82613c54565b6005820191508190509392505050565b7f456d707479205552492100000000000000000000000000000000000000000000600082015250565b6000613cf2600a83612c64565b9150613cfd82613cbc565b602082019050919050565b60006020820190508181036000830152613d2181613ce5565b9050919050565b7f4e487b7100000000000000000000000000000000000000000000000000000000600052601160045260246000fd5b6000613d6282612ce1565b9150613d6d83612ce1565b9250828201905080821115613d8557613d84613d28565b5b92915050565b7f4d617820746f74616c537570706c792072656163686564210000000000000000600082015250565b6000613dc1601883612c64565b9150613dcc82613d8b565b602082019050919050565b60006020820190508181036000830152613df081613db4565b9050919050565b7f54686520636f6c6c656374696f6e206d757374206265203220746f203530204e60008201527f4654210000000000000000000000000000000000000000000000000000000000602082015250565b6000613e53602383612c64565b9150613e5e82613df7565b604082019050919050565b60006020820190508181036000830152613e8281613e46565b9050919050565b7f496e636f7272656374206c656e67746821000000000000000000000000000000600082015250565b6000613ebf601183612c64565b9150613eca82613e89565b602082019050919050565b60006020820190508181036000830152613eee81613eb2565b9050919050565b7f4e487b7100000000000000000000000000000000000000000000000000000000600052603260045260246000fd5b6000613f2f82612ce1565b91507fffffffffffffffffffffffffffffffffffffffffffffffffffffffffffffffff8203613f6157613f60613d28565b5b600182019050919050565b6000604082019050613f8160008301856136a6565b613f8e60208301846136a6565b9392505050565b6000604082019050613faa6000830185612ceb565b613fb76020830184612ceb565b9392505050565b7f4f6e6c7920746f6b656e73207768696368206d696e74656420696e207468697360008201527f20636f6e74726163742100000000000000000000000000000000000000000000602082015250565b600061401a602a83612c64565b915061402582613fbe565b604082019050919050565b600060208201905081810360008301526140498161400d565b9050919050565b7f416d6f756e74206d757374206265206d6f7265207468656e2031210000000000600082015250565b6000614086601b83612c64565b915061409182614050565b602082019050919050565b600060208201905081810360008301526140b581614079565b9050919050565b7f4e487b7100000000000000000000000000000000000000000000000000000000600052601260045260246000fd5b60008190508160005260206000209050919050565b60006020601f8301049050919050565b600082821b905092915050565b60006008830261414d7fffffffffffffffffffffffffffffffffffffffffffffffffffffffffffffffff82614110565b6141578683614110565b95508019841693508086168417925050509392505050565b6000819050919050565b600061419461418f61418a84612ce1565b61416f565b612ce1565b9050919050565b6000819050919050565b6141ae83614179565b6141c26141ba8261419b565b84845461411d565b825550505050565b600090565b6141d76141ca565b6141e28184846141a5565b505050565b5b81811015614206576141fb6000826141cf565b6001810190506141e8565b5050565b601f82111561424b5761421c816140eb565b61422584614100565b81016020851015614234578190505b61424861424085614100565b8301826141e7565b50505b505050565b600082821c905092915050565b600061426e60001984600802614250565b1980831691505092915050565b6000614287838361425d565b9150826002028217905092915050565b6142a082612edb565b67ffffffffffffffff8111156142b9576142b8612f86565b5b6142c38254613bc1565b6142ce82828561420a565b600060209050601f83116001811461430157600084156142ef578287015190505b6142f9858261427b565b865550614361565b601f19841661430f866140eb565b60005b8281101561433757848901518255600182019150602085019450602081019050614312565b868310156143545784890151614350601f89168261425d565b8355505b6001600288020188555050505b505050505050565b600081519050919050565b600082825260208201905092915050565b600061439082614369565b61439a8185614374565b93506143aa818560208601612ee6565b6143b381612f10565b840191505092915050565b600060a0820190506143d360008301886136a6565b6143e060208301876136a6565b6143ed6040830186612ceb565b6143fa6060830185612ceb565b818103608083015261440c8184614385565b90509695505050505050565b60008151905061442781612e1f565b92915050565b60006020828403121561444357614442612d1f565b5b600061445184828501614418565b91505092915050565b600060a08201905061446f60008301886136a6565b61447c60208301876136a6565b818103604083015261448e818661359b565b905081810360608301526144a2818561359b565b905081810360808301526144b68184614385565b90509695505050505050565b60006080820190506144d760008301876136a6565b6144e46020830186612ceb565b6144f16040830185612ceb565b6144fe6060830184612ceb565b95945050505050565b60006040820190508181036000830152614521818561359b565b90508181036020830152614535818461359b565b9050939250505056fea2646970667358221220e929361ab0becec6f73bc5413faf491dc0fc7fb52a1d2375dbddecc01ac294bc64736f6c634300081c0033",
  "linkReferences": {},
  "deployedLinkReferences": {}
}