{
  "_format": "hh-sol-artifact-1",
  "contractName": "TokensERC1155",
  "sourceName": "contracts/TokensERC1155.sol",
  "abi": [
    {
      "inputs": [],
      "stateMutability": "nonpayable",
      "type": "constructor"
    },
    {
      "inputs": [
        {
          "internalType": "address",
          "name": "sender",
          "type": "address"
        },
        {
          "internalType": "uint256",
          "name": "balance",
          "type": "uint256"
        },
        {
          "internalType": "uint256",
          "name": "needed",
          "type": "uint256"
        },
        {
          "internalType": "uint256",
          "name": "tokenId",
          "type": "uint256"
        }
      ],
      "name": "ERC1155InsufficientBalance",
      "type": "error"
    },
    {
      "inputs": [
        {
          "internalType": "address",
          "name": "approver",
          "type": "address"
        }
      ],
      "name": "ERC1155InvalidApprover",
      "type": "error"
    },
    {
      "inputs": [
        {
          "internalType": "uint256",
          "name": "idsLength",
          "type": "uint256"
        },
        {
          "internalType": "uint256",
          "name": "valuesLength",
          "type": "uint256"
        }
      ],
      "name": "ERC1155InvalidArrayLength",
      "type": "error"
    },
    {
      "inputs": [
        {
          "internalType": "address",
          "name": "operator",
          "type": "address"
        }
      ],
      "name": "ERC1155InvalidOperator",
      "type": "error"
    },
    {
      "inputs": [
        {
          "internalType": "address",
          "name": "receiver",
          "type": "address"
        }
      ],
      "name": "ERC1155InvalidReceiver",
      "type": "error"
    },
    {
      "inputs": [
        {
          "internalType": "address",
          "name": "sender",
          "type": "address"
        }
      ],
      "name": "ERC1155InvalidSender",
      "type": "error"
    },
    {
      "inputs": [
        {
          "internalType": "address",
          "name": "operator",
          "type": "address"
        },
        {
          "internalType": "address",
          "name": "owner",
          "type": "address"
        }
      ],
      "name": "ERC1155MissingApprovalForAll",
      "type": "error"
    },
    {
      "inputs": [],
      "name": "EnforcedPause",
      "type": "error"
    },
    {
      "inputs": [],
      "name": "ExpectedPause",
      "type": "error"
    },
    {
      "anonymous": false,
      "inputs": [
        {
          "indexed": true,
          "internalType": "address",
          "name": "account",
          "type": "address"
        },
        {
          "indexed": true,
          "internalType": "address",
          "name": "operator",
          "type": "address"
        },
        {
          "indexed": false,
          "internalType": "bool",
          "name": "approved",
          "type": "bool"
        }
      ],
      "name": "ApprovalForAll",
      "type": "event"
    },
    {
      "anonymous": false,
      "inputs": [
        {
          "indexed": false,
          "internalType": "address",
          "name": "account",
          "type": "address"
        }
      ],
      "name": "Paused",
      "type": "event"
    },
    {
      "anonymous": false,
      "inputs": [
        {
          "indexed": true,
          "internalType": "address",
          "name": "operator",
          "type": "address"
        },
        {
          "indexed": true,
          "internalType": "address",
          "name": "from",
          "type": "address"
        },
        {
          "indexed": true,
          "internalType": "address",
          "name": "to",
          "type": "address"
        },
        {
          "indexed": false,
          "internalType": "uint256[]",
          "name": "ids",
          "type": "uint256[]"
        },
        {
          "indexed": false,
          "internalType": "uint256[]",
          "name": "values",
          "type": "uint256[]"
        }
      ],
      "name": "TransferBatch",
      "type": "event"
    },
    {
      "anonymous": false,
      "inputs": [
        {
          "indexed": true,
          "internalType": "address",
          "name": "operator",
          "type": "address"
        },
        {
          "indexed": true,
          "internalType": "address",
          "name": "from",
          "type": "address"
        },
        {
          "indexed": true,
          "internalType": "address",
          "name": "to",
          "type": "address"
        },
        {
          "indexed": false,
          "internalType": "uint256",
          "name": "id",
          "type": "uint256"
        },
        {
          "indexed": false,
          "internalType": "uint256",
          "name": "value",
          "type": "uint256"
        }
      ],
      "name": "TransferSingle",
      "type": "event"
    },
    {
      "anonymous": false,
      "inputs": [
        {
          "indexed": false,
          "internalType": "string",
          "name": "value",
          "type": "string"
        },
        {
          "indexed": true,
          "internalType": "uint256",
          "name": "id",
          "type": "uint256"
        }
      ],
      "name": "URI",
      "type": "event"
    },
    {
      "anonymous": false,
      "inputs": [
        {
          "indexed": false,
          "internalType": "address",
          "name": "account",
          "type": "address"
        }
      ],
      "name": "Unpaused",
      "type": "event"
    },
    {
      "inputs": [
        {
          "internalType": "address",
          "name": "account",
          "type": "address"
        },
        {
          "internalType": "uint256",
          "name": "id",
          "type": "uint256"
        }
      ],
      "name": "balanceOf",
      "outputs": [
        {
          "internalType": "uint256",
          "name": "",
          "type": "uint256"
        }
      ],
      "stateMutability": "view",
      "type": "function"
    },
    {
      "inputs": [
        {
          "internalType": "address[]",
          "name": "accounts",
          "type": "address[]"
        },
        {
          "internalType": "uint256[]",
          "name": "ids",
          "type": "uint256[]"
        }
      ],
      "name": "balanceOfBatch",
      "outputs": [
        {
          "internalType": "uint256[]",
          "name": "",
          "type": "uint256[]"
        }
      ],
      "stateMutability": "view",
      "type": "function"
    },
    {
      "inputs": [
        {
          "internalType": "address",
          "name": "account",
          "type": "address"
        },
        {
          "internalType": "uint256",
          "name": "id",
          "type": "uint256"
        },
        {
          "internalType": "uint256",
          "name": "value",
          "type": "uint256"
        }
      ],
      "name": "burn",
      "outputs": [],
      "stateMutability": "nonpayable",
      "type": "function"
    },
    {
      "inputs": [
        {
          "internalType": "address",
          "name": "account",
          "type": "address"
        },
        {
          "internalType": "uint256[]",
          "name": "ids",
          "type": "uint256[]"
        },
        {
          "internalType": "uint256[]",
          "name": "values",
          "type": "uint256[]"
        }
      ],
      "name": "burnBatch",
      "outputs": [],
      "stateMutability": "nonpayable",
      "type": "function"
    },
    {
      "inputs": [],
      "name": "currentTokenId",
      "outputs": [
        {
          "internalType": "uint256",
          "name": "",
          "type": "uint256"
        }
      ],
      "stateMutability": "view",
      "type": "function"
    },
    {
      "inputs": [
        {
          "internalType": "uint256",
          "name": "id",
          "type": "uint256"
        }
      ],
      "name": "exists",
      "outputs": [
        {
          "internalType": "bool",
          "name": "",
          "type": "bool"
        }
      ],
      "stateMutability": "view",
      "type": "function"
    },
    {
      "inputs": [
        {
          "internalType": "address",
          "name": "account",
          "type": "address"
        },
        {
          "internalType": "address",
          "name": "operator",
          "type": "address"
        }
      ],
      "name": "isApprovedForAll",
      "outputs": [
        {
          "internalType": "bool",
          "name": "",
          "type": "bool"
        }
      ],
      "stateMutability": "view",
      "type": "function"
    },
    {
      "inputs": [
        {
          "internalType": "address",
          "name": "to",
          "type": "address"
        },
        {
          "internalType": "string",
          "name": "tokenURI",
          "type": "string"
        },
        {
          "internalType": "uint256",
          "name": "collectionLength",
          "type": "uint256"
        },
        {
          "internalType": "uint256[]",
          "name": "values",
          "type": "uint256[]"
        }
      ],
      "name": "mint",
      "outputs": [],
      "stateMutability": "nonpayable",
      "type": "function"
    },
    {
      "inputs": [
        {
          "internalType": "address",
          "name": "to",
          "type": "address"
        },
        {
          "internalType": "string",
          "name": "tokenURI",
          "type": "string"
        },
        {
          "internalType": "uint256",
          "name": "value",
          "type": "uint256"
        }
      ],
      "name": "mint",
      "outputs": [],
      "stateMutability": "nonpayable",
      "type": "function"
    },
    {
      "inputs": [
        {
          "internalType": "address",
          "name": "",
          "type": "address"
        },
        {
          "internalType": "address",
          "name": "",
          "type": "address"
        },
        {
          "internalType": "uint256[]",
          "name": "ids",
          "type": "uint256[]"
        },
        {
          "internalType": "uint256[]",
          "name": "",
          "type": "uint256[]"
        },
        {
          "internalType": "bytes",
          "name": "",
          "type": "bytes"
        }
      ],
      "name": "onERC1155BatchReceived",
      "outputs": [
        {
          "internalType": "bytes4",
          "name": "",
          "type": "bytes4"
        }
      ],
      "stateMutability": "view",
      "type": "function"
    },
    {
      "inputs": [
        {
          "internalType": "address",
          "name": "",
          "type": "address"
        },
        {
          "internalType": "address",
          "name": "",
          "type": "address"
        },
        {
          "internalType": "uint256",
          "name": "id",
          "type": "uint256"
        },
        {
          "internalType": "uint256",
          "name": "",
          "type": "uint256"
        },
        {
          "internalType": "bytes",
          "name": "",
          "type": "bytes"
        }
      ],
      "name": "onERC1155Received",
      "outputs": [
        {
          "internalType": "bytes4",
          "name": "",
          "type": "bytes4"
        }
      ],
      "stateMutability": "view",
      "type": "function"
    },
    {
      "inputs": [],
      "name": "owner",
      "outputs": [
        {
          "internalType": "address",
          "name": "",
          "type": "address"
        }
      ],
      "stateMutability": "view",
      "type": "function"
    },
    {
      "inputs": [],
      "name": "pause",
      "outputs": [],
      "stateMutability": "nonpayable",
      "type": "function"
    },
    {
      "inputs": [],
      "name": "paused",
      "outputs": [
        {
          "internalType": "bool",
          "name": "",
          "type": "bool"
        }
      ],
      "stateMutability": "view",
      "type": "function"
    },
    {
      "inputs": [
        {
          "internalType": "address",
          "name": "from",
          "type": "address"
        },
        {
          "internalType": "address",
          "name": "to",
          "type": "address"
        },
        {
          "internalType": "uint256[]",
          "name": "ids",
          "type": "uint256[]"
        },
        {
          "internalType": "uint256[]",
          "name": "values",
          "type": "uint256[]"
        },
        {
          "internalType": "bytes",
          "name": "data",
          "type": "bytes"
        }
      ],
      "name": "safeBatchTransferFrom",
      "outputs": [],
      "stateMutability": "nonpayable",
      "type": "function"
    },
    {
      "inputs": [
        {
          "internalType": "address",
          "name": "from",
          "type": "address"
        },
        {
          "internalType": "address",
          "name": "to",
          "type": "address"
        },
        {
          "internalType": "uint256",
          "name": "id",
          "type": "uint256"
        },
        {
          "internalType": "uint256",
          "name": "value",
          "type": "uint256"
        },
        {
          "internalType": "bytes",
          "name": "data",
          "type": "bytes"
        }
      ],
      "name": "safeTransferFrom",
      "outputs": [],
      "stateMutability": "nonpayable",
      "type": "function"
    },
    {
      "inputs": [
        {
          "internalType": "address",
          "name": "operator",
          "type": "address"
        },
        {
          "internalType": "bool",
          "name": "approved",
          "type": "bool"
        }
      ],
      "name": "setApprovalForAll",
      "outputs": [],
      "stateMutability": "nonpayable",
      "type": "function"
    },
    {
      "inputs": [
        {
          "internalType": "bytes4",
          "name": "interfaceId",
          "type": "bytes4"
        }
      ],
      "name": "supportsInterface",
      "outputs": [
        {
          "internalType": "bool",
          "name": "",
          "type": "bool"
        }
      ],
      "stateMutability": "view",
      "type": "function"
    },
    {
      "inputs": [],
      "name": "totalSupply",
      "outputs": [
        {
          "internalType": "uint256",
          "name": "",
          "type": "uint256"
        }
      ],
      "stateMutability": "view",
      "type": "function"
    },
    {
      "inputs": [
        {
          "internalType": "uint256",
          "name": "id",
          "type": "uint256"
        }
      ],
      "name": "totalSupply",
      "outputs": [
        {
          "internalType": "uint256",
          "name": "",
          "type": "uint256"
        }
      ],
      "stateMutability": "view",
      "type": "function"
    },
    {
      "inputs": [],
      "name": "unpause",
      "outputs": [],
      "stateMutability": "nonpayable",
      "type": "function"
    },
    {
      "inputs": [
        {
          "internalType": "uint256",
          "name": "tokenId",
          "type": "uint256"
        }
      ],
      "name": "uri",
      "outputs": [
        {
          "internalType": "string",
          "name": "",
          "type": "string"
        }
      ],
      "stateMutability": "view",
      "type": "function"
    },
    {
      "inputs": [
        {
          "internalType": "uint256[]",
          "name": "ids",
          "type": "uint256[]"
        },
        {
          "internalType": "address[]",
          "name": "accounts",
          "type": "address[]"
        }
      ],
      "name": "withdraw",
      "outputs": [],
      "stateMutability": "nonpayable",
      "type": "function"
    },
    {
      "inputs": [
        {
          "internalType": "uint256",
          "name": "id",
          "type": "uint256"
        }
      ],
      "name": "withdraw",
      "outputs": [],
      "stateMutability": "nonpayable",
      "type": "function"
    },
    {
      "stateMutability": "payable",
      "type": "receive"
    }
  ],
  "bytecode": "0x60a0604052600060065534801561001557600080fd5b50604051806020016040528060008152506100358161006f60201b60201c565b503373ffffffffffffffffffffffffffffffffffffffff1660808173ffffffffffffffffffffffffffffffffffffffff16815250506103a4565b806002908161007e91906102d2565b5050565b600081519050919050565b7f4e487b7100000000000000000000000000000000000000000000000000000000600052604160045260246000fd5b7f4e487b7100000000000000000000000000000000000000000000000000000000600052602260045260246000fd5b6000600282049050600182168061010357607f821691505b602082108103610116576101156100bc565b5b50919050565b60008190508160005260206000209050919050565b60006020601f8301049050919050565b600082821b905092915050565b60006008830261017e7fffffffffffffffffffffffffffffffffffffffffffffffffffffffffffffffff82610141565b6101888683610141565b95508019841693508086168417925050509392505050565b6000819050919050565b6000819050919050565b60006101cf6101ca6101c5846101a0565b6101aa565b6101a0565b9050919050565b6000819050919050565b6101e9836101b4565b6101fd6101f5826101d6565b84845461014e565b825550505050565b600090565b610212610205565b61021d8184846101e0565b505050565b5b818110156102415761023660008261020a565b600181019050610223565b5050565b601f821115610286576102578161011c565b61026084610131565b8101602085101561026f578190505b61028361027b85610131565b830182610222565b50505b505050565b600082821c905092915050565b60006102a96000198460080261028b565b1980831691505092915050565b60006102c28383610298565b9150826002028217905092915050565b6102db82610082565b67ffffffffffffffff8111156102f4576102f361008d565b5b6102fe82546100eb565b610309828285610245565b600060209050601f83116001811461033c576000841561032a578287015190505b61033485826102b6565b86555061039c565b601f19841661034a8661011c565b60005b828110156103725784890151825560018201915060208501945060208101905061034d565b8683101561038f578489015161038b601f891682610298565b8355505b6001600288020188555050505b505050505050565b6080516143246103fe6000396000818161060e01528181610803015281816108ef01528181610936015281816109d601528181610aba01528181610d3201528181610dca01528181610eb9015261117801526143246000f3fe60806040526004361061014d5760003560e01c80636b20c454116100b6578063bc197c811161006f578063bc197c81146104c4578063bd85b03914610501578063e985e9c51461053e578063f23a6e611461057b578063f242432a146105b8578063f5298aca146105e157610195565b80636b20c454146103de5780638456cb59146104075780638da5cb5b1461041e578063a22cb46514610449578063adbaed0414610472578063ba7aef431461049b57610195565b80632e1a7d4d116101085780632e1a7d4d146102d05780632eb2c2d6146102f95780633f4ba83a146103225780634e1273f4146103395780634f558e79146103765780635c975abb146103b357610195565b80629a9b7b1461019a578062fdd58e146101c557806301ffc9a7146102025780630e89341c1461023f57806316e576521461027c57806318160ddd146102a557610195565b36610195576000610193576040517f08c379a000000000000000000000000000000000000000000000000000000000815260040161018a90612aa6565b60405180910390fd5b005b600080fd5b3480156101a657600080fd5b506101af61060a565b6040516101bc9190612adf565b60405180910390f35b3480156101d157600080fd5b506101ec60048036038101906101e79190612b98565b6106a2565b6040516101f99190612adf565b60405180910390f35b34801561020e57600080fd5b5061022960048036038101906102249190612c30565b6106fc565b6040516102369190612c78565b60405180910390f35b34801561024b57600080fd5b5061026660048036038101906102619190612c93565b61070e565b6040516102739190612d3f565b60405180910390f35b34801561028857600080fd5b506102a3600480360381019061029e9190612f6c565b610801565b005b3480156102b157600080fd5b506102ba61092a565b6040516102c79190612adf565b60405180910390f35b3480156102dc57600080fd5b506102f760048036038101906102f29190612c93565b610934565b005b34801561030557600080fd5b50610320600480360381019061031b9190613099565b610a10565b005b34801561032e57600080fd5b50610337610ab8565b005b34801561034557600080fd5b50610360600480360381019061035b9190613168565b610b50565b60405161036d919061329e565b60405180910390f35b34801561038257600080fd5b5061039d60048036038101906103989190612c93565b610c59565b6040516103aa9190612c78565b60405180910390f35b3480156103bf57600080fd5b506103c8610c6d565b6040516103d59190612c78565b60405180910390f35b3480156103ea57600080fd5b50610405600480360381019061040091906132c0565b610c84565b005b34801561041357600080fd5b5061041c610d30565b005b34801561042a57600080fd5b50610433610dc8565b604051610440919061335a565b60405180910390f35b34801561045557600080fd5b50610470600480360381019061046b91906133a1565b610dec565b005b34801561047e57600080fd5b5061049960048036038101906104949190613482565b610e02565b005b3480156104a757600080fd5b506104c260048036038101906104bd9190613521565b6110c0565b005b3480156104d057600080fd5b506104eb60048036038101906104e69190613641565b61128f565b6040516104f8919061372c565b60405180910390f35b34801561050d57600080fd5b5061052860048036038101906105239190612c93565b611327565b6040516105359190612adf565b60405180910390f35b34801561054a57600080fd5b5061056560048036038101906105609190613747565b611344565b6040516105729190612c78565b60405180910390f35b34801561058757600080fd5b506105a2600480360381019061059d9190613787565b6113d8565b6040516105af919061372c565b60405180910390f35b3480156105c457600080fd5b506105df60048036038101906105da9190613821565b611436565b005b3480156105ed57600080fd5b50610608600480360381019061060391906138b8565b6114de565b005b60007f000000000000000000000000000000000000000000000000000000000000000073ffffffffffffffffffffffffffffffffffffffff163373ffffffffffffffffffffffffffffffffffffffff161461069a576040517f08c379a000000000000000000000000000000000000000000000000000000000815260040161069190613957565b60405180910390fd5b600654905090565b600080600083815260200190815260200160002060008473ffffffffffffffffffffffffffffffffffffffff1673ffffffffffffffffffffffffffffffffffffffff16815260200190815260200160002054905092915050565b60006107078261158a565b9050919050565b60606000600760008481526020019081526020016000208054610730906139a6565b80601f016020809104026020016040519081016040528092919081815260200182805461075c906139a6565b80156107a95780601f1061077e576101008083540402835291602001916107a9565b820191906000526020600020905b81548152906001019060200180831161078c57829003601f168201915b5050505050905060008151116107ce57604051806020016040528060008152506107f9565b806107d88461166c565b6040516020016107e9929190613a39565b6040516020818303038152906040525b915050919050565b7f000000000000000000000000000000000000000000000000000000000000000073ffffffffffffffffffffffffffffffffffffffff163373ffffffffffffffffffffffffffffffffffffffff161461088f576040517f08c379a000000000000000000000000000000000000000000000000000000000815260040161088690613957565b60405180910390fd5b6000825167ffffffffffffffff8111156108ac576108ab612d66565b5b6040519080825280602002602001820160405280156108da5781602001602082028036833780820191505090505b5090506108e78284610b50565b9050610925307f000000000000000000000000000000000000000000000000000000000000000085846040518060200160405280600081525061173a565b505050565b6000600554905090565b7f000000000000000000000000000000000000000000000000000000000000000073ffffffffffffffffffffffffffffffffffffffff163373ffffffffffffffffffffffffffffffffffffffff16146109c2576040517f08c379a00000000000000000000000000000000000000000000000000000000081526004016109b990613957565b60405180910390fd5b60006109ce30836106a2565b9050610a0c307f0000000000000000000000000000000000000000000000000000000000000000848460405180602001604052806000815250611832565b5050565b6000610a1a61193d565b90508073ffffffffffffffffffffffffffffffffffffffff168673ffffffffffffffffffffffffffffffffffffffff1614158015610a5f5750610a5d8682611344565b155b15610aa35780866040517fe237d922000000000000000000000000000000000000000000000000000000008152600401610a9a929190613a6c565b60405180910390fd5b610ab0868686868661173a565b505050505050565b7f000000000000000000000000000000000000000000000000000000000000000073ffffffffffffffffffffffffffffffffffffffff163373ffffffffffffffffffffffffffffffffffffffff1614610b46576040517f08c379a0000000000000000000000000000000000000000000000000000000008152600401610b3d90613957565b60405180910390fd5b610b4e611945565b565b60608151835114610b9c57815183516040517f5b059991000000000000000000000000000000000000000000000000000000008152600401610b93929190613a95565b60405180910390fd5b6000835167ffffffffffffffff811115610bb957610bb8612d66565b5b604051908082528060200260200182016040528015610be75781602001602082028036833780820191505090505b50905060005b8451811015610c4e57610c24610c0c82876119a890919063ffffffff16565b610c1f83876119bc90919063ffffffff16565b6106a2565b828281518110610c3757610c36613abe565b5b602002602001018181525050806001019050610bed565b508091505092915050565b600080610c6583611327565b119050919050565b6000600360009054906101000a900460ff16905090565b610c8c61193d565b73ffffffffffffffffffffffffffffffffffffffff168373ffffffffffffffffffffffffffffffffffffffff1614158015610cd55750610cd383610cce61193d565b611344565b155b15610d2057610ce261193d565b836040517fe237d922000000000000000000000000000000000000000000000000000000008152600401610d17929190613a6c565b60405180910390fd5b610d2b8383836119d0565b505050565b7f000000000000000000000000000000000000000000000000000000000000000073ffffffffffffffffffffffffffffffffffffffff163373ffffffffffffffffffffffffffffffffffffffff1614610dbe576040517f08c379a0000000000000000000000000000000000000000000000000000000008152600401610db590613957565b60405180910390fd5b610dc6611a64565b565b7f000000000000000000000000000000000000000000000000000000000000000081565b610dfe610df761193d565b8383611ac7565b5050565b82826000825111610e48576040517f08c379a0000000000000000000000000000000000000000000000000000000008152600401610e3f90613b39565b60405180910390fd5b7fffffffffffffffffffffffffffffffffffffffffffffffffffffffffffffffff81600654610e779190613b88565b10610eb7576040517f08c379a0000000000000000000000000000000000000000000000000000000008152600401610eae90613c08565b60405180910390fd5b7f000000000000000000000000000000000000000000000000000000000000000073ffffffffffffffffffffffffffffffffffffffff163373ffffffffffffffffffffffffffffffffffffffff1614610f45576040517f08c379a0000000000000000000000000000000000000000000000000000000008152600401610f3c90613957565b60405180910390fd5b600184118015610f56575060328411155b610f95576040517f08c379a0000000000000000000000000000000000000000000000000000000008152600401610f8c90613c9a565b60405180910390fd5b83835114610fd8576040517f08c379a0000000000000000000000000000000000000000000000000000000008152600401610fcf90613d06565b60405180910390fd5b60008467ffffffffffffffff811115610ff457610ff3612d66565b5b6040519080825280602002602001820160405280156110225781602001602082028036833780820191505090505b50905060005b8581101561109b5760065482828151811061104657611045613abe565b5b6020026020010181815250506006600081548092919061106590613d26565b919050555061108e8282815181106110805761107f613abe565b5b602002602001015188611c37565b8080600101915050611028565b506110b787828660405180602001604052806000815250611c9c565b50505050505050565b8160016000825111611107576040517f08c379a00000000000000000000000000000000000000000000000000000000081526004016110fe90613b39565b60405180910390fd5b7fffffffffffffffffffffffffffffffffffffffffffffffffffffffffffffffff816006546111369190613b88565b10611176576040517f08c379a000000000000000000000000000000000000000000000000000000000815260040161116d90613c08565b60405180910390fd5b7f000000000000000000000000000000000000000000000000000000000000000073ffffffffffffffffffffffffffffffffffffffff163373ffffffffffffffffffffffffffffffffffffffff1614611204576040517f08c379a00000000000000000000000000000000000000000000000000000000081526004016111fb90613957565b60405180910390fd5b60018311611247576040517f08c379a000000000000000000000000000000000000000000000000000000000815260040161123e90613dba565b60405180910390fd5b611264856006548560405180602001604052806000815250611d22565b61127060065485611c37565b6006600081548092919061128390613d26565b91905055505050505050565b600080600090505b87879050811015611310576112c48888838181106112b8576112b7613abe565b5b90506020020135610c59565b611303576040517f08c379a00000000000000000000000000000000000000000000000000000000081526004016112fa90613e4c565b60405180910390fd5b8080600101915050611297565b5063bc197c8160e01b905098975050505050505050565b600060046000838152602001908152602001600020549050919050565b6000600160008473ffffffffffffffffffffffffffffffffffffffff1673ffffffffffffffffffffffffffffffffffffffff16815260200190815260200160002060008373ffffffffffffffffffffffffffffffffffffffff1673ffffffffffffffffffffffffffffffffffffffff16815260200190815260200160002060009054906101000a900460ff16905092915050565b60006113e385610c59565b611422576040517f08c379a000000000000000000000000000000000000000000000000000000000815260040161141990613e4c565b60405180910390fd5b63f23a6e6160e01b90509695505050505050565b600061144061193d565b90508073ffffffffffffffffffffffffffffffffffffffff168673ffffffffffffffffffffffffffffffffffffffff161415801561148557506114838682611344565b155b156114c95780866040517fe237d9220000000000000000000000000000000000000000000000000000000081526004016114c0929190613a6c565b60405180910390fd5b6114d68686868686611832565b505050505050565b6114e661193d565b73ffffffffffffffffffffffffffffffffffffffff168373ffffffffffffffffffffffffffffffffffffffff161415801561152f575061152d8361152861193d565b611344565b155b1561157a5761153c61193d565b836040517fe237d922000000000000000000000000000000000000000000000000000000008152600401611571929190613a6c565b60405180910390fd5b611585838383611dbb565b505050565b60007fd9b67a26000000000000000000000000000000000000000000000000000000007bffffffffffffffffffffffffffffffffffffffffffffffffffffffff1916827bffffffffffffffffffffffffffffffffffffffffffffffffffffffff1916148061165557507f0e89341c000000000000000000000000000000000000000000000000000000007bffffffffffffffffffffffffffffffffffffffffffffffffffffffff1916827bffffffffffffffffffffffffffffffffffffffffffffffffffffffff1916145b80611665575061166482611e62565b5b9050919050565b60606000600161167b84611ecc565b01905060008167ffffffffffffffff81111561169a57611699612d66565b5b6040519080825280601f01601f1916602001820160405280156116cc5781602001600182028036833780820191505090505b509050600082602001820190505b60011561172f578080600190039150507f3031323334353637383961626364656600000000000000000000000000000000600a86061a8153600a858161172357611722613e6c565b5b049450600085036116da575b819350505050919050565b600073ffffffffffffffffffffffffffffffffffffffff168473ffffffffffffffffffffffffffffffffffffffff16036117ac5760006040517f57f447ce0000000000000000000000000000000000000000000000000000000081526004016117a3919061335a565b60405180910390fd5b600073ffffffffffffffffffffffffffffffffffffffff168573ffffffffffffffffffffffffffffffffffffffff160361181e5760006040517f01a83514000000000000000000000000000000000000000000000000000000008152600401611815919061335a565b60405180910390fd5b61182b858585858561201f565b5050505050565b600073ffffffffffffffffffffffffffffffffffffffff168473ffffffffffffffffffffffffffffffffffffffff16036118a45760006040517f57f447ce00000000000000000000000000000000000000000000000000000000815260040161189b919061335a565b60405180910390fd5b600073ffffffffffffffffffffffffffffffffffffffff168573ffffffffffffffffffffffffffffffffffffffff16036119165760006040517f01a8351400000000000000000000000000000000000000000000000000000000815260040161190d919061335a565b60405180910390fd5b60008061192385856120d1565b91509150611934878784848761201f565b50505050505050565b600033905090565b61194d612101565b6000600360006101000a81548160ff0219169083151502179055507f5db9ee0a495bf2e6ff9c91a7834c1ba4fdd244a5e8aa4e537bd38aeae4b073aa61199161193d565b60405161199e919061335a565b60405180910390a1565b600060208202602084010151905092915050565b600060208202602084010151905092915050565b600073ffffffffffffffffffffffffffffffffffffffff168373ffffffffffffffffffffffffffffffffffffffff1603611a425760006040517f01a83514000000000000000000000000000000000000000000000000000000008152600401611a39919061335a565b60405180910390fd5b611a5f83600084846040518060200160405280600081525061201f565b505050565b611a6c612141565b6001600360006101000a81548160ff0219169083151502179055507f62e78cea01bee320cd4e420270b5ea74000d11b0c9f74754ebdbfc544b05a258611ab061193d565b604051611abd919061335a565b60405180910390a1565b600073ffffffffffffffffffffffffffffffffffffffff168273ffffffffffffffffffffffffffffffffffffffff1603611b395760006040517fced3e100000000000000000000000000000000000000000000000000000000008152600401611b30919061335a565b60405180910390fd5b80600160008573ffffffffffffffffffffffffffffffffffffffff1673ffffffffffffffffffffffffffffffffffffffff16815260200190815260200160002060008473ffffffffffffffffffffffffffffffffffffffff1673ffffffffffffffffffffffffffffffffffffffff16815260200190815260200160002060006101000a81548160ff0219169083151502179055508173ffffffffffffffffffffffffffffffffffffffff168373ffffffffffffffffffffffffffffffffffffffff167f17307eab39ab6107e8899845ad3d59bd9653f200f220920489ca2b5937696c3183604051611c2a9190612c78565b60405180910390a3505050565b80600760008481526020019081526020016000209081611c579190614047565b50817f6bb7ff708619ba0610cba295a58592e0451dee2622938c8755667688daf3529b611c838461070e565b604051611c909190612d3f565b60405180910390a25050565b600073ffffffffffffffffffffffffffffffffffffffff168473ffffffffffffffffffffffffffffffffffffffff1603611d0e5760006040517f57f447ce000000000000000000000000000000000000000000000000000000008152600401611d05919061335a565b60405180910390fd5b611d1c60008585858561201f565b50505050565b600073ffffffffffffffffffffffffffffffffffffffff168473ffffffffffffffffffffffffffffffffffffffff1603611d945760006040517f57f447ce000000000000000000000000000000000000000000000000000000008152600401611d8b919061335a565b60405180910390fd5b600080611da185856120d1565b91509150611db360008784848761201f565b505050505050565b600073ffffffffffffffffffffffffffffffffffffffff168373ffffffffffffffffffffffffffffffffffffffff1603611e2d5760006040517f01a83514000000000000000000000000000000000000000000000000000000008152600401611e24919061335a565b60405180910390fd5b600080611e3a84846120d1565b91509150611e5b85600084846040518060200160405280600081525061201f565b5050505050565b60007f01ffc9a7000000000000000000000000000000000000000000000000000000007bffffffffffffffffffffffffffffffffffffffffffffffffffffffff1916827bffffffffffffffffffffffffffffffffffffffffffffffffffffffff1916149050919050565b600080600090507a184f03e93ff9f4daa797ed6e38ed64bf6a1f0100000000000000008310611f2a577a184f03e93ff9f4daa797ed6e38ed64bf6a1f0100000000000000008381611f2057611f1f613e6c565b5b0492506040810190505b6d04ee2d6d415b85acef81000000008310611f67576d04ee2d6d415b85acef81000000008381611f5d57611f5c613e6c565b5b0492506020810190505b662386f26fc100008310611f9657662386f26fc100008381611f8c57611f8b613e6c565b5b0492506010810190505b6305f5e1008310611fbf576305f5e1008381611fb557611fb4613e6c565b5b0492506008810190505b6127108310611fe4576127108381611fda57611fd9613e6c565b5b0492506004810190505b606483106120075760648381611ffd57611ffc613e6c565b5b0492506002810190505b600a8310612016576001810190505b80915050919050565b61202b85858585612182565b600073ffffffffffffffffffffffffffffffffffffffff168473ffffffffffffffffffffffffffffffffffffffff16146120ca57600061206961193d565b905060018451036120b957600061208a6000866119bc90919063ffffffff16565b905060006120a26000866119bc90919063ffffffff16565b90506120b2838989858589612194565b50506120c8565b6120c7818787878787612348565b5b505b5050505050565b60608060405191506001825283602083015260408201905060018152826020820152604081016040529250929050565b612109610c6d565b61213f576040517f8dfc202b00000000000000000000000000000000000000000000000000000000815260040160405180910390fd5b565b612149610c6d565b15612180576040517fd93c066500000000000000000000000000000000000000000000000000000000815260040160405180910390fd5b565b61218e848484846124fc565b50505050565b60008473ffffffffffffffffffffffffffffffffffffffff163b1115612340578373ffffffffffffffffffffffffffffffffffffffff1663f23a6e6187878686866040518663ffffffff1660e01b81526004016121f595949392919061416e565b6020604051808303816000875af192505050801561223157506040513d601f19601f8201168201806040525081019061222e91906141dd565b60015b6122b5573d8060008114612261576040519150601f19603f3d011682016040523d82523d6000602084013e612266565b606091505b5060008151036122ad57846040517f57f447ce0000000000000000000000000000000000000000000000000000000081526004016122a4919061335a565b60405180910390fd5b805181602001fd5b63f23a6e6160e01b7bffffffffffffffffffffffffffffffffffffffffffffffffffffffff1916817bffffffffffffffffffffffffffffffffffffffffffffffffffffffff19161461233e57846040517f57f447ce000000000000000000000000000000000000000000000000000000008152600401612335919061335a565b60405180910390fd5b505b505050505050565b60008473ffffffffffffffffffffffffffffffffffffffff163b11156124f4578373ffffffffffffffffffffffffffffffffffffffff1663bc197c8187878686866040518663ffffffff1660e01b81526004016123a995949392919061420a565b6020604051808303816000875af19250505080156123e557506040513d601f19601f820116820180604052508101906123e291906141dd565b60015b612469573d8060008114612415576040519150601f19603f3d011682016040523d82523d6000602084013e61241a565b606091505b50600081510361246157846040517f57f447ce000000000000000000000000000000000000000000000000000000008152600401612458919061335a565b60405180910390fd5b805181602001fd5b63bc197c8160e01b7bffffffffffffffffffffffffffffffffffffffffffffffffffffffff1916817bffffffffffffffffffffffffffffffffffffffffffffffffffffffff1916146124f257846040517f57f447ce0000000000000000000000000000000000000000000000000000000081526004016124e9919061335a565b60405180910390fd5b505b505050505050565b61250884848484612687565b600073ffffffffffffffffffffffffffffffffffffffff168473ffffffffffffffffffffffffffffffffffffffff16036125d2576000805b83518110156125b657600061255e82856119bc90919063ffffffff16565b9050806004600061257885896119bc90919063ffffffff16565b815260200190815260200160002060008282546125959190613b88565b9250508190555080836125a89190613b88565b925050806001019050612540565b5080600560008282546125c99190613b88565b92505081905550505b600073ffffffffffffffffffffffffffffffffffffffff168373ffffffffffffffffffffffffffffffffffffffff1603612681576000805b835181101561266e57600061262882856119bc90919063ffffffff16565b9050806004600061264285896119bc90919063ffffffff16565b81526020019081526020016000206000828254039250508190555080830192505080600101905061260a565b5080600560008282540392505081905550505b50505050565b61268f612141565b61269b848484846126a1565b50505050565b80518251146126eb57815181516040517f5b0599910000000000000000000000000000000000000000000000000000000081526004016126e2929190613a95565b60405180910390fd5b60006126f561193d565b905060005b835181101561290457600061271882866119bc90919063ffffffff16565b9050600061272f83866119bc90919063ffffffff16565b9050600073ffffffffffffffffffffffffffffffffffffffff168873ffffffffffffffffffffffffffffffffffffffff161461285c57600080600084815260200190815260200160002060008a73ffffffffffffffffffffffffffffffffffffffff1673ffffffffffffffffffffffffffffffffffffffff1681526020019081526020016000205490508181101561280457888183856040517f03dee4c50000000000000000000000000000000000000000000000000000000081526004016127fb9493929190614272565b60405180910390fd5b81810360008085815260200190815260200160002060008b73ffffffffffffffffffffffffffffffffffffffff1673ffffffffffffffffffffffffffffffffffffffff16815260200190815260200160002081905550505b600073ffffffffffffffffffffffffffffffffffffffff168773ffffffffffffffffffffffffffffffffffffffff16146128f7578060008084815260200190815260200160002060008973ffffffffffffffffffffffffffffffffffffffff1673ffffffffffffffffffffffffffffffffffffffff16815260200190815260200160002060008282546128ef9190613b88565b925050819055505b50508060010190506126fa565b5060018351036129c35760006129246000856119bc90919063ffffffff16565b9050600061293c6000856119bc90919063ffffffff16565b90508573ffffffffffffffffffffffffffffffffffffffff168773ffffffffffffffffffffffffffffffffffffffff168473ffffffffffffffffffffffffffffffffffffffff167fc3d58168c5ae7397731d063d5bbf3d657854427343f4c083240f7aacaa2d0f6285856040516129b4929190613a95565b60405180910390a45050612a42565b8373ffffffffffffffffffffffffffffffffffffffff168573ffffffffffffffffffffffffffffffffffffffff168273ffffffffffffffffffffffffffffffffffffffff167f4a39dc06d4c0dbc64b70af90fd698a233a518aa5d07e595d983b8c0526c8f7fb8686604051612a399291906142b7565b60405180910390a45b5050505050565b600082825260208201905092915050565b7f4920646f6e742072656365697665204554482100000000000000000000000000600082015250565b6000612a90601383612a49565b9150612a9b82612a5a565b602082019050919050565b60006020820190508181036000830152612abf81612a83565b9050919050565b6000819050919050565b612ad981612ac6565b82525050565b6000602082019050612af46000830184612ad0565b92915050565b6000604051905090565b600080fd5b600080fd5b600073ffffffffffffffffffffffffffffffffffffffff82169050919050565b6000612b3982612b0e565b9050919050565b612b4981612b2e565b8114612b5457600080fd5b50565b600081359050612b6681612b40565b92915050565b612b7581612ac6565b8114612b8057600080fd5b50565b600081359050612b9281612b6c565b92915050565b60008060408385031215612baf57612bae612b04565b5b6000612bbd85828601612b57565b9250506020612bce85828601612b83565b9150509250929050565b60007fffffffff0000000000000000000000000000000000000000000000000000000082169050919050565b612c0d81612bd8565b8114612c1857600080fd5b50565b600081359050612c2a81612c04565b92915050565b600060208284031215612c4657612c45612b04565b5b6000612c5484828501612c1b565b91505092915050565b60008115159050919050565b612c7281612c5d565b82525050565b6000602082019050612c8d6000830184612c69565b92915050565b600060208284031215612ca957612ca8612b04565b5b6000612cb784828501612b83565b91505092915050565b600081519050919050565b60005b83811015612ce9578082015181840152602081019050612cce565b60008484015250505050565b6000601f19601f8301169050919050565b6000612d1182612cc0565b612d1b8185612a49565b9350612d2b818560208601612ccb565b612d3481612cf5565b840191505092915050565b60006020820190508181036000830152612d598184612d06565b905092915050565b600080fd5b7f4e487b7100000000000000000000000000000000000000000000000000000000600052604160045260246000fd5b612d9e82612cf5565b810181811067ffffffffffffffff82111715612dbd57612dbc612d66565b5b80604052505050565b6000612dd0612afa565b9050612ddc8282612d95565b919050565b600067ffffffffffffffff821115612dfc57612dfb612d66565b5b602082029050602081019050919050565b600080fd5b6000612e25612e2084612de1565b612dc6565b90508083825260208201905060208402830185811115612e4857612e47612e0d565b5b835b81811015612e715780612e5d8882612b83565b845260208401935050602081019050612e4a565b5050509392505050565b600082601f830112612e9057612e8f612d61565b5b8135612ea0848260208601612e12565b91505092915050565b600067ffffffffffffffff821115612ec457612ec3612d66565b5b602082029050602081019050919050565b6000612ee8612ee384612ea9565b612dc6565b90508083825260208201905060208402830185811115612f0b57612f0a612e0d565b5b835b81811015612f345780612f208882612b57565b845260208401935050602081019050612f0d565b5050509392505050565b600082601f830112612f5357612f52612d61565b5b8135612f63848260208601612ed5565b91505092915050565b60008060408385031215612f8357612f82612b04565b5b600083013567ffffffffffffffff811115612fa157612fa0612b09565b5b612fad85828601612e7b565b925050602083013567ffffffffffffffff811115612fce57612fcd612b09565b5b612fda85828601612f3e565b9150509250929050565b600080fd5b600067ffffffffffffffff82111561300457613003612d66565b5b61300d82612cf5565b9050602081019050919050565b82818337600083830152505050565b600061303c61303784612fe9565b612dc6565b90508281526020810184848401111561305857613057612fe4565b5b61306384828561301a565b509392505050565b600082601f8301126130805761307f612d61565b5b8135613090848260208601613029565b91505092915050565b600080600080600060a086880312156130b5576130b4612b04565b5b60006130c388828901612b57565b95505060206130d488828901612b57565b945050604086013567ffffffffffffffff8111156130f5576130f4612b09565b5b61310188828901612e7b565b935050606086013567ffffffffffffffff81111561312257613121612b09565b5b61312e88828901612e7b565b925050608086013567ffffffffffffffff81111561314f5761314e612b09565b5b61315b8882890161306b565b9150509295509295909350565b6000806040838503121561317f5761317e612b04565b5b600083013567ffffffffffffffff81111561319d5761319c612b09565b5b6131a985828601612f3e565b925050602083013567ffffffffffffffff8111156131ca576131c9612b09565b5b6131d685828601612e7b565b9150509250929050565b600081519050919050565b600082825260208201905092915050565b6000819050602082019050919050565b61321581612ac6565b82525050565b6000613227838361320c565b60208301905092915050565b6000602082019050919050565b600061324b826131e0565b61325581856131eb565b9350613260836131fc565b8060005b83811015613291578151613278888261321b565b975061328383613233565b925050600181019050613264565b5085935050505092915050565b600060208201905081810360008301526132b88184613240565b905092915050565b6000806000606084860312156132d9576132d8612b04565b5b60006132e786828701612b57565b935050602084013567ffffffffffffffff81111561330857613307612b09565b5b61331486828701612e7b565b925050604084013567ffffffffffffffff81111561333557613334612b09565b5b61334186828701612e7b565b9150509250925092565b61335481612b2e565b82525050565b600060208201905061336f600083018461334b565b92915050565b61337e81612c5d565b811461338957600080fd5b50565b60008135905061339b81613375565b92915050565b600080604083850312156133b8576133b7612b04565b5b60006133c685828601612b57565b92505060206133d78582860161338c565b9150509250929050565b600067ffffffffffffffff8211156133fc576133fb612d66565b5b61340582612cf5565b9050602081019050919050565b6000613425613420846133e1565b612dc6565b90508281526020810184848401111561344157613440612fe4565b5b61344c84828561301a565b509392505050565b600082601f83011261346957613468612d61565b5b8135613479848260208601613412565b91505092915050565b6000806000806080858703121561349c5761349b612b04565b5b60006134aa87828801612b57565b945050602085013567ffffffffffffffff8111156134cb576134ca612b09565b5b6134d787828801613454565b93505060406134e887828801612b83565b925050606085013567ffffffffffffffff81111561350957613508612b09565b5b61351587828801612e7b565b91505092959194509250565b60008060006060848603121561353a57613539612b04565b5b600061354886828701612b57565b935050602084013567ffffffffffffffff81111561356957613568612b09565b5b61357586828701613454565b925050604061358686828701612b83565b9150509250925092565b600080fd5b60008083601f8401126135ab576135aa612d61565b5b8235905067ffffffffffffffff8111156135c8576135c7613590565b5b6020830191508360208202830111156135e4576135e3612e0d565b5b9250929050565b60008083601f84011261360157613600612d61565b5b8235905067ffffffffffffffff81111561361e5761361d613590565b5b60208301915083600182028301111561363a57613639612e0d565b5b9250929050565b60008060008060008060008060a0898b03121561366157613660612b04565b5b600061366f8b828c01612b57565b98505060206136808b828c01612b57565b975050604089013567ffffffffffffffff8111156136a1576136a0612b09565b5b6136ad8b828c01613595565b9650965050606089013567ffffffffffffffff8111156136d0576136cf612b09565b5b6136dc8b828c01613595565b9450945050608089013567ffffffffffffffff8111156136ff576136fe612b09565b5b61370b8b828c016135eb565b92509250509295985092959890939650565b61372681612bd8565b82525050565b6000602082019050613741600083018461371d565b92915050565b6000806040838503121561375e5761375d612b04565b5b600061376c85828601612b57565b925050602061377d85828601612b57565b9150509250929050565b60008060008060008060a087890312156137a4576137a3612b04565b5b60006137b289828a01612b57565b96505060206137c389828a01612b57565b95505060406137d489828a01612b83565b94505060606137e589828a01612b83565b935050608087013567ffffffffffffffff81111561380657613805612b09565b5b61381289828a016135eb565b92509250509295509295509295565b600080600080600060a0868803121561383d5761383c612b04565b5b600061384b88828901612b57565b955050602061385c88828901612b57565b945050604061386d88828901612b83565b935050606061387e88828901612b83565b925050608086013567ffffffffffffffff81111561389f5761389e612b09565b5b6138ab8882890161306b565b9150509295509295909350565b6000806000606084860312156138d1576138d0612b04565b5b60006138df86828701612b57565b93505060206138f086828701612b83565b925050604061390186828701612b83565b9150509250925092565b7f4e6f7420616e206f776e65722100000000000000000000000000000000000000600082015250565b6000613941600d83612a49565b915061394c8261390b565b602082019050919050565b6000602082019050818103600083015261397081613934565b9050919050565b7f4e487b7100000000000000000000000000000000000000000000000000000000600052602260045260246000fd5b600060028204905060018216806139be57607f821691505b6020821081036139d1576139d0613977565b5b50919050565b600081905092915050565b60006139ed82612cc0565b6139f781856139d7565b9350613a07818560208601612ccb565b80840191505092915050565b7f2e6a736f6e000000000000000000000000000000000000000000000000000000815250565b6000613a4582856139e2565b9150613a5182846139e2565b9150613a5c82613a13565b6005820191508190509392505050565b6000604082019050613a81600083018561334b565b613a8e602083018461334b565b9392505050565b6000604082019050613aaa6000830185612ad0565b613ab76020830184612ad0565b9392505050565b7f4e487b7100000000000000000000000000000000000000000000000000000000600052603260045260246000fd5b7f456d707479205552492100000000000000000000000000000000000000000000600082015250565b6000613b23600a83612a49565b9150613b2e82613aed565b602082019050919050565b60006020820190508181036000830152613b5281613b16565b9050919050565b7f4e487b7100000000000000000000000000000000000000000000000000000000600052601160045260246000fd5b6000613b9382612ac6565b9150613b9e83612ac6565b9250828201905080821115613bb657613bb5613b59565b5b92915050565b7f4d617820737570706c7920726561636865642100000000000000000000000000600082015250565b6000613bf2601383612a49565b9150613bfd82613bbc565b602082019050919050565b60006020820190508181036000830152613c2181613be5565b9050919050565b7f54686520636f6c6c656374696f6e206d757374206265203220746f203530204e60008201527f4654210000000000000000000000000000000000000000000000000000000000602082015250565b6000613c84602383612a49565b9150613c8f82613c28565b604082019050919050565b60006020820190508181036000830152613cb381613c77565b9050919050565b7f496e636f7272656374206c656e67746821000000000000000000000000000000600082015250565b6000613cf0601183612a49565b9150613cfb82613cba565b602082019050919050565b60006020820190508181036000830152613d1f81613ce3565b9050919050565b6000613d3182612ac6565b91507fffffffffffffffffffffffffffffffffffffffffffffffffffffffffffffffff8203613d6357613d62613b59565b5b600182019050919050565b7f416d6f756e74206d757374206265206d6f7265207468656e2031210000000000600082015250565b6000613da4601b83612a49565b9150613daf82613d6e565b602082019050919050565b60006020820190508181036000830152613dd381613d97565b9050919050565b7f4f6e6c7920746f6b656e73207768696368206d696e74656420696e207468697360008201527f20636f6e74726163742100000000000000000000000000000000000000000000602082015250565b6000613e36602a83612a49565b9150613e4182613dda565b604082019050919050565b60006020820190508181036000830152613e6581613e29565b9050919050565b7f4e487b7100000000000000000000000000000000000000000000000000000000600052601260045260246000fd5b60008190508160005260206000209050919050565b60006020601f8301049050919050565b600082821b905092915050565b600060088302613efd7fffffffffffffffffffffffffffffffffffffffffffffffffffffffffffffffff82613ec0565b613f078683613ec0565b95508019841693508086168417925050509392505050565b6000819050919050565b6000613f44613f3f613f3a84612ac6565b613f1f565b612ac6565b9050919050565b6000819050919050565b613f5e83613f29565b613f72613f6a82613f4b565b848454613ecd565b825550505050565b600090565b613f87613f7a565b613f92818484613f55565b505050565b5b81811015613fb657613fab600082613f7f565b600181019050613f98565b5050565b601f821115613ffb57613fcc81613e9b565b613fd584613eb0565b81016020851015613fe4578190505b613ff8613ff085613eb0565b830182613f97565b50505b505050565b600082821c905092915050565b600061401e60001984600802614000565b1980831691505092915050565b6000614037838361400d565b9150826002028217905092915050565b61405082612cc0565b67ffffffffffffffff81111561406957614068612d66565b5b61407382546139a6565b61407e828285613fba565b600060209050601f8311600181146140b1576000841561409f578287015190505b6140a9858261402b565b865550614111565b601f1984166140bf86613e9b565b60005b828110156140e7578489015182556001820191506020850194506020810190506140c2565b868310156141045784890151614100601f89168261400d565b8355505b6001600288020188555050505b505050505050565b600081519050919050565b600082825260208201905092915050565b600061414082614119565b61414a8185614124565b935061415a818560208601612ccb565b61416381612cf5565b840191505092915050565b600060a082019050614183600083018861334b565b614190602083018761334b565b61419d6040830186612ad0565b6141aa6060830185612ad0565b81810360808301526141bc8184614135565b90509695505050505050565b6000815190506141d781612c04565b92915050565b6000602082840312156141f3576141f2612b04565b5b6000614201848285016141c8565b91505092915050565b600060a08201905061421f600083018861334b565b61422c602083018761334b565b818103604083015261423e8186613240565b905081810360608301526142528185613240565b905081810360808301526142668184614135565b90509695505050505050565b6000608082019050614287600083018761334b565b6142946020830186612ad0565b6142a16040830185612ad0565b6142ae6060830184612ad0565b95945050505050565b600060408201905081810360008301526142d18185613240565b905081810360208301526142e58184613240565b9050939250505056fea2646970667358221220d097cd51e626cb2e4bc6542289d62c3977edf114af01939e6b0b6af93c7aa73a64736f6c634300081c0033",
  "linkReferences": {},
  "deployedLinkReferences": {}
}